:020000040800F2
:1000000068070020CD010008090A0008010A00085D
:10001000050A000875020008850F000800000000AE
:10002000000000000000000000000000C90B0008F4
:10003000E908000800000000910A0008DD0C000833
:10004000E7010008E7010008E7010008E7010008F0
:10005000E7010008E7010008E7010008E7010008E0
:10006000E7010008E7010008E7010008E7010008D0
:10007000E7010008E7010008E7010008E7010008C0
:10008000E7010008E7010008E7010008E7010008B0
:10009000650F0008E7010008E7010008E701000814
:1000A000E7010008E7010008E7010008E701000890
:1000B000E7010008E7010008E7010008E701000880
:1000C000E7010008E7010008E7010008E701000870
:1000D000E7010008410D0008E7010008E7010008FA
:1000E000E7010008E7010008E7010008E701000850
:1000F000E7010008E7010008E7010008E701000840
:10010000E7010008E7010008E7010008E70100082F
:10011000E7010008E7010008E7010008E70100081F
:10012000E7010008E7010008E7010008E70100080F
:1001300000F002F800F03AF80AA090E8000C8244BF
:100140008344AAF10107DA4501D100F02FF8AFF29C
:10015000090EBAE80F0013F0010F18BFFB1A43F0A5
:1001600001031847900F0000B00F0000103A24BFA1
:1001700078C878C1FAD8520724BF30C830C144BF0C
:1001800004680C607047000000230024002500264E
:10019000103A28BF78C1FBD8520728BF30C148BFEA
:1001A0000B6070471FB51FBD10B510BD00F033F8D0
:1001B0001146FFF7F7FF00F033FF00F051F803B4EA
:1001C000FFF7F2FF03BC00F0DFFE000009488047A4
:1001D00009480047FEE7FEE7FEE7FEE7FEE7FEE729
:1001E000FEE7FEE7FEE7FEE704480549054A064B41
:1001F00070470000E10C0008310100086801002090
:1002000068070020680300206803002070477047DB
:10021000704770477047754600F028F8AE460500F5
:100220006946534620F00700854618B020B5FFF711
:10023000DBFFBDE820404FF000064FF000074FF015
:1002400000084FF0000B21F00701AC46ACE8C009F4
:10025000ACE8C009ACE8C009ACE8C0098D467047FD
:100260000446AFF300802046FFF7A9FF004870471F
:100270000401002000BFFEE710B500F0FBF800F01D
:10028000B7F900F0D5F800F0DDF910BDF0B585B094
:1002900004460D4616461F4640F2FF10009000200F
:1002A0008DF808008DF8090008208DF80A00200A52
:1002B0008DF80B00E1B28DF80C10290A8DF80D10A5
:1002C000E9B28DF80E10310A8DF80F10F1B28DF8E9
:1002D0001010390A8DF81110F9B28DF81210694614
:1002E000024800F04BFA05B0F0BD00000064004089
:1002F00010B504460B48844209D10121480600F09C
:10030000D9FB00214FF0007000F0D4FB08E0012180
:10031000880600F0CFFB00214FF0806000F0CAFBA0
:1003200010BD00000064004010B50021837A012256
:1003300002FA03F13D4A126842F001023B4B1A6097
:100340003A4A1C3212688A43384B1C331A60027BCB
:10035000CAB9364A0C3212688A43344B0C331A60DD
:100360004288C38842EA0343304A4032847A42F8E2
:1003700034300288838842EA03432C4A4032847A2C
:1003800002EBC4025360027B012A19D1274A0C32C6
:1003900012680A43254B0C331A604288038842EAEC
:1003A0000343224A4032847A42F83430C288838838
:1003B00042EA03431D4A4032847A02EBC40253608E
:1003C000C27A3AB9194A121D12688A43174B1B1D8B
:1003D0001A6006E0154A121D12680A43134B1B1DD2
:1003E0001A60028932B9114A143212688A430F4BDB
:1003F00014331A600289012A06D10C4A1432126899
:100400000A430A4B14331A60427B012A06D1074A79
:100410001C3212680A43054B1C331A60034A1268E7
:1004200022F00102014B1A6010BD0000006600407E
:100430001FB500208DF80A008DF80B0001208DF803
:100440000C000020ADF80000ADF80200ADF804008B
:10045000ADF80600ADF8080001208DF80D006846E3
:10046000FFF762FF01220221014800F02DF81FBDB5
:100470000064004008B50121092000F02BFB012198
:10048000480600F007FB0121042000F023FB4FF495
:100490008050ADF8000003208DF8020018208DF880
:1004A00003006946074800F020FA4FF40060ADF8F9
:1004B000000048208DF803006946024800F015FA54
:1004C00008BD0000000801401AB143690B434361B5
:1004D00002E043698B434361704730B50246002018
:1004E0000023146824F002041460146844F001042A
:1004F000146000E05B1C546804F001041CB94FF662
:10050000FF74A342F6D1546804F001040CB9002032
:100510006CE08C79012C04D1146844F080041460E0
:1005200003E0146824F080041460CC79012C04D119
:10053000146844F04004146003E0146824F040049C
:1005400014600C7A012C04D1146844F02004146067
:1005500003E0146824F0200414604C7A012C04D1C8
:10056000146844F01004146003E0146824F01004CC
:1005700014608C7A012C04D1146844F008041460CF
:1005800003E0146824F008041460CC7A012C04D130
:10059000146844F00404146003E0146824F00404B4
:1005A00014608C78A407CD7844EA05640D7944EA98
:1005B00005444D7944EA05540D886D1E2C43D461E1
:1005C000146824F001041460002300E05B1C5468EC
:1005D00004F001041CB14FF6FF74A342F6D1546835
:1005E00004F001040CB1002000E0012030BD000047
:1005F0000EB51348FFF77CFE684600F0AFF8002008
:100600008DF806008DF807008DF8080001208DF8A0
:10061000090000208DF80A008DF80B008DF802000B
:100620008DF8030002208DF8040004208DF80500E9
:10063000ADF8000069460248FFF74FFF0EBD00000D
:100640000064004008B54FF4C06000F017FA1420B1
:100650008DF8000000208DF801008DF802000120C7
:100660008DF80300684600F0D1F908BD10B500F51B
:10067000D87303EB01131B6803F004031372137A9E
:1006800053B900F5D87303EB01131B6840F2FF74F4
:1006900004EA5353136009E000F5D87303EB011328
:1006A0001B686FF0604404EAD303536000F5D8730D
:1006B00003EB01131B6803F00203537200F5D873B8
:1006C00003EB01135B6803F00F03937200F5D8731B
:1006D00003EB01135B681B0AD37400F5D87303EBBB
:1006E00001139B68D37200F5D87303EB01139B6869
:1006F0001C0A147300F5D87303EB01139B681C0CE0
:10070000547300F5D87303EB01139B681B0E9373AE
:1007100000F5D87303EB0113DB68D37300F5D873CE
:1007200003EB0113DB681C0A147400F5D87303EBA8
:100730000113DB681C0C547400F5D87303EB011330
:10074000DB681B0E937421B9C36843F02003C360B8
:1007500003E0036943F02003036110BD00218171B0
:10076000C171017241728172C1728170C1700321C5
:1007700001710221417101210180704710B50246CB
:100780000020936803F08063B3F1806F00D110E024
:10079000936803F00063B3F1006F01D1012008E01A
:1007A000936803F08053B3F1805F01D1022000E031
:1007B0000420042874D002F5C07303EB00131B68F7
:1007C00003F0010402F5C07303EB00131C600B7A05
:1007D0007BB94B7A0C8843EA445302F5C07404EBAE
:1007E00000142468234302F5C07404EB0014236052
:1007F00010E00B7A4C6843EAC4034C7A234302F5B9
:10080000C07404EB00142468234302F5C07404EBA5
:10081000001423608B7A03F00F038B7202F5C07310
:1008200003EB00135B6823F00F0402F5C07303EBC6
:1008300000135C6002F5C07303EB00135B688C7AF5
:10084000234302F5C07404EB001463608B7B1C0629
:100850004B7B44EA03440B7B44EA0323CC7A2343D7
:1008600002F5C07404EB0014A3608B7C1C064B7C67
:1008700044EA03440B7C44EA0323CC7B234302F584
:10088000C07404EB0014E36002F5C07303EB0013C3
:100890001B6843F0010402F5C07303EB00131C60F6
:1008A00010BD0000017BC27A41EA022109B20A4A66
:1008B0001180827B417B42EA012109B2074A118003
:1008C000027CC17B42EA012109B2054A1180417CC8
:1008D000044A1180704700003200002034000020DC
:1008E000360000203800002070472DE9F041024614
:1008F00000250026002000230024002791F803C0D3
:100900000CF00F0591F803C00CF0100CBCF1000FB7
:1009100003D091F802C04CEA050591F800C0BCF183
:10092000000F31D0146800202BE04FF0010C0CFABE
:1009300000F3B1F800C00CEA03069E4220D1830008
:100940004FF00F0C0CFA03F7BC4305FA03FC4CEA1A
:10095000040491F803C0BCF1280F06D14FF0010C3C
:100960000CFA00FCC2F814C00AE091F803C0BCF114
:10097000480F05D14FF0010C0CFA00FCC2F810C072
:10098000401C0828D1D31460B1F800C0BCF1FF0F9F
:1009900034DD546800202EE000F1080C4FF001080F
:1009A00008FA0CF3B1F800C00CEA03069E4221D10C
:1009B00083004FF00F0C0CFA03F7BC4305FA03FC5D
:1009C0004CEA040491F803C0BCF1280F05D100F1F2
:1009D000080C08FA0CF8C2F8148091F803C0BCF1B6
:1009E000480F07D100F1080C4FF0010808FA0CF885
:1009F000C2F81080401C0828CED35460BDE8F081B6
:100A000000BFFEE700BFFEE77047000070B50021A1
:100A100000230F22C47804B3154C246804F4E06466
:100A2000C4F5E064210AC1F10403CA40447804FA21
:100A300003F184781440214309010E4C0678A15536
:100A4000047804F01F050124AC4005786D11AD0059
:100A500005F1E025C5F8004109E0047804F01F0520
:100A60000124AC40044D0678761145F8264070BD4F
:100A70000CED00E000E400E080E100E00249014309
:100A8000024A1160704700000000FA050CED00E01A
:100A90007047000029B1064AD2690243044BDA616B
:100AA00004E0034AD2698243014BDA6170470000D7
:100AB0000010024029B1064A12690243044B1A6130
:100AC00004E0034A12698243014B1A617047000037
:100AD0000010024029B1064A92690243044B9A6110
:100AE00004E0034A92698243014B9A617047000017
:100AF0000010024030B500210022002400232D4DBB
:100B00006D6805F00C0121B1042905D0082923D115
:100B100005E0294D056022E0274D05601FE0254DC9
:100B20006D6805F47012234D6D6805F4803402255C
:100B300005EB92421CB9214D554305600BE01D4D5C
:100B40006D6805F400351DB11C4D5543056002E08C
:100B5000194D5543056002E0174D056000BF00BF09
:100B6000144D6D6805F0F0010909154D6B5C0568C1
:100B7000DD4045600F4D6D6805F4E061090A104DD8
:100B80006B5C4568DD4085600A4D6D6805F4605119
:100B9000C90A0B4D6B5C4568DD40C560054D6D684D
:100BA00005F44041890B074D6B5CC568B5FBF3F557
:100BB000056130BD0010024000127A0000093D00BE
:100BC0001E0000202E000020704710B500F002F833
:100BD00010BD00000CB50020019000903348006863
:100BE00040F480303149086000BF3048006800F4AC
:100BF000003000900198401C0190009818B90198AD
:100C0000B0F5A06FF1D12948006800F4003010B1B0
:100C10000120009001E0002000900098012843D1BD
:100C20002348006840F01000214908600846006829
:100C300020F0030008600846006840F002000860E9
:100C40001A484068194948600846406848600846A4
:100C5000406840F4806048600846406820F47C109A
:100C600048600846406840F4E8104860084600685C
:100C700040F08070086000BF0C48006800F0007011
:100C80000028F9D00948406820F00300074948606F
:100C90000846406840F00200486000BF03484068D2
:100CA00000F00C000828F9D10CBD00000010024033
:100CB00000200240042808D14FF0E021096941F0EA
:100CC00004014FF0E022116107E04FF0E0210969D3
:100CD00021F004014FF0E0221161704770470000DD
:100CE00010B51348006840F001001149086008463B
:100CF0004068104908400E494860084600680E499F
:100D000008400B4908600846006820F4802008600D
:100D10000846406820F4FE0048604FF41F008860D9
:100D2000FFF753FF4FF000600449086010BD00005A
:100D3000001002400000FFF8FFFFF6FE08ED00E0A3
:100D400010B540F225511D4800F04AF810B31B4879
:100D500000F002F9C4B21A48008800F40040C8B993
:100D60001748008800F4804060B10A2C03D00020AE
:100D70001349088020E01248008840F400401049E0
:100D8000088019E00D2C06D10D48008840F4804001
:100D90000B49088010E00A480088C0F30D0009499B
:100DA0000C5407480088401C054908800846008804
:100DB000C72801DD0020088010BD00000038014078
:100DC0001C0000203C00002021B1828942F4005226
:100DD000828104E082894DF6FF731A408281704758
:100DE00070B50246002400230025002040F66A1654
:100DF000B14200D100BFC1F3421501F01F0301262B
:100E000006FA03F3012D02D19689334006E0022D44
:100E100002D1168A334001E0968A33400C12012633
:100E200006FA04F41688344013B10CB1012000E036
:100E3000002070BDF0B503460024002600250020E8
:100E400040F66A17B94200D100BF1846C1F34214F8
:100E500001F01F06012707FA06F5012C01D10C301D
:100E600004E0022C01D1103000E014301AB1076800
:100E70002F43076002E00768AF430760F0BD000042
:100E80002DE9F04786B005460E460024A24600BF75
:100E9000A1460027B08900B100BF2F462C8A4CF62E
:100EA000FF700440F08804432C82AC894EF6F310A6
:100EB0000440B08831890843718908430443AC81F8
:100EC000AC8A4FF6FF400440B0890443AC8201A8CD
:100ED000FFF710FE1F48874202D1DDF810A001E0A5
:100EE000DDF80CA0A88900F4004040B10AEBCA006C
:100EF00000EB0A1031684900B0FBF1F807E00AEB9B
:100F0000CA0000EB0A1031688900B0FBF1F86420D8
:100F1000B8FBF0F004012009642101FB1089A889C5
:100F200000F4004040B1322000EBC900B0FBF1F00A
:100F300000F00700044308E0322000EB09106421B0
:100F4000B0FBF1F000F00F0004432C8106B0BDE8C7
:100F5000F08700000038014001468888C0F308008F
:100F60007047000010B586B0002401AA0021044893
:100F7000FFF77CFB01A8FFF795FC06B010BD000051
:100F80000064004000BFFEE7014600BF704700005C
:100F900010B56FF00400FFF78DFE0A4800680A499B
:100FA000B0FBF1F0094908700846007800EB4001F9
:100FB000C1EBC0104FF6FF7101EAC0000449088080
:100FC00010BD00000000002000127A001400002074
:100FD000160000200146114A12884A434FF0E023D0
:100FE0005A6100229A611A46126942F001021A619E
:100FF00000BF4FF0E022106900F001021AB100F4C6
:101000008032002AF5D04FF0E022126922F001026E
:101010004FF0E0231A6100229A6170471600002009
:1010200000BF4FF4A060FFF729FDFFF7B1FF4FF4B9
:10103000E13000F00FF8FFF71FF90AE000231A462D
:1010400019464FF47A70FFF721F94FF4FA70FFF761
:10105000C1FFF3E710B586B00446012144F2040055
:10106000FFF738FD4FF40070ADF8140003208DF841
:10107000160018208DF8170005A91C48FFF735FC4D
:101080004FF48060ADF8140004208DF8170005A916
:101090001648FFF72AFC25208DF8000003208DF864
:1010A00001008DF8020001208DF803006846FFF76B
:1010B000ADFC01940020ADF80800ADF80A00ADF8D1
:1010C0000C00ADF810000C20ADF80E0001A9084886
:1010D000FFF7D6FE012240F225510548FFF7AAFE90
:1010E00001210348FFF770FE06B010BD0008014063
:1010F0000038014014110008000000203C000000EE
:101100006C010008501100083C0000202C07000072
:101110008801000800A24A0400000000000000004E
:101120000102030406070809000000000000000097
:10113000000000000000010203040102030406078E
:10114000080902040608000000000000000000007A
:04000005080001CD21
:00000001FF
