:020000040800F2
:10000000D0060020CD010008C50D00086F050008CE
:10001000C10D0008AD030008C5160008000000006F
:10002000000000000000000000000000691100084E
:10003000B1030008000000004D0E00087D1200080A
:10004000E7010008E7010008E7010008E7010008F0
:10005000E7010008E7010008E7010008E7010008E0
:10006000E7010008E7010008E7010008E7010008D0
:10007000E7010008E7010008E7010008E7010008C0
:10008000E7010008E7010008E7010008E7010008B0
:10009000E7010008E7010008E7010008E7010008A0
:1000A000E7010008E7010008E7010008E701000890
:1000B000E7010008E1120008E7010008E701000875
:1000C000E7010008E7010008E7010008E701000870
:1000D000E701000885140008E7010008E7010008AF
:1000E000E7010008E7010008E7010008E701000850
:1000F000E7010008E7010008E7010008E701000840
:10010000E7010008E7010008E7010008E70100082F
:10011000E7010008E7010008E7010008E70100081F
:10012000E7010008E7010008E7010008E70100080F
:1001300000F002F800F03AF80AA090E8000C8244BF
:100140008344AAF10107DA4501D100F02FF8AFF29C
:10015000090EBAE80F0013F0010F18BFFB1A43F0A5
:10016000010318472017000040170000103A24BF71
:1001700078C878C1FAD8520724BF30C830C144BF0C
:1001800004680C607047000000230024002500264E
:10019000103A28BF78C1FBD8520728BF30C148BFEA
:1001A0000B6070471FB51FBD10B510BD00F0CEF835
:1001B0001146FFF7F7FF01F0F7FA00F0ECF803B48F
:1001C000FFF7F2FF03BC01F07FFA00000948804707
:1001D00009480047FEE7FEE7FEE7FEE7FEE7FEE729
:1001E000FEE7FEE7FEE7FEE704480549054A064B41
:1001F000704700008112000831010008D000002083
:10020000D0060020D0020020D0020020704710B598
:100210004C1084EA530404D54042C1F1000138BFB8
:10022000491E1B4204D55242C3F1000338BF5B1E76
:1002300000F015F814F0804F04D04042C1F10001E5
:1002400038BF491E14F0004F04D05242C3F10003DE
:1002500038BF5B1E10BD704770477047704753EA48
:10026000020C00F069802DE9F04B4FF00006002BE6
:100270001FBFB3FA83F503FA05F424FA05F65E40CE
:1002800012BF1643B2FA82F502FA05F4C5F1200551
:100290001EBF22FA05FC44EA0C04203556EA044C41
:1002A0004FEA144418BF641C4FF000084FF00009D7
:1002B000904271EB030C39D3002919BFB1FA81F7D1
:1002C00001FA07F6B0FA80F700FA07F6C7F120073F
:1002D0001EBF20FA07FC46EA0C062037B6FBF4FCEA
:1002E000A7EB0507103F07F01F0BCBF120060CFA18
:1002F0000BFB2CFA06F644BFB3460026202FA4BF02
:100300005E464FF0000B5BEA060C08BF4FF0010B96
:1003100019EB0B09ABFB027C48EB0608C01B06FB84
:1003200002CC0BFB03CC71EB0C01C1E70B46024680
:1003300041464846BDE8F08B13B54FF000004FF042
:100340000001AFF30080BDE81C407047754600F027
:1003500029F8AE4605006946534620F00700854659
:1003600018B020B5FFF740FFBDE820404FF0000671
:100370004FF000074FF000084FF0000B21F007018D
:10038000AC46ACE8C009ACE8C009ACE8C009ACE8D0
:10039000C0098D4670470446AFF300802046FFF742
:1003A0000EFF0000004870476C00002000BFFEE711
:1003B00070472DE9F0410246002500260020002369
:1003C0000024002791F803C00CF00F0591F803C03A
:1003D0000CF0100CBCF1000F03D091F802C04CEAF5
:1003E000050591F800C0BCF1000F31D01468002061
:1003F0002BE04FF0010C0CFA00F3B1F800C00CEA4E
:1004000003069E4220D183004FF00F0C0CFA03F735
:10041000BC4305FA03FC4CEA040491F803C0BCF1A8
:10042000280F06D14FF0010C0CFA00FCC2F814C0E2
:100430000AE091F803C0BCF1480F05D14FF0010C60
:100440000CFA00FCC2F810C0401C0828D1D314607C
:10045000B1F800C0BCF1FF0F34DD546800202EE07D
:1004600000F1080C4FF0010808FA0CF3B1F800C0D5
:100470000CEA03069E4221D183004FF00F0C0CFAC8
:1004800003F7BC4305FA03FC4CEA040491F803C0EB
:10049000BCF1280F05D100F1080C08FA0CF8C2F8DD
:1004A000148091F803C0BCF1480F07D100F1080C8B
:1004B0004FF0010808FA0CF8C2F81080401C082818
:1004C000CED35460BDE8F081F0B50A460023002485
:1004D0000021002500F00046B6F1004F02D11D4E6C
:1004E000F16901E01B4E7168C0F3034583B200F46B
:1004F0004016B6F5401F08D121F07061154E7668A0
:1005000026F07066134F7E6012E000F48016B6F598
:10051000801F06D1032606FA05F4A14341F070615D
:1005200006E0460D360103FA06F6B14341F070616C
:1005300022B1460D360103FA06F6314300F00046BB
:10054000B6F1004F02D1034EF16101E0014E71603E
:10055000F0BD0000000001400246002093680B40FF
:100560000BB1012000E0002070470161704700BF1F
:10057000FEE7000010B500F041FB922000F00AFBFE
:1005800000F088FB012000F005FB00F083FB422017
:1005900000F000FB00F07EFBE32000F0FBFA00F02F
:1005A00079FB00F051FB00F029FB922000F0F2FAF9
:1005B00000F070FB002000F0EDFA00F06BFB00F0A3
:1005C00043FB00F01BFB932000F0E4FA00F062FB19
:1005D000012000F0A7FAFE490870012000F0A2FAFD
:1005E000FC49087000F030FBF9480078F9490978B7
:1005F00001EB0020F849F94A127841F82200002066
:10060000F6490870022001F083F800F0F7FA922012
:1006100000F0C0FA00F03EFB012000F0BBFA00F051
:1006200039FB522000F0B6FA00F034FBE32000F072
:10063000B1FA00F02FFB00F007FB00F0DFFA922088
:1006400000F0A8FA00F026FB002000F0A3FA00F06A
:1006500021FB00F0F9FA00F0D1FA932000F09AFAA9
:1006600000F018FB012000F05DFAD9490870012064
:1006700000F058FAD749087000F0E6FAD44800783C
:10068000D449097801EB0020D349D44A127841F8C3
:1006900022000120D1490870022001F039F800F051
:1006A000ADFA922000F076FA00F0F4FA012000F0A2
:1006B00071FA00F0EFFA622000F06CFA00F0EAFA4A
:1006C000E32000F067FA00F0E5FA00F0BDFA00F070
:1006D00095FA922000F05EFA00F0DCFA002000F0BB
:1006E00059FA00F0D7FA00F0AFFA00F087FA932039
:1006F00000F050FA00F0CEFA012000F013FAB449ED
:100700000870012000F00EFAB249087000F09CFA5F
:10071000AF480078AF49097801EB0020AE49AF4AF5
:10072000127841F822000220AC49087000F0F0FF76
:1007300000F064FA922000F02DFA00F0ABFA0120EC
:1007400000F028FA00F0A6FA722000F023FA00F078
:10075000A1FAE32000F01EFA00F09CFA00F074FA0F
:1007600000F04CFA922000F015FA00F093FA002005
:1007700000F010FA00F08EFA00F066FA00F03EFA8F
:10078000932000F007FA00F085FA012000F0CAF982
:100790008F490870012000F0C5F98E49087000F0FB
:1007A00053FA8B4800788B49097801EB00218A487D
:1007B0008A4A127840F822100320884908700220E3
:1007C00000F0A6FF00F01AFA902000F0E3F900F024
:1007D00061FA012000F0DEF900F05CFA422000F03E
:1007E000D9F900F057FAE32000F0D4F900F052FAFA
:1007F00000F02AFA00F002FA902000F0CBF900F0A5
:1008000049FA002000F0C6F900F044FA00F01CFAA2
:1008100000F0F4F9912000F0BDF900F03BFA01205E
:1008200000F080F96A490870012000F07BF96949FD
:10083000087000F009FA664800786649097801EB0B
:100840000021654A66480078001D42F8201000200B
:1008500063490870022000F05BFF00F0CFF99020A0
:1008600000F098F900F016FA012000F093F900F07A
:1008700011FA522000F08EF900F00CFAE32000F09B
:1008800089F900F007FA00F0DFF900F0B7F99020DD
:1008900000F080F900F0FEF9002000F07BF900F094
:1008A000F9F900F0D1F900F0A9F9912000F072F9FE
:1008B00000F0F0F9012000F035F9454908700120F9
:1008C00000F030F94349087000F0BEF94048007864
:1008D0004049097801EB00213F4A41480078001D5A
:1008E00042F8201001203E490870022000F010FF5D
:1008F00000F084F9902000F04DF900F0CBF90120D0
:1009000000F048F900F0C6F9622000F043F900F069
:10091000C1F9E32000F03EF900F0BCF900F094F9D1
:1009200000F06CF9902000F035F900F0B3F90020E8
:1009300000F030F900F0AEF900F086F900F05EF951
:10094000912000F027F900F0A5F9012000F0EAF865
:100950001F490870012000F0E5F81E49087000F0FA
:1009600073F91B4800781B49097801EB00211A4AEA
:100970001B480078001D42F820100220184908701A
:1009800000F0C6FE00F03AF9902000F003F900F004
:1009900081F9012000F0FEF800F07CF9722000F0EF
:1009A000F9F800F077F9E32000F0F4F800F072F9BC
:1009B00000F04AF900F022F9902000F0EBF800F086
:1009C00069F9002000F0E6F800F064F90AE00000A0
:1009D0000000002001000020040000200200002090
:1009E0000300002000F030F900F008F9912000F039
:1009F000D1F800F04FF9012000F094F80D4908708B
:100A0000012000F08FF80C49087000F01DF909482A
:100A100000780949097801EB0021084A0848007864
:100A2000001D42F82010032005490870022000F044
:100A30006FFE10BD00000020010000200400002017
:100A40000300002010B500200F4908600F4800681F
:100A500020F070400D4908600846006840F04050A2
:100A6000086000200A49C1F89C01022000F076FECF
:100A7000012005490860022000F070FE00200449B2
:100A8000C1F8980110BD000098812142000C01407E
:100A90000080214208B50121082000F0E9F9C020BA
:100AA000ADF8000014208DF8030003208DF802003B
:100AB00069460548FFF77DFC0120044908600449A8
:100AC000C1F89C0108BD0000000C01409881214242
:100AD0000080214210B500200F4908600F480068CF
:100AE00020F070400D4908600846006840F0405012
:100AF000086001200A49C1F89C01022000F02EFE86
:100B0000012005490860022000F028FE0020044969
:100B1000C1F8980110BD000098812142000C0140ED
:100B20000080214270B5054600241748006820F077
:100B30007040154908600846006840F000400860B1
:100B4000002616E0002011490860022000F006FE91
:100B500001200F49C1F898016006040E0B487C384B
:100B6000006808B1601CC4B2012000F0F7FD701CE1
:100B7000C6B2082EE6DB15B9FFF7ACFF01E0FFF7C0
:100B800061FF204670BD0000000C014098812142A9
:100B90000080214270B504461548006820F070407E
:100BA000134908600846006840F040500860002083
:100BB00010490860002517E0E0090E49091D08608A
:100BC0006006040E022000F0C9FD01200A49C1F8A8
:100BD0009801022000F0C2FD0020064908600220B2
:100BE00000F0BCFD681CC5B2082DE5DB70BD00003F
:100BF000000C0140988121420080214210B50F482D
:100C0000006820F070400D4908600846006840F018
:100C10004050086001200A4908600A49C1F898015B
:100C2000042000F09BFD002005490860042000F02E
:100C300095FD00200349C1F8980110BD000C01404A
:100C40009C8121420080214210B50F48006820F0AD
:100C500070400D4908600846006840F04050086048
:100C600000200A4908600A49C1F89C01042000F0EC
:100C700075FD0120054908600549C1F89C01042063
:100C800000F06CFD10BD0000000C01409881214275
:100C90000080214210B500241448006820F0704004
:100CA000124908600846006840F0004008600120D2
:100CB0000F49086000F052FD01200E49C1F898016B
:100CC00000F04CFD07E0601CC4B2FA2C03DDFFF716
:100CD000BBFF012010BD0648803800680028F2D113
:100CE0000349091F086000BFF4E70000000C014041
:100CF0009C8121420080214208B50121084600F074
:100D0000B7F801211548FFF7DFFB01211448FFF771
:100D1000DBFB0121042000F0ABF849F6FF10ADF831
:100D2000000028208DF8030003208DF8020069469A
:100D30000C48FFF73EFB0121082000F099F84FF422
:100D40004070ADF8000028208DF8030003208DF8D6
:100D5000020069460448FFF72CFB08BD0004300080
:100D60000002300000080140000C014008B50121DC
:100D7000082000F07DF84FF47040ADF8000010201E
:100D80008DF8030003208DF8020069460B48FFF739
:100D900010FB4FF480510948FFF7E7FB4FF4005177
:100DA0000648FFF7E2FB4FF480410448FFF7DDFB04
:100DB0004FF400410148FFF7D8FB08BD000C01408B
:100DC00000BFFEE77047000070B5002100230F222E
:100DD000C47804B3154C246804F4E064C4F5E064FA
:100DE000210AC1F10403CA40447804FA03F184786B
:100DF0001440214309010E4C0678A155047804F0F3
:100E00001F050124AC4005786D11AD0005F1E0250A
:100E1000C5F8004109E0047804F01F050124AC4046
:100E2000044D0678761145F8264070BD0CED00E0C3
:100E300000E400E080E100E002490143024A116061
:100E4000704700000000FA050CED00E0704700005C
:100E500029B1064AD2690243044BDA6104E0034A2D
:100E6000D2698243014BDA617047000000100240F2
:100E700029B1064A92690243044B9A6104E0034A8D
:100E800092698243014B9A61704700000010024052
:100E900030B500210022002400232D4D6D6805F09F
:100EA0000C0121B1042905D0082923D105E0294DE1
:100EB000056022E0274D05601FE0254D6D6805F4B3
:100EC0007012234D6D6805F48034022505EB9242C3
:100ED0001CB9214D554305600BE01D4D6D6805F4AF
:100EE00000351DB11C4D5543056002E0194D5543B9
:100EF000056002E0174D056000BF00BF144D6D682E
:100F000005F0F0010909154D6B5C0568DD40456091
:100F10000F4D6D6805F4E061090A104D6B5C456882
:100F2000DD4085600A4D6D6805F46051C90A0B4DBE
:100F30006B5C4568DD40C560054D6D6805F440415A
:100F4000890B074D6B5CC568B5FBF3F5056130BDDA
:100F50000010024000127A0000093D004800002005
:100F60005800002010B501217C48FFF7F5FA012850
:100F700002D17B49087007E001217848FFF7ECFABD
:100F800010B900207649087002217448FFF7E4FA8E
:100F9000012802D17249487007E002216F48FFF72B
:100FA000DBFA10B900206E49487004216B48FFF746
:100FB000D3FA012802D16A49887007E00421674802
:100FC000FFF7CAFA10B90020654988700821634804
:100FD000FFF7C2FA012802D16149C87007E0082171
:100FE0005E48FFF7B9FA10B900205D49C8701021BA
:100FF0005A48FFF7B1FA012802D15949087107E0B0
:1010000010215648FFF7A8FA10B90020544908717A
:1010100020215248FFF7A0FA012802D15049487117
:1010200007E020214D48FFF797FA10B900204C49FE
:10103000487140214948FFF78FFA012802D14849F9
:10104000887107E040214548FFF786FA10B9002073
:101050004349887180214148FFF77EFA012802D177
:101060003F49C87107E080213C48FFF775FA10B985
:1010700000203B49C8714FF480713848FFF76CFA83
:10108000012802D13649087208E04FF480713348D4
:10109000FFF762FA10B90020314908724FF400617D
:1010A0002E48FFF759FA012802D12D49487208E06D
:1010B0004FF400612948FFF74FFA10B90020284982
:1010C00048724FF480512548FFF746FA012802D1B3
:1010D0002349887208E04FF480512048FFF73CFA1A
:1010E00010B900201E4988724FF400411B48FFF7D9
:1010F00033FA012802D11A49C87208E04FF40041BE
:101100001648FFF729FA10B900201549C8724FF4A4
:1011100080711448FFF720FA012802D110490873A2
:1011200008E04FF480710F48FFF716FA10B900205D
:101130000B4908734FF400710A48FFF70DFA0128B4
:1011400002D10749487308E04FF400710548FFF7E2
:1011500003FA10B900200249487310BD000801408D
:101160005C000020000C0140704710B500F002F850
:1011700010BD00000CB500200190009033480068BD
:1011800040F480303149086000BF3048006800F406
:10119000003000900198401C0190009818B9019807
:1011A000B0F5A06FF1D12948006800F4003010B10B
:1011B0000120009001E0002000900098012843D118
:1011C0002348006840F01000214908600846006884
:1011D00020F0030008600846006840F00200086044
:1011E0001A484068194948600846406848600846FF
:1011F000406840F4806048600846406820F47C10F5
:1012000048600846406840F4E810486008460068B6
:1012100040F08070086000BF0C48006800F000706B
:101220000028F9D00948406820F0030007494860C9
:101230000846406840F00200486000BF034840682C
:1012400000F00C000828F9D10CBD0000001002408D
:1012500000200240042808D14FF0E021096941F044
:1012600004014FF0E022116107E04FF0E02109692D
:1012700021F004014FF0E022116170477047000037
:1012800010B51348006840F0010011490860084695
:101290004068104908400E494860084600680E49F9
:1012A00008400B4908600846006820F48020086068
:1012B0000846406820F4FE0048604FF41F00886034
:1012C000FFF753FF4FF000600449086010BD0000B5
:1012D000001002400000FFF8FFFFF6FE08ED00E0FE
:1012E00010B501210F4800F060F8C8B16422002356
:1012F0000D4903C9FEF78BFF00214A404B401A43BA
:1013000001D1FFF72FFE0121064800F03FF8064803
:10131000D0E90010491C40F10000034AC2E9001066
:1013200010BD000000040040400000207FB50546CD
:101330000C4601210220FFF78BFDADF80850ADF8F7
:1013400004400020ADF80A00ADF8060001A90E48DF
:1013500000F046F8012211460B4800F037F81D2036
:101360008DF8000000208DF8010003208DF80200A8
:1013700001208DF803006846FFF726FD0121024891
:1013800000F007F87FBD000000040040CA4302825D
:10139000704721B1028842F00102028004E0028815
:1013A0004FF6FE731A400280704730B502460020A7
:1013B00000230024158A05EA0103958905EA010442
:1013C00013B10CB1012000E0002030BD1AB18389B7
:1013D0000B43838102E083898B4383817047000044
:1013E000002202881D4B98420ED01D4B98420BD014
:1013F000B0F1804F08D01B4B984205D01A4B984251
:1014000002D01A4B984204D14FF68F731A404B8882
:101410001A43174B984207D0164B984204D04FF608
:10142000FF431A40CB881A4302808B8883850B8840
:1014300003850A4B98420BD0094B984208D00E4BBB
:10144000984205D00D4B984202D00D4B984201D1E5
:101450000B7A03860123838270470000002C014031
:10146000003401400004004000080040000C00402F
:1014700000100040001400400040014000440140C2
:1014800000480140704721B1828942F400528281B4
:1014900004E082894DF6FF731A408281704702464C
:1014A0000020B1F5007F00D100BF13880B400BB1C5
:1014B000012000E0002070472DE9F04786B0054686
:1014C0000E460024A24600BFA1460027B08900B105
:1014D00000BF2F462C8A4CF6FF700440F08804436E
:1014E0002C82AC894EF6F3100440B0883189084351
:1014F000718908430443AC81AC8A4FF6FF40044035
:10150000B0890443AC8201A8FFF7C2FC1F488742A0
:1015100002D1DDF810A001E0DDF80CA0A88900F4EC
:10152000004040B10AEBCA0000EB0A1031684900E4
:10153000B0FBF1F807E00AEBCA0000EB0A103168D3
:101540008900B0FBF1F86420B8FBF0F00401200939
:10155000642101FB1089A88900F4004040B13220C9
:1015600000EBC900B0FBF1F000F00700044308E015
:10157000322000EB09106421B0FBF1F000F00F0005
:1015800004432C8106B0BDE8F0870000003801401C
:10159000C1F30802828070472DE9F04106460C46EF
:1015A0000A214748FFF7F4FF00BF80214448FFF7B6
:1015B00076FF0028F9D00D214148FFF7E9FF00BF71
:1015C00080213F48FFF76BFF0028F9D000251DE080
:1015D00036F82500C0F3072739463948FFF7D8FF0A
:1015E00000BF80213648FFF75AFF0028F9D016F8CF
:1015F000257039463248FFF7CBFF00BF80213048C5
:10160000FFF74DFF0028F9D0681CC5B2082DDFDBBD
:101610002078C101607801EB8011A07801EB4011C6
:10162000E07801EB0011207901EBC001607901EB5A
:101630008001A07901EB4001E0790844C7B2394646
:101640001F48FFF7A5FF00BF80211D48FFF727FFB8
:101650000028F9D0207AC101607A01EB8011A07ACC
:1016600001EB4011E07A01EB0011207B01EBC0019E
:10167000607B01EB8000C01CC7B239461048FFF701
:1016800087FF00BF80210E48FFF709FF0028F9D02F
:101690000D210B48FFF77CFF00BF80210848FFF7B2
:1016A000FEFE0028F9D00A210548FFF771FF00BFB0
:1016B00080210348FFF7F3FE0028F9D0BDE8F08150
:1016C0000038014000BFFEE700BF704710B56FF063
:1016D0000400FFF7BFFD0A4800680A49B0FBF1F0BB
:1016E000094908700846007800EB4001C1EBC010C2
:1016F0004FF6FF7101EAC0000449088010BD0000E8
:101700002400002000127A00380000203A00002057
:101710000146114A12884A434FF0E0235A610022E1
:101720009A611A46126942F001021A6100BF4FF035
:10173000E022106900F001021AB100F48032002AA0
:10174000F5D04FF0E022126922F001024FF0E023C1
:101750001A6100229A6170473A0000200146114A3E
:1017600012784A434FF0E0235A6100229A611A46E8
:10177000126942F001021A6100BF4FF0E0221069C5
:1017800000F001021AB100F48032002AF5D04FF0C7
:10179000E022126922F001024FF0E0231A610022D8
:1017A0009A617047380000204FF4A060FFF744FBB7
:1017B000FFF78CFFFFF7A0FAFFF7D8FA4FF4E130FC
:1017C00000F016F8FFF766F9472140F2E730FFF71F
:1017D000ADFD08E0FEF7CEFE03490448FFF7DCFE4E
:1017E0001420FFF795FFF5E75C00002004000020BF
:1017F00010B586B00446012144F20400FFF738FB1F
:101800004FF40070ADF8140003208DF81600182076
:101810008DF8170005A91948FEF7CBFD4FF480603D
:10182000ADF8140004208DF8170005A91348FEF741
:10183000C0FD25208DF8000003208DF801008DF8F3
:10184000020001208DF803006846FFF7BDFA0194FD
:101850000020ADF80800ADF80A00ADF80C00ADF8B6
:1018600010000820ADF80E0001A90548FFF724FE7E
:1018700001210348FFF707FE06B010BD0008014034
:1018800000380140A4180008000000205C0000009F
:101890006C010008001900085C00002074060000BC
:1018A0008801000800000000D4300000D43000009F
:1018B000D4300000D4300000D4300000D430000018
:1018C000D4300000D430000000A24A040000000020
:1018D00000000000010203040607080900000000E0
:1018E00000000000000000000000000000000000F8
:1018F00001020304010203040607080902040608A2
:04000005080001CD21
:00000001FF
