:020000040800F2
:10000000D8060020D5010008CD0E0008EB06000838
:10001000C90E0008BD0500084914000800000000D2
:10002000000000000000000000000000691100084E
:10003000C105000800000000550F00087D120008EF
:10004000EF010008EF010008EF010008EF010008D0
:10005000EF010008EF010008EF010008EF010008C0
:10006000EF010008EF010008EF010008EF010008B0
:10007000EF010008EF010008EF010008EF010008A0
:10008000EF010008EF010008EF010008EF01000890
:10009000EF010008EF010008EF010008EF01000880
:1000A000EF010008EF010008EF010008EF01000870
:1000B000EF010008E1120008EF010008EF0100085D
:1000C000EF010008EF010008EF010008EF01000850
:1000D000EF01000855130008EF010008EF010008C8
:1000E000EF010008EF010008EF010008EF01000830
:1000F000EF010008EF010008EF010008EF01000820
:10010000EF010008EF010008EF010008EF0100080F
:10011000EF010008EF010008EF010008EF010008FF
:10012000EF010008EF010008EF010008EF010008EF
:1001300000F002F800F03FF80AA090E8000C8244BA
:100140008344AAF10107DA4501D100F034F8AFF297
:10015000090EBAE80F0013F0010F18BFFB1A43F0A5
:1001600001031847D4140000F4140000103A24BF0F
:1001700078C878C1FAD8520724BF30C830C144BF0C
:1001800004680C607047000000230024002500264E
:10019000103A28BF78C1FBD8520728BF30C148BFEA
:1001A0000B607047642900F09B80002070471FB5EA
:1001B0001FBD10B510BD00F0D1F91146FFF7F7FFD4
:1001C00001F0C2F900F0EFF903B4FFF7F2FF03BC4E
:1001D00001F03CF90948804709480047FEE7FEE77F
:1001E000FEE7FEE7FEE7FEE7FEE7FEE7FEE7FEE7E7
:1001F00004480549054A064B704700008112000873
:1002000031010008D8000020D8060020D8020020C4
:10021000D8020020704710B54C1084EA530404D56E
:100220004042C1F1000138BF491E1B4204D5524271
:10023000C3F1000338BF5B1E00F092F814F0804F4A
:1002400004D04042C1F1000138BF491E14F0004FF4
:1002500004D05242C3F1000338BF5B1E10BD000042
:100260000FB4044910B503AA029800F049F910BC74
:100270005DF814FB1C0000202DE9F0410E460446F9
:10028000002020622046E168884730B3252805D049
:10029000D4E901219047206A401CF2E7E16820463A
:1002A00000278847050018D0A5F14100192802D879
:1002B00020354FF400673246294620462760FFF775
:1002C00071FF40B1012804D0F61D26F0070608365C
:1002D000D8E7361DD6E72846DAE7206ABDE8F08180
:1002E0002DE9F0410646002410687529314616A50F
:1002F00010D0AFF30080002802DA404213A507E0D7
:1003000031688A0701D512A502E0490704D511A575
:10031000012401E0AFF3008000210A2206F1240746
:1003200009E0B0FBF2FCB0FBF2F302FB1C00303042
:1003300078541846491C0028F3D123462A463046F3
:10034000BDE8F04100F083B8000000002D0000007F
:100350002B00000020000000704770477047704776
:1003600053EA020C00F069802DE9F04B4FF00006D3
:10037000002B1FBFB3FA83F503FA05F424FA05F640
:100380005E4012BF1643B2FA82F502FA05F4C5F1D7
:1003900020051EBF22FA05FC44EA0C04203556EA6B
:1003A000044C4FEA144418BF641C4FF000084FF08F
:1003B0000009904271EB030C39D3002919BFB1FA3F
:1003C00081F701FA07F6B0FA80F700FA07F6C7F1ED
:1003D00020071EBF20FA07FC46EA0C062037B6FBB2
:1003E000F4FCA7EB0507103F07F01F0BCBF120062D
:1003F0000CFA0BFB2CFA06F644BFB3460026202F5E
:10040000A4BF5E464FF0000B5BEA060C08BF4FF03E
:10041000010B19EB0B09ABFB027C48EB0608C01B78
:1004200006FB02CC0BFB03CC71EB0C01C1E70B46C6
:10043000024641464846BDE8F08B13B54FF0000038
:100440004FF00001AFF30080BDE81C4070472DE97C
:10045000F0470D4699469246044600F1240801688B
:10046000880604D5E06921F01001216000E0012038
:10047000A84201DD471B00E00027A1697A1902EBC1
:100480000900081AA0612078C00602D42046AFF304
:100490000080002608E0D4E901211AF80600904700
:1004A000206A401C761C20624E45F4DB2078C00692
:1004B0000AD52046AFF3008006E0D4E901213020C0
:1004C0009047206A401C2062381EA7F10107F4DC27
:1004D00007E0D4E9012118F805009047206A401C84
:1004E0002062281EA5F10105F3DC2046AFF3008051
:1004F0002078000602D50220BDE8F0870120FBE746
:10050000074B70B50D467B4400F011F804462846B1
:1005100000F020F810B14FF0FF3070BD204670BDE4
:100520002310000001694A1C02610878704700B579
:100530008FB0CDE901310021059105497944CDE91C
:10054000031011466846FFF797FE0FB000BD00008C
:10055000E5FFFFFF007B00F080007047754600F06C
:1005600029F8AE4605006946534620F00700854647
:1005700018B020B5FFF73CFEBDE820404FF0000664
:100580004FF000074FF000084FF0000B21F007017B
:10059000AC46ACE8C009ACE8C009ACE8C009ACE8BE
:1005A000C0098D4670470446AFF300802046FFF730
:1005B0000BFE0000004870477400002000BFFEE7FB
:1005C00070472DE9F0410246002500260020002357
:1005D0000024002791F803C00CF00F0591F803C028
:1005E0000CF0100CBCF1000F03D091F802C04CEAE3
:1005F000050591F800C0BCF1000F31D0146800204F
:100600002BE04FF0010C0CFA00F3B1F800C00CEA3B
:1006100003069E4220D183004FF00F0C0CFA03F723
:10062000BC4305FA03FC4CEA040491F803C0BCF196
:10063000280F06D14FF0010C0CFA00FCC2F814C0D0
:100640000AE091F803C0BCF1480F05D14FF0010C4E
:100650000CFA00FCC2F810C0401C0828D1D314606A
:10066000B1F800C0BCF1FF0F34DD546800202EE06B
:1006700000F1080C4FF0010808FA0CF3B1F800C0C3
:100680000CEA03069E4221D183004FF00F0C0CFAB6
:1006900003F7BC4305FA03FC4CEA040491F803C0D9
:1006A000BCF1280F05D100F1080C08FA0CF8C2F8CB
:1006B000148091F803C0BCF1480F07D100F1080C79
:1006C0004FF0010808FA0CF8C2F81080401C082806
:1006D000CED35460BDE8F0810246002093680B4001
:1006E0000BB1012000E00020704700BFFEE70000D2
:1006F00070B50024002500F041FB922000F00AFBB9
:1007000000F088FB012000F005FB00F083FB422095
:1007100000F000FB00F07EFBE32000F0FBFA00F0AD
:1007200079FB00F051FB00F029FB922000F0F2FA77
:1007300000F070FB002000F0EDFA00F06BFB00F021
:1007400043FB00F01BFB932000F0E4FA00F062FB97
:10075000012000F0A7FAFE490870012000F0A2FA7B
:10076000FC49087000F030FBF9480078F949097835
:1007700001EB0020F849F94A127841F822000020E4
:10078000F6490870022000F085FE00F0F7FA92208A
:1007900000F0C0FA00F03EFB012000F0BBFA00F0D0
:1007A00039FB522000F0B6FA00F034FBE32000F0F1
:1007B000B1FA00F02FFB00F007FB00F0DFFA922007
:1007C00000F0A8FA00F026FB002000F0A3FA00F0E9
:1007D00021FB00F0F9FA00F0D1FA932000F09AFA28
:1007E00000F018FB012000F05DFAD94908700120E3
:1007F00000F058FAD749087000F0E6FAD4480078BB
:10080000D449097801EB0020D349D44A127841F841
:1008100022000120D1490870022000F03BFE00F0C8
:10082000ADFA922000F076FA00F0F4FA012000F020
:1008300071FA00F0EFFA622000F06CFA00F0EAFAC8
:10084000E32000F067FA00F0E5FA00F0BDFA00F0EE
:1008500095FA922000F05EFA00F0DCFA002000F039
:1008600059FA00F0D7FA00F0AFFA00F087FA9320B7
:1008700000F050FA00F0CEFA012000F013FAB4496B
:100880000870012000F00EFAB249087000F09CFADE
:10089000AF480078AF49097801EB0020AE49AF4A74
:1008A000127841F822000220AC49087000F0F2FDF5
:1008B00000F064FA922000F02DFA00F0ABFA01206B
:1008C00000F028FA00F0A6FA722000F023FA00F0F7
:1008D000A1FAE32000F01EFA00F09CFA00F074FA8E
:1008E00000F04CFA922000F015FA00F093FA002084
:1008F00000F010FA00F08EFA00F066FA00F03EFA0E
:10090000932000F007FA00F085FA012000F0CAF900
:100910008F490870012000F0C5F98E49087000F079
:1009200053FA8B4800788B49097801EB00208A49FB
:100930008A4A127841F82200032088490870022070
:1009400000F0A8FD00F01AFA902000F0E3F900F0A2
:1009500061FA012000F0DEF900F05CFA422000F0BC
:10096000D9F900F057FAE32000F0D4F900F052FA78
:1009700000F02AFA00F002FA902000F0CBF900F023
:1009800049FA002000F0C6F900F044FA00F01CFA21
:1009900000F0F4F9912000F0BDF900F03BFA0120DD
:1009A00000F080F96A490870012000F07BF969497C
:1009B000087000F009FA664800786649097801EB8A
:1009C0000021654A66480078001D42F8201000208A
:1009D00063490870022000F05DFD00F0CFF990201F
:1009E00000F098F900F016FA012000F093F900F0F9
:1009F00011FA522000F08EF900F00CFAE32000F01A
:100A000089F900F007FA00F0DFF900F0B7F990205B
:100A100000F080F900F0FEF9002000F07BF900F012
:100A2000F9F900F0D1F900F0A9F9912000F072F97C
:100A300000F0F0F9012000F035F945490870012077
:100A400000F030F94349087000F0BEF940480078E2
:100A50004049097801EB00213F4A41480078001DD8
:100A600042F8201001203E490870022000F012FDDB
:100A700000F084F9902000F04DF900F0CBF901204E
:100A800000F048F900F0C6F9622000F043F900F0E8
:100A9000C1F9E32000F03EF900F0BCF900F094F950
:100AA00000F06CF9902000F035F900F0B3F9002067
:100AB00000F030F900F0AEF900F086F900F05EF9D0
:100AC000912000F027F900F0A5F9012000F0EAF8E4
:100AD0001F490870012000F0E5F81E49087000F079
:100AE00073F91B4800781B49097801EB00211A4A69
:100AF0001B480078001D42F8201002201849087099
:100B000000F0C8FC00F03AF9902000F003F900F082
:100B100081F9012000F0FEF800F07CF9722000F06D
:100B2000F9F800F077F9E32000F0F4F800F072F93A
:100B300000F04AF900F022F9902000F0EBF800F004
:100B400069F9002000F0E6F800F064F90AE000001E
:100B500000000020010000204400002002000020CE
:100B60000300002000F030F900F008F9912000F0B7
:100B7000D1F800F04FF9012000F094F80D49087009
:100B8000012000F08FF80C49087000F01DF90948A9
:100B900000780949097801EB0021084A08480078E3
:100BA000001D42F82010032005490870022000F0C3
:100BB00071FC70BD000000200100002044000020F6
:100BC0000300002010B500200F4908600F4800689E
:100BD00020F070400D4908600846006840F0405021
:100BE000086000200A49C1F89C01022000F078FC4E
:100BF000012005490860022000F072FC0020044931
:100C0000C1F8980110BD000098812142000C0140FC
:100C10000080214208B50121082000F09DF9C02084
:100C2000ADF8000014208DF8030003208DF80200B9
:100C300069460548FFF7C5FC0120044908600449DE
:100C4000C1F89C0108BD0000000C014098812142C0
:100C50000080214210B500200F4908600F4800684D
:100C600020F070400D4908600846006840F0405090
:100C7000086001200A49C1F89C01022000F030FC04
:100C8000012005490860022000F02AFC00200449E8
:100C9000C1F8980110BD000098812142000C01406C
:100CA0000080214270B5054600241748006820F0F6
:100CB0007040154908600846006840F00040086030
:100CC000002616E0002011490860022000F008FC10
:100CD00001200F49C1F898016006040E0B487C38CA
:100CE000006808B1601CC4B2012000F0F9FB701C60
:100CF000C6B2082EE6DB15B9FFF7ACFF01E0FFF73F
:100D000061FF204670BD0000000C01409881214227
:100D10000080214270B504461548006820F07040FC
:100D2000134908600846006840F040500860002001
:100D300010490860002517E0E0090E49091D086008
:100D40006006040E022000F0CBFB01200A49C1F826
:100D50009801022000F0C4FB002006490860022030
:100D600000F0BEFB681CC5B2082DE5DB70BD0000BD
:100D7000000C0140988121420080214210B50F48AB
:100D8000006820F070400D4908600846006840F097
:100D90004050086001200A4908600A49C1F89801DA
:100DA000042000F09DFB002005490860042000F0AD
:100DB00097FB00200349C1F8980110BD000C0140C9
:100DC0009C8121420080214210B50F48006820F02C
:100DD00070400D4908600846006840F040500860C7
:100DE00000200A4908600A49C1F89C01042000F06B
:100DF00077FB0120054908600549C1F89C010420E2
:100E000000F06EFB10BD0000000C014098812142F3
:100E10000080214210B500241848006820F070407E
:100E2000164908600846006840F00040086001204C
:100E30001349086000F054FB01201249C1F89801E1
:100E400000F04EFB0BE0601CC4B2FA2C07DD002062
:100E50000B4918310860FFF7B7FF012010BD0848A3
:100E6000803800680028EED101200549183108605B
:100E700000200449C1F8980100BFEFE7000C0140D1
:100E80009C8121420080214208B50121042000F00C
:100E900063F849F6FF10ADF8000028208DF8030034
:100EA00069460748FFF78DFB4FF44070ADF800002E
:100EB00028208DF8030069460248FFF782FB08BD31
:100EC00000080140000C014000BFFEE77047000031
:100ED00070B5002100230F22C47804B3154C246898
:100EE00004F4E064C4F5E064210AC1F10403CA40DB
:100EF000447804FA03F184781440214309010E4C2C
:100F00000678A155047804F01F050124AC4005784B
:100F10006D11AD0005F1E025C5F8004109E0047848
:100F200004F01F050124AC40044D0678761145F805
:100F3000264070BD0CED00E000E400E080E100E040
:100F400002490143024A1160704700000000FA059F
:100F50000CED00E07047000029B1064A9269024397
:100F6000044B9A6104E0034A92698243014B9A61FF
:100F7000704700000010024030B50021002200241C
:100F800000232D4D6D6805F00C0121B1042905D019
:100F9000082923D105E0294D056022E0274D056091
:100FA0001FE0254D6D6805F47012234D6D6805F442
:100FB0008034022505EB92421CB9214D5543056052
:100FC0000BE01D4D6D6805F400351DB11C4D5543FA
:100FD000056002E0194D5543056002E0174D0560BC
:100FE00000BF00BF144D6D6805F0F0010909154DF3
:100FF0006B5C0568DD4045600F4D6D6805F4E06190
:10100000090A104D6B5C4568DD4085600A4D6D68CE
:1010100005F46051C90A0B4D6B5C4568DD40C56045
:10102000054D6D6805F44041890B074D6B5CC56843
:10103000B5FBF3F5056130BD0010024000127A00E7
:1010400000093D00300000204000002010B50121C3
:101050004348FFF741FB012802D14249087007E0ED
:1010600001213F48FFF738FB10B900203D490870C7
:1010700002213B48FFF730FB012802D13949487073
:1010800007E002213648FFF727FB10B90020354959
:10109000487004213248FFF71FFB012802D1314973
:1010A000887007E004212E48FFF716FB10B90020D6
:1010B0002C49887008212A48FFF70EFB012802D12D
:1010C0002849C87007E001212548FFF705FB10B942
:1010D00000202449C87010212148FFF7FDFA01289B
:1010E00002D12049087107E001211D48FFF7F4FAF9
:1010F00010B900201B49087120211948FFF7ECFAAC
:10110000012802D11749487107E020211448FFF750
:10111000E3FA10B900201349487140211048FFF745
:10112000DBFA012802D10F49887107E040210C4801
:10113000FFF7D2FA10B900200A49887180210848C7
:10114000FFF7CAFA012802D10649C87107E08021D9
:101150000348FFF7C1FA10B900200249C87110BD59
:101160000008014064000020704710B500F002F84C
:1011700010BD00000CB500200190009033480068BD
:1011800040F480303149086000BF3048006800F406
:10119000003000900198401C0190009818B9019807
:1011A000B0F5A06FF1D12948006800F4003010B10B
:1011B0000120009001E0002000900098012843D118
:1011C0002348006840F01000214908600846006884
:1011D00020F0030008600846006840F00200086044
:1011E0001A484068194948600846406848600846FF
:1011F000406840F4806048600846406820F47C10F5
:1012000048600846406840F4E810486008460068B6
:1012100040F08070086000BF0C48006800F000706B
:101220000028F9D00948406820F0030007494860C9
:101230000846406840F00200486000BF034840682C
:1012400000F00C000828F9D10CBD0000001002408D
:1012500000200240042808D14FF0E021096941F044
:1012600004014FF0E022116107E04FF0E02109692D
:1012700021F004014FF0E022116170477047000037
:1012800010B51348006840F0010011490860084695
:101290004068104908400E494860084600680E49F9
:1012A00008400B4908600846006820F48020086068
:1012B0000846406820F4FE0048604FF41F00886034
:1012C000FFF753FF4FF000600449086010BD0000B5
:1012D000001002400000FFF8FFFFF6FE08ED00E0FE
:1012E00010B501210F4800F024F8C8B16422002392
:1012F0000D4903C9FEF78FFF00214A404B401A43B6
:1013000001D1FFF7A3FE0121064800F00FF80648BF
:10131000D0E90010491C40F10000034AC2E9001066
:1013200010BD00000004004028000020CA430282D3
:10133000704730B50246002000230024158A05EAD4
:101340000103958905EA010413B10CB1012000E005
:10135000002030BD704721B1828942F40052828161
:1013600004E082894DF6FF731A40828170470000C5
:101370002DE9F04786B005460E460024A24600BF80
:10138000A1460027B08900B100BF2F462C8A4CF639
:10139000FF700440F08804432C82AC894EF6F310B1
:1013A0000440B08831890843718908430443AC8103
:1013B000AC8A4FF6FF400440B0890443AC8201A8D8
:1013C000FFF7DAFD1F48874202D1DDF810A001E0E7
:1013D000DDF80CA0A88900F4004040B10AEBCA0077
:1013E00000EB0A1031684900B0FBF1F807E00AEBA6
:1013F000CA0000EB0A1031688900B0FBF1F86420E4
:10140000B8FBF0F004012009642101FB1089A889D0
:1014100000F4004040B1322000EBC900B0FBF1F015
:1014200000F00700044308E0322000EB09106421BB
:10143000B0FBF1F000F00F0004432C8106B0BDE8D2
:10144000F08700000038014000BFFEE700BF704792
:1014500010B56FF00400FFF7FDFE0A4800680A4966
:10146000B0FBF1F0094908700846007800EB400134
:10147000C1EBC0104FF6FF7101EAC00004490880BB
:1014800010BD00000400002000127A0018000020A7
:101490001A0000200146114A12884A434FF0E02307
:1014A0005A6100229A611A46126942F001021A61D9
:1014B00000BF4FF0E022106900F001021AB100F401
:1014C0008032002AF5D04FF0E022126922F00102AA
:1014D0004FF0E0231A6100229A6170471A00002041
:1014E0000146114A12784A434FF0E0235A61002224
:1014F0009A611A46126942F001021A6100BF4FF068
:10150000E022106900F001021AB100F48032002AD2
:10151000F5D04FF0E022126922F001024FF0E023F3
:101520001A6100229A6170471800002000BF054A26
:10153000128802F04002002AF9D0C2B2014B1B1DF2
:101540001A807047003801404FF4A060FFF7F8FCA4
:10155000FFF77EFFFFF798FC4FF4E13000F022F830
:10156000FFF758FB15E0FFF7C3F8002407E0094830
:1015700050F82420214608A0FEF772FE641C082CB7
:10158000F5DB07A0FEF76CFE4FF4FA70FFF782FF61
:1015900000BFE8E74400002025643D2564202000CA
:1015A0000D0A000010B586B00446012144F2040083
:1015B000FFF7D2FC4FF40070ADF8140003208DF853
:1015C000160018208DF8170005A91948FEF7F9FF35
:1015D0004FF48060ADF8140004208DF8170005A9C1
:1015E0001348FEF7EEFF25208DF8000003208DF84C
:1015F00001008DF8020001208DF803006846FFF716
:1016000067FC01940020ADF80800ADF80A00ADF8C1
:101610000C00ADF810000820ADF80E0001A9054837
:10162000FFF7A6FE01210348FFF795FE06B010BDA7
:101630000008014000380140581600080000002052
:10164000440000006C0100089C16000844000020C3
:1016500094060000880100080000000000A24A046F
:101660000000000000000000010203040607080952
:10167000000000000000000000000000000000006A
:101680000000000000000000000000000102030450
:0C16900001020304060708090204060812
:04000005080001D519
:00000001FF
