:020000040800F2
:10000000D80F0020B10D0008390300083B03000899
:100010003F030008430300084703000800000000F6
:100020000000000000000000000000004B0300087A
:100030004D030008000000004F03000851030008B2
:10004000CB0D0008CB0D0008CB0D0008CB0D000830
:10005000CB0D0008CB0D0008CB0D0008CB0D000820
:10006000CB0D0008CB0D0008CB0D0008CB0D000810
:10007000CB0D0008CB0D0008CB0D0008CB0D000800
:10008000CB0D0008CB0D0008CB0D0008CB0D0008F0
:10009000CB0D0008CB0D0008CB0D0008CB0D0008E0
:1000A000CB0D000829760008CB0D00085576000816
:1000B000CB0D0008D1380008CB0D0008CB0D00088F
:1000C000CB0D0008CB0D0008CB0D0008CB0D0008B0
:1000D000CB0D00085B3D0008A5310008FB4400087B
:1000E0001D480008CB0D0008CB0D0008133C00088C
:1000F000693400083D340008CB0D0008CB0D000822
:10010000CB0D0008CB0D0008CB0D0008CB0D00086F
:10011000BD460008CB0D0008CB0D0008CB0D000834
:10012000CB0D0008CB0D0008CB0D0008CB0D00084F
:10013000CB0D0008CB0D0008CB0D0008CB0D00083F
:10014000CB0D0008CB0D0008CB0D0008CB0D00082F
:10015000CB0D0008CB0D0008CB0D0008CB0D00081F
:10016000CB0D0008CB0D0008CB0D0008CB0D00080F
:10017000CB0D0008CB0D0008CB0D0008CB0D0008FF
:10018000CB0D0008CB0D000800F002F800F06CF871
:100190000AA090E8000C82448344AAF10107DA45E2
:1001A00001D100F061F8AFF2090EBAE80F0013F0C8
:1001B000010F18BFFB1A43F001031847A0A300006A
:1001C000C0A300000A444FF0000C10F8013B13F0EC
:1001D000070408BF10F8014B1D1108BF10F8015BA0
:1001E000641E05D010F8016B641E01F8016BF9D193
:1001F00013F0080F1EBF10F8014BAD1C0C1B09D1EA
:100200006D1E58BF01F801CBFAD505E014F8016B5B
:1002100001F8016B6D1EF9D59142D6D370470000ED
:100220000023002400250026103A28BF78C1FBD8FF
:10023000520728BF30C148BF0B60704766290AF0DB
:100240001680642907F07885002070471FB509F0F3
:100250005EFF08F035F804000020002109F050F896
:10026000E0601FBD10B510BD08F046F91146FFF75C
:10027000EDFF00F009F808F064F903B4FFF7F2FFAE
:1002800003BC03F0F9FC000002F0BCFD00BF002439
:1002900049E0012000F07BF90446012C02D0022C39
:1002A00002D100E000E000BF00BF642000F060FD6C
:1002B000012242F21B01104602F0E3FF01201A491D
:1002C0000880642000F054FD012242F2250110460E
:1002D00002F0D7FF032014490880642000F048FD95
:1002E000012242F21B01022002F0CBFF02200E4944
:1002F0000880642000F03CFD012242F2250102202A
:1003000002F0BFFF042008490880642000F030FD9F
:1003100006480078012806D10548B0F9281005489C
:10032000007807F035FAB4E70C0000202701002020
:100330006408002000000020704700BFFEE700BFF7
:10034000FEE700BFFEE700BFFEE77047704770475B
:10035000704700000CB500200190009076480068BE
:1003600040F480307449086000BF7348006800F4AE
:10037000003000900198401C0190009818B9019835
:10038000B0F5A04FF1D16C48006800F4003010B116
:100390000120009001E0002000900098012846D143
:1003A00065484030006840F0805063494031086043
:1003B0006248006840F44040604908605E48083088
:1003C00000685D49083108600846006840F4004054
:1003D00008600846006840F4A05008605848091FAB
:1003E0000860081F006840F08070091F086000BFA7
:1003F0005148006800F000700028F9D040F2057004
:10040000504908604C480830006820F003004A4911
:10041000083108600846006840F00200086000BF2C
:1004200045480830006800F00C000828F8D10CBDE1
:1004300010B54548006840F47000434908603E48E4
:10044000006840F001003C49086000203A4908314A
:100450000860394800683D490840374908603C4811
:10046000091D0860081F006820F48020091F08602B
:10047000002031490C310860FFF76CFF4FF000603D
:1004800031498039086010BD70B500200022022378
:1004900000240221284D08352D6805F00C0020B1FC
:1004A000042806D0082834D107E02A4D2A4E3560AA
:1004B00033E02A4D284E35602FE01F4D2D1D2D684D
:1004C000C5F380541C4D2D1D2D6805F03F0154B11E
:1004D000224DB5FBF1F5184E361D3668C6F3881669
:1004E00005FB06F209E01B4DB5FBF1F5124E361D7A
:1004F0003668C6F3881605FB06F20F4D2D1D2D68D4
:10050000C5F301456D1C6B00B2FBF3F5124E35606F
:1005100003E0104D104E356000BF00BF064D08359A
:100520002D68C5F303150E4E705D0B4D2D68C5404B
:10053000094E356070BD0000003802400070004078
:1005400008544007003C024088ED00E0FFFFF6FE43
:10055000103000240024F4001000002000127A0063
:10056000140000201CB50121112000F0D5FF6020EF
:10057000009000208DF8040003208DF80500012074
:100580008DF8070069461D4800F028FD1CBD10B518
:10059000044614B101201A49087019480078E8B1DE
:1005A0002021164800F07CFD20B14021134800F0C6
:1005B00077FD98B90A2000F0DBFB00201049087095
:1005C00020210E4800F06CFD08B9012010BD40212B
:1005D0000A4800F065FD78B90220F7E720210748B6
:1005E00000F05EFD012807D14021044800F058FDCD
:1005F000012801D1024908700020E7E700100240FD
:10060000240000201CB50121042000F085FF0F20EC
:10061000009001208DF8040000208DF806000320D2
:100620008DF8050001208DF807006946FB4800F0B1
:10063000D5FC0121F94800F04DFD0221F74800F0FA
:1006400049FD0421F54800F045FD0821F34800F07C
:1006500041FD1CBD1CB50121042000F05DFF702090
:10066000009001208DF8040000208DF80600032082
:100670008DF8050001208DF807006946E74800F075
:10068000ADFC1021E54800F027FD2021E34800F0F3
:1006900023FD4021E14800F01FFD1CBD1CB50121D8
:1006A000022000F039FF4FF48050009001208DF8B7
:1006B00004008DF8060003208DF8050001208DF858
:1006C00007006946D64800F089FC1CBD0120D549C9
:1006D000086000BF00BF00BF00BF00BF00BF00BF79
:1006E00000BF00BF00BF00BF00BF00BF00BF00BF12
:1006F00000BF00BF00BF00BF00BF00BF00BF00BF02
:1007000000BF00BF00BF00BF00BF00BF00BF00BFF1
:1007100000BF00BF00BF00BF00BF00BF00BF00BFE1
:1007200000BF00BF00BF00BF00BF00BF00BF00BFD1
:1007300000BF00BF00BF00BF00BF00BF00BF00BFC1
:1007400000BF00BF00BF00BF00BF0020B649C1F816
:10075000B00200BF00BF00BF00BF00BF00BF00BFAE
:1007600000BF00BF00BF00BF00BF00BF00BF00BF91
:1007700000BF00BF00BF00BF00BF00BF00BF00BF81
:1007800000BF00BF00BF00BF00BF00BF00BF00BF71
:1007900000BF00BF00BF00BF00BF00BF00BF00BF61
:1007A00000BF00BF00BF00BF00BF00BF00BF00BF51
:1007B00000BF00BF00BF00BF00BF00BF00BF00BF41
:1007C00000BF00BF00BF00BF00BF00BF00BF00BF31
:1007D00000BF00BF00BF00BF00BF00BF00BF00BF21
:1007E00000BF00BF00BF00BF00BF00BF00BF00BF11
:1007F00000BF00BF00BF00BF00BF00BF00BF00BF01
:1008000000BF00BF00BF00BF00BF00BF00BF00BFF0
:1008100000BF00BF00BF00BF00BF00BF00BF00BFE0
:1008200000BF00BF00BF00BF00BF00BF00BF00BFD0
:1008300000BF00BF00BF00BF00BF00BF00BF00BFC0
:1008400000BF00BF00BF00BF00BF00BF7047012056
:100850007449086000BF00BF00BF00BF00BF00BFF9
:1008600000BF00BF00BF00BF00BF00BF00BF00BF90
:1008700000BF00BF00BF00BF00BF00BF00BF00BF80
:1008800000BF00BF00BF00BF00BF00BF00BF00BF70
:1008900000BF00BF00BF00BF00BF00BF00BF00BF60
:1008A00000BF00BF00BF00BF00BF00BF00BF00BF50
:1008B00000BF00BF00BF00BF00BF00BF00BF00BF40
:1008C00000BF00BF00BF00BF00BF00BF00BF00BF30
:1008D00000BF00BF00BF00BF00BF00BF00BF00BF20
:1008E00000BF00BF00BF00BF00BF00BF00BF00BF10
:1008F00000BF00BF00BF00BF00BF00BF00BF00BF00
:1009000000BF00BF00BF00BF00BF00BF00BF00BFEF
:1009100000BF00BF00BF00BF00BF00BF00BF00BFDF
:1009200000BF00BF00BF00BF00BF00BF00BF00BFCF
:1009300000BF00BF00BF00BF00BF00BF00BF00BFBF
:1009400000BF00BF00BF00BF00BF00BF00BF00BFAF
:1009500000BF00203449C1F8B00200BF00BF00BF93
:1009600000BF00BF00BF00BF00BF00BF00BF00BF8F
:1009700000BF00BF00BF00BF00BF00BF00BF00BF7F
:1009800000BF00BF00BF00BF00BF00BF00BF00BF6F
:1009900000BF00BF00BF00BF00BF00BF00BF00BF5F
:1009A00000BF00BF00BF00BF00BF00BF00BF00BF4F
:1009B00000BF00BF00BF00BF00BF00BF00BF00BF3F
:1009C00000BF00BF00BF00BF00BF00BF00BF00BF2F
:1009D000704700B5024600230CE002F40000B0F5B9
:1009E000000F02D1FFF733FF01E0FFF76FFE520067
:1009F000581CC3B2182BF0DB00BD70B506460D467F
:100A0000002404E03046FFF7E4FF601CC4B20B2C66
:100A1000F8DB0024054806600FE0000000080240F3
:100A200000040240B0824042008040422800002082
:100A30002846FFF7CEFF601CC4B20A2CF8DB002466
:100A40009348056070BD2DE9F04180460D4616467D
:100A50001F4600244046FFF7BCFF04E04046FFF776
:100A6000B8FF601CC4B2052CF8DB002404E0284663
:100A7000FFF7AFFF601CC4B2052CF8DB002404E0D4
:100A80003046FFF7A6FF601CC4B2052CF8DB00243B
:100A900004E03846FFF79DFF601CC4B2052CF8DB6C
:100AA000BDE8F08110B5034600201C0444EA02248E
:100AB00044EA010010BD2DE9F0412DED088BB0EEA8
:100AC000408AB0EE60BAF0EE418AF0EE61BA6FF0A3
:100AD0007F4426462546274618EE100A09F076FA86
:100AE00041EC1A0BB0EE4A0AF0EE6A0A08F0F0FA8E
:100AF000B0EE409AF0EE609A51EC190B08F022FC2F
:100B000008EE100A18EE900A09F060FA41EC1A0B90
:100B1000B0EE4A0AF0EE6A0A08F0DAFAB0EE409A4D
:100B2000F0EE609A51EC190B08F00CFC08EE900AFC
:100B3000B5EEC08AF1EE10FA08DBB1EE040AB4EEAD
:100B4000C08AF1EE10FA01D2524C31E0B1EE040A43
:100B5000B4EEC08AF1EE10FA08DBB2EE040AB4EE8D
:100B6000C08AF1EE10FA01D24B4C21E0B2EE040A39
:100B7000B4EEC08AF1EE10FA08DBB2EE0E0AB4EE63
:100B8000C08AF1EE10FA01D2444C11E0B3EE000A33
:100B9000B4EEC08AF1EE10FA08DBB3EE040AB4EE4C
:100BA000C08AF1EE10FA01D23D4C01E04FF47F040F
:100BB000F5EEC08AF1EE10FA08DBB1EE040AF4EEAD
:100BC000C08AF1EE10FA01D2324D31E0B1EE040AE2
:100BD000F4EEC08AF1EE10FA08DBB2EE040AF4EE8D
:100BE000C08AF1EE10FA01D22B4D21E0B2EE040AD8
:100BF000F4EEC08AF1EE10FA08DBB2EE0E0AF4EE63
:100C0000C08AF1EE10FA01D2244D11E0B3EE000AD1
:100C1000F4EEC08AF1EE10FA08DBB3EE040AF4EE4B
:100C2000C08AF1EE10FA01D21D4D01E04FF47F05AC
:100C30002B462A4621462046FFF705FF002019498A
:100C40000860BDEC088BBDE8F08110B52DED048B7C
:100C5000B0EE408AF0EE608AB0EE419A38EEC80AF3
:100C6000C9EE000AF0EE609A00249FED0F0A29EE0B
:100C7000800ABDEEC00A10EE104AFF220021204675
:100C800005F007FE04462046BDEC048B10BD0000B5
:100C90002C000020C8C8FF009696FF006464FF0087
:100CA0003232FF00B082404200007F4310B504465C
:100CB0006FF0040000F0EEF8E11704EB5171C1F39E
:100CC000C701394A11701046007800EB4001C1EBB2
:100CD000C0104FF6FF7101EAC0003449088010BD12
:100CE0000146314A12784A434FF0E0235A6100220C
:100CF0009A611A46126942F001021A6100BF4FF070
:100D0000E022106900F001021AB100F48032002ADA
:100D1000F5D04FF0E022126922F001024FF0E023FB
:100D20001A6100229A6170470146204A12884A439C
:100D30004FF0E0235A6100229A611A46126942F08C
:100D400001021A6100BF4FF0E022106900F00102B9
:100D50001AB100F48032002AF5D04FF0E022126977
:100D600022F001024FF0E0231A6100229A617047DD
:100D700070B504464FF4077094FBF0F0C6B24FF420
:100D8000077094FBF0F100FB114085B205E04FF4D1
:100D90000770FFF7C9FF701EC6B2002EF7D115B15C
:100DA0002846FFF7C1FF70BD300000203200002050
:100DB0000948804709480047FEE7FEE7FEE7FEE7EF
:100DC000FEE7FEE7FEE7FEE7FEE7FEE7044805492B
:100DD000054A064B704700003104000889010008ED
:100DE000D8090020D80F0020D80B0020D80B0020F5
:100DF00032490143324A1160704770B50021002327
:100E00000F22C4781CB32E4C246804F4E064C4F5AB
:100E1000E064C4F30721C1F10404E3B20A41447859
:100E20009C40E1B28478144021430C07210E254CEC
:100E300005786155047804F01F050124AC4005785D
:100E40006D11AD0005F1E025C5F8004109E0047819
:100E500004F01F050124AC401B4D0678761145F8BF
:100E6000264070BD194A0A400243154B1B1F1A60E9
:100E7000704739B1124A121D12680243104B1B1DF4
:100E80001A6006E00E4A121D126882430C4B1B1DAD
:100E90001A607047042808D14FF0E021096941F039
:100EA00004014FF0E022116107E04FF0E0210969F1
:100EB00021F004014FF0E022116170470000FA05B3
:100EC0000CED00E000E400E080E100E080FFFF1FA7
:100ED00010B504469848844208D10121084600F024
:100EE00086FB0021012000F082FB76E093488442DB
:100EF00008D10121022000F07AFB0021022000F03D
:100F000076FB6AE08E48844208D10121042000F07B
:100F10006EFB0021042000F06AFB5EE089488442F9
:100F200008D10121082000F062FB0021082000F018
:100F30005EFB52E08448844208D10121102000F079
:100F400056FB0021102000F052FB46E07F4884420F
:100F500008D10121202000F04AFB0021202000F0D0
:100F600046FB3AE07A48844208D10121402000F053
:100F70003EFB0021402000F03AFB2EE07548844201
:100F800008D10121802000F032FB0021802000F0F8
:100F90002EFB22E07048844208D10121801500F028
:100FA00026FB0021A01500F022FB16E06B488442CE
:100FB00008D10121401500F01AFB0021601500F056
:100FC00016FB0AE06648844207D10121001500F0B3
:100FD0000EFB0021201500F00AFB10BDF0B50A46FB
:100FE00000210023002400BF3DE0012505FA01F3A4
:100FF000156805EA03049C4234D105684F000326B6
:10100000BE40B543056015794E00B54006683543CE
:1010100005601579012D02D01579022D16D185684C
:101020004F000326BE40B543856055794E00B5405C
:10103000866835438560456801268E40B543456026
:10104000456896798E40B6B235434560C5684F0015
:101050000326BE40B543C560D5794E00B540C6688D
:101060003543C560491C1029BFD3F0BD4FF6FF7151
:1010700001600021017141718171C171704708B532
:101080004FF480320092009A0A430092009AC261A3
:10109000C161009AC261C2690092C269009208BD32
:1010A0000246002013690B400BB1012000E0002034
:1010B00070470146086980B27047024600205369B4
:1010C0000B400BB1012000E0002070470146486949
:1010D00080B2704701837047418370470AB1018332
:1010E00000E0418370474161704742694A40426174
:1010F0007047F0B5002300244D07ED0E02FA05F30A
:10110000CE1000F1200555F826504E07F70E0F2699
:10111000BE40B543CF1000F1200646F82750CE1050
:1011200000F1200555F8265045EA0304CE1000F1E1
:10113000200545F82640F0BD0000024000040240B2
:1011400000080240000C024000100240001402405F
:1011500000180240001C024000200240002402400F
:1011600000280240F948006840F00100F749086093
:101170000020F64908310860F4480068F449084046
:10118000F2490860F348091D0860F348EF498431CB
:101190000860F0481038091D0860EC48006820F429
:1011A0008020EA4908600020E8490C310860E749DE
:1011B0008C31086070470021E44A921C117011467E
:1011C0000870704710B501460022002300204A1124
:1011D000012A02D1DD4C236808E0022A03D1DB4C4E
:1011E0007034236802E0D94C7434236801F01F0284
:1011F000012494401C400CB1012000E0002010BDEF
:1012000038B5002000900024002500BF3120FFF7F2
:10121000D9FF05460098401C00900098B0F5A04FFB
:1012200001D0002DF2D03120FFF7CCFF08B101240E
:1012300000E00024204638BD01460020C34A106863
:1012400020F0F80040EAC10010607047C349086010
:1012500070470021BD4A703211701170012802D010
:1012600004280AD104E00121B84A7032117005E067
:101270000521B64A7032117000E000BF00BF704710
:10128000B7490860704770B5049C41EA8215012691
:10129000C6EB530645EA0645054345EA0465AB4EF1
:1012A000361D356070BDAD4908667047820142EA5F
:1012B0000172A64B84331A607047A849886670474C
:1012C00010B5830143EA016343EA02739F4C8834FB
:1012D000236010BDA14908677047A049C8647047E2
:1012E00002460020994B0833186820F0EC6042EA6F
:1012F00001031843954B08331860704702460020DD
:10130000924B0833186820F0784042EA01031843F2
:101310008E4B083318607047014600208B4A083214
:10132000106820F0030008431060704787480830B9
:10133000006800F00C00704701460020834A083224
:10134000106820F0F000084310607047014600204C
:101350007E4A0832106820F4E0500843106070475D
:1013600001460020794A0832106820F4604040EAC3
:10137000C10010607047F0B5002100220024022552
:1013800000260223714F08373F6807F00C0121B196
:10139000042905D0082937D105E0724F076036E0EF
:1013A000714F076033E0694F3F1D3F68C7F38056B8
:1013B000664F3F1D3F6807F03F036EB16A4FB7FBB2
:1013C000F3F7DFF888C10CF1040CDCF800C0CCF3B3
:1013D000881C07FB0CF40CE0624FB7FBF3F7DFF857
:1013E0006CC10CF1040CDCF800C0CCF3881C07FBCA
:1013F0000CF4564F3F1D3F68C7F301477F1C7D002B
:10140000B4FBF5F7076002E0564F076000BF00BF6E
:101410004E4F08373F6807F0F0010909534F7A5CD7
:101420000768D7404760494F08373F6807F4E051E5
:10143000890A4E4F7A5C4768D7408760434F083728
:101440003F6807F46041490B484F7A5C4768D740D2
:10145000C760F0BD002100F44072B2F5407F0AD1B0
:101460003A4A0832116821F4F811414A0240114306
:10147000364A08321160354A70321268C0F30B03E5
:101480001A43324B70331A6070473549443908604B
:1014900070473349403908607047364908607047E3
:1014A00001460020294A8C32106820F01F004A1E95
:1014B0001043264A8C321060704701460020234AB0
:1014C0008C32106820F4F8504A1E40EA02201F4A6D
:1014D0008C3210607047014600201C4A8C32106824
:1014E00020F4401008431060704701460020174A5E
:1014F0008C32106820F440000843106070470146A9
:101500000020124A8C32106820F4403008431060EA
:10151000704719490860704739B10C4A3032126877
:1015200002430A4B30331A6006E0084A3032126830
:101530008243064B30331A607047F9B1034A3432A4
:1015400012680243014B34331A601CE00038024039
:10155000FFFFF6EA10300024003000200000474270
:10156000800E47420024F40000127A00340000206C
:10157000FFFCFF0F5C014742E01147428F4A1268AF
:1015800082438E4B1A60704739B18C4A121D126823
:1015900002438A4B1B1D1A6006E0884A121D12681E
:1015A0008243864B1B1D1A60704739B1834A0C3247
:1015B00012680243814B0C331A6006E07F4A0C32FA
:1015C000126882437D4B0C331A60704739B17B4AF5
:1015D000103212680243794B10331A6006E0774AE2
:1015E000103212688243754B10331A60704739B15C
:1015F000724A243A12680243704B243B1A6006E098
:101600006E4A243A126882436C4B243B1A6070473E
:1016100039B16A4A203A12680243684B203B1A608B
:1016200006E0664A203A12688243644B203B1A6007
:10163000704739B1614A1C3A126802435F4B1C3B48
:101640001A6006E05D4A1C3A126882435B4B1C3B01
:101650001A60704739B1594A143A12680243574B1D
:10166000143B1A6006E0554A143A12688243534B01
:10167000143B1A60704739B1504A103A126802435D
:101680004E4B103B1A6006E04C4A103A12688243F7
:101690004A4B103B1A60704739B1484A1C321268F5
:1016A0000243464B1C331A6006E0444A1C3212685F
:1016B0008243424B1C331A60704739B13F4A203293
:1016C000126802433D4B20331A6006E03B4A203249
:1016D00012688243394B20331A60704739B1374A58
:1016E000243212680243354B24331A6006E0334A31
:1016F000243212688243314B24331A60704739B167
:101700002E4A2C32126802432C4B2C331A6006E00E
:101710002A4A2C3212688243284B2C331A607047B5
:1017200039B1264A303212680243244B30331A60F2
:1017300006E0224A303212688243204B30331A606E
:101740007047012808D11D493C31096841F0080162
:101750001A4A3C32116007E018493C31096821F00F
:101760000801164A3C321160704739B1134A273AD2
:1017700012780243114B273B1A7006E00F4A273AB2
:10178000127882430D4B273B1A7070470B4840304C
:10179000006840F080700949403108607047014698
:1017A0000020064A283A12680A400AB1012000E0E7
:1017B00000207047014926390870704734380240CC
:1017C00010B501218803FFF756FF00214FF4804038
:1017D000FFF751FF10BD1C49086070471B490862A4
:1017E000704730B500228B071C0F0F2303FA04F259
:1017F000154B08338C1053F824309343124C0834A3
:101800008D1044F8253023468C1053F824308C0773
:10181000240F00FA04F423430B4C08348D1044F8D1
:10182000253030BD0949DC3108607047084908603F
:101830007047002004492031096801F4807109B122
:10184000012000E0002070470038014000002742DE
:101850000004274210B50446FA48844208D1012109
:101860001020FFF708FF00211020FFF704FF57E0CA
:10187000F548844209D101214804FFF7EBFE00211D
:101880004FF40030FFF7E6FE4AE0F048844209D109
:1018900001218804FFF7DEFE00214FF48020FFF7CE
:1018A000D9FE3DE0EA48844209D10121C804FFF78E
:1018B000D1FE00214FF40020FFF7CCFE30E0E548D8
:1018C000844209D101210805FFF7C4FE00214FF42D
:1018D0008010FFF7BFFE23E0DF48844208D10121DA
:1018E0002020FFF7C8FE00212020FFF7C4FE17E0EC
:1018F000DA48844209D101218807FFF7ABFE0021B5
:101900004FF08040FFF7A6FE0AE0D548844207D199
:1019100001214005FFF79EFE00216005FFF79AFEBA
:1019200010BD2DE9FF4705460E460024A14600BF25
:10193000A046B08900B100BF2C8A24F44054F0883E
:1019400004432C82AC8941F20C608443B088318915
:101950000843718908430443AC81AC8A24F4407481
:10196000B0890443AC826846FFF705FDB54885425F
:1019700002D0B948854202D1DDF80C9001E0DDF8D3
:101980000890A88900F4004040B109EBC90000EBC1
:10199000091031684900B0FBF1F707E009EBC90015
:1019A00000EB091031688900B0FBF1F76420B7FB48
:1019B000F0F004012009642101FB1078A88900F4EB
:1019C000004040B1322000EBC800B0FBF1F000F065
:1019D0000700044308E0322000EB08106421B0FB4C
:1019E000F1F000F00F0004432C81BDE8FF874FF4B5
:1019F0001651016000218180C18001810C2141814B
:101A000000218181704710B502460020108A20F421
:101A100070600B884C8823438C882343CC882343F5
:101A20001843108210BD0021018041808180C18057
:101A3000704721B1828942F40052828104E0828998
:101A40004DF6FF731A4082817047028B02F47F4289
:101A50000283028B0A430283704721B1828942F4D8
:101A60000042828103E08289C2F30E0282817047C4
:101A700021B1828A42F40062828204E0828A4FF2BB
:101A8000FF731A4082827047C1F308028280704758
:101A900001468888C0F308007047028A4FF6F07349
:101AA0001A400282028A0A430282704721B1828967
:101AB00042F00202828104E082894FF6FD731A40EF
:101AC0008281704782894FF2FF731A408281828936
:101AD0000A4382817047028A4FF6DF731A400282FE
:101AE000028A0A430282704721B1028A42F480428C
:101AF000028204E0028A4BF6FF731A4002827047AA
:101B0000818941F001018181704721B1828A42F0CF
:101B10000802828204E0828A4FF6F7731A408282BA
:101B20007047028BD2B20283028B42EA0122028307
:101B3000704721B1828A42F02002828204E0828AC8
:101B40004FF6DF731A408282704721B1828A42F0D9
:101B50001002828204E0828A4FF6EF731A4082827A
:101B60007047828A4FF6FB731A408282828A0A4348
:101B70008282704721B1828A42F00202828204E0AE
:101B8000828A4FF6FD731A40828270471AB1838AA7
:101B90000B43838202E0838A8B4383827047F0B5D4
:101BA0000346002400260025002040F66A17B942AB
:101BB00000D100BF1846C1F3421401F01F060127EF
:101BC00007FA06F5012C01D10C3004E0022C01D1FA
:101BD000103000E014301AB107682F43076002E0AC
:101BE0000768AF430760F0BD02460020B1F5007FF3
:101BF00000D100BF13880B400BB1012000E0002092
:101C0000704701F40072B2F5007F00D100BFCA43F3
:101C10000280704770B50246002400230025002092
:101C200040F66A16B14200D100BFC1F3421501F07F
:101C30001F03012606FA03F3012D13D196893340C1
:101C400017E0000000100140004400400048004040
:101C5000004C00400050004000140140007800405B
:101C6000007C0040022D02D1168A334001E0968AA2
:101C700033400C12012606FA04F41688344013B1DE
:101C80000CB1012000E0002070BD10B5002200233F
:101C900040F66A14A14200D100BF0A120124944008
:101CA000A3B2DC43048010BD10B50446FE48844254
:101CB00008D101210846FFF7DEFC00210120FFF7D3
:101CC000DAFC9DE0B4F1804F08D101210846FFF70E
:101CD000C1FC00210120FFF7BDFC91E0F3488442E4
:101CE00008D101210220FFF7B5FC00210220FFF7F7
:101CF000B1FC85E0EE48844208D101210420FFF7C1
:101D0000A9FC00210420FFF7A5FC79E0E948844202
:101D100008D101210820FFF79DFC00210820FFF7D2
:101D200099FC6DE0E448844208D101211020FFF7BE
:101D300091FC00211020FFF78DFC61E0DF48844218
:101D400008D101212020FFF785FC00212020FFF78A
:101D500081FC55E0DA48844208D101210220FFF7D6
:101D60008AFC00210220FFF786FC49E0D548844226
:101D700009D101210804FFF77EFC00214FF48030D7
:101D8000FFF779FC3CE0D048844209D101214804A6
:101D9000FFF771FC00214FF40030FFF76CFC2FE0DF
:101DA000CA48844209D101218804FFF764FC00215C
:101DB0004FF48020FFF75FFC22E0C548844208D141
:101DC00001214020FFF746FC00214020FFF742FCA4
:101DD00016E0C048844208D101218020FFF73AFC78
:101DE00000218020FFF736FC0AE0BB48844207D17F
:101DF00001218015FFF72EFC0021A015FFF72AFC1A
:101E000010BD00220288A84B98420ED0AC4B9842DD
:101E10000BD0B0F1804F08D0A44B984205D0A44B12
:101E2000984202D0A34B984204D14FF68F731A40C8
:101E30004B881A43A04B984207D0A04B984204D03D
:101E40004FF6FF431A400B891A4302804B68C36266
:101E50000B880385944B984202D0994B984201D14C
:101E60008B7A03860123838270474FF0FF314160F4
:101E70000021018001814180817270470185828249
:101E800070470A46002101884FF68F7319401143AD
:101E90000180704741627047C16270470146486ADD
:101EA00070470146088D704721B1028842F0020256
:101EB000028004E002884FF6FD731A4002807047EA
:101EC00021B1028842F00402028004E002884FF649
:101ED000FB731A400280704721B1028842F08002F1
:101EE000028004E002884FF67F731A400280704738
:101EF00002884FF6F7731A40028002880A43028074
:101F0000704702884FF6FF431A40028002880A4356
:101F10000280704721B1028842F00102028004E091
:101F200002884FF6FE731A400280704770B5002495
:101F300000220023058C4FF6FE7635400584028C86
:101F40008388048B4FF68F752C40B51E2C400D886E
:101F50002C43751E2A408D892A434D882A43524DB1
:101F6000A84202D0564DA84213D14FF6F7752A4029
:101F7000CD892A434FF6FB752A408D882A434FF6B8
:101F8000FF652B404FF6FF552B400D8A2B434D8AA2
:101F90002B43838004838D684563028470BD70B5D4
:101FA000002400220023058C4FF6EF76354005848F
:101FB000028C8388048B48F6FF752C404FF6FF4552
:101FC0002C400D884FF6FF7606EA05252C434FF688
:101FD000DF752A408D8906EA05152A434D8806EAF1
:101FE00005152A43304DA84202D0354DA8421DD1D7
:101FF0004FF67F752A40CD894FF6FF7606EA051524
:102000002A434FF6BF752A408D8806EA05152A43F4
:102010004FF6FF352B404FF2FF752B400D8A06EA35
:1020200085052B434D8A06EA85052B43838004836F
:102030008D688563028470BD70B500240022002382
:10204000058C4FF6FF6635400584028C8388848BAF
:102050004FF68F752C404FF6FC752C400D882C43A5
:102060004FF6FF552A408D894FF6FF7606EA052583
:102070002A434D8806EA05252A430B4DA84202D083
:102080000F4DA84238D14FF2FF752A40CD894FF647
:10209000FF7606EA05252A434FF6FF352A408D884C
:1020A00006EA05252A4319E000000140000400402B
:1020B00000080040000C00400010004000140040E8
:1020C000000401400040014000440140004801403C
:1020D00000180040001C0040002000404EF6FF7534
:1020E0002B404DF6FF752B400D8A06EA05152B4354
:1020F0004D8A06EA05152B43838084838D68C5636A
:10210000028470BD70B5002200230024058C4EF6B9
:10211000FF7635400584038C8488828B48F6FF75F2
:102120002A404FF6FF452A400D884FF6FF7606EA13
:1021300005252A434DF6FF752B408D8906EA0535A6
:102140002B434D8806EA05352B43FE4DA84202D0AD
:10215000FD4DA84208D14BF6FF752C400D8A4FF675
:10216000FF7606EA85152C43848082838D6805649A
:10217000038470BD00210180418081808160818164
:10218000C18101824182704770B50346002000245E
:102190001846183001258D40ACB21D8CA5431D8416
:1021A00009B108290AD100EB610005684FF68F7666
:1021B000354005600568154305600FE00D1FC5F348
:1021C0004E052844056848F6FF76354005600568E9
:1021D0004FF6FF7606EA02263543056070BD41637F
:1021E000704781637047C1637047016470470A4656
:1021F0000021018B4FF68F73194011430183704703
:102200000A460021018B48F6FF7319404FF6FF7311
:1022100003EA02231943018370470A460021818B98
:102220004FF68F7319401143818370470A4600218E
:10223000818B48F6FF7319404FF6FF7303EA0223C0
:102240001943818370470A460021018B4FF6F773CB
:1022500019401143018370470A460021018B4FF258
:10226000FF7319404FF6FF7303EA022319430183FA
:1022700070470A460021818B4FF6F77319401143CE
:10228000818370470A460021818B4FF2FF7319400A
:102290004FF6FF7303EA02231943818370470A460E
:1022A0000021018B4FF6FB731940114301837047E6
:1022B0000A460021018B4FF6FF3319404FF6FF739A
:1022C00003EA02231943018370470A460021818BE8
:1022D0004FF6FB7319401143818370470A46002172
:1022E000818B4FF6FF3319404FF6FF7303EA022349
:1022F0001943818370470A460021018B4FF67F7393
:1023000019401143018370470A460021018BC1F334
:102310000E014FF6FF7303EA02231943018370474E
:102320000A460021818B4FF67F7319401143818348
:1023300070470A460021818BC1F30E014FF6FF73EF
:1023400003EA02231943818370470A460021018C66
:102350004FF6FD7319401143018470470A4600216E
:10236000018C4FF6F77319401143018470470A46F8
:102370000021018C4FF6DF7319404FF6FF7303EA1B
:1023800002131943018470470A460021018C4FF65D
:102390007F7319404FF6FF7303EA02131943018458
:1023A00070470A460021018C4FF6FF5319404FF643
:1023B000FF7303EA02231943018470470A46002190
:1023C000018C4FF2FF7319404FF6FF7303EA0223AB
:1023D0001943018470470A460021018C4DF6FF73B2
:1023E00019404FF6FF7303EA023319430184704723
:1023F00030B5002301248C40A3B2048C9C43048498
:10240000048C02FA01F5ADB22C43048430BD30B522
:10241000002304248C40A3B2048C9C430484048CC9
:1024200002FA01F5ADB22C43048430BD828B4FF229
:10243000FF331A408283828B4FF6FF7303EA012336
:102440001A4382837047F0B50C46154600210022DE
:102450000026078C4EF6FF7C07EA0C070784818B69
:10246000028C4FF6FF7707EA043640F6FF47394003
:102470004FF6FF7707EA052739434FF6FF7707EA5C
:102480000337394345F6FF773A4046F480573A43DD
:1024900081830284F0BD828B4FF6F3731A408283EE
:1024A000828B0A4382837047F0B50C4615460021A3
:1024B00000220026078C4FF6FF6C07EA0C07078402
:1024C000818B028C4FF6FF7707EA04264FF60C77D4
:1024D00039404FF6FF7707EA03172F4339434FF28E
:1024E000FF573A4046F480773A4381830284F0BD37
:1024F000028B4FF2FF331A400283028B4FF6FF73B9
:1025000003EA01231A4302837047F0B50C461546CF
:10251000002100220026078C4FF6EF7C07EA0C070B
:102520000784018B028C4FF6FF7707EA041640F60A
:10253000FF4739404FF6FF7707EA033739434FF635
:10254000FF7703E0000001400004014007EA05278F
:1025500039434FF65F773A4046F010073A4301831C
:102560000284F0BD028B4FF6F3731A400283028B94
:102570000A4302837047F0B50C461546002100223D
:10258000068C4FF6FE773E400684018B028C4FF698
:102590000C7631407E1C06EA03162E4331434FF67B
:1025A000F576324044F00106324301830284F0BDE7
:1025B00070B505460C46208850B92389A2886188E9
:1025C0002846FFF7D8FFE1882846FFF7CBFF25E034
:1025D000208804280AD12389A28861882846FFF729
:1025E00094FFE1882846FFF783FF17E0208808283A
:1025F0000AD12389A28861882846FFF755FFE18820
:102600002846FFF748FF09E02389A2886188284609
:10261000FFF719FFE1882846FFF708FF70BD00218A
:1026200001804180012181800021C18001817047AA
:102630002DE9F04105460C4600260127608808B9BF
:10264000022600E00026A088012801D1022700E030
:1026500001272088A0B92389A28861882846FFF72E
:102660008AFFE1882846FFF77DFF23893A463146F5
:102670002846FFF74AFFE1882846FFF739FF13E0B5
:102680002389A28861882846FFF73FFFE188284612
:10269000FFF72EFF23893A4631462846FFF76BFFA6
:1026A000E1882846FFF75EFFBDE8F0810146486BF0
:1026B00070470146886B70470146C86B70470146FA
:1026C000086C70470A884B881A438B881A43CB885A
:1026D0001A430B891A434B891A438B891A43A0F872
:1026E000442070470021018041808180C1800181A8
:1026F00041818181704731B1B0F8442042F40042F9
:10270000A0F8442005E0B0F84420C2F30E02A0F87F
:102710004420704721B1828842F00402828004E0A4
:1027200082884FF6FB731A408280704721B18288FD
:1027300042F00102828004E082884FF6FE731A4064
:10274000828070471AB183890B43838102E08389B9
:102750008B43838170478182704702460020138A31
:102760000B400BB1012000E000207047CA430282F9
:10277000704730B50246002000230024158A05EA80
:102780000103958905EA010413B10CB1012000E0B1
:10279000002030BDCA430282704741EA0203A0F81C
:1027A000483070471AB183890B43838102E08389E3
:1027B0008B438381704721B1828842F00802828076
:1027C00004E082884FF6F7731A40828070470189CF
:1027D0004FF6F8721140018170470A4600210189C5
:1027E0004FF68F73194011430181704730B504468D
:1027F0000D4629462046FFF7F0FF208940F00700EC
:10280000208130BD2DE9F04104460D4616461F4695
:10281000602D06D13B46012231462046FFF775FE6A
:1028200005E03B46012231462046FFF7A4FE29463B
:102830002046FFF7D2FF208940F007002081BDE845
:10284000F08130B50C4600210189C9B24FF6FF7501
:1028500005EA0325154325432943018130BD2DE9B0
:10286000F04105460E4617469846002443463A4630
:1028700031462846FFF7E5FF2C894FF6F8700440F3
:1028800044F007044FF68F70044044F070042C812C
:10289000BDE8F081F0B504460D4616461F463B469E
:1028A000324629462046FFF7CCFF208940F480407D
:1028B0002081F0BD82884FF68F731A408280828813
:1028C0000A438280704702894FF6F8731A400281EA
:1028D00002890A430281704702894FF67F731A40CA
:1028E000028102890A4302817047F0B50C46154601
:1028F0001E460021002200230189028B038C4FF623
:10290000F877394021434FF6FC473A4040F201172F
:102910003A434FF6DD773B404FF6FF7707EA06175D
:102920002F433B43018102830384F0BD21B18288A0
:1029300042F08002828004E082884FF67F731A4062
:1029400082807047A0F85010704700000020414975
:102950000860091D0860091D0860091D08603E48DF
:102960003C4914310860704700213A498279002AB5
:102970003AD00A46126803689A430B461A600A1D49
:10298000126803689A430B1D1A60027911440A68A1
:1029900003681A430A602F4A0832126803689A4390
:1029A0002C4B08331A601A1D126803689A43294B8E
:1029B0000C331A604279102A0ED11A1F126803686C
:1029C0001A43244B08331A601A1D126803681A430D
:1029D000204B0C331A600DE01E49427911440A68FD
:1029E00003681A430A6005E0027911440A68036823
:1029F0009A430A6070470021016001710C21417106
:102A00000021817170471349103109680143114A4F
:102A1000103211607047014600200E4A14321268CD
:102A20000A400AB1012000E0002070470949143132
:102A30000860704701460020064A143212680A40B6
:102A40000AB1012000E000207047024914310860FB
:102A500070470000003C0140FFFF7F00016821F04B
:102A6000010101600021016041608160C16001617C
:102A700021214161DB49884204D13D21D94A103AE4
:102A800091608CE0D7491831884205D14FF47461C8
:102A9000D44A103A916082E0D2493031884205D15F
:102AA0004FF47411CF4A103A916078E0CD49483123
:102AB000884205D14FF07461CA4A103A91606EE0C5
:102AC000C8496031884204D1C749C64A103AD1602A
:102AD00065E0C4497831884204D1C449C14A103AFA
:102AE000D1605CE0BF499031884204D1C049BD4A01
:102AF000103AD16053E0BB49A831884205D14FF06C
:102B00003D51B84A103AD16049E0BA49884204D1EF
:102B10003D21B84A083A116041E0B649183188426F
:102B200005D14FF47461B34A083A116037E0B149F6
:102B30003031884205D14FF47411AE4A083A116021
:102B40002DE0AC494831884205D14FF07461A94A63
:102B5000083A116023E0A7496031884204D1A249B4
:102B6000A44A121F11601AE0A2497831884204D1A8
:102B70009E49A04A121F116011E09E49903188427F
:102B800004D19B499B4A121F116008E09949A83162
:102B9000884204D14FF03D51964A121F1160704790
:102BA00010B500220268944B1A40CC680B6823438E
:102BB0004C6923438C692343CC6923430C6A234328
:102BC0004C6A23438C6A23434C6B23438C6B234313
:102BD0001A430260426922F00702D1E90B34234311
:102BE0001A4342610B6943604B6883608B68C36022
:102BF00010BD0021016041608160C16001614161DF
:102C00008161C161016241628162C16201634163AC
:102C10008163704721B1026842F00102026003E063
:102C2000026822F001020260704721B1026842F49A
:102C30000042026003E0026822F400420260704732
:102C400021B1026842F02002026003E0026822F033
:102C5000200202607047416070470146486880B2B8
:102C6000704722B1036843F40023036003E0036864
:102C700023F4002303600161704721B1026842F42C
:102C80008022026003E0026822F480220260704722
:102C90000AB1016100E0C1607047014600200A6886
:102CA00002F400220AB1012000E000207047014632
:102CB00000200A6802F001020AB1012000E00020B1
:102CC0007047014600204A6902F03800704730B56D
:102CD00003460A4600200024464DAB4202D2414939
:102CE000103901E04349103902F000550DB14C682C
:102CF00000E00C68414D2C4004EA02050DB10120B2
:102D000000E0002030BD02463A4B9A4202D23548DC
:102D1000103801E03748103801F000531BB1374B31
:102D20000B40C36002E0354B0B408360704710B529
:102D300001F080034BB122B1436943F0800343614A
:102D400003E0436923F08003436180290BD02AB15B
:102D5000036801F01E042343036004E0036801F0EC
:102D60001E04A343036010BD70B50246002000247A
:102D70000025204EB24202D21A4B103B01E01D4BFF
:102D8000103B1F4E0E4036B11E2606EAD1241668AF
:102D900006EA040502E0566906F0800501F00056D7
:102DA0000EB15C6800E01C68144E344004EA010671
:102DB00016B10DB1012000E0002070BD02460D4BA0
:102DC0009A4202D20748103801E00A48103801F050
:102DD00000531BB1094B0B40C36002E0074B0B4093
:102DE00083607047106002403D000020400F0020CB
:102DF00000003D20106402403F801CF07D0F7D0FDD
:102E00003C0F3C0F10B54FF4A060FDF7F1FFA82078
:102E1000FDF74CFF04F035F8FDF7F4FBFDF71AFC65
:102E2000FDF7A0FBFDF73AFC00210846FDF7E5FDA4
:102E30004FF4E13000F02DFF4FF4E13001F0A4FB3E
:102E40004FF4E13001F08DF900F05AF86420FDF7FD
:102E50008FFF532144F61F6000F0B7FB532140F26F
:102E6000E73000F02AFC03F03DFF04F053FC4FF480
:102E70007F410846FDF7C1FD00F07EFA00F0ADFA93
:102E800000F096FE04F064FD04F084FD002004F0E0
:102E9000BBFD002004F00AFE532144F61F6000F041
:102EA00026FB00F073FB0120124908604FF47A7092
:102EB000FDF75EFF04F03CF901200F49C1F89402D0
:102EC0004FF47A70FDF754FF01200A490831086079
:102ED0004FF47A70FDF74CFF03F05EFD00200749C8
:102EE0000860091D0860532140F2E73000F038FC0B
:102EF00010BD000090024142000041428002404269
:102F000000B597B001210846FEF706FB01214804F1
:102F1000FEF74BFB01214805FEF7FEFA07220221CE
:102F2000F748FEF7E6F807220321F548FEF7E1F837
:102F30000C20159002208DF858008DF859000020C3
:102F40008DF85A0001208DF85B0015A9EC48FEF7BA
:102F500045F8EC48006811900020ADF84800ADF845
:102F60004A00ADF850000C20ADF84E00E64800785D
:102F700020B1012806D002280ED108E00020ADF8CB
:102F80004C0009E04FF4C060ADF84C0004E04FF491
:102F90008060ADF84C0000BF00BF11A9DB48FEF710
:102FA000C0FC40F22551D948FEF76FFE012240F2E5
:102FB0002551D648FEF7F3FD012240F22441D348C3
:102FC000FEF7EDFD26208DF8400001208DF8410030
:102FD0008DF842008DF8430010A8FDF70EFF012187
:102FE000CA48FEF726FD01224021C848FEF7CEFD63
:102FF000C748FFF733FD00BFC548FFF758FE00285C
:10300000FAD14FF000600190C048001D0290C14805
:1030100003900020049028200590002006904FF493
:10302000806007900020089009900A904FF480304B
:103030000B9000200C9003200D9000200E900F901C
:1030400001A9B348FFF7ACFD0121B148FFF7E2FD4C
:1030500017B000BD10B52DED068B044662782178BF
:1030600002EB012006F017FC41EC1A0B9FEDAA0BB6
:1030700053EC102B06F0B4FC41EC190B06F062F98E
:1030800008EE100A9FEDA60AB4EEC08AF1EE10FA1F
:1030900011DB18EE100A06F099FF41EC1A0B9FEDB8
:1030A000A10B53EC102B06F0A7FE41EC190B06F018
:1030B00049F908EE100AB0EE480ABDEC068B10BDC7
:1030C00001464B780A7803EB022290B2704710B5A4
:1030D0002DED028B044614B9BDEC028B10BD207897
:1030E000012802D02078022859D16078032856D1CF
:1030F000A078022853D18D480088012806D1E01C11
:10310000FFF7A8FF8A4880ED000A49E08748008859
:10311000022806D1E01CFFF79DFF864880ED000ADB
:103120003EE082480088032805D1E01CFFF7C8FF75
:103130008149088034E07D480088042805D1E01CDE
:10314000FFF7BEFF7D4908802AE0784800880528FF
:1031500010D1E01CFFF77EFF794880ED000A00687F
:1031600006F034FF41EC180B53EC182B75A004F05B
:10317000A3FD15E06D480088062811D1E01CFFF77B
:1031800069FF724880ED000A006806F01FFF41ECFD
:10319000180B53EC182B6EA004F08EFD00E09BE79B
:1031A00000BF99E710B5002440F224415748FEF7CC
:1031B00031FD48B35648FFF750FDC0F1280067497C
:1031C000086000215248FFF725FD50480088C4B22E
:1031D0004E48001D0088C4B261494D48FFF793FD79
:1031E0005E480068072802D14A48FFF770FF28218F
:1031F0004748FFF730FD01214548FFF70BFD40F23E
:1032000024414248FEF741FD10BD00205549088089
:10321000704770B504460D460120534908700BE015
:1032200000BF80213948FEF7DFFC0028F9D014F8F0
:10323000011B3648FEF728FC2800A5F10101CDB29C
:10324000EED100BF40213148FEF7CEFC0028F9D076
:1032500070BD70B502460C46FF25FF2309E012F849
:10326000010B80EA05014148405C80EA03054048C3
:10327000435C2000A4F10106B4B2F0D143EA05207A
:1032800070BD2DE9F04106460C46154639480670DA
:1032900003203849487020128870CC7028120871B9
:1032A0004D7106213348FFF7D4FF0746380A3149EC
:1032B0008871CF7108212F48FFF7ABFFBDE8F0817F
:1032C0002DE9F04106460C4615462A4806700620B0
:1032D0002849487020128870CC70280A08714D71F6
:1032E00006212448FFF7B5FF0746380A21498871AF
:1032F000CF7108211F48FFF78CFFBDE8F081000067
:10330000000002404400002048000020004400402B
:1033100088600240C00600209A9999999999B93F0E
:1033200000004843000000008099B9400C000020D4
:1033300084000020880000208C0000208E000020E7
:10334000900000206C6566743D25660094000020A6
:1033500072696768743D25660D0A00007C000020D4
:10336000400F00204A0000205100002072A20008F7
:1033700072A30008F80500201FB501218020FEF788
:1033800014F940F28F1002904AF20F40ADF8040099
:103390000020ADF80600ADF80C0001A93C48FEF78E
:1033A00030FD01213A48FFF7F5F90122114638486E
:1033B000FFF7C8F92C208DF8000003208DF80100DC
:1033C00001208DF802008DF803006846FDF715FD19
:1033D00000212F48FEF79EFD1FBD1FB501210802E9
:1033E000FEF7E3F842F20F7002904AF20F40ADF898
:1033F00004000020ADF80600ADF80C0001A9254836
:10340000FEF7FFFC01212348FFF7C4F90122114612
:103410002048FFF797F92D208DF8000003208DF844
:10342000010001208DF802008DF803006846FDF7C9
:10343000E4FC00211748FEF76DFD1FBD10B501210A
:103440001448FFF796F970B101211248FFF7A2F96D
:1034500000201149086011490880114908800021A5
:103460000C48FEF757FD10BD10B501210848FFF7C5
:1034700080F960B101210648FFF78CF94FF47A71A9
:103480000848FEF7AEFE00210148FEF743FD10BDDF
:10349000001C004000200040A80100208C000020FB
:1034A0008E0000200004014010B5F948D0E900303A
:1034B000F84A12CA5A1A60EB040040F2DC530021A9
:1034C0009A1A814109D20020F3490860F348007834
:1034D00040F00100F149087008E00120EE49086061
:1034E000EE48007800F0FE00EC49087010BD30B5E1
:1034F0008BB004460D4601210420FEF756F8012149
:103500000220FEF709F802220721E548FDF7F1FD48
:103510008020099002208DF8280003208DF82900D2
:1035200000208DF82A0001208DF82B0009A9DC4825
:10353000FDF754FDADF818500020ADF81A000794BF
:10354000ADF8200006A9D748FEF75BFC6020ADF877
:1035500004000120ADF806000220ADF8100001A91A
:10356000D048FEF71CFD0821CE48FEF775FE01216C
:10357000CC48FEF7B1FC0121CA48FEF7CBFC44F26F
:103580005061C848FEF72DFE0BB030BD10B50024C9
:1035900044F25061C348FEF724FE00BF04E032202D
:1035A000FDF7E6FB601CC4B21E2CF8DB44F63821A4
:1035B000BC48FEF716FE002404E03220FDF7D8FBDD
:1035C000601CC4B21E2CF8DB10BD30B58BB00446B5
:1035D0000D4601210846FDF7E8FF01210220FDF715
:1035E0009BFF01210846FDF797FF01220A21AC4805
:1035F000FDF77FFD01220B21A948FDF77AFD01228D
:103600000521A948FDF775FD4FF44060099002209F
:103610008DF8280003208DF8290000208DF82A005D
:1036200001208DF82B0009A99D48FDF7D7FC20202B
:10363000099009A99C48FDF7D1FCA8B2ADF8180083
:103640000020ADF81A000794ADF8200006A94FF04D
:103650008040FEF7D6FB6020ADF804000120ADF8F5
:1036600006000220ADF8100001A94007FEF75EFC3D
:1036700001A94FF08040FEF7DFFC01A94FF0804028
:10368000FEF740FD0821C806FEF7DDFD0821C8064B
:10369000FEF7EFFD0821C806FEF7F4FD01218807BB
:1036A000FEF71AFC01218807FEF734FC44F61201EC
:1036B0004807FEF794FD0BB030BD30B58BB0044623
:1036C0000D4601210220FDF781FF01210420FDF7B5
:1036D00023FF032207217548FDF70BFD8020099089
:1036E00002208DF8280003208DF8290000208DF895
:1036F0002A0001208DF82B0009A96C48FDF76EFC0B
:10370000A8B2ADF818000020ADF81A000794ADF883
:10371000200006A96648FEF774FB6020ADF804009F
:103720000120ADF806000220ADF8100001A96048A4
:10373000FEF735FC08215E48FEF78EFD00215C484F
:10374000FEF74FFD01215A48FEF7C6FB01215848FC
:10375000FEF7D1FF01215648FEF7DCFB0BB030BD70
:1037600030B589B005460C4601210220FDF71DFF4A
:1037700001210220FDF7D0FE0795ADF8184000208A
:10378000ADF81A00ADF8200006A94A48FEF739FB4B
:10379000012211464748FEF7D5FF1D208DF8140081
:1037A00001208DF815008DF816008DF8170005A87A
:1037B000FDF723FB6020ADF800000120ADF802000A
:1037C0000020ADF80C0069463A48FEF735FC0821A8
:1037D0003848FEF74EFD00213648FEF704FD012172
:1037E0003448FEF797FB09B030BD334890ED000A2E
:1037F000DFED320AB4EEE00AF1EE10FA0EDD90EDE4
:10380000020ADFED2F0AB4EEE00AF1EE10FA05D25B
:103810002C480068401C2B49086002E00020294920
:10382000086028480068142830DB2348008D10BB4E
:103830002148C08CF8B92048808CE0B91E48408CE3
:10384000C8B91D484069B0B91B48806998B91A4881
:10385000006980B91848408D68B91748C06950B9E7
:1038600000200D490831086001201749C1F88C0279
:10387000164908700AE0002007490C310860012051
:103880001149C1F8880200200E4908607047000005
:1038900098000020580100208002414226010020AB
:1038A00000040240000800400000024000080240FE
:1038B0000004014000040040640800206666663F82
:1038C000666666BF280100200000414227010020F3
:1038D00070B50121D648FEF74CFF01287ED10121A9
:1038E000D348FEF757FFD348D0E9003061229C1837
:1038F00040F1000119220023204604F042F9002182
:103900004A404B401A4301D103F068FBC948D0E953
:10391000002040F2D513D41840F10001C822002342
:10392000204604F02EF900214A404B401A4309D1A9
:10393000C148007830B904F014F8C0480068401C51
:10394000BE490860BE48007801287DD1B948D0E959
:10395000001011F1270440F10001642200232046E9
:1039600004F00FF900214A404B401A4301D102F004
:103970009BFFB448007801283AD1AE48D0E9003026
:1039800083229C1840F1000164220023204604F0A9
:10399000F8F800214A404B401A4301D103F01CF9CA
:1039A000A448D0E9001011F1350440F1000164226F
:1039B0000023204604F0E5F800214A404B401A431A
:1039C00001D102F03DFD9B48D0E9001011F14E04F9
:1039D00040F1000132220023204600E0BBE004F069
:1039E000D0F800214A404B401A4301D102F099FE21
:1039F0009048D0E9002012F1450440F10001142262
:103A00000023204604F0BDF800214A404B401A43F1
:103A100002D18D4803F0A0FC64220023854903C92C
:103A200004F0AFF800214A404B401A4301D101F0A5
:103A3000E1F98048D0E900204FF4DA73D41840F15E
:103A400000014FF4FA7200E055E00023204604F034
:103A500098F800214A404B401A430ED17B48006839
:103A600058B97B4801887B48D0ED000A7A48008825
:103A70007A4A92ED000A02F064FE6E48D0E9001026
:103A800011F1180440F1000132220023204604F015
:103A900078F800214A404B401A4301D102F0D9FF87
:103AA0006448D0E900202521541840F10001C822C3
:103AB0000023204604F065F800214A404B401A4399
:103AC00003D103F0B6FB03F099FB5A48D0E900108C
:103AD00040F24D13CC1840F100014FF4FA7200236C
:103AE000204604F04EF800214A404B401A4315D1BD
:103AF00003F0E0F912E04F48D0E9002012F122046F
:103B000040F1000164220023204604F03AF800212D
:103B10004A404B401A4301D1FFF767FE4548D0E9C0
:103B200000104FF44473CC1840F10001C822002368
:103B3000204604F026F800214A404B401A4301D1A8
:103B4000FFF7B2FC3B48D0E900305A1C40F10000BE
:103B50003849C1E9002070BD10B541484149097894
:103B600000EBC10090ED011AF0EE410A3C483D49DE
:103B7000097800EBC10090ED001AB0EE410A9FED0C
:103B80003A1B40F6D30240F6A60140F6D27001F08F
:103B900041FF34480078401C324908700878C1174A
:103BA00000EB11710911A0EB01112E4A117010BD2B
:103BB0001FB501214020FDF7F8FC40F69F700290F0
:103BC0004AF20F40ADF804000020ADF80600ADF851
:103BD0000C0001A92648FEF714F901212448FEF73C
:103BE000D9FD012211462248FEF7ACFD2B208DF8AD
:103BF000000003208DF8010001208DF802008DF8EF
:103C000003006846FDF7F9F800211948FEF782F92C
:103C10001FBD10B501211648FEF7ABFD30B10121E3
:103C20001348FEF7B7FD00201249086010BD0000E0
:103C30000004004098000020BC040020A0000020E8
:103C400027010020B0040020C0070020A8010020A8
:103C50008E000020880000208C00002084000020BE
:103C6000A40000202501002000000000000000004A
:103C700000180040CC04002000BF704700BFFE4A7F
:103C8000128802F04002002AF9D0C2B2FA4B9A80A0
:103C9000704710B588B0044601210846FDF73CFC8A
:103CA00001211020FDF792FC01218805FDF734FC6D
:103CB00007220921F148FDF71CFA07220A21EF48E3
:103CC000FDF717FA4FF4C060069002208DF81C0033
:103CD0008DF81D0000208DF81E0001208DF81F00BA
:103CE00006A9E648FDF77AF902940020ADF80C0029
:103CF000ADF80E00ADF81000ADF814000820ADF8D6
:103D0000120002A9DC48FDF70CFE0121DA48FDF79C
:103D100090FE25208DF8040003208DF805008DF815
:103D2000060001A8FDF769F808B010BDB0EE401A12
:103D300090ED000AD0ED011A30EE210AD0ED021A02
:103D400030EE210AD0ED031A70EE211A00EE101A9F
:103D5000B8EEC02A81EE820A704770B52DED048B53
:103D600040F22551C448FDF755FF00283CD0C24819
:103D7000FDF78EFEC4B2C248008800F4004018BBB4
:103D80003A2C06D1BE48008840F40050BC49088057
:103D90002AE0BB48008800F40050A8B10D2C06D1E1
:103DA000B748008840F48040B54908801CE0B4481A
:103DB000008800F4804040B10A2C15D1B04800883A
:103DC00040F40040AE4908800EE0AD480088C0F3E2
:103DD0000C05AC484455AA480088401CA8490880F6
:103DE000C72D01DD00200880A548008800F40040B0
:103DF00000287DD00120A4490870A1480088C0F3A4
:103E00000C06A24903C9A24A03C2A24890ED000AC7
:103E1000F2EE040A30EE600A9F4880ED000A9D48E9
:103E200090ED010AF2EE040A30EE600A9A4880ED45
:103E3000030A984890ED020ADFED980A30EE600A16
:103E4000BDEEC00A944880ED040A924890ED030A42
:103E5000DFED920A30EE600ABDEEC00A8E4880EDBA
:103E6000050A8C4890ED040ADFED8C0A30EE600AFA
:103E7000BDEEC00A884880ED060A864890F8240006
:103E800000F0010084490884824890F82400C0F3BF
:103E9000400048847F4890F82400C0F38000888464
:103EA0000846406940F2EE21884203DC7A484069C6
:103EB000002803DA7A4800687749486176488069C3
:103EC00040F2EE21884203DC73484069002803DA9F
:103ED00074480068704988616F48006940F2EE21BB
:103EE000884203DC6C480069002805DA6E4800E06F
:103EF000BFE0006868490861674800696A4908606E
:103F0000654840696649086063488069654908609A
:103F1000614890ED000AF7EE000AB4EEE00AF1EE17
:103F200010FA08DC90ED000AFFEE000AB4EEE00A99
:103F3000F1EE10FA05D25D4890ED000A564880ED8A
:103F4000000A554890ED030AF7EE000AB4EEE00AC5
:103F5000F1EE10FA08DC90ED030AFFEE000AB4EE71
:103F6000E00AF1EE10FA05D2514890ED000A4A48F5
:103F700080ED030A484890ED000A4C4880ED000AA5
:103F8000454890ED030A4A4880ED000A424890ED0A
:103F9000000A10EE101A084606F018F841EC190B4A
:103FA000B0EE490AF0EE690A05F092F8B0EE408AE8
:103FB000F0EE608A9FED3F0B53EC102B51EC180B89
:103FC00005F0D2FC3BD8344890ED030A10EE101AED
:103FD000084605F0FBFF41EC190BB0EE490AF0EE84
:103FE000690A05F075F8B0EE408AF0EE608A9FED40
:103FF000310B53EC102B51EC180B05F0B5FC1ED80F
:10400000254890ED000A2D482D49096800EB8100F4
:1040100080ED000A204890ED030A2A4828490968E3
:1040200000EB810080ED000A25490968481CC11792
:1040300000EB91718910A0EB8101214A1160FFEE24
:10404000000AB7EE000A04211C48FFF76FFE124871
:1040500080ED000AFFEE000AB7EE000A04211948BD
:10406000FFF764FE0C4880ED030A00200449088035
:1040700000BFBDEC048B70BD001001400000024089
:1040800034010020F80600203601002098000020AE
:10409000500100202C0900206408002000007A4410
:1040A00060010020640100207001002068010020F0
:1040B0006C010020000000000000F03FEC08002030
:1040C0004C0100200409002010B588B004460121ED
:1040D000C804FDF76AFA01210420FDF71DFA082241
:1040E0000A21FA48FDF705F808220B21F748FDF7E9
:1040F00000F84FF44060069002208DF81D008DF806
:104100001C0000208DF81E0001208DF81F0006A95C
:10411000EE48FCF763FF34208DF8040002208DF890
:10412000050000208DF8060001208DF8070001A889
:10413000FCF763FE02940020ADF80C00ADF80E0011
:10414000ADF81000ADF814000C20ADF8120002A973
:10415000DF48FDF7E6FB0121DD48FDF76AFC08B00A
:1041600010BD10B596B0044601210820FDF7D4F922
:1041700001218804FDF719FA01214805FDF7CCF962
:1041800007220921D348FCF7B4FF4FF400701490C4
:1041900002208DF854008DF8550000208DF856004F
:1041A00001208DF8570014A9CA48FCF717FF109496
:1041B0000020ADF84400ADF84600ADF84800ADF879
:1041C0004C000420ADF84A0010A9C348FDF7A9FB34
:1041D0000121C148FDF72DFC012240F22441BE48D7
:1041E000FDF7DDFC4021BC48FDF70BFD012240F24C
:1041F0002551B948FDF7D3FC27208DF83C0000205D
:104200008DF83D008DF83E0001208DF83F000FA88D
:10421000FCF7F3FD01224021AF48FDF7B7FCAF48A2
:10422000FEF71CFC00BFAD48FEF741FD0028FAD1A7
:104230004FF000600090A848001D0190A84802902F
:1042400000200390DC200490002005904FF4806053
:10425000069000200790089009904FF480300A9053
:1042600000200B9003200C9000200D900E906946CA
:104270009A48FEF795FC01219848FEF7CBFC16B052
:1042800010BD2DE9F04708B9BDE8F08700210026F0
:1042900002780A2A7ED142780D2AFBD1027D0D2AAE
:1042A000F8D1427D0A2AF5D100BF5AE0CB1CC45C8C
:1042B0008B1CC35C04EB03231BB20A4601EBD274D4
:1042C0006410884D25F8143001EBD1784FEA680866
:1042D000DFF8149239F9188001EBD1794FEA6909B6
:1042E000AA463AF91990A8EB0908B8F1000F10DDB9
:1042F00001EBD1784FEA6808DFF8EC9139F91880C2
:1043000001EBD1794FEA69093AF91990A8EB09084C
:1043100013E001EBD1784FEA6808DFF8CC9139F966
:104320001880C8F1000801EBD1794FEA6909DFF87C
:10433000B4A13AF91990A8EB090842F21079C845DE
:104340000DDD0A4601EBD2746410664D35F8144059
:104350000B4601EBD3756D10624F27F815408A1C90
:10436000D1B21029A2DBC278837802EB032212B209
:104370005E4B9A804279037902EB032212B25B4BC7
:10438000DA80C279837902EB032212B2574B5A804A
:10439000427A00E0AEE0037A02EB032212B2534B02
:1043A0001A80C27A837A02EB032212B24F4B5A82EE
:1043B000427B037B02EB032212B24C4B1A83427CFA
:1043C000037C02EB032212B2484B9A82827C0123C7
:1043D000B3EBD21F07D1827CC2F380121AB900223C
:1043E000424BDA8218E0827CD2093AB9827CC2F36D
:1043F00080121AB901223D4BDA820DE0827CD2098B
:104400003AB9827CC2F380121AB10222374BDA82A7
:1044100002E00022354BDA82827CC2F340123AB9C4
:10442000827CC2F300121AB90022304B1A8216E0C5
:10443000827CC2F340123AB1827CC2F300121AB9F4
:1044400001222A4B1A820AE0827CC2F3401232B95E
:10445000827CC2F3001212B10222244B1A82827CA7
:10446000C2F3C0023AB1827CC2F380021AB90022C0
:104470001E4B9A8116E0827CC2F3C0023AB9827C5C
:10448000C2F380021AB90122184B9A810AE0827C99
:10449000C2F3C00232B9827CC2F3800212B102229E
:1044A000124B9A81C27CC2F34012104BDA81C27C5B
:1044B000C2F3C0025A81C27CC2F380021A810C4A44
:1044C0001268521C0A4B1A6015E0000000080240F6
:1044D000004C0040000C02400048004028600240B0
:1044E0001B0800201C090020800100204808002033
:1044F00074010020C8E600BFC6E670B5002540F292
:1045000024418548FDF786FB00283CD0002400218B
:104510008248FEF77FFB80480088C5B27E48001DB8
:104520000088C5B27E497D48FEF7EDFB7D48D0E9A5
:1045300000107D4AC2E9001000BF18E07B48005D12
:104540000A2812D17949601C085C0D280DD104F1AC
:104550001400085C0D2808D104F11500085C0A2835
:1045600003D10819FFF78DFE03E0601CC4B2162CBE
:10457000E4DB00BF2C216948FEF76DFB0121674891
:10458000FEF748FB00BF70BD10B596B00446012190
:104590000420FCF7C1FF0121C804FDF706F8012142
:1045A0004805FCF7B9FF08220A216148FCF7A1FD84
:1045B00008220B215E48FCF79CFD4FF440601490EC
:1045C00002208DF854008DF8550000208DF856001B
:1045D00001208DF8570014A95548FCF7FFFC1094F2
:1045E0000020ADF84400ADF84600ADF84800ADF845
:1045F0004C000C20ADF84A0010A94E48FDF791F987
:1046000001214C48FDF715FA012240F224414948A6
:10461000FDF7C5FA40214748FDF7F3FA012240F2C1
:1046200025514448FDF7BBFA34208DF83C000320A7
:104630008DF83D008DF83E0001208DF83F000FA859
:10464000FCF7DBFB012240213A48FDF79FFA334893
:104650001830FEF703FA00BF30481830FEF727FB8A
:104660000028F9D14FF0006000903248001D019001
:10467000314802900020039040F28E3004900020D8
:1046800005904FF4806006900020079008900990F4
:104690004FF480300A9000200B9003200C900020F3
:1046A0000D900E9069461D481830FEF779FA0121E9
:1046B0001A481830FEF7AEFA16B010BD10B5002437
:1046C00040F224411B48FDF7A5FA20B31B480068BF
:1046D000401C1A490860002110481830FEF79AFA69
:1046E00014480088C4B21348001D0088C4B214499D
:1046F0000A481830FEF707FB5B2108481830FEF720
:10470000AAFA012105481830FEF784FA40F2244144
:104710000848FDF7BAFA10BD004800402860024082
:10472000400F001098000020580100201B080020B6
:1047300000080240004C0040C0070020E8060020AE
:1047400000003D1000B585B001210846FCF7E4FEED
:104750004FF4C050009000208DF8040001208DF827
:10476000060003208DF8050001208DF8070069463A
:104770004748FCF733FC01218803FCF727FF0C2195
:104780000020FDF72EF80B210020FDF72AF84FF44A
:10479000C050039000208DF810000C208DF81100FF
:1047A00001208DF8120003A8FEF7DEF828208DF80E
:1047B000080002208DF8090001208DF80A008DF80C
:1047C0000B0002A8FCF719FB4FF400613048FCF71E
:1047D00067FC18B901202F49087009E04FF4006107
:1047E0002B48FCF75DFC012802D100202949087004
:1047F0004FF480512648FCF753FC18B90120264994
:10480000087009E04FF480512148FCF749FC012869
:1048100002D100202049087005B000BD10B54FF44A
:104820000060FEF707F9B0B90A20FCF7A1FA4FF4CF
:1048300000611748FCF734FC18B9012015490870CD
:1048400009E04FF400611248FCF72AFC012802D16C
:104850000020104908704FF48050FEF7EBF8B0B913
:104860000A20FCF785FA4FF480510948FCF718FC40
:1048700018B901200849087009E04FF48051044834
:10488000FCF70EFC012802D100200349087010BD7E
:1048900000000240920100209101002010B52DED92
:1048A0000C8BB0EE408AF0EE608AB0EE419AF0EEEA
:1048B000619A53EC182B51EC180B05F091F841EC70
:1048C0001C0B53EC192B51EC190B05F089F841EC3A
:1048D0001D0B53EC1C2B05F08FFA41EC1B0BB0EEBB
:1048E0004B0AF0EE6B0A04F0FDFBB0EE40AAF0EECE
:1048F00060AAB0EE4A0AF0EE6A0ABDEC0C8B10BD5D
:1049000000B52DED108B85B0B0EE408AF0EE608AD8
:10491000B0EE419AF0EE619AB0EE42AAF0EE62AAD1
:104920009FEDE20B53EC102B51EC180B04F0F0FD53
:1049300041EC180B9FEDDD0B53EC102B51EC190BD8
:1049400004F0E6FD41EC190B9FEDD80B53EC102B56
:1049500051EC1A0B04F0DCFD41EC1A0B53EC192B53
:1049600051EC180B04F020FD41EC1E0B53EC1A2BFC
:1049700004F01AFD41EC1D0B9FEDCE0B53EC102BF8
:1049800004F0C6FD41EC1B0B53EC1B2B51EC180B38
:1049900005F05AF941EC1E0B53EC1B2B05F020F8E7
:1049A00041EC1D0BB0EE4D0AF0EE6D0A04F09AFBDF
:1049B0008DED020B53EC1A2B51EC1B0B05F01CFA7E
:1049C00041EC1E0B53EC192B51EC1B0B05F014FAA8
:1049D00041EC1F0B53EC1E2B05F002F841EC1D0BB4
:1049E000B0EE4D0AF0EE6D0A04F07CFB8DED000B8D
:1049F0009DED000B53EC102B9DED020B51EC100BB9
:104A000004F0EEFF41EC1C0B9FEDAC0B53EC102BB4
:104A100051EC1C0B04F0E4FF41EC1C0BB0EE4C0A13
:104A2000F0EE6C0A05B0BDEC108B00BD10B52DED9D
:104A30000C8BB0EE408AF0EE608AB0EE41AAF0EE48
:104A400061AAB0EE429AF0EE629AB0EE492AF0EE18
:104A5000692AB0EE4A1AF0EE6A1AB0EE480AF0EE91
:104A6000680AFFF74DFFB0EE40DAF0EE60DA9FED36
:104A7000910B53EC102B51EC1D0B04F0B1FF53ECD8
:104A8000192B04F045FD05F04DFB8E4A03C28D49FC
:104A900003C904F017FF41EC1C0BB0EE481AF0EE0E
:104AA000681AB0EE4C0AF0EE6C0AFFF7F7FEB0EEB3
:104AB00040BAF0EE60BA51EC1B0B05F033FB824AB2
:104AC00003C2804903C904F0FDFE41EC1C0BB0EEAB
:104AD0004A1AF0EE6A1AB0EE4C0AF0EE6C0AFFF7D2
:104AE000DDFEB0EE40BAF0EE60BA51EC1B0B05F003
:104AF00019FB764A03C2BDEC0C8B10BDF0B506461F
:104B00000F4614461D4600210846891BB84102DAAB
:104B10003046394603E00021704261EB0701002373
:104B20001A461B1BAA4102DA22462B4603E0002349
:104B3000624263EB0503801A994102DB3046394635
:104B4000F0BD20462946FBE7F0B506460F46144661
:104B50001D4600210846091BA84102DA20462946C5
:104B600003E00021604261EB050100231A469B1B14
:104B7000BA4102DA32463B4603E00023724263EB5D
:104B80000703801A994102DA20462946F0BD3046D3
:104B90003946FBE710B52DED0C8BB0EE408AF0EEF8
:104BA000608AB0EE419AF0EE619A53EC192B51EC09
:104BB000190B04F015FF41EC1C0B53EC182B51ECB6
:104BC000180B04F00DFF41EC1D0B53EC1C2B04F0F3
:104BD000EBFB41EC1B0BB0EE4B0AF0EE6B0A04F062
:104BE00081FAB0EE40AAF0EE60AAB0EE4A0AF0EE0A
:104BF0006A0ABDEC0C8B10BD00B52DED108B85B095
:104C0000B0EE408AF0EE608AB0EE419AF0EE619A22
:104C1000B0EE42AAF0EE62AAB0EE43BAF0EE63BA8A
:104C200053EC1B2B51EC190B05F0E6F841EC1E0B75
:104C300053EC1B2B51EC190B05F0DEF841EC1F0B6C
:104C400053EC1E2B04F0CCFE41EC1D0B53EC1A2B45
:104C500051EC180B05F0D0F841EC1E0B53EC1A2B5D
:104C600051EC180B05F0C8F841EC1F0B53EC1E2B50
:104C700004F0B6FE53EC1D2BCDE900019DED000BB9
:104C800051EC100B04F090FBCDE902019DED020BFD
:104C900004F028FAB0EE40CAF0EE60CAB0EE4C0A5A
:104CA000F0EE6C0A05B0BDEC108B00BD00000000FA
:104CB0000000244000000000000000400000000050
:104CC0000000594098010020F0010020F801002068
:104CD00070B52DED028B04460D4640F6C4125142CC
:104CE000204601F0D6FD044640F6C4125142284643
:104CF00001F0CFFD0546002C05DB0120FE490860D0
:104D0000FBF7EEFF07E0002C05DA0020FA49086007
:104D10000120FBF7E5FF002D07DB0020F649091D08
:104D200008600120FBF7DCFF07E0002D05DA012019
:104D3000F149091D0860FBF7D3FF002C01DD214676
:104D400000E06142084604F0A6FD41EC180B9FED1F
:104D5000EB0B53EC102B04F007FE03D2002002F003
:104D6000A5FE10E0002C01DD204600E06042642139
:104D70004843E44991FBF0F6304602F097FE2146A5
:104D8000E1A002F099FFE248D0E90020121B60EB9D
:104D9000E470DF49C1E90020002D01DD294600E073
:104DA0006942084604F077FD41EC180B9FEDD30BE8
:104DB00053EC102B04F0D8FD03D2002002F024FEA7
:104DC0000CE0002D01DD284600E0684264214843E4
:104DD000CC4991FBF0F6304602F016FECD48D0E902
:104DE0000020521B60EBE570CA49C1E90020BDEC10
:104DF000028B70BD00B593B0C7480068C749086012
:104E000000201290119010909FEDC50A8DED0F0AB1
:104E10009FEDC30A8DED0E0AC248007818B1C14853
:104E20000078022824D100201290BF4890ED010A9A
:104E3000DFEDBE0A20EE200ABDEEC00A8DED110A9C
:104E4000D0ED030A9FEDB90A20EE800ABDEEC00A3C
:104E50008DED100AB6480068002808D01198002887
:104E600002DC1098002802DD002011901090D1E2A1
:104E7000AC4800780128FAD19FEDAE0B04F032F96E
:104E80008DED040BA848C068019005F09FF8CDE9AE
:104E900002019DED040B53EC102B9DED020B51EC28
:104EA000100B04F09DFD9FEDA30B53EC102BCDE9EF
:104EB00006019DED060B51EC100B04F029FB9FED54
:104EC0009D0BCDE90A0104F00DF98DED040B964818
:104ED00090ED020AB1EE400A8DED010A019805F04D
:104EE00075F8CDE902019DED040B53EC102B9DEDFF
:104EF000020B51EC100B04F073FD9FED8E0B53EC85
:104F0000102BCDE906019DED060B51EC100B04F0C2
:104F1000FFFACDE908019DED0A0B53EC102B9DED36
:104F2000080B51EC100B04F03FFACDE90C019DED9C
:104F30000C0B51EC100B04F005FA0F909FED7D0B5C
:104F400004F0D0F88DED040B7748C068019005F0AF
:104F50003DF8CDE902019DED040B53EC102B9DEDC6
:104F6000020B51EC100B04F03BFD9FED720B53EC68
:104F7000102BCDE906019DED060B51EC100B04F052
:104F8000C7FA9FED6C0BCDE90A0104F0ABF88DED8B
:104F9000040B65488068019005F018F8CDE902011E
:104FA0009DED040B53EC102B9DED020B51EC100BFF
:104FB00004F016FD9FED5F0B53EC102BCDE90601BD
:104FC0009DED060B51EC100B04F0A2FACDE908019F
:104FD0009DED0A0B53EC102B9DED080B51EC100BC3
:104FE00004F0E2F9CDE90C019DED0C0B51EC100B36
:104FF00004F0A8F90E904C48C068059004F0E6FF54
:10500000CDE906019DED060B04F062F88DED0A0B6B
:1050100045488068059004F0D9FFCDE906019DED73
:10502000060B04F055F88DED080B9DED0A0B53ECC3
:10503000102B9DED080B51EC100B04F0DDFE9FEDE5
:105040003F0B53EC102BCDE90C019DED0C0B51ECFB
:10505000100B04F0C3FD4ED80E9804F0B7FFCDE955
:1050600006019DED060B04F033F88DED0A0B0F9849
:1050700004F0ACFFCDE906019DED060B04F028F825
:105080008DED080B9DED0A0B53EC102B9DED080BDD
:1050900051EC100B04F0B0FE9FED280B53EC102BDD
:1050A000CDE90C019DED0C0B51EC100B04F096FDBD
:1050B00078D81D488068079004F088FFCDE9080182
:1050C0009DED080B04F004F88DED0A0B9FED1D0B10
:1050D00053EC102B9DED0A0B51EC100B04F080FCEF
:1050E000CDE90C019DED0C0B51EC100B04F0A4FB71
:1050F000119011982AE0A1E0B48240429A999999BE
:105100009999B93F0087930325640D0A00000000B8
:105110004804002050040020980000202C040020A7
:1051200000000000000000206408002000401C4532
:10513000A80100200000000000000040FCA9F1D2FE
:105140004D62503F000000000070974004F0A3FB48
:10515000CDE90A019DED0E0ADDED0F0A80EE201A61
:105160008DED051A059804F031FFCDE906019DED9E
:10517000060B03F0ADFF8DED080B9DED0A0B53EC14
:10518000102B9DED080B51EC100B04F029FCCDE920
:105190000C019DED0C0B51EC100B04F04DFB10902D
:1051A00010E1FFE7F8488068079004F00FFFCDE9B1
:1051B00008019DED080B03F08BFF8DED0A0B1FED31
:1051C0001F0B53EC102B9DED0A0B51EC100B04F050
:1051D00007FCCDE90C019DED0C0B51EC100B04F01C
:1051E0002BFB1090109804F056FBCDE90A019DEDC1
:1051F0000F0ADDED0E0A80EE201A8DED051A0598D6
:1052000004F0E4FECDE906019DED060B03F060FF1E
:105210008DED080B9DED0A0B53EC102B9DED080B4B
:1052200051EC100B04F0DCFBCDE90C019DED0C0BF7
:1052300051EC100B04F000FB1190C3E00E9804F049
:10524000C5FECDE906019DED060B03F041FF8DED96
:105250000A0B0F9804F0BAFECDE906019DED060B8E
:1052600003F036FF8DED080B9DED0A0B53EC102B70
:105270009DED080B51EC100B04F0BEFD1FED510B22
:1052800053EC102BCDE90C019DED0C0B51EC100BE8
:1052900004F0A4FC4BD8BC48C068079004F096FE0C
:1052A000CDE908019DED080B03F012FF8DED0A0B0F
:1052B0001FED5C0B53EC102B9DED0A0B51EC100B0A
:1052C00004F08EFBCDE90C019DED0C0B51EC100BA5
:1052D00004F0B2FA1190119804F0DDFACDE90A0158
:1052E0009DED0E0ADDED0F0A80EE201A8DED051AF8
:1052F000059804F06BFECDE906019DED060B03F069
:10530000E7FE8DED080B9DED0A0B53EC102B9DED88
:10531000080B51EC100B04F063FBCDE90C019DED83
:105320000C0B51EC100B04F087FA10904AE09648F1
:10533000C068079004F04AFECDE908019DED080B16
:1053400003F0C6FE8DED0A0B1FED820B53EC102B04
:105350009DED0A0B51EC100B04F042FBCDE90C0162
:105360009DED0C0B51EC100B04F066FA10901098A8
:1053700004F091FACDE90A019DED0F0A9DED0E1A98
:10538000C0EE010ACDED050A059804F01FFECDE937
:1053900006019DED060B03F09BFE8DED080B9DEDC8
:1053A0000A0B53EC102B9DED080B51EC100B04F085
:1053B00017FBCDE90C019DED0C0B51EC100B04F02B
:1053C0003BFA11907148006880B19DED0F0AB5EE6F
:1053D000C00AF1EE10FA06DC9DED0E0AB5EEC00A29
:1053E000F1EE10FA02DD0020119010909DED0F0AF1
:1053F000B5EEC00AF1EE10FA02D2119840421190B7
:105400009DED0E0AB5EEC00AF1EE10FA02D2109828
:10541000404210901198002801DD119801E0119888
:1054200040420B9004F037FA1FEDCC0B53EC102BDD
:10543000CDE90C019DED0C0B51EC100B04F094FA2E
:1054400025D81098002801DD109801E010984042FE
:105450000B9004F020FA1FEDD70B53EC102BCDE985
:105460000C019DED0C0B51EC100B04F07DFAE7D80C
:105470004548408D60B94648406B0D9044480D99B1
:105480008847002002F012FB002002F0BDFA32E251
:105490003D48408D012875D13D4890F8280020B145
:1054A000022812D004286ED110E03A48D0E900104A
:1054B000374AC2E900103848D0E90010C2E90210AA
:1054C0000120114681F8280000E100BF3048006A41
:1054D0002F49496A884271DA2D48006A401C2C49DC
:1054E00008620846D0E904300A4606CA591A60EB39
:1054F000020006220023CDE90A1008460B9902F0AB
:10550000B7FBCDE90C012248406AC11702460B46A1
:10551000CDE90A01DDE90C0102F0AAFB1C49C862D1
:105520000846C06A642148434FF4167190FBF1F0BD
:10553000C117184B0CCB80185941164A03C21448A6
:10554000C06A002805DB012014490860FBF7C8FB8E
:1055500009E00F48C06A002805DA00200F490860FA
:105560000120FBF7BDFB0A48C06A10F5C87F01DCCB
:105570000B4819E00648C06AB0F5C87F12DB4FF44B
:10558000C87011E0A3E0A0E064080020A80100209A
:10559000F80400204804002050040020B482404257
:1055A00070FEFFFFF948C06AF849C862C862084641
:1055B000C06A002803DD0846C06A03E074E0F348CF
:1055C000C06A4042F24991FBF0F00A2190FBF1F0F1
:1055D0000D9002F06BFAED48D0E90621D0E90230D7
:1055E000D21A61EB0001CDE90A21062200230A98B4
:1055F00002F03EFBCDE90C01E448406AC1170246C7
:105600000B46CDE90A01DDE90C0102F031FBDF496F
:1056100008630846006B002806DB0020DD490860AF
:105620000120FBF75DFB08E0D848006B002804DA96
:105630000120D8490860FBF753FBD448006B642174
:1056400048434FF4167190FBF1F0C117D24B0CCBCD
:1056500080185941D04A03C2CC48006B10F5C87F6E
:1056600001DCCE4809E0C948006BB0F5C87F02DB19
:105670004FF4C87001E0C548006BC4490863086373
:105680000846006B002802DD0846006B02E0BF48B8
:10569000006B4042BE4991FBF0F00A2190FBF1F013
:1056A0000D9002F0B1F90FE0B848006AB749496AB5
:1056B000884209D10320B54981F82800002002F072
:1056C000A3F9002002F0F2F900E000BF13E1B448B2
:1056D000408D0228FAD1AD4890F8280020B1012869
:1056E00009D0032873D116E0A848406B0D90A74855
:1056F0000D998847FEE0AB48D0E90010A34AC2E903
:105700000410A548D0E90020A049C1E906200220E4
:1057100081F82800EEE09D48006A00287EDD9B4865
:10572000006A401E994908620846D0E90031D0E974
:1057300004209A1A61EB0001CDE90A210622002318
:105740000A9802F095FACDE90C019048406AC11719
:1057500002460B46CDE90A01DDE90C0102F088FAA8
:105760008A49C8620846C06A002806DB01208949C8
:10577000091F0860FBF7B4FA0AE08448C06A0028F1
:1057800006DA00208349091F08600120FBF7A8FA08
:105790007E48C06A642148434FF4167190FBF1F0D3
:1057A000C117804AD2E90032C01851417D4A03C274
:1057B0007648C06A10F5C87F01DC78480AE0734873
:1057C000C06AB0F5C87F03DB4FF4C87002E090E018
:1057D0006E48C06A6D49C862C8620846C06A00283F
:1057E00002DD0846C06A02E06848C06A4042684973
:1057F00091FBF0F00A2190FBF1F00D9002F056F9C8
:1058000062480346D0E90221D3E90603101A61EB8E
:10581000030106220023CDE90A0100E05BE002F06B
:1058200027FACDE90C015948406AC11702460B46D8
:10583000CDE90A01DDE90C0102F01AFA53490863C7
:105840000846006B002806DB002052490860012052
:10585000FBF746FA08E04D48006B002804DA012007
:105860004C490860FBF73CFA4848006B6421484308
:105870004FF4167190FBF1F0C117474B0CCB801819
:105880005941454A03C24148006B10F5C87F01DC0D
:10589000424809E03D48006BB0F5C87F02DB4FF499
:1058A000C87001E03948006B38490863086308464E
:1058B000006B002802DD0846006B02E03348006BF5
:1058C0004042334991FBF0F00A2190FBF1F00D903A
:1058D00002F09AF80CE02D48006A48B904202B49E0
:1058E00081F82800002002F08FF8002002F0DEF896
:1058F00000E000BF00BF254890F8280002280DD026
:10590000224890F82800032808D0204890F8280062
:10591000042803D0DDE91010FFF7DAF913B000BD59
:1059200010B5214890ED000B51EC100B03F00AFD6F
:105930001E4948601E4890ED000B51EC100B03F01F
:1059400001FD1C4948601948016C88471948016CE1
:10595000884719480078C0B901201849087040F2FA
:10596000013017490880114890ED0D0AF7EE000A42
:1059700020EE200ABDEEC00A10EE100A00B2114956
:10598000088001200C4908703AE01DE0F80400206E
:1059900040420F00B88240425004002070FEFFFFDA
:1059A000640800204804002070040020B802002091
:1059B0007804002010030020AC01002054000020D7
:1059C0005600002058000020FD480078012817D11B
:1059D0000220FC49087040F20130FB490880FB4876
:1059E00090ED0D0AFFEE000A20EE200ABDEEC00A7F
:1059F00010EE100A00B2F64908800020F049087045
:105A0000F348B0F90020F0480188EE480078FDF72F
:105A100057FC10BD2DE9F0412DED108BB0EE409AF2
:105A2000F0EE609A07460C461546B0EE41FAF0EEED
:105A300061FA00BF00BFE74903C904F0F5FA00EEC0
:105A4000100A30EE690A10EE106A304604F0CCFB02
:105A5000E14A03C2E048D0E900204FF47A73D21A39
:105A600070F1000008DAF5EEC09AF1EE10FA03DDED
:105A70009FEDDA0AF0EE409AD948D0E90010D94BF0
:105A80000CCB8A1858414FF4FA73D21A70F1000007
:105A90000ADAD348D0E900200023D21A984103DA69
:105AA0009FEDCE0AB0EE409ACD4840F6D272D0E9D2
:105AB00000310020D31A60EB0100CA49D1E900216E
:105AC0009A1A60EB01004FF4FA73D21A70F10000D9
:105AD00008DAB5EEC09AF1EE10FA03DD9FEDBF0AC9
