:020000040800F2
:10000000B00F0020910D0008190300081B03000821
:100010001F03000823030008270300080000000056
:100020000000000000000000000000002B0300089A
:100030002D030008000000002F0300083103000812
:10004000AB0D0008AB0D0008AB0D0008AB0D0008B0
:10005000AB0D0008AB0D0008AB0D0008AB0D0008A0
:10006000AB0D0008AB0D0008AB0D0008AB0D000890
:10007000AB0D0008AB0D0008AB0D0008AB0D000880
:10008000AB0D0008AB0D0008AB0D0008AB0D000870
:10009000AB0D0008AB0D0008AB0D0008AB0D000860
:1000A000AB0D0008BD720008AB0D0008E972000836
:1000B000AB0D000871370008AB0D0008AB0D000850
:1000C000AB0D0008AB0D0008AB0D0008AB0D000830
:1000D000AB0D0008273C00086931000865430008A3
:1000E00061460008AB0D0008AB0D0008F53A0008AA
:1000F0002D34000801340008AB0D0008AB0D0008DA
:10010000AB0D0008AB0D0008AB0D0008AB0D0008EF
:1001100013450008AB0D0008AB0D0008AB0D00083F
:10012000AB0D0008AB0D0008AB0D0008AB0D0008CF
:10013000AB0D0008AB0D0008AB0D0008AB0D0008BF
:10014000AB0D0008AB0D0008AB0D0008AB0D0008AF
:10015000AB0D0008AB0D0008AB0D0008AB0D00089F
:10016000AB0D0008AB0D0008AB0D0008AB0D00088F
:10017000AB0D0008AB0D0008AB0D0008AB0D00087F
:10018000AB0D0008AB0D000800F002F800F06CF8B1
:100190000AA090E8000C82448344AAF10107DA45E2
:1001A00001D100F061F8AFF2090EBAE80F0013F0C8
:1001B000010F18BFFB1A43F00103184720A00000ED
:1001C00040A000000A444FF0000C10F8013B13F06F
:1001D000070408BF10F8014B1D1108BF10F8015BA0
:1001E000641E05D010F8016B641E01F8016BF9D193
:1001F00013F0080F1EBF10F8014BAD1C0C1B09D1EA
:100200006D1E58BF01F801CBFAD505E014F8016B5B
:1002100001F8016B6D1EF9D59142D6D370470000ED
:100220000023002400250026103A28BF78C1FBD8FF
:10023000520728BF30C148BF0B607047662909F0DC
:100240005686642907F0B883002070471FB509F06F
:100250009EFD07F075FE04000020002108F090FECE
:10026000E0601FBD10B510BD07F086FF1146FFF717
:10027000EDFF00F009F807F0A4FF03B4FFF7F2FF69
:1002800003BC03F05FFC000002F0ACFD00BF0024E3
:100290003EE0012000F06BF90446012C02D0022C54
:1002A00002D100E000E000BF00BF642000F050FD7C
:1002B000012242F21B01104602F0C5FF0120154940
:1002C0000880642000F044FD012242F2250110461E
:1002D00002F0B9FF03200F490880642000F038FDC8
:1002E000012242F21B01022002F0ADFF0220094967
:1002F0000880642000F02CFD012242F2250102203A
:1003000002F0A1FF042003490880642000F020FDD2
:10031000BFE700000C000020704700BFFEE700BFF1
:10032000FEE700BFFEE700BFFEE77047704770477B
:10033000704700000CB500200190009076480068DE
:1003400040F480307449086000BF7348006800F4CE
:10035000003000900198401C0190009818B9019855
:10036000B0F5A04FF1D16C48006800F4003010B136
:100370000120009001E0002000900098012846D163
:1003800065484030006840F0805063494031086063
:100390006248006840F44040604908605E480830A8
:1003A00000685D49083108600846006840F4004074
:1003B00008600846006840F4A05008605848091FCB
:1003C0000860081F006840F08070091F086000BFC7
:1003D0005148006800F000700028F9D040F2057024
:1003E000504908604C480830006820F003004A4932
:1003F000083108600846006840F00200086000BF4D
:1004000045480830006800F00C000828F8D10CBD01
:1004100010B54548006840F47000434908603E4804
:10042000006840F001003C49086000203A4908316A
:100430000860394800683D490840374908603C4831
:10044000091D0860081F006820F48020091F08604B
:10045000002031490C310860FFF76CFF4FF000605D
:1004600031498039086010BD70B500200022022398
:1004700000240221284D08352D6805F00C0020B11C
:10048000042806D0082834D107E02A4D2A4E3560CA
:1004900033E02A4D284E35602FE01F4D2D1D2D686D
:1004A000C5F380541C4D2D1D2D6805F03F0154B13E
:1004B000224DB5FBF1F5184E361D3668C6F3881689
:1004C00005FB06F209E01B4DB5FBF1F5124E361D9A
:1004D0003668C6F3881605FB06F20F4D2D1D2D68F4
:1004E000C5F301456D1C6B00B2FBF3F5124E356090
:1004F00003E0104D104E356000BF00BF064D0835BB
:100500002D68C5F303150E4E705D0B4D2D68C5406B
:10051000094E356070BD0000003802400070004098
:1005200008544007003C024088ED00E0FFFFF6FE63
:10053000103000240024F4001000002000127A0083
:10054000140000201CB50121112000F0D5FF60200F
:10055000009000208DF8040003208DF80500012094
:100560008DF8070069461D4800F028FD1CBD10B538
:10057000044614B101201A49087019480078E8B1FE
:100580002021164800F07CFD20B14021134800F0E6
:1005900077FD98B90A2000F0DBFB002010490870B5
:1005A00020210E4800F06CFD08B9012010BD40214B
:1005B0000A4800F065FD78B90220F7E720210748D6
:1005C00000F05EFD012807D14021044800F058FDED
:1005D000012801D1024908700020E7E7001002401D
:1005E000240000201CB50121042000F085FF0F200D
:1005F000009001208DF8040000208DF806000320F3
:100600008DF8050001208DF807006946FB4800F0D1
:10061000D5FC0121F94800F04DFD0221F74800F01A
:1006200049FD0421F54800F045FD0821F34800F09C
:1006300041FD1CBD1CB50121042000F05DFF7020B0
:10064000009001208DF8040000208DF806000320A2
:100650008DF8050001208DF807006946E74800F095
:10066000ADFC1021E54800F027FD2021E34800F013
:1006700023FD4021E14800F01FFD1CBD1CB50121F8
:10068000022000F039FF4FF48050009001208DF8D7
:1006900004008DF8060003208DF8050001208DF878
:1006A00007006946D64800F089FC1CBD0120D549E9
:1006B000086000BF00BF00BF00BF00BF00BF00BF99
:1006C00000BF00BF00BF00BF00BF00BF00BF00BF32
:1006D00000BF00BF00BF00BF00BF00BF00BF00BF22
:1006E00000BF00BF00BF00BF00BF00BF00BF00BF12
:1006F00000BF00BF00BF00BF00BF00BF00BF00BF02
:1007000000BF00BF00BF00BF00BF00BF00BF00BFF1
:1007100000BF00BF00BF00BF00BF00BF00BF00BFE1
:1007200000BF00BF00BF00BF00BF0020B649C1F836
:10073000B00200BF00BF00BF00BF00BF00BF00BFCE
:1007400000BF00BF00BF00BF00BF00BF00BF00BFB1
:1007500000BF00BF00BF00BF00BF00BF00BF00BFA1
:1007600000BF00BF00BF00BF00BF00BF00BF00BF91
:1007700000BF00BF00BF00BF00BF00BF00BF00BF81
:1007800000BF00BF00BF00BF00BF00BF00BF00BF71
:1007900000BF00BF00BF00BF00BF00BF00BF00BF61
:1007A00000BF00BF00BF00BF00BF00BF00BF00BF51
:1007B00000BF00BF00BF00BF00BF00BF00BF00BF41
:1007C00000BF00BF00BF00BF00BF00BF00BF00BF31
:1007D00000BF00BF00BF00BF00BF00BF00BF00BF21
:1007E00000BF00BF00BF00BF00BF00BF00BF00BF11
:1007F00000BF00BF00BF00BF00BF00BF00BF00BF01
:1008000000BF00BF00BF00BF00BF00BF00BF00BFF0
:1008100000BF00BF00BF00BF00BF00BF00BF00BFE0
:1008200000BF00BF00BF00BF00BF00BF7047012076
:100830007449086000BF00BF00BF00BF00BF00BF19
:1008400000BF00BF00BF00BF00BF00BF00BF00BFB0
:1008500000BF00BF00BF00BF00BF00BF00BF00BFA0
:1008600000BF00BF00BF00BF00BF00BF00BF00BF90
:1008700000BF00BF00BF00BF00BF00BF00BF00BF80
:1008800000BF00BF00BF00BF00BF00BF00BF00BF70
:1008900000BF00BF00BF00BF00BF00BF00BF00BF60
:1008A00000BF00BF00BF00BF00BF00BF00BF00BF50
:1008B00000BF00BF00BF00BF00BF00BF00BF00BF40
:1008C00000BF00BF00BF00BF00BF00BF00BF00BF30
:1008D00000BF00BF00BF00BF00BF00BF00BF00BF20
:1008E00000BF00BF00BF00BF00BF00BF00BF00BF10
:1008F00000BF00BF00BF00BF00BF00BF00BF00BF00
:1009000000BF00BF00BF00BF00BF00BF00BF00BFEF
:1009100000BF00BF00BF00BF00BF00BF00BF00BFDF
:1009200000BF00BF00BF00BF00BF00BF00BF00BFCF
:1009300000BF00203449C1F8B00200BF00BF00BFB3
:1009400000BF00BF00BF00BF00BF00BF00BF00BFAF
:1009500000BF00BF00BF00BF00BF00BF00BF00BF9F
:1009600000BF00BF00BF00BF00BF00BF00BF00BF8F
:1009700000BF00BF00BF00BF00BF00BF00BF00BF7F
:1009800000BF00BF00BF00BF00BF00BF00BF00BF6F
:1009900000BF00BF00BF00BF00BF00BF00BF00BF5F
:1009A00000BF00BF00BF00BF00BF00BF00BF00BF4F
:1009B000704700B5024600230CE002F40000B0F5D9
:1009C000000F02D1FFF733FF01E0FFF76FFE520087
:1009D000581CC3B2182BF0DB00BD70B506460D469F
:1009E000002404E03046FFF7E4FF601CC4B20B2C87
:1009F000F8DB0024054806600FE000000008024014
:100A000000040240B08240420080404228000020A2
:100A10002846FFF7CEFF601CC4B20A2CF8DB002486
:100A20009348056070BD2DE9F04180460D4616469D
:100A30001F4600244046FFF7BCFF04E04046FFF796
:100A4000B8FF601CC4B2052CF8DB002404E0284683
:100A5000FFF7AFFF601CC4B2052CF8DB002404E0F4
:100A60003046FFF7A6FF601CC4B2052CF8DB00245B
:100A700004E03846FFF79DFF601CC4B2052CF8DB8C
:100A8000BDE8F08110B5034600201C0444EA0224AE
:100A900044EA010010BD2DE9F0412DED088BB0EEC8
:100AA000408AB0EE60BAF0EE418AF0EE61BA6FF0C3
:100AB0007F4426462546274618EE100A09F0C6F858
:100AC00041EC1A0BB0EE4A0AF0EE6A0A08F040F95F
:100AD000B0EE409AF0EE609A51EC190B08F072FA01
:100AE00008EE100A18EE900A09F0B0F841EC1A0B63
:100AF000B0EE4A0AF0EE6A0A08F02AF9B0EE409A1F
:100B0000F0EE609A51EC190B08F05CFA08EE900ACE
:100B1000B5EEC08AF1EE10FA08DBB1EE040AB4EECD
:100B2000C08AF1EE10FA01D2524C31E0B1EE040A63
:100B3000B4EEC08AF1EE10FA08DBB2EE040AB4EEAD
:100B4000C08AF1EE10FA01D24B4C21E0B2EE040A59
:100B5000B4EEC08AF1EE10FA08DBB2EE0E0AB4EE83
:100B6000C08AF1EE10FA01D2444C11E0B3EE000A53
:100B7000B4EEC08AF1EE10FA08DBB3EE040AB4EE6C
:100B8000C08AF1EE10FA01D23D4C01E04FF47F042F
:100B9000F5EEC08AF1EE10FA08DBB1EE040AF4EECD
:100BA000C08AF1EE10FA01D2324D31E0B1EE040A02
:100BB000F4EEC08AF1EE10FA08DBB2EE040AF4EEAD
:100BC000C08AF1EE10FA01D22B4D21E0B2EE040AF8
:100BD000F4EEC08AF1EE10FA08DBB2EE0E0AF4EE83
:100BE000C08AF1EE10FA01D2244D11E0B3EE000AF2
:100BF000F4EEC08AF1EE10FA08DBB3EE040AF4EE6C
:100C0000C08AF1EE10FA01D21D4D01E04FF47F05CC
:100C10002B462A4621462046FFF705FF00201949AA
:100C20000860BDEC088BBDE8F08110B52DED048B9C
:100C3000B0EE408AF0EE608AB0EE419A38EEC80A13
:100C4000C9EE000AF0EE609A00249FED0F0A29EE2B
:100C5000800ABDEEC00A10EE104AFF220021204695
:100C600005F085FC04462046BDEC048B10BD000059
:100C70002C000020C8C8FF009696FF006464FF00A7
:100C80003232FF00B082404200007F4310B504467C
:100C90006FF0040000F0EEF8E11704EB5171C1F3BE
:100CA000C701394A11701046007800EB4001C1EBD2
:100CB000C0104FF6FF7101EAC0003449088010BD32
:100CC0000146314A12784A434FF0E0235A6100222C
:100CD0009A611A46126942F001021A6100BF4FF090
:100CE000E022106900F001021AB100F48032002AFB
:100CF000F5D04FF0E022126922F001024FF0E0231C
:100D00001A6100229A6170470146204A12884A43BC
:100D10004FF0E0235A6100229A611A46126942F0AC
:100D200001021A6100BF4FF0E022106900F00102D9
:100D30001AB100F48032002AF5D04FF0E022126997
:100D400022F001024FF0E0231A6100229A617047FD
:100D500070B504464FF4077094FBF0F0C6B24FF440
:100D6000077094FBF0F100FB114085B205E04FF4F1
:100D70000770FFF7C9FF701EC6B2002EF7D115B17C
:100D80002846FFF7C1FF70BD300000203200002070
:100D90000948804709480047FEE7FEE7FEE7FEE70F
:100DA000FEE7FEE7FEE7FEE7FEE7FEE7044805494B
:100DB000054A064B7047000011040008890100082D
:100DC000B0090020B00F0020B00B0020B00B0020B5
:100DD00032490143324A1160704770B50021002347
:100DE0000F22C4781CB32E4C246804F4E064C4F5CC
:100DF000E064C4F30721C1F10404E3B20A4144787A
:100E00009C40E1B28478144021430C07210E254C0C
:100E100005786155047804F01F050124AC4005787D
:100E20006D11AD0005F1E025C5F8004109E0047839
:100E300004F01F050124AC401B4D0678761145F8DF
:100E4000264070BD194A0A400243154B1B1F1A6009
:100E5000704739B1124A121D12680243104B1B1D14
:100E60001A6006E00E4A121D126882430C4B1B1DCD
:100E70001A607047042808D14FF0E021096941F059
:100E800004014FF0E022116107E04FF0E021096911
:100E900021F004014FF0E022116170470000FA05D3
:100EA0000CED00E000E400E080E100E080FFFF1FC7
:100EB00010B504469848844208D10121084600F044
:100EC00086FB0021012000F082FB76E093488442FB
:100ED00008D10121022000F07AFB0021022000F05D
:100EE00076FB6AE08E48844208D10121042000F09C
:100EF0006EFB0021042000F06AFB5EE0894884421A
:100F000008D10121082000F062FB0021082000F038
:100F10005EFB52E08448844208D10121102000F099
:100F200056FB0021102000F052FB46E07F4884422F
:100F300008D10121202000F04AFB0021202000F0F0
:100F400046FB3AE07A48844208D10121402000F073
:100F50003EFB0021402000F03AFB2EE07548844221
:100F600008D10121802000F032FB0021802000F018
:100F70002EFB22E07048844208D10121801500F048
:100F800026FB0021A01500F022FB16E06B488442EE
:100F900008D10121401500F01AFB0021601500F076
:100FA00016FB0AE06648844207D10121001500F0D3
:100FB0000EFB0021201500F00AFB10BDF0B50A461B
:100FC00000210023002400BF3DE0012505FA01F3C4
:100FD000156805EA03049C4234D105684F000326D6
:100FE000BE40B543056015794E00B54006683543EF
:100FF00005601579012D02D01579022D16D185686D
:101000004F000326BE40B543856055794E00B5407C
:10101000866835438560456801268E40B543456046
:10102000456896798E40B6B235434560C5684F0035
:101030000326BE40B543C560D5794E00B540C668AD
:101040003543C560491C1029BFD3F0BD4FF6FF7171
:1010500001600021017141718171C171704708B552
:101060004FF480320092009A0A430092009AC261C3
:10107000C161009AC261C2690092C269009208BD52
:101080000246002013690B400BB1012000E0002054
:1010900070470146086980B27047024600205369D4
:1010A0000B400BB1012000E0002070470146486969
:1010B00080B2704701837047418370470AB1018352
:1010C00000E0418370474161704742694A40426194
:1010D0007047F0B5002300244D07ED0E02FA05F32A
:1010E000CE1000F1200555F826504E07F70E0F26BA
:1010F000BE40B543CF1000F1200646F82750CE1071
:1011000000F1200555F8265045EA0304CE1000F101
:10111000200545F82640F0BD0000024000040240D2
:1011200000080240000C024000100240001402407F
:1011300000180240001C024000200240002402402F
:1011400000280240F948006840F00100F7490860B3
:101150000020F64908310860F4480068F449084066
:10116000F2490860F348091D0860F348EF498431EB
:101170000860F0481038091D0860EC48006820F449
:101180008020EA4908600020E8490C310860E749FE
:101190008C31086070470021E44A921C117011469E
:1011A0000870704710B501460022002300204A1144
:1011B000012A02D1DD4C236808E0022A03D1DB4C6E
:1011C0007034236802E0D94C7434236801F01F02A4
:1011D000012494401C400CB1012000E0002010BD0F
:1011E00038B5002000900024002500BF3120FFF713
:1011F000D9FF05460098401C00900098B0F5A04F1C
:1012000001D0002DF2D03120FFF7CCFF08B101242E
:1012100000E00024204638BD01460020C34A106883
:1012200020F0F80040EAC10010607047C349086030
:1012300070470021BD4A703211701170012802D030
:1012400004280AD104E00121B84A7032117005E087
:101250000521B64A7032117000E000BF00BF704730
:10126000B7490860704770B5049C41EA82150126B1
:10127000C6EB530645EA0645054345EA0465AB4E11
:10128000361D356070BDAD4908667047820142EA7F
:101290000172A64B84331A607047A849886670476C
:1012A00010B5830143EA016343EA02739F4C88341B
:1012B000236010BDA14908677047A049C864704702
:1012C00002460020994B0833186820F0EC6042EA8F
:1012D00001031843954B08331860704702460020FD
:1012E000924B0833186820F0784042EA0103184313
:1012F0008E4B083318607047014600208B4A083235
:10130000106820F0030008431060704787480830D9
:10131000006800F00C00704701460020834A083244
:10132000106820F0F000084310607047014600206C
:101330007E4A0832106820F4E0500843106070477D
:1013400001460020794A0832106820F4604040EAE3
:10135000C10010607047F0B5002100220024022572
:1013600000260223714F08373F6807F00C0121B1B6
:10137000042905D0082937D105E0724F076036E00F
:10138000714F076033E0694F3F1D3F68C7F38056D8
:10139000664F3F1D3F6807F03F036EB16A4FB7FBD2
:1013A000F3F7DFF888C10CF1040CDCF800C0CCF3D3
:1013B000881C07FB0CF40CE0624FB7FBF3F7DFF877
:1013C0006CC10CF1040CDCF800C0CCF3881C07FBEA
:1013D0000CF4564F3F1D3F68C7F301477F1C7D004B
:1013E000B4FBF5F7076002E0564F076000BF00BF8F
:1013F0004E4F08373F6807F0F0010909534F7A5CF8
:101400000768D7404760494F08373F6807F4E05105
:10141000890A4E4F7A5C4768D7408760434F083748
:101420003F6807F46041490B484F7A5C4768D740F2
:10143000C760F0BD002100F44072B2F5407F0AD1D0
:101440003A4A0832116821F4F811414A0240114326
:10145000364A08321160354A70321268C0F30B0305
:101460001A43324B70331A6070473549443908606B
:101470007047334940390860704736490860704703
:1014800001460020294A8C32106820F01F004A1EB5
:101490001043264A8C321060704701460020234AD0
:1014A0008C32106820F4F8504A1E40EA02201F4A8D
:1014B0008C3210607047014600201C4A8C32106844
:1014C00020F4401008431060704701460020174A7E
:1014D0008C32106820F440000843106070470146C9
:1014E0000020124A8C32106820F44030084310600B
:1014F000704719490860704739B10C4A3032126898
:1015000002430A4B30331A6006E0084A3032126850
:101510008243064B30331A607047F9B1034A3432C4
:1015200012680243014B34331A601CE00038024059
:10153000FFFFF6EA10300024003000200000474290
:10154000800E47420024F40000127A00340000208C
:10155000FFFCFF0F5C014742E01147428F4A1268CF
:1015600082438E4B1A60704739B18C4A121D126843
:1015700002438A4B1B1D1A6006E0884A121D12683E
:101580008243864B1B1D1A60704739B1834A0C3267
:1015900012680243814B0C331A6006E07F4A0C321A
:1015A000126882437D4B0C331A60704739B17B4A15
:1015B000103212680243794B10331A6006E0774A02
:1015C000103212688243754B10331A60704739B17C
:1015D000724A243A12680243704B243B1A6006E0B8
:1015E0006E4A243A126882436C4B243B1A6070475F
:1015F00039B16A4A203A12680243684B203B1A60AC
:1016000006E0664A203A12688243644B203B1A6027
:10161000704739B1614A1C3A126802435F4B1C3B68
:101620001A6006E05D4A1C3A126882435B4B1C3B21
:101630001A60704739B1594A143A12680243574B3D
:10164000143B1A6006E0554A143A12688243534B21
:10165000143B1A60704739B1504A103A126802437D
:101660004E4B103B1A6006E04C4A103A1268824317
:101670004A4B103B1A60704739B1484A1C32126815
:101680000243464B1C331A6006E0444A1C3212687F
:101690008243424B1C331A60704739B13F4A2032B3
:1016A000126802433D4B20331A6006E03B4A203269
:1016B00012688243394B20331A60704739B1374A78
:1016C000243212680243354B24331A6006E0334A51
:1016D000243212688243314B24331A60704739B187
:1016E0002E4A2C32126802432C4B2C331A6006E02F
:1016F0002A4A2C3212688243284B2C331A607047D6
:1017000039B1264A303212680243244B30331A6012
:1017100006E0224A303212688243204B30331A608E
:101720007047012808D11D493C31096841F0080182
:101730001A4A3C32116007E018493C31096821F02F
:101740000801164A3C321160704739B1134A273AF2
:1017500012780243114B273B1A7006E00F4A273AD2
:10176000127882430D4B273B1A7070470B4840306C
:10177000006840F0807009494031086070470146B8
:101780000020064A283A12680A400AB1012000E007
:1017900000207047014926390870704734380240EC
:1017A00010B501218803FFF756FF00214FF4804058
:1017B000FFF751FF10BD1C49086070471B490862C4
:1017C000704730B500228B071C0F0F2303FA04F279
:1017D000154B08338C1053F824309343124C0834C3
:1017E0008D1044F8253023468C1053F824308C0794
:1017F000240F00FA04F423430B4C08348D1044F8F2
:10180000253030BD0949DC3108607047084908605F
:101810007047002004492031096801F4807109B142
:10182000012000E0002070470038014000002742FE
:101830000004274210B50446FA48844208D1012129
:101840001020FFF708FF00211020FFF704FF57E0EA
:10185000F548844209D101214804FFF7EBFE00213D
:101860004FF40030FFF7E6FE4AE0F048844209D129
:1018700001218804FFF7DEFE00214FF48020FFF7EE
:10188000D9FE3DE0EA48844209D10121C804FFF7AE
:10189000D1FE00214FF40020FFF7CCFE30E0E548F8
:1018A000844209D101210805FFF7C4FE00214FF44D
:1018B0008010FFF7BFFE23E0DF48844208D10121FA
:1018C0002020FFF7C8FE00212020FFF7C4FE17E00C
:1018D000DA48844209D101218807FFF7ABFE0021D5
:1018E0004FF08040FFF7A6FE0AE0D548844207D1BA
:1018F00001214005FFF79EFE00216005FFF79AFEDB
:1019000010BD2DE9FF4705460E460024A14600BF45
:10191000A046B08900B100BF2C8A24F44054F0885E
:1019200004432C82AC8941F20C608443B088318935
:101930000843718908430443AC81AC8A24F44074A1
:10194000B0890443AC826846FFF705FDB54885427F
:1019500002D0B948854202D1DDF80C9001E0DDF8F3
:101960000890A88900F4004040B109EBC90000EBE1
:10197000091031684900B0FBF1F707E009EBC90035
:1019800000EB091031688900B0FBF1F76420B7FB68
:10199000F0F004012009642101FB1078A88900F40B
:1019A000004040B1322000EBC800B0FBF1F000F085
:1019B0000700044308E0322000EB08106421B0FB6C
:1019C000F1F000F00F0004432C81BDE8FF874FF4D5
:1019D0001651016000218180C18001810C2141816B
:1019E00000218181704710B502460020108A20F442
:1019F00070600B884C8823438C882343CC88234316
:101A00001843108210BD0021018041808180C18077
:101A1000704721B1828942F40052828104E08289B8
:101A20004DF6FF731A4082817047028B02F47F42A9
:101A30000283028B0A430283704721B1828942F4F8
:101A40000042828103E08289C2F30E0282817047E4
:101A500021B1828A42F40062828204E0828A4FF2DB
:101A6000FF731A4082827047C1F308028280704778
:101A700001468888C0F308007047028A4FF6F07369
:101A80001A400282028A0A430282704721B1828987
:101A900042F00202828104E082894FF6FD731A400F
:101AA0008281704782894FF2FF731A408281828956
:101AB0000A4382817047028A4FF6DF731A4002821E
:101AC000028A0A430282704721B1028A42F48042AC
:101AD000028204E0028A4BF6FF731A4002827047CA
:101AE000818941F001018181704721B1828A42F0F0
:101AF0000802828204E0828A4FF6F7731A408282DB
:101B00007047028BD2B20283028B42EA0122028327
:101B1000704721B1828A42F02002828204E0828AE8
:101B20004FF6DF731A408282704721B1828A42F0F9
:101B30001002828204E0828A4FF6EF731A4082829A
:101B40007047828A4FF6FB731A408282828A0A4368
:101B50008282704721B1828A42F00202828204E0CE
:101B6000828A4FF6FD731A40828270471AB1838AC7
:101B70000B43838202E0838A8B4383827047F0B5F4
:101B80000346002400260025002040F66A17B942CB
:101B900000D100BF1846C1F3421401F01F0601270F
:101BA00007FA06F5012C01D10C3004E0022C01D11A
:101BB000103000E014301AB107682F43076002E0CC
:101BC0000768AF430760F0BD02460020B1F5007F13
:101BD00000D100BF13880B400BB1012000E00020B2
:101BE000704701F40072B2F5007F00D100BFCA4314
:101BF0000280704770B502460024002300250020B3
:101C000040F66A16B14200D100BFC1F3421501F09F
:101C10001F03012606FA03F3012D13D196893340E1
:101C200017E0000000100140004400400048004060
:101C3000004C00400050004000140140007800407B
:101C4000007C0040022D02D1168A334001E0968AC2
:101C500033400C12012606FA04F41688344013B1FE
:101C60000CB1012000E0002070BD10B5002200235F
:101C700040F66A14A14200D100BF0A120124944028
:101C8000A3B2DC43048010BD10B50446FE48844274
:101C900008D101210846FFF7DEFC00210120FFF7F3
:101CA000DAFC9DE0B4F1804F08D101210846FFF72E
:101CB000C1FC00210120FFF7BDFC91E0F348844204
:101CC00008D101210220FFF7B5FC00210220FFF717
:101CD000B1FC85E0EE48844208D101210420FFF7E1
:101CE000A9FC00210420FFF7A5FC79E0E948844223
:101CF00008D101210820FFF79DFC00210820FFF7F3
:101D000099FC6DE0E448844208D101211020FFF7DE
:101D100091FC00211020FFF78DFC61E0DF48844238
:101D200008D101212020FFF785FC00212020FFF7AA
:101D300081FC55E0DA48844208D101210220FFF7F6
:101D40008AFC00210220FFF786FC49E0D548844246
:101D500009D101210804FFF77EFC00214FF48030F7
:101D6000FFF779FC3CE0D048844209D101214804C6
:101D7000FFF771FC00214FF40030FFF76CFC2FE0FF
:101D8000CA48844209D101218804FFF764FC00217C
:101D90004FF48020FFF75FFC22E0C548844208D161
:101DA00001214020FFF746FC00214020FFF742FCC4
:101DB00016E0C048844208D101218020FFF73AFC98
:101DC00000218020FFF736FC0AE0BB48844207D19F
:101DD00001218015FFF72EFC0021A015FFF72AFC3A
:101DE00010BD00220288A84B98420ED0AC4B9842FE
:101DF0000BD0B0F1804F08D0A44B984205D0A44B33
:101E0000984202D0A34B984204D14FF68F731A40E8
:101E10004B881A43A04B984207D0A04B984204D05D
:101E20004FF6FF431A400B891A4302804B68C36286
:101E30000B880385944B984202D0994B984201D16C
:101E40008B7A03860123838270474FF0FF31416014
:101E50000021018001814180817270470185828269
:101E600070470A46002101884FF68F7319401143CD
:101E70000180704741627047C16270470146486AFD
:101E800070470146088D704721B1028842F0020276
:101E9000028004E002884FF6FD731A40028070470A
:101EA00021B1028842F00402028004E002884FF669
:101EB000FB731A400280704721B1028842F0800211
:101EC000028004E002884FF67F731A400280704758
:101ED00002884FF6F7731A40028002880A43028094
:101EE000704702884FF6FF431A40028002880A4377
:101EF0000280704721B1028842F00102028004E0B2
:101F000002884FF6FE731A400280704770B50024B5
:101F100000220023058C4FF6FE7635400584028CA6
:101F20008388048B4FF68F752C40B51E2C400D888E
:101F30002C43751E2A408D892A434D882A43524DD1
:101F4000A84202D0564DA84213D14FF6F7752A4049
:101F5000CD892A434FF6FB752A408D882A434FF6D8
:101F6000FF652B404FF6FF552B400D8A2B434D8AC2
:101F70002B43838004838D684563028470BD70B5F4
:101F8000002400220023058C4FF6EF7635400584AF
:101F9000028C8388048B48F6FF752C404FF6FF4572
:101FA0002C400D884FF6FF7606EA05252C434FF6A8
:101FB000DF752A408D8906EA05152A434D8806EA11
:101FC00005152A43304DA84202D0354DA8421DD1F7
:101FD0004FF67F752A40CD894FF6FF7606EA051544
:101FE0002A434FF6BF752A408D8806EA05152A4315
:101FF0004FF6FF352B404FF2FF752B400D8A06EA56
:1020000085052B434D8A06EA85052B43838004838F
:102010008D688563028470BD70B5002400220023A2
:10202000058C4FF6FF6635400584028C8388848BCF
:102030004FF68F752C404FF6FC752C400D882C43C5
:102040004FF6FF552A408D894FF6FF7606EA0525A3
:102050002A434D8806EA05252A430B4DA84202D0A3
:102060000F4DA84238D14FF2FF752A40CD894FF667
:10207000FF7606EA05252A434FF6FF352A408D886C
:1020800006EA05252A4319E000000140000400404B
:1020900000080040000C0040001000400014004008
:1020A000000401400040014000440140004801405C
:1020B00000180040001C0040002000404EF6FF7554
:1020C0002B404DF6FF752B400D8A06EA05152B4374
:1020D0004D8A06EA05152B43838084838D68C5638A
:1020E000028470BD70B5002200230024058C4EF6DA
:1020F000FF7635400584038C8488828B48F6FF7513
:102100002A404FF6FF452A400D884FF6FF7606EA33
:1021100005252A434DF6FF752B408D8906EA0535C6
:102120002B434D8806EA05352B43FE4DA84202D0CD
:10213000FD4DA84208D14BF6FF752C400D8A4FF695
:10214000FF7606EA85152C43848082838D680564BA
:10215000038470BD00210180418081808160818184
:10216000C18101824182704770B50346002000247E
:102170001846183001258D40ACB21D8CA5431D8436
:1021800009B108290AD100EB610005684FF68F7686
:10219000354005600568154305600FE00D1FC5F368
:1021A0004E052844056848F6FF7635400560056809
:1021B0004FF6FF7606EA02263543056070BD41639F
:1021C000704781637047C1637047016470470A4676
:1021D0000021018B4FF68F73194011430183704723
:1021E0000A460021018B48F6FF7319404FF6FF7332
:1021F00003EA02231943018370470A460021818BB9
:102200004FF68F7319401143818370470A460021AE
:10221000818B48F6FF7319404FF6FF7303EA0223E0
:102220001943818370470A460021018B4FF6F773EB
:1022300019401143018370470A460021018B4FF278
:10224000FF7319404FF6FF7303EA0223194301831A
:1022500070470A460021818B4FF6F77319401143EE
:10226000818370470A460021818B4FF2FF7319402A
:102270004FF6FF7303EA02231943818370470A462E
:102280000021018B4FF6FB73194011430183704706
:102290000A460021018B4FF6FF3319404FF6FF73BA
:1022A00003EA02231943018370470A460021818B08
:1022B0004FF6FB7319401143818370470A46002192
:1022C000818B4FF6FF3319404FF6FF7303EA022369
:1022D0001943818370470A460021018B4FF67F73B3
:1022E00019401143018370470A460021018BC1F355
:1022F0000E014FF6FF7303EA02231943018370476F
:102300000A460021818B4FF67F7319401143818368
:1023100070470A460021818BC1F30E014FF6FF730F
:1023200003EA02231943818370470A460021018C86
:102330004FF6FD7319401143018470470A4600218E
:10234000018C4FF6F77319401143018470470A4618
:102350000021018C4FF6DF7319404FF6FF7303EA3B
:1023600002131943018470470A460021018C4FF67D
:102370007F7319404FF6FF7303EA02131943018478
:1023800070470A460021018C4FF6FF5319404FF663
:10239000FF7303EA02231943018470470A460021B0
:1023A000018C4FF2FF7319404FF6FF7303EA0223CB
:1023B0001943018470470A460021018C4DF6FF73D2
:1023C00019404FF6FF7303EA023319430184704743
:1023D00030B5002301248C40A3B2048C9C430484B8
:1023E000048C02FA01F5ADB22C43048430BD30B543
:1023F000002304248C40A3B2048C9C430484048CEA
:1024000002FA01F5ADB22C43048430BD828B4FF249
:10241000FF331A408283828B4FF6FF7303EA012356
:102420001A4382837047F0B50C46154600210022FE
:102430000026078C4EF6FF7C07EA0C070784818B89
:10244000028C4FF6FF7707EA043640F6FF47394023
:102450004FF6FF7707EA052739434FF6FF7707EA7C
:102460000337394345F6FF773A4046F480573A43FD
:1024700081830284F0BD828B4FF6F3731A4082830E
:10248000828B0A4382837047F0B50C4615460021C3
:1024900000220026078C4FF6FF6C07EA0C07078422
:1024A000818B028C4FF6FF7707EA04264FF60C77F4
:1024B00039404FF6FF7707EA03172F4339434FF2AE
:1024C000FF573A4046F480773A4381830284F0BD57
:1024D000028B4FF2FF331A400283028B4FF6FF73D9
:1024E00003EA01231A4302837047F0B50C461546F0
:1024F000002100220026078C4FF6EF7C07EA0C072C
:102500000784018B028C4FF6FF7707EA041640F62A
:10251000FF4739404FF6FF7707EA033739434FF655
:10252000FF7703E0000001400004014007EA0527AF
:1025300039434FF65F773A4046F010073A4301833C
:102540000284F0BD028B4FF6F3731A400283028BB4
:102550000A4302837047F0B50C461546002100225D
:10256000068C4FF6FE773E400684018B028C4FF6B8
:102570000C7631407E1C06EA03162E4331434FF69B
:10258000F576324044F00106324301830284F0BD07
:1025900070B505460C46208850B92389A288618809
:1025A0002846FFF7D8FFE1882846FFF7CBFF25E054
:1025B000208804280AD12389A28861882846FFF749
:1025C00094FFE1882846FFF783FF17E0208808285A
:1025D0000AD12389A28861882846FFF755FFE18840
:1025E0002846FFF748FF09E02389A288618828462A
:1025F000FFF719FFE1882846FFF708FF70BD0021AB
:1026000001804180012181800021C18001817047CA
:102610002DE9F04105460C4600260127608808B9DF
:10262000022600E00026A088012801D1022700E050
:1026300001272088A0B92389A28861882846FFF74E
:102640008AFFE1882846FFF77DFF23893A46314615
:102650002846FFF74AFFE1882846FFF739FF13E0D5
:102660002389A28861882846FFF73FFFE188284632
:10267000FFF72EFF23893A4631462846FFF76BFFC6
:10268000E1882846FFF75EFFBDE8F0810146486B10
:1026900070470146886B70470146C86B704701461A
:1026A000086C70470A884B881A438B881A43CB887A
:1026B0001A430B891A434B891A438B891A43A0F892
:1026C000442070470021018041808180C1800181C8
:1026D00041818181704731B1B0F8442042F4004219
:1026E000A0F8442005E0B0F84420C2F30E02A0F8A0
:1026F0004420704721B1828842F00402828004E0C5
:1027000082884FF6FB731A408280704721B182881D
:1027100042F00102828004E082884FF6FE731A4084
:10272000828070471AB183890B43838102E08389D9
:102730008B43838170478182704702460020138A51
:102740000B400BB1012000E000207047CA43028219
:10275000704730B50246002000230024158A05EAA0
:102760000103958905EA010413B10CB1012000E0D1
:10277000002030BDCA430282704741EA0203A0F83C
:10278000483070471AB183890B43838102E0838903
:102790008B438381704721B1828842F00802828096
:1027A00004E082884FF6F7731A40828070470189EF
:1027B0004FF6F8721140018170470A4600210189E5
:1027C0004FF68F73194011430181704730B50446AD
:1027D0000D4629462046FFF7F0FF208940F007000C
:1027E000208130BD2DE9F04104460D4616461F46B6
:1027F000602D06D13B46012231462046FFF775FE8B
:1028000005E03B46012231462046FFF7A4FE29465B
:102810002046FFF7D2FF208940F007002081BDE865
:10282000F08130B50C4600210189C9B24FF6FF7521
:1028300005EA0325154325432943018130BD2DE9D0
:10284000F04105460E4617469846002443463A4650
:1028500031462846FFF7E5FF2C894FF6F870044013
:1028600044F007044FF68F70044044F070042C814C
:10287000BDE8F081F0B504460D4616461F463B46BE
:10288000324629462046FFF7CCFF208940F480409D
:102890002081F0BD82884FF68F731A408280828833
:1028A0000A438280704702894FF6F8731A4002810A
:1028B00002890A430281704702894FF67F731A40EA
:1028C000028102890A4302817047F0B50C46154621
:1028D0001E460021002200230189028B038C4FF643
:1028E000F877394021434FF6FC473A4040F2011750
:1028F0003A434FF6DD773B404FF6FF7707EA06177E
:102900002F433B43018102830384F0BD21B18288C0
:1029100042F08002828004E082884FF67F731A4082
:1029200082807047A0F85010704700000020414995
:102930000860091D0860091D0860091D08603E48FF
:102940003C4914310860704700213A498279002AD5
:102950003AD00A46126803689A430B461A600A1D69
:10296000126803689A430B1D1A60027911440A68C1
:1029700003681A430A602F4A0832126803689A43B0
:102980002C4B08331A601A1D126803689A43294BAE
:102990000C331A604279102A0ED11A1F126803688C
:1029A0001A43244B08331A601A1D126803681A432D
:1029B000204B0C331A600DE01E49427911440A681D
:1029C00003681A430A6005E0027911440A68036843
:1029D0009A430A6070470021016001710C21417126
:1029E0000021817170471349103109680143114A70
:1029F000103211607047014600200E4A14321268EE
:102A00000A400AB1012000E0002070470949143152
:102A10000860704701460020064A143212680A40D6
:102A20000AB1012000E0002070470249143108601B
:102A300070470000003C0140FFFF7F00016821F06B
:102A4000010101600021016041608160C16001619C
:102A500021214161DB49884204D13D21D94A103A04
:102A600091608CE0D7491831884205D14FF47461E8
:102A7000D44A103A916082E0D2493031884205D17F
:102A80004FF47411CF4A103A916078E0CD49483143
:102A9000884205D14FF07461CA4A103A91606EE0E5
:102AA000C8496031884204D1C749C64A103AD1604A
:102AB00065E0C4497831884204D1C449C14A103A1A
:102AC000D1605CE0BF499031884204D1C049BD4A21
:102AD000103AD16053E0BB49A831884205D14FF08C
:102AE0003D51B84A103AD16049E0BA49884204D110
:102AF0003D21B84A083A116041E0B6491831884290
:102B000005D14FF47461B34A083A116037E0B14916
:102B10003031884205D14FF47411AE4A083A116041
:102B20002DE0AC494831884205D14FF07461A94A83
:102B3000083A116023E0A7496031884204D1A249D4
:102B4000A44A121F11601AE0A2497831884204D1C8
:102B50009E49A04A121F116011E09E49903188429F
:102B600004D19B499B4A121F116008E09949A83182
:102B7000884204D14FF03D51964A121F11607047B0
:102B800010B500220268944B1A40CC680B682343AE
:102B90004C6923438C692343CC6923430C6A234348
:102BA0004C6A23438C6A23434C6B23438C6B234333
:102BB0001A430260426922F00702D1E90B34234331
:102BC0001A4342610B6943604B6883608B68C36042
:102BD00010BD0021016041608160C16001614161FF
:102BE0008161C161016241628162C16201634163CD
:102BF0008163704721B1026842F00102026003E084
:102C0000026822F001020260704721B1026842F4BA
:102C10000042026003E0026822F400420260704752
:102C200021B1026842F02002026003E0026822F053
:102C3000200202607047416070470146486880B2D8
:102C4000704722B1036843F40023036003E0036884
:102C500023F4002303600161704721B1026842F44C
:102C60008022026003E0026822F480220260704742
:102C70000AB1016100E0C1607047014600200A68A6
:102C800002F400220AB1012000E000207047014652
:102C900000200A6802F001020AB1012000E00020D1
:102CA0007047014600204A6902F03800704730B58D
:102CB00003460A4600200024464DAB4202D2414959
:102CC000103901E04349103902F000550DB14C684C
:102CD00000E00C68414D2C4004EA02050DB10120D2
:102CE00000E0002030BD02463A4B9A4202D23548FD
:102CF000103801E03748103801F000531BB1374B52
:102D00000B40C36002E0354B0B408360704710B549
:102D100001F080034BB122B1436943F0800343616A
:102D200003E0436923F08003436180290BD02AB17B
:102D3000036801F01E042343036004E0036801F00C
:102D40001E04A343036010BD70B50246002000249A
:102D50000025204EB24202D21A4B103B01E01D4B1F
:102D6000103B1F4E0E4036B11E2606EAD1241668CF
:102D700006EA040502E0566906F0800501F00056F7
:102D80000EB15C6800E01C68144E344004EA010691
:102D900016B10DB1012000E0002070BD02460D4BC0
:102DA0009A4202D20748103801E00A48103801F070
:102DB00000531BB1094B0B40C36002E0074B0B40B3
:102DC00083607047106002403D000020400F0020EB
:102DD00000003D20106402403F801CF07D0F7D0FFD
:102DE0003C0F3C0F10B54FF4A060FDF7F1FFA82099
:102DF000FDF74CFF03F0B3FEFDF7F4FBFDF71AFC03
:102E0000FDF7A0FBFDF73AFC00210846FDF7E5FDC4
:102E10004FF4E13000F0A3FE4FF4E13001F0E3FAAB
:102E20004FF4E13001F003F900F04CF86420FDF7B5
:102E30008FFF532144F61F6000F03BFB532140F20B
:102E4000E73000F0AEFB03F0BBFD04F0ADFA4FF449
:102E50007F410846FDF7C1FD00F070FA00F09FFACF
:102E600000F017FE04F0B4FB04F0D4FB012012497B
:102E700008604FF47A70FDF76BFF03F0BFFF01208D
:102E80000E49C1F894024FF47A70FDF761FF0120FA
:102E90000949083108604FF47A70FDF759FF03F0D3
:102EA000E9FB002006490860091D0860532140F233
:102EB000E73000F0C9FB10BD9002414200004142E2
:102EC0009082414200B597B001210846FEF714FBFD
:102ED00001214804FEF759FB01214805FEF70CFBD0
:102EE00007220221F748FEF7F4F807220321F548EC
:102EF000FEF7EFF80C20159002208DF858008DF8A1
:102F0000590000208DF85A0001208DF85B0015A9AA
:102F1000EC48FEF753F8EC48006811900020ADF83B
:102F20004800ADF84A00ADF850000C20ADF84E0056
:102F3000E648007820B1012806D002280ED108E02A
:102F40000020ADF84C0009E04FF4C060ADF84C0033
:102F500004E04FF48060ADF84C0000BF00BF11A941
:102F6000DB48FEF7CEFC40F22551D948FEF77DFE46
:102F7000012240F22551D648FEF701FE012240F21F
:102F80002441D348FEF7FBFD26208DF840000120A8
:102F90008DF841008DF842008DF8430010A8FDF730
:102FA0001CFF0121CA48FEF734FD01224021C84818
:102FB000FEF7DCFDC748FFF741FD00BFC548FFF73E
:102FC00066FE0028FAD14FF000600190C048001D55
:102FD0000290C14803900020049028200590002012
:102FE00006904FF4806007900020089009900A90A6
:102FF0004FF480300B9000200C9003200D900020A7
:103000000E900F9001A9B348FFF7BAFD0121B14816
:10301000FFF7F0FD17B000BD10B52DED068B04468F
:103020006278217802EB012006F075FA41EC1A0B68
:103030009FEDAA0B53EC102B06F012FB41EC190B81
:1030400005F0C0FF08EE100A9FEDA60AB4EEC08A94
:10305000F1EE10FA11DB18EE100A06F0F7FD41EC64
:103060001A0B9FEDA10B53EC102B06F005FD41EC64
:10307000190B05F0A7FF08EE100AB0EE480ABDECE8
:10308000068B10BD01464B780A7803EB022290B202
:10309000704710B52DED028B044614B9BDEC028BC0
:1030A00010BD2078012802D02078022859D16078FC
:1030B000032856D1A078022853D18D4800880128D2
:1030C00006D1E01CFFF7A8FF8A4880ED000A49E01E
:1030D00087480088022806D1E01CFFF79DFF86483C
:1030E00080ED000A3EE082480088032805D1E01CFC
:1030F000FFF7C8FF8149088034E07D480088042834
:1031000005D1E01CFFF7BEFF7D4908802AE0784822
:103110000088052810D1E01CFFF77EFF794880ED7C
:10312000000A006806F092FD41EC180B53EC182BD6
:1031300075A004F001FC15E06D480088062811D147
:10314000E01CFFF769FF724880ED000A006806F096
:103150007DFD41EC180B53EC182B6EA004F0ECFB3A
:1031600000E09BE700BF99E710B5002440F224413E
:103170005748FEF73FFD48B35648FFF75EFDC0F1E4
:1031800028006749086000215248FFF733FD504886
:103190000088C4B24E48001D0088C4B261494D4841
:1031A000FFF7A1FD5E480068072802D14A48FFF7F3
:1031B00070FF28214748FFF73EFD01214548FFF7F2
:1031C00019FD40F224414248FEF74FFD10BD00209A
:1031D00055490880704770B504460D460120534993
:1031E00008700BE000BF80213948FEF7EDFC002895
:1031F000F9D014F8011B3648FEF736FC2800A5F17B
:103200000101CDB2EED100BF40213148FEF7DCFC18
:103210000028F9D070BD70B502460C46FF25FF238B
:1032200009E012F8010B80EA05014148405C80EAA0
:1032300003054048435C2000A4F10106B4B2F0D17C
:1032400043EA052070BD2DE9F04106460C461546BF
:103250003948067003203849487020128870CC70B5
:10326000281208714D7106213348FFF7D4FF074635
:10327000380A31498871CF7108212F48FFF7ABFF19
:10328000BDE8F0812DE9F04106460C4615462A4876
:10329000067006202849487020128870CC70280AD1
:1032A00008714D7106212448FFF7B5FF0746380A1B
:1032B00021498871CF7108211F48FFF78CFFBDE8B5
:1032C000F08100000000024044000020480000207F
:1032D0000044004088600240B80600209A999999FD
:1032E0009999B93F00004843000000008099B94017
:1032F0000C00002084000020880000208C000020AA
:103300008E000020900000206C6566743D256600EC
:103310009400002072696768743D25660D0A0000FC
:103320007C000020400F00204A00002051000020B7
:10333000F29E0008F29F0008F00500201FB5012151
:103340008020FEF722F940F28F1002904AF20F40DF
:10335000ADF804000020ADF80600ADF80C0001A99E
:103360003C48FEF73EFD01213A48FFF703FA0122EF
:1033700011463848FFF7D6F92C208DF800000320BD
:103380008DF8010001208DF802008DF803006846D9
:10339000FDF723FD00212F48FEF7ACFD1FBD1FB533
:1033A00001210802FEF7F1F842F20F7002904AF292
:1033B0000F40ADF804000020ADF80600ADF80C0099
:1033C00001A92548FEF70DFD01212348FFF7D2F999
:1033D000012211462048FFF7A5F92D208DF80000A5
:1033E00003208DF8010001208DF802008DF8030004
:1033F0006846FDF7F2FC00211748FEF77BFD1FBD74
:1034000010B501211448FFF7A4F970B10121124849
:10341000FFF7B0F9002011490860114908801149EF
:10342000088000210C48FEF765FD10BD10B5012194
:103430000848FFF78EF960B101210648FFF79AF9B5
:103440004FF47A710848FEF7BCFE00210148FEF7F0
:1034500051FD10BD001C004000200040A0010020D4
:103460008C0000208E0000200004014010B5FE48B2
:10347000D0E90030FD4A12CA5A1A60EB040040F24B
:10348000DC5300219A1A814109D20020F8490860D2
:10349000F848007840F00100F649087008E0012083
:1034A000F3490860F348007800F0FE00F149087025
:1034B00010BD30B58BB004460D4601210846FEF71D
:1034C00064F801210220FEF717F801210846FEF7F3
:1034D00013F801220A21E848FDF7FBFD01220B2128
:1034E000E548FDF7F6FD01220521E448FDF7F1FD71
:1034F0004FF44060099002208DF8280003208DF8D9
:10350000290000208DF82A0001208DF82B0009A940
:10351000D948FDF753FD2020099009A9D748FDF7A8
:103520004DFDA8B2ADF818000020ADF81A000794C0
:10353000ADF8200006A94FF08040FEF752FC602055
:10354000ADF804000120ADF806000220ADF810002F
:1035500001A94007FEF7DAFC01A94FF08040FEF711
:103560005BFD01A94FF08040FEF7BCFD0821C806B5
:10357000FEF759FE0821C806FEF76BFE0821C806B3
:10358000FEF770FE01218807FEF796FC01218807EF
:10359000FEF7B0FC44F612014807FEF710FE0BB030
:1035A00030BD30B58BB004460D4601210220FDF739
:1035B000FDFF01210420FDF79FFF03220721B048F2
:1035C000FDF787FD8020099002208DF82800032058
:1035D0008DF8290000208DF82A0001208DF82B009D
:1035E00009A9A748FDF7EAFCA8B2ADF81800002029
:1035F000ADF81A000794ADF8200006A9A148FEF71F
:10360000F0FB6020ADF804000120ADF806000220B8
:10361000ADF8100001A99B48FEF7B1FC08219948BC
:10362000FEF70AFE00219748FEF7CBFD01219548E1
:10363000FEF742FC01219348FFF74DF80121914824
:10364000FEF758FC0BB030BD30B589B005460C46CE
:1036500001210220FDF799FF01210220FDF74CFF17
:103660000795ADF818400020ADF81A00ADF820001D
:1036700006A98548FEF7B5FB012211468248FFF7EF
:1036800051F81D208DF8140001208DF815008DF8DB
:1036900016008DF8170005A8FDF79FFB6020ADF818
:1036A00000000120ADF802000020ADF80C006946D2
:1036B0007548FEF7B1FC08217348FEF7CAFD0021EA
:1036C0007148FEF780FD01216F48FEF713FC09B039
:1036D00030BD6E4890ED000ADFED6D0AB4EEE00AF1
:1036E000F1EE10FA0EDD90ED020ADFED6A0AB4EE9B
:1036F000E00AF1EE10FA05D267480068401C6649FE
:10370000086002E0002064490860634800681428EB
:103710002DDB5E48808CF8B95C48408CE0B95B4892
:10372000008CC8B95948C08BB0B95848406998B99D
:103730005648806980B95548006968B95348C08CBB
:1037400050B900204A490831086001205349C1F8A6
:103750008C02534908700AE0002045490C3108608A
:1037600001204E49C1F8880200204B49086070478B
:1037700070B501214448FEF7ECFF012872D1012108
:103780004148FEF7F7FF3848D0E9003061229C1825
:1037900040F1000119220023204604F032F80021F4
:1037A0004A404B401A4301D103F086FA2E48D0E933
:1037B000002040F2D513D41840F10001C8220023A4
:1037C000204604F01EF800214A404B401A4309D11C
:1037D0003448007830B903F004FF33480068401CD7
:1037E000314908602E48007801283CD11E48D0E9B4
:1037F000001011F1270440F100016422002320464B
:1038000003F0FFFF00214A404B401A4301D102F070
:10381000B9FE2648007801285FD11348D0E900306E
:1038200083229C1840F1000164220023204603F00B
:10383000E8FF00214A404B401A4301D103F03AF817
:103840000948D0E9001011F1350440F1000164226B
:103850000023204603F0D5FF00214A404B401A4385
:1038600028D125E0E8E0B7E09800002058010020CA
:103870008002414226010020000402400000024074
:1038800000080240000401400004004044080020F9
:103890006666663F666666BF2801002000004142FA
:1038A00027010020B4040020A0000020A80400206C
:1038B00002F040FC9648D0E9001011F14E0440F1AE
:1038C000000132220023204603F09BFF00214A40E2
:1038D0004B401A4301D102F088FD8D48D0E9002009
:1038E00012F1450440F1000114220023204603F0A8
:1038F00088FF00214A404B401A4302D1854803F01B
:1039000075FB64220023824903C903F07AFF00217A
:103910004A404B401A4301D101F08AF97C48D0E972
:1039200000204FF4DA73D41840F100014FF4FA721A
:103930000023204603F065FF00214A404B401A4314
:103940000ED17548006858B9744801887448D0EDA4
:10395000000A74480088744A92ED000A02F055FD8E
:103960006B48D0E9001011F1180440F10001322237
:103970000023204603F045FF00214A404B401A43F4
:1039800001D102F0D4FE6248D0E90020252154186C
:1039900040F10001C8220023204603F032FF00213D
:1039A0004A404B401A4301D103F08EFA5848D0E9FF
:1039B000001040F24D13CC1840F100014FF4FA72A0
:1039C0000023204603F01DFF00214A404B401A43CC
:1039D00015D103F0DDF812E04D48D0E9002012F1D6
:1039E000220440F1000164220023204603F009FF75
:1039F00000214A404B401A4301D1FFF76AFE444878
:103A0000D0E900104FF44473CC1840F10001C822F3
:103A10000023204603F0F5FE00214A404B401A43A4
:103A200001D1FFF723FD3A48D0E900305A1C40F19C
:103A300000003749C1E9002070BD10B53B483C4942
:103A4000097800EBC10090ED011AF0EE410A374809
:103A50003749097800EBC10090ED001AB0EE410A39
:103A60009FED341B40F6D30240F6A60140F6D2701B
:103A700001F032FE2E480078401C2D49087008786D
:103A8000C11700EB11710911A0EB0111284A117047
:103A900010BD1FB501214020FDF777FD40F69F7056
:103AA00002904AF20F40ADF804000020ADF8060085
:103AB000ADF80C0001A92148FEF793F901211F4838
:103AC000FEF758FE012211461C48FEF72BFE2B2064
:103AD0008DF8000003208DF8010001208DF8020010
:103AE0008DF803006846FDF778F900211348FEF7CA
:103AF00001FA1FBD10B501211048FEF72AFE30B1B2
:103B000001210E48FEF736FE00200D49086010BD69
:103B100098000020B8070020A00100208E0000209F
:103B2000880000208C00002084000020A4000020D9
:103B300025010020000000000000000000180040E7
:103B4000C404002000BF704700BFFE4A128802F084
:103B50004002002AF9D0C2B2FA4B9A80704710B5E1
:103B600088B0044601210846FDF7C6FC012110205B
:103B7000FDF71CFD01218805FDF7BEFC0722092188
:103B8000F148FDF7A6FA07220A21EF48FDF7A1FA4E
:103B90004FF4C060069002208DF81C008DF81D00C7
:103BA00000208DF81E0001208DF81F0006A9E648B0
:103BB000FDF704FA02940020ADF80C00ADF80E00F9
:103BC000ADF81000ADF814000820ADF8120002A9FD
:103BD000DC48FDF796FE0121DA48FDF71AFF2520A3
:103BE0008DF8040003208DF805008DF8060001A86B
:103BF000FDF7F3F808B010BDB0EE401A90ED000AE2
:103C0000D0ED011A30EE210AD0ED021A30EE210A71
:103C1000D0ED031A70EE211A00EE101AB8EEC02A89
:103C200081EE820A704770B52DED048B40F225516C
:103C3000C448FDF7DFFF00283CD0C248FDF718FF5D
:103C4000C4B2C248008800F4004018BB3A2C06D128
:103C5000BE48008840F40050BC4908802AE0BB48B8
:103C6000008800F40050A8B10D2C06D1B748008898
:103C700040F48040B54908801CE0B448008800F456
:103C8000804040B10A2C15D1B048008840F4004073
:103C9000AE4908800EE0AD480088C0F30C05AC4882
:103CA0004455AA480088401CA8490880C72D01DD5A
:103CB00000200880A548008800F4004000287DD03E
:103CC0000120A4490870A1480088C0F30C06A2494D
:103CD00003C9A24A03C2A24890ED000AF2EE040A08
:103CE00030EE600A9F4880ED000A9D4890ED010A81
:103CF000F2EE040A30EE600A9A4880ED030A984812
:103D000090ED020ADFED980A30EE600ABDEEC00ABF
:103D1000944880ED040A924890ED030ADFED920A80
:103D200030EE600ABDEEC00A8E4880ED050A8C4870
:103D300090ED040ADFED8C0A30EE600ABDEEC00A99
:103D4000884880ED060A864890F8240000F00100BB
:103D500084498883824890F82400C0F34000C883D7
:103D60007F4890F82400C0F380000884084640692A
:103D700040F2EE21884203DC7A484069002803DAE9
:103D80007A480068774948617648806940F2EE21B8
:103D9000884203DC73484069002803DA74480068ED
:103DA000704988616F48006940F2EE21884203DC67
:103DB0006C480069002805DA6E4800E0BFE0006842
:103DC00068490861674800696A4908606548406950
:103DD000664908606348806965490860614890EDFC
:103DE000000AF7EE000AB4EEE00AF1EE10FA08DC81
:103DF00090ED000AFFEE000AB4EEE00AF1EE10FAD0
:103E000005D25D4890ED000A564880ED000A5548FD
:103E100090ED030AF7EE000AB4EEE00AF1EE10FAB4
:103E200008DC90ED030AFFEE000AB4EEE00AF1EEC2
:103E300010FA05D2514890ED000A4A4880ED030A75
:103E4000484890ED000A4C4880ED000A454890ED46
:103E5000030A4A4880ED000A424890ED000A10EE3D
:103E6000101A084605F0F2FE41EC190BB0EE490AB3
:103E7000F0EE690A04F06CFFB0EE408AF0EE608A62
:103E80009FED3F0B53EC102B51EC180B05F0ACFBE6
:103E90003BD8344890ED030A10EE101A084605F09E
:103EA000D5FE41EC190BB0EE490AF0EE690A04F0B8
:103EB0004FFFB0EE408AF0EE608A9FED310B53EC7D
:103EC000102B51EC180B05F08FFB1ED8254890EDF8
:103ED000000A2D482D49096800EB810080ED000A99
:103EE000204890ED030A2A482849096800EB810020
:103EF00080ED000A25490968481CC11700EB917143
:103F00008910A0EB8101214A1160FFEE000AB7EE93
:103F1000000A04211C48FFF76FFE124880ED000ADA
:103F2000FFEE000AB7EE000A04211948FFF764FE0D
:103F30000C4880ED030A00200449088000BFBDEC56
:103F4000048B70BD001001400000024034010020CD
:103F5000F0060020360100209800002050010020CB
:103F6000080900204408002000007A446001002075
:103F70006401002070010020680100206C01002015
:103F8000000000000000F03FC80800204C010020A5
:103F9000E008002010B588B004460121C804FDF7F0
:103FA000F4FA01210420FDF7A7FA08220A21FE48AD
:103FB000FDF78FF808220B21FB48FDF78AF84FF434
:103FC0004060069002208DF81D008DF81C00002036
:103FD0008DF81E0001208DF81F0006A9F248FCF79D
:103FE000EDFF34208DF8040002208DF8050000203C
:103FF0008DF8060001208DF8070001A8FCF7EDFE02
:1040000002940020ADF80C00ADF80E00ADF81000E1
:10401000ADF814000C20ADF8120002A9E348FDF73A
:1040200070FC0121E148FDF7F4FC08B010BD10B5AB
:1040300096B0044601210820FDF75EFA01218804AC
:10404000FDF7A3FA01214805FDF756FA07220921D9
:10405000D748FDF73EF84FF40070149002208DF819
:1040600054008DF8550000208DF8560001208DF881
:10407000570014A9CE48FCF7A1FF10940020ADF81A
:104080004400ADF84600ADF84800ADF84C000420FF
:10409000ADF84A0010A9C748FDF733FC0121C54817
:1040A000FDF7B7FC012240F22441C248FDF767FD4D
:1040B0004021C048FDF795FD012240F22551BD4841
:1040C000FDF75DFD27208DF83C0000208DF83D00B8
:1040D0008DF83E0001208DF83F000FA8FCF77DFE13
:1040E00001224021B348FDF741FDB348FEF7A6FC8D
:1040F00000BFB148FEF7CBFD0028FAD14FF00060B9
:104100000090AC48001D0190AC4802900020039044
:10411000FA200490002005904FF480600690002063
:104120000790089009904FF480300A9000200B907F
:1041300003200C9000200D900E9069469E48FEF7DB
:104140001FFD01219C48FEF755FD16B010BD2DE95D
:10415000F04708B9BDE8F0870021002600BF5AE00B
:10416000CB1CC45C8B1CC35C04EB03231BB20A4650
:1041700001EBD2746410924D25F8143001EBD17824
:104180004FEA6808DFF83C9239F9188001EBD179E1
:104190004FEA6909AA463AF91990A8EB0908B8F15B
:1041A000000F10DD01EBD1784FEA6808DFF81492B8
:1041B00039F9188001EBD1794FEA69093AF9199078
:1041C000A8EB090813E001EBD1784FEA6808DFF8A3
:1041D000F49139F91880C8F1000801EBD1794FEA60
:1041E0006909DFF8DCA13AF91990A8EB090842F255
:1041F0001079C8450DDD0A4601EBD2746410704D8C
:1042000035F814400B4601EBD3756D106C4F27F851
:1042100015408A1CD1B21029A2DBC278837802EB48
:10422000032212B2684B9A804279037902EB03228F
:1042300012B2654BDA80C279837902EB032212B2A3
:10424000614B5A80427A037A02EB032212B25E4B30
:104250001A80C27A837A02EB032212B25A4B5A8234
:10426000427C037C02EB032212B2574B9A82827C7F
:104270000123B3EBD21F07D1827CC2F380121AB99B
:104280000022514BDA8218E0827CD2093AB9827C52
:10429000C2F380121AB901224B4BDA820DE0827C04
:1042A000D2093AB9827CC2F380121AB10222464B7B
:1042B000DA8202E00022444BDA82827CC2F34012AE
:1042C0003AB9827CC2F300121AB900223E4B1A821C
:1042D00016E0827CC2F340123AB1827CC2F3001233
:1042E0001AB90122384B1A820AE0827CC2F34012CA
:1042F00032B9827CC2F3001212B10222324B1A820E
:10430000827CC2F3C0023AB1827CC2F380021AB945
:1043100000222D4B9A8116E0827CC2F3C0023AB98A
:10432000827CC2F380021AB90122274B9A810AE0EB
:10433000827CC2F3C00232B9827CC2F3800212B125
:104340000222214B9A81C27CC2F340121E4BDA81B9
:10435000C27CC2F3C0025A81C27CC2F380021A81BD
:1043600000BFF7E670B5002440F224411148FDF784
:1043700041FC68B3002500210F48FEF73BFC0D48C7
:104380000088C4B20B48001D0088C4B20F490A4817
:10439000FEF7A9FC0948FFF7DAFE16210648FEF7EA
:1043A0004AFC0121044814E000080240004C00408F
:1043B000000C024000480040286002401308002022
:1043C000F80800207C0100202A080020400F00107F
:1043D00008E0FEF70FFC6448D0E90010634AC2E928
:1043E000001000BF70BD10B596B004460121042036
:1043F000FDF782F80121C804FDF7C7F8012148053F
:10440000FDF77AF808220A215948FCF762FE0822D3
:104410000B215748FCF75DFE4FF4406014900220DA
:104420008DF854008DF8550000208DF856000120BD
:104430008DF8570014A94E48FCF7C0FD10940020D9
:10444000ADF84400ADF84600ADF84800ADF84C00BA
:104450000C20ADF84A0010A94648FDF752FA012198
:104460004448FDF7D6FA012240F224414148FDF7C5
:1044700086FB40213F48FDF7B4FB012240F2255165
:104480003C48FDF77CFB34208DF83C0003208DF880
:104490003D008DF83E0001208DF83F000FA8FCF78D
:1044A0009CFC012240213348FDF760FB3248FEF7B7
:1044B000C5FA00BF3048FEF7EAFB0028FAD14FF0FA
:1044C000006000902B48001D01902C4802900020B5
:1044D000039040F28E300490002005904FF48060ED
:1044E000069000200790089009904FF480300A90C1
:1044F00000200B9003200C9000200D900E90694638
:104500001D48FEF73DFB01211B48FEF773FB16B06B
:1045100010BD10B5002440F224411648FDF76AFB97
:1045200000B317480068401C154908600021124874
:10453000FEF760FB0F480088C4B20E48001D0088DB
:10454000C4B210490C48FEF7CEFB5B210A48FEF7C7
:1045500072FB01210848FEF74DFB40F2244105485B
:10456000FDF783FB10BD00009800002058010020DB
:1045700000080240004C004040600240B8070020A4
:10458000E006002000003D1000B585B0012108467E
:10459000FCF7B2FF4FF4C050009000208DF80400EB
:1045A00001208DF8060003208DF8050001208DF80C
:1045B000070069464748FCF701FD01218803FCF725
:1045C000F5FF0C210020FDF7FCF80B210020FDF782
:1045D000F8F84FF4C050039000208DF810000C2024
:1045E0008DF8110001208DF8120003A8FEF7ACF938
:1045F00028208DF8080002208DF8090001208DF890
:104600000A008DF80B0002A8FCF7E7FB4FF40061ED
:104610003048FCF735FD18B901202F49087009E032
:104620004FF400612B48FCF72BFD012802D100203C
:10463000294908704FF480512648FCF721FD18B92C
:1046400001202649087009E04FF480512148FCF709
:1046500017FD012802D100202049087005B000BDD7
:1046600010B54FF40060FEF7D5F9B0B90A20FCF799
:104670006FFB4FF400611748FCF702FD18B90120E9
:104680001549087009E04FF400611248FCF7F8FC86
:10469000012802D10020104908704FF48050FEF725
:1046A000B9F9B0B90A20FCF753FB4FF4805109481F
:1046B000FCF7E6FC18B901200849087009E04FF43E
:1046C00080510448FCF7DCFC012802D1002003499A
:1046D000087010BD000002408E0100208D010020F6
:1046E00010B52DED0C8BB0EE408AF0EE608AB0EE86
:1046F000419AF0EE619A53EC182B51EC180B04F030
:10470000AFFF41EC1C0B53EC192B51EC190B04F0CF
:10471000A7FF41EC1D0B53EC1C2B05F0ADF941EC50
:104720001B0BB0EE4B0AF0EE6B0A04F01BFBB0EE75
:1047300040AAF0EE60AAB0EE4A0AF0EE6A0ABDECBA
:104740000C8B10BD00B52DED108B85B0B0EE408AFE
:10475000F0EE608AB0EE419AF0EE619AB0EE42AAB5
:10476000F0EE62AA9FEDE20B53EC102B51EC180B0C
:1047700004F00EFD41EC180B9FEDDD0B53EC102BFC
:1047800051EC190B04F004FD41EC190B9FEDD80B13
:1047900053EC102B51EC1A0B04F0FAFC41EC1A0B01
:1047A00053EC192B51EC180B04F03EFC41EC1E0BA2
:1047B00053EC1A2B04F038FC41EC1D0B9FEDCE0B93
:1047C00053EC102B04F0E4FC41EC1B0B53EC1B2BC3
:1047D00051EC180B05F078F841EC1E0B53EC1B2B39
:1047E00004F03EFF41EC1D0BB0EE4D0AF0EE6D0AF9
:1047F00004F0B8FA8DED020B53EC1A2B51EC1B0BA5
:1048000005F03AF941EC1E0B53EC192B51EC1B0B44
:1048100005F032F941EC1F0B53EC1E2B04F020FF86
:1048200041EC1D0BB0EE4D0AF0EE6D0A04F09AFA61
:104830008DED000B9DED000B53EC102B9DED020B4D
:1048400051EC100B04F00CFF41EC1C0B9FEDAC0B7A
:1048500053EC102B51EC1C0B04F002FF41EC1C0B31
:10486000B0EE4C0AF0EE6C0A05B0BDEC108B00BD4A
:1048700010B52DED0C8BB0EE408AF0EE608AB0EEF4
:1048800041AAF0EE61AAB0EE429AF0EE629AB0EE62
:10489000492AF0EE692AB0EE4A1AF0EE6A1AB0EE32
:1048A000480AF0EE680AFFF74DFFB0EE40DAF0EE8E
:1048B00060DA9FED910B53EC102B51EC1D0B04F0C3
:1048C000CFFE53EC192B04F063FC05F06BFA8E4A13
:1048D00003C28D4903C904F035FE41EC1C0BB0EE58
:1048E000481AF0EE681AB0EE4C0AF0EE6C0AFFF7C8
:1048F000F7FEB0EE40BAF0EE60BA51EC1B0B05F0DB
:1049000051FA824A03C2804903C904F01BFE41ECFC
:104910001C0BB0EE4A1AF0EE6A1AB0EE4C0AF0EE3A
:104920006C0AFFF7DDFEB0EE40BAF0EE60BA51EC73
:104930001B0B05F037FA764A03C2BDEC0C8B10BD99
:10494000F0B506460F4614461D4600210846891B51
:10495000B84102DA3046394603E00021704261EB8B
:10496000070100231A461B1BAA4102DA22462B46E6
:1049700003E00023624263EB0503801A994102DBE6
:1049800030463946F0BD20462946FBE7F0B50646DD
:104990000F4614461D4600210846091BA84102DAAD
:1049A0002046294603E00021604261EB0501002317
:1049B0001A469B1BBA4102DA32463B4603E000230B
:1049C000724263EB0703801A994102DA20462946B6
:1049D000F0BD30463946FBE710B52DED0C8BB0EE3F
:1049E000408AF0EE608AB0EE419AF0EE619A53ECA4
:1049F000192B51EC190B04F033FE41EC1C0B53EC5A
:104A0000182B51EC180B04F02BFE41EC1D0B53EC52
:104A10001C2B04F009FB41EC1B0BB0EE4B0AF0EE33
:104A20006B0A04F09FF9B0EE40AAF0EE60AAB0EE77
:104A30004A0AF0EE6A0ABDEC0C8B10BD00B52DEDF4
:104A4000108B85B0B0EE408AF0EE608AB0EE419AED
:104A5000F0EE619AB0EE42AAF0EE62AAB0EE43BA6E
:104A6000F0EE63BA53EC1B2B51EC190B05F004F874
:104A700041EC1E0B53EC1B2B51EC190B04F0FCFF0B
:104A800041EC1F0B53EC1E2B04F0EAFD41EC1D0B17
:104A900053EC1A2B51EC180B04F0EEFF41EC1E0BFB
:104AA00053EC1A2B51EC180B04F0E6FF41EC1F0BF2
:104AB00053EC1E2B04F0D4FD53EC1D2BCDE900016B
:104AC0009DED000B51EC100B04F0AEFACDE90201A4
:104AD0009DED020B04F046F9B0EE40CAF0EE60CA5C
:104AE000B0EE4C0AF0EE6C0A05B0BDEC108B00BDC8
:104AF0000000000000002440000000000000004012
:104B0000000000000000594090010020E801002052
:104B1000F001002070B52DED028B05460C4640F6E5
:104B2000B8325142284601F022FD054640F6B8321F
:104B30005142204601F01BFD0446002D06DB0020FB
:104B4000FE4908600120FCF7BBF806E0002D04DAFE
:104B50000120FA490860FCF7B3F8002C06DB0120BD
:104B6000F649091D0860FCF7ABF808E0002C06DAEE
:104B70000020F249091D08600120FCF7A1F8002D72
:104B800001DD294600E06942084604F0C4FC41EC1E
:104B9000180B9FEDEB0B53EC102B04F025FD03D20B
:104BA000002002F0C3FD0CE0002D01DD284600E0EE
:104BB000684264214843E44991FBF0F6304602F034
:104BC000B5FDE248D0E90020521B60EBE570DF49FB
:104BD000C1E90020002C01DD214600E061420846C9
:104BE00004F099FC41EC180B9FEDD50B53EC102B06
:104BF00004F0FAFC03D2002002F046FD0CE0002C89
:104C000001DD204600E0604264214843CE4991FB2B
:104C1000F0F6304602F038FDCD48D0E90020121BF6
:104C200060EBE470CA49C1E90020BDEC028B70BDA5
:104C300010B594B0C7480068C749086000201290BA
:104C4000119010909FEDC50A8DED0F0A9FEDC30ADC
:104C50008DED0E0AC248007818B1C14800780228CC
:104C600024D100201290BF4890ED010ADFEDBE0A6A
:104C700020EE200ABDEEC00A8DED110A90ED030A68
:104C8000DFEDB90A20EE200ABDEEC00A8DED100A54
:104C9000B6480068002808D01198002802DC109857
:104CA000002802DD002011901090CDE2AC48007881
:104CB0000128FAD19FEDAE0B04F054F88DED040BF2
:104CC000A848C068019004F0C1FFCDE902019DED44
:104CD000040B53EC102B9DED020B51EC100B04F068
:104CE000BFFC9FEDA30B53EC102BCDE906019DED0E
:104CF000060B51EC100B04F04BFA9FED9D0BCDE928
:104D00000A0104F02FF88DED040B964890ED020A8D
:104D1000B1EE400A8DED010A019804F097FFCDE94C
:104D200002019DED040B53EC102B9DED020B51EC99
:104D3000100B04F095FC9FED8E0B53EC102BCDE97E
:104D400006019DED060B51EC100B04F021FACDE9A4
:104D500008019DED0A0B53EC102B9DED080B51EC57
:104D6000100B04F061F9CDE90C019DED0C0B51EC39
:104D7000100B04F027F90F909FED7D0B03F0F2FF6D
:104D80008DED040B7748C068019004F05FFFCDE91A
:104D900002019DED040B53EC102B9DED020B51EC29
:104DA000100B04F05DFC9FED720B53EC102BCDE962
:104DB00006019DED060B51EC100B04F0E9F99FED97
:104DC0006C0BCDE90A0103F0CDFF8DED040B6548B6
:104DD0008068019004F03AFFCDE902019DED040BDB
:104DE00053EC102B9DED020B51EC100B04F038FC32
:104DF0009FED5F0B53EC102BCDE906019DED060BEB
:104E000051EC100B04F0C4F9CDE908019DED0A0B3B
:104E100053EC102B9DED080B51EC100B04F004F932
:104E2000CDE90C019DED0C0B51EC100B04F0CAF810
:104E30000E904C48C068059004F008FFCDE90601CB
:104E40009DED060B03F084FF8DED0A0B454880684D
:104E5000059004F0FBFECDE906019DED060B03F085
:104E600077FF8DED080B9DED0A0B53EC102B9DED9C
:104E7000080B51EC100B04F0FFFD9FED3F0B53ECC2
:104E8000102BCDE90C019DED0C0B51EC100B04F037
:104E9000E5FC52D80E9804F0D9FECDE906019DED4F
:104EA000060B03F055FF8DED0A0B0F9804F0CEFEB4
:104EB000CDE906019DED060B03F04AFF8DED080BD1
:104EC0009DED0A0B53EC102B9DED080B51EC100BD4
:104ED00004F0D2FD9FED280B53EC102BCDE90C0113
:104EE0009DED0C0B51EC100B04F0B8FC74D81D4870
:104EF0008068079004F0AAFECDE908019DED080B3B
:104F000003F026FF8DED0A0B9FED1D0B53EC102BCC
:104F10009DED0A0B51EC100B04F0A2FBCDE90C0146
:104F20009DED0C0B51EC100B04F0C6FA119011988A
:104F300004F0F1FACDE90A0126E099E0B48240429A
:104F40009A9999999999B93F008793034004002051
:104F500048040020980000202404002000000000E5
:104F6000000000204408002000803B45A0010020F4
:104F70000000000000000040FCA9F1D24D62503F4B
:104F800000000000007097409DED0E0ADDED0F0A55
:104F900080EE201A8DED051A059804F057FECDE934
:104FA00006019DED060B03F0D3FE8DED080B9DED84
:104FB0000A0B53EC102B9DED080B51EC100B04F079
:104FC0004FFBCDE90C019DED0C0B51EC100B04F0E7
:104FD00073FA109010E1FFE7FC488068079004F036
:104FE00035FECDE908019DED080B03F0B1FE8DED16
:104FF0000A0B1FED1D0B53EC102B9DED0A0B51EC12
:10500000100B04F02DFBCDE90C019DED0C0B51ECC8
:10501000100B04F051FA1090109804F07CFACDE9CE
:105020000A019DED0F0ADDED0E0A80EE201A8DEDCE
:10503000051A059804F00AFECDE906019DED060B60
:1050400003F086FE8DED080B9DED0A0B53EC102B43
:105050009DED080B51EC100B04F002FBCDE90C01A7
:105060009DED0C0B51EC100B04F026FA1190C3E0EF
:105070000E9804F0EBFDCDE906019DED060B03F063
:1050800067FE8DED0A0B0F9804F0E0FDCDE90601F7
:105090009DED060B03F05CFE8DED080B9DED0A0BFC
:1050A00053EC102B9DED080B51EC100B04F0E4FCBD
:1050B0001FED4F0B53EC102BCDE90C019DED0C0BAC
:1050C00051EC100B04F0CAFB4BD8C048C0680790E5
:1050D00004F0BCFDCDE908019DED080B03F038FE9E
:1050E0008DED0A0B1FED5A0B53EC102B9DED0A0BA7
:1050F00051EC100B04F0B4FACDE90C019DED0C0B52
:1051000051EC100B04F0D8F91190119804F003FA47
:10511000CDE90A019DED0E0ADDED0F0A80EE201AA1
:105120008DED051A059804F091FDCDE906019DED80
:10513000060B03F00DFE8DED080B9DED0A0B53ECF5
:10514000102B9DED080B51EC100B04F089FACDE902
:105150000C019DED0C0B51EC100B04F0ADF910900F
:105160004AE09A48C068079004F070FDCDE9080154
:105170009DED080B03F0ECFD8DED0A0B1FED800B90
:1051800053EC102B9DED0A0B51EC100B04F068FA58
:10519000CDE90C019DED0C0B51EC100B04F08CF9DA
:1051A0001090109804F0B7F9CDE90A019DED0F0AAF
:1051B0009DED0E1AC0EE010ACDED050A059804F02A
:1051C00045FDCDE906019DED060B03F0C1FD8DED1A
:1051D000080B9DED0A0B53EC102B9DED080B51ECC9
:1051E000100B04F03DFACDE90C019DED0C0B51ECD8
:1051F000100B04F061F911907548006880B19DEDC5
:105200000F0AB5EEC00AF1EE10FA06DC9DED0E0AAB
:10521000B5EEC00AF1EE10FA02DD002011901090F8
:105220009DED0F0AB5EEC00AF1EE10FA02D2119808
:10523000404211909DED0E0AB5EEC00AF1EE10FA53
:1052400002D21098404210901198002801DD119868
:1052500001E0119840420B9004F05DF91FEDC80B7E
:1052600053EC102BCDE90C019DED0C0B51EC100B08
:1052700004F0BAF925D81098002801DD109801E053
:10528000109840420B9004F046F91FEDD30B53ECFD
:10529000102BCDE90C019DED0C0B51EC100B04F023
:1052A000A3F9E7D84948C08C60B94A48406B0D90D3
:1052B00048480D998847002002F038FA002002F093
:1052C000E3F98DE14148C08C01287DD1414890F837
:1052D000280020B1022811D0042876D10FE03E48E2
:1052E000D0E900103B4AC2E900103C4903C9C2E9B9
:1052F00002010120114681F82800B1E000BF3548C5
:10530000006A3449496A88426CDA3248006A401CB3
:10531000304908620846C06A642148434FF4167158
:1053200090FBF1F0C1172C4AD2E90032C01851416C
:10533000294A03C22748D0E900202649D1E904318F
:10534000D21A60EB0100CDE90A2006220023DDE934
:105350000A0102F0CDFACDE90C011E48406AC117DE
:1053600002460B46CDE90A01DDE90C0102F0C0FA64
:105370001849C8620846C06A002802DD0846C06AAB
:1053800002E01448C06A4042154991FBF0F00A213E
:1053900090FBF1F00D9002F0C9F90E480346D0E9F8
:1053A0000221D3E90603101A61EB03010622002350
:1053B000CDE90A0102F09CFACDE90C010548406AEA
:1053C000C11702460B460EE04BE048E044080020BF
:1053D000A0010020F0040020400400204804002028
:1053E00040420F002AE0CDE90A01DDE90C0102F09C
:1053F0007FFAFE4908630846006B642148434FF476
:10540000167190FBF1F0C117F94B0CCB8018594184
:10541000F74A03C2F548006B002802DDF348006B31
:1054200002E0F248006B4042F24991FBF0F00A21A1
:1054300090FBF1F00D9002F027F90FE0EB48006AC5
:10544000EA49496A884209D10320E84981F82800DD
:10545000002002F019F9002002F068F900E000BF16
:10546000BEE0E548C08C0228FAD1E04890F8280058
:1054700020B1012809D003287ED116E0DB48406B1B
:105480000D90DA480D998847A9E0DC4903C9D74A4D
:10549000C2E90401D648D0E90021D448C0E9062178
:1054A0000220D24981F8280099E0D048006A0028FB
:1054B00078DDCE48006A401ECC49086203C9CB4A59
:1054C000D2E90432C01A61EB020106220023CDE9C1
:1054D0000A0102F00DFACDE90C01C448406AC11777
:1054E00002460B46CDE90A01DDE90C0102F000FAA3
:1054F000BE49C8620846C06A642148434FF4167129
:1055000090FBF1F0C117BD4B0CCB80185941BB4A41
:1055100003C2B648C06A002802DDB448C06A02E08F
:10552000B248C06A4042B34991FBF0F00A2190FBB7
:10553000F1F00D9002F0FAF8AC48D0E90241D0E960
:105540000620A21A61EB0001CDE90A210622002300
:105550000A9802F0CDF9CDE90C01A448406AC117C0
:1055600002460B46CDE90A01DDE90C0102F0C0F963
:105570009E490863084600E030E0006B6421484320
:105580004FF4167190FBF1F0C117994B0CCB8018BA
:105590005941974A03C29548006B002803DD9348A0
:1055A000006B03E00CE09148006B4042914991FB95
:1055B000F0F00A2190FBF1F00D9002F065F80CE09C
:1055C0008A48006A48B90420884981F828000020E8
:1055D00002F05AF8002002F0A9F800E000BF00BF76
:1055E000824890F8280002280DD0804890F82800C2
:1055F000032808D07D4890F82800042803D0DDE96E
:105600001010FFF787FA7948006A0D90774890F8F4
:1056100028000C9001467AA00D9A02F08DF914B082
:1056200010BD10B5794890ED000B51EC100B03F054
:10563000C9FC77494860774890ED000B51EC100B9E
:1056400003F0C0FC744948607148016C8847724897
:10565000016C884771480078C0B901207049087012
:1056600040F201306F490880694890ED0D0AF7EE6D
:10567000000A20EE200ABDEEC00A10EE100A00B2A9
:10568000694908800120654908701BE0634800787B
:10569000012817D102206249087040F201306149A7
:1056A00008805D4890ED0D0AFFEE000A20EE200A0A
:1056B000BDEEC00A10EE100A00B25B49088000205F
:1056C000564908705848B0F9002056480188544897
:1056D0000078FDF7D7FD10BD2DE9F0412DED108BC1
:1056E000B0EE409AF0EE609A07460C461546B0EED2
:1056F00041FAF0EE61FA00BF00BF4C4903C904F063
:10570000D3FA00EE100A30EE690A10EE106A304645
:1057100004F0AAFB464A03C24548D0E900204FF4F2
:105720007A73D21A70F1000008DAF5EEC09AF1EE41
:1057300010FA03DD9FED3F0AF0EE409A3E48D0E9B3
:1057400000103E4B0CCB8A1858414FF4FA73D21A12
:1057500070F100000ADA3848D0E900200023D21A9C
:10576000984103DA9FED330AB0EE409A324840F692
:10577000D272D0E900310020D31A60EB01002F492A
:10578000D1E900219A1A60EB01004FF4FA73D21AA2
:1057900070F1000008DAB5EEC09AF1EE10FA03DD00
:1057A0009FED240AB0EE409A234903C904F07CFA25
:1057B00000EE100A30EE090A10EE106A304604F0CE
:1057C00045FA41EC1B0B1A4903C903F0BBFE41EC3F
:1057D0001C0BB0EE4B1AF0EE6B1AB0EE4C0AF0EE6A
:1057E0006C0AFFF7F9F8B0EE40AA29E0F0040020B7
:1057F0004804002040420F004408002040040020DC
:10580000256420202564200D0A0000006804002083
:10581000B00200207004002008030020A401002032
:105820005400002056000020580000209001002065
:105830009801002000000000E8010020C8010020BD
:10584000F0EE60AA51EC1A0B04F0ACFAFE4A03C267
:10585000FE4903C904F028FA00EE100A30EE490AA6
:1058600010EE106A304604F0F1F941EC1D0BB0EE79
:105870004D0AF0EE6D0A03F06BFAB0EE40BAF0EEAE
:1058800060BAF34903C903F05DFE41EC1C0BB0EEB6
:105890004B1AF0EE6B1AB0EE4C0AF0EE6C0AFFF702
:1058A0009BF8B0EE40AAF0EE60AA51EC1A0B04F09F
:1058B00079FAE84A03C2E448D0E900100A1B60EB19
:1058C000E471104604F0F0F9E3490860E148D0E9DA
:1058D0000060721B60EBE571104604F0E5F9DF49EA
:1058E0000860DD4890ED000AD0ED010A30EE608AD4
:1058F000084690ED000AD0ED010A70EE608A18EEBD
:10590000900A04F0A3F941EC1C0BB0EE4C0AF0EE47
:105910006C0A03F01DFAB0EE40AAF0EE60AA18EE91
:10592000100A04F093F941EC1C0BB0EE4C0AF0EEB7
:105930006C0A03F00DFAB0EE40BAF0EE60BA53EC28
:105940001A2B51EC1B0B03F089FF39D218EE100A09
:1059500004F07CF941EC1E0BB0EE4E0AF0EE6E0A3C
:1059600003F0F6F9B0EE40CAF0EE60CA18EE900A05
:1059700004F06CF941EC1E0BB0EE4E0AF0EE6E0A2C
:1059800003F0E6F9B0EE40DAF0EE60DA53EC1C2BEF
:1059900051EC1D0B03F0FCFB41EC1B0B9FEDB00B1E
:1059A00053EC102B03F05CFE41EC1A0B03F00AFBE6
:1059B000AA4988639FEDAC0AA74880ED0E0A5FE014
:1059C00018EE900A04F042F941EC1C0BB0EE4C0AC0
:1059D000F0EE6C0A03F0BCF9B0EE40AAF0EE60AA5B
:1059E00018EE100A04F032F941EC1C0BB0EE4C0A30
:1059F000F0EE6C0A03F0ACF9B0EE40BAF0EE60BA2B
:105A000053EC1A2B51EC1B0B03F0EEFD38D218EEC1
:105A1000900A04F01BF941EC1D0BB0EE4D0AF0EEBC
:105A20006D0A03F095F9B0EE40BAF0EE60BA18EEE8
:105A3000100A04F00BF941EC1D0BB0EE4D0AF0EE2C
:105A40006D0A03F085F9B0EE40CAF0EE60CA53EC7F
:105A50001B2B51EC1C0B03F09BFB41EC1A0B9FED35
:105A6000800B53EC102B03F0FBFD41EC1E0B03F0FD
:105A7000A9FA794988639FED7C0A784880ED0E0A7F
:105A8000BDEC108BBDE8F0812DE9F0412DED0A8BC6
:105A9000B0EE408AF0EE608A05460E461746B0EE3C
:105AA00041CAF0EE61CA6848D0E900106F4AC2E905
:105AB0000010684903C96E4A03C26548D0E9001066
:105AC0004FF47A72891A70F1000008DAF5EEC08A94
:105AD000F1EE10FA03DD1FEDA90AF0EE408A6548E9
