:020000040800F2
:10000000700E0020850D0008150300081703000876
:100010001B0300081F030008230300080000000062
:10002000000000000000000000000000270300089E
:1000300029030008000000002B0300082D0300081E
:100040009F0D00089F0D00089F0D00089F0D0008E0
:100050009F0D00089F0D00089F0D00089F0D0008D0
:100060009F0D00089F0D00089F0D00089F0D0008C0
:100070009F0D00089F0D00089F0D00089F0D0008B0
:100080009F0D00089F0D00089F0D00089F0D0008A0
:100090009F0D00089F0D00089F0D00089F0D000890
:1000A0009F0D0008A16700089F0D0008CD6700089C
:1000B0009F0D0008693800089F0D00089F0D00087B
:1000C0009F0D00089F0D00089F0D00089F0D000860
:1000D0009F0D00088D3C000839310008D140000810
:1000E000ED4300089F0D00089F0D0008833B0008AA
:1000F000FD330008D13300089F0D00089F0D000854
:100100009F0D00089F0D00089F0D00089F0D00081F
:10011000934200089F0D00089F0D00089F0D0008E6
:100120009F0D00089F0D00089F0D00089F0D0008FF
:100130009F0D00089F0D00089F0D00089F0D0008EF
:100140009F0D00089F0D00089F0D00089F0D0008DF
:100150009F0D00089F0D00089F0D00089F0D0008CF
:100160009F0D00089F0D00089F0D00089F0D0008BF
:100170009F0D00089F0D00089F0D00089F0D0008AF
:100180009F0D00089F0D000800F002F800F069F8CC
:100190000AA090E8000C82448344AAF10107DA45E2
:1001A00001D100F05EF8AFF2090EBAE80F0013F0CB
:1001B000010F18BFFB1A43F00103184728910000F4
:1001C000489100000A444FF0000C10F8013B13F076
:1001D000070408BF10F8014B1D1108BF10F8015BA0
:1001E000641E05D010F8016B641E01F8016BF9D193
:1001F00013F0080F1EBF10F8014BAD1C0C1B09D1EA
:100200006D1E58BF01F801CBFAD505E014F8016B5B
:1002100001F8016B6D1EF9D59142D6D370470000ED
:100220000023002400250026103A28BF78C1FBD8FF
:10023000520728BF30C148BF0B607047662908F0DD
:10024000DA86002070471FB508F0CBFE07F05EF895
:1002500004000020002108F07BF8E0601FBD10B50D
:1002600010BD07F06FF91146FFF7EDFF00F008F839
:1002700007F08DF903B4FFF7F2FF03BC03F0ACFC09
:1002800002F0AAFD3DE0642000F05CFD012242F294
:100290001B01104602F0BFFF01201A4908806420AC
:1002A00000F050FD012242F22501104602F0B3FF9A
:1002B000032014490880642000F044FD012242F22A
:1002C0001B01022002F0A7FF02200E4908806420D3
:1002D00000F038FD012242F22501022002F09BFFCE
:1002E000042008490880642000F02CFD06480078AE
:1002F000012806D10548B0F928100548007806F015
:1003000003FBC0E70C0000202701002000070020AD
:1003100000000020704700BFFEE700BFFEE700BFFF
:10032000FEE700BFFEE77047704770477047000068
:100330000CB50020019000907648006840F48030B1
:100340007449086000BF7348006800F400300090F2
:100350000198401C0190009818B90198B0F5A04F81
:10036000F1D16C48006800F4003010B10120009019
:1003700001E0002000900098012846D165484030F7
:10038000006840F08050634940310860624800686E
:1003900040F44040604908605E48083000685D49AC
:1003A000083108600846006840F4004008600846CC
:1003B000006840F4A05008605848091F0860081FF2
:1003C000006840F08070091F086000BF5148006855
:1003D00000F000700028F9D040F205705049086024
:1003E0004C480830006820F003004A490831086092
:1003F0000846006840F00200086000BF4548083029
:10040000006800F00C000828F8D10CBD10B5454874
:10041000006840F47000434908603E48006840F0BE
:1004200001003C49086000203A4908310860394819
:1004300000683D490840374908603C48091D08608C
:10044000081F006820F48020091F0860002031493F
:100450000C310860FFF76CFF4FF0006031498039C4
:10046000086010BD70B50020002202230024022184
:10047000284D08352D6805F00C0020B1042806D061
:10048000082834D107E02A4D2A4E356033E02A4D42
:10049000284E35602FE01F4D2D1D2D68C5F380546B
:1004A0001C4D2D1D2D6805F03F0154B1224DB5FBAB
:1004B000F1F5184E361D3668C6F3881605FB06F2B0
:1004C00009E01B4DB5FBF1F5124E361D3668C6F33B
:1004D000881605FB06F20F4D2D1D2D68C5F301454D
:1004E0006D1C6B00B2FBF3F5124E356003E0104D4E
:1004F000104E356000BF00BF064D08352D68C5F3AE
:1005000003150E4E705D0B4D2D68C540094E3560CC
:1005100070BD0000003802400070004008544007E1
:10052000003C024088ED00E0FFFFF6FE10300024A2
:100530000024F4001000002000127A0014000020B3
:100540001CB50121112000F0D1FF60200090002097
:100550008DF8040003208DF8050001208DF80700B8
:1005600069461D4800F024FD1CBD10B5044614B1B9
:1005700001201A49087019480078E8B1202116486E
:1005800000F078FD20B14021134800F073FD98B9C8
:100590000A2000F0D7FB00201049087020210E48E7
:1005A00000F068FD08B9012010BD40210A4800F0A4
:1005B00061FD78B90220F7E72021074800F05AFDD5
:1005C000012807D14021044800F054FD012801D141
:1005D000024908700020E7E70010024024000020D4
:1005E0001CB50121042000F081FF0F2000900120A4
:1005F0008DF8040000208DF8060003208DF805001A
:1006000001208DF807006946FB4800F0D1FC01216C
:10061000F94800F049FD0221F74800F045FD0421AA
:10062000F54800F041FD0821F34800F03DFD1CBDF8
:100630001CB50121042000F059FF7020009001201A
:100640008DF8040000208DF8060003208DF80500C9
:1006500001208DF807006946E74800F0A9FC102149
:10066000E54800F023FD2021E34800F01FFD402174
:10067000E14800F01BFD1CBD1CB50121022000F06B
:1006800035FF4FF48050009001208DF804008DF864
:10069000060003208DF8050001208DF8070069464B
:1006A000D64800F085FC1CBD0120D549086000BF7C
:1006B00000BF00BF00BF00BF00BF00BF00BF00BF42
:1006C00000BF00BF00BF00BF00BF00BF00BF00BF32
:1006D00000BF00BF00BF00BF00BF00BF00BF00BF22
:1006E00000BF00BF00BF00BF00BF00BF00BF00BF12
:1006F00000BF00BF00BF00BF00BF00BF00BF00BF02
:1007000000BF00BF00BF00BF00BF00BF00BF00BFF1
:1007100000BF00BF00BF00BF00BF00BF00BF00BFE1
:1007200000BF00BF00BF0020B649C1F8B00200BF43
:1007300000BF00BF00BF00BF00BF00BF00BF00BFC1
:1007400000BF00BF00BF00BF00BF00BF00BF00BFB1
:1007500000BF00BF00BF00BF00BF00BF00BF00BFA1
:1007600000BF00BF00BF00BF00BF00BF00BF00BF91
:1007700000BF00BF00BF00BF00BF00BF00BF00BF81
:1007800000BF00BF00BF00BF00BF00BF00BF00BF71
:1007900000BF00BF00BF00BF00BF00BF00BF00BF61
:1007A00000BF00BF00BF00BF00BF00BF00BF00BF51
:1007B00000BF00BF00BF00BF00BF00BF00BF00BF41
:1007C00000BF00BF00BF00BF00BF00BF00BF00BF31
:1007D00000BF00BF00BF00BF00BF00BF00BF00BF21
:1007E00000BF00BF00BF00BF00BF00BF00BF00BF11
:1007F00000BF00BF00BF00BF00BF00BF00BF00BF01
:1008000000BF00BF00BF00BF00BF00BF00BF00BFF0
:1008100000BF00BF00BF00BF00BF00BF00BF00BFE0
:1008200000BF00BF00BF00BF7047012074490860CF
:1008300000BF00BF00BF00BF00BF00BF00BF00BFC0
:1008400000BF00BF00BF00BF00BF00BF00BF00BFB0
:1008500000BF00BF00BF00BF00BF00BF00BF00BFA0
:1008600000BF00BF00BF00BF00BF00BF00BF00BF90
:1008700000BF00BF00BF00BF00BF00BF00BF00BF80
:1008800000BF00BF00BF00BF00BF00BF00BF00BF70
:1008900000BF00BF00BF00BF00BF00BF00BF00BF60
:1008A00000BF00BF00BF00BF00BF00BF00BF00BF50
:1008B00000BF00BF00BF00BF00BF00BF00BF00BF40
:1008C00000BF00BF00BF00BF00BF00BF00BF00BF30
:1008D00000BF00BF00BF00BF00BF00BF00BF00BF20
:1008E00000BF00BF00BF00BF00BF00BF00BF00BF10
:1008F00000BF00BF00BF00BF00BF00BF00BF00BF00
:1009000000BF00BF00BF00BF00BF00BF00BF00BFEF
:1009100000BF00BF00BF00BF00BF00BF00BF00BFDF
:1009200000BF00BF00BF00BF00BF00BF00BF00206E
:100930003449C1F8B00200BF00BF00BF00BF00BF14
:1009400000BF00BF00BF00BF00BF00BF00BF00BFAF
:1009500000BF00BF00BF00BF00BF00BF00BF00BF9F
:1009600000BF00BF00BF00BF00BF00BF00BF00BF8F
:1009700000BF00BF00BF00BF00BF00BF00BF00BF7F
:1009800000BF00BF00BF00BF00BF00BF00BF00BF6F
:1009900000BF00BF00BF00BF00BF00BF00BF00BF5F
:1009A00000BF00BF00BF00BF00BF00BF704700B561
:1009B000024600230CE002F40000B0F5000F02D163
:1009C000FFF733FF01E0FFF76FFE5200581CC3B280
:1009D000182BF0DB00BD70B506460D46002404E080
:1009E0003046FFF7E4FF601CC4B20B2CF8DB002498
:1009F000054806600FE000000008024000040240C5
:100A0000B082404200804042280000202846FFF784
:100A1000CEFF601CC4B20A2CF8DB002491480560AC
:100A200070BD2DE9F04180460D4616461F46002454
:100A30004046FFF7BCFF04E04046FFF7B8FF601CEC
:100A4000C4B2052CF8DB002404E02846FFF7AFFF12
:100A5000601CC4B2052CF8DB002404E03046FFF72C
:100A6000A6FF601CC4B2052CF8DB002404E0384665
:100A7000FFF79DFF601CC4B2052CF8DBBDE8F081D8
:100A800010B5034600201C0444EA022444EA010095
:100A900010BD70B52DED088BB0EE408AB0EE60BA97
:100AA000F0EE418AF0EE61BA6FF07F44254618EE11
:100AB000100A08F025FA41EC1A0BB0EE4A0AF0EEE3
:100AC0006A0A07F02DFBB0EE409AF0EE609A51EC06
:100AD000190B07F05FFC08EE100A18EE900A08F0F8
:100AE0000FFA41EC1A0BB0EE4A0AF0EE6A0A07F070
:100AF00017FBB0EE409AF0EE609A51EC190B07F03C
:100B000049FC08EE900AB5EEC08AF1EE10FA08DB57
:100B1000B1EE040AB4EEC08AF1EE10FA01D2524CE2
:100B200031E0B1EE040AB4EEC08AF1EE10FA08DB4F
:100B3000B2EE040AB4EEC08AF1EE10FA01D24B4CC8
:100B400021E0B2EE040AB4EEC08AF1EE10FA08DB3E
:100B5000B2EE0E0AB4EEC08AF1EE10FA01D2444CA5
:100B600011E0B3EE000AB4EEC08AF1EE10FA08DB31
:100B7000B3EE040AB4EEC08AF1EE10FA01D23D4C95
:100B800001E04FF47F04F5EEC08AF1EE10FA08DBC5
:100B9000B1EE040AF4EEC08AF1EE10FA01D2324D41
:100BA00031E0B1EE040AF4EEC08AF1EE10FA08DB8F
:100BB000B2EE040AF4EEC08AF1EE10FA01D22B4D27
:100BC00021E0B2EE040AF4EEC08AF1EE10FA08DB7E
:100BD000B2EE0E0AF4EEC08AF1EE10FA01D2244D04
:100BE00011E0B3EE000AF4EEC08AF1EE10FA08DB71
:100BF000B3EE040AF4EEC08AF1EE10FA01D21D4DF4
:100C000001E04FF47F052B462A4621462046FFF798
:100C100008FF002018490860BDEC088B70BD10B5B6
:100C20002DED048BB0EE408AF0EE608AB0EE419A72
:100C300038EEC80AC9EE000AF0EE609A00249FED73
:100C40000F0A29EE800ABDEEC00A10EE104AFF22FC
:100C50000021204604F06BFE04462046BDEC048BC8
:100C600010BD00002C000020C8C8FF009696FF00B1
:100C70006464FF003232FF00B082404200007F43D4
:100C800010B504466FF0040000F0EEF8E11704EB35
:100C90005171C1F3C701394A11701046007800EB59
:100CA0004001C1EBC0104FF6FF7101EAC0003449AA
:100CB000088010BD0146314A12784A434FF0E023C4
:100CC0005A6100229A611A46126942F001021A61C1
:100CD00000BF4FF0E022106900F001021AB100F4E9
:100CE0008032002AF5D04FF0E022126922F0010292
:100CF0004FF0E0231A6100229A6170470146204AB2
:100D000012884A434FF0E0235A6100229A611A4642
:100D1000126942F001021A6100BF4FF0E02210692F
:100D200000F001021AB100F48032002AF5D04FF031
:100D3000E022126922F001024FF0E0231A61002242
:100D40009A61704770B504464FF4077094FBF0F059
:100D5000C6B24FF4077094FBF0F100FB114085B26E
:100D600005E04FF40770FFF7C9FF701EC6B2002EF2
:100D7000F7D115B12846FFF7C1FF70BD3000002044
:100D8000320000200948804709480047FEE7FEE797
:100D9000FEE7FEE7FEE7FEE7FEE7FEE7FEE7FEE72B
:100DA00004480549054A064B704700000D04000839
:100DB0008901000870080020700E0020700A0020D1
:100DC000700A002032490143324A1160704770B501
:100DD000002100230F22C4781CB32E4C246804F495
:100DE000E064C4F5E064C4F30721C1F10404E3B294
:100DF0000A4144789C40E1B28478144021430C07B6
:100E0000210E254C05786155047804F01F05012456
:100E1000AC4005786D11AD0005F1E025C5F8004145
:100E200009E0047804F01F050124AC401B4D06784E
:100E3000761145F8264070BD194A0A400243154B09
:100E40001B1F1A60704739B1124A121D1268024303
:100E5000104B1B1D1A6006E00E4A121D12688243D9
:100E60000C4B1B1D1A607047042808D14FF0E0217D
:100E7000096941F004014FF0E022116107E04FF0F1
:100E8000E021096921F004014FF0E022116170476F
:100E90000000FA050CED00E000E400E080E100E075
:100EA00080FFFF1F10B504469848844208D10121F5
:100EB000084600F086FB0021012000F082FB76E06E
:100EC0009348844208D10121022000F07AFB0021DE
:100ED000022000F076FB6AE08E48844208D10121AE
:100EE000042000F06EFB0021042000F06AFB5EE0AD
:100EF0008948844208D10121082000F062FB0021CA
:100F0000082000F05EFB52E08448844208D10121B1
:100F1000102000F056FB0021102000F052FB46E0AC
:100F20007F48844208D10121202000F04AFB0021A3
:100F3000202000F046FB3AE07A48844208D10121A3
:100F4000402000F03EFB0021402000F03AFB2EE064
:100F50007548844208D10121802000F032FB002135
:100F6000802000F02EFB22E07048844208D101214D
:100F7000801500F026FB0021A01500F022FB16E0F2
:100F80006B48844208D10121401500F01AFB002172
:100F9000601500F016FB0AE06648844207D1012183
:100FA000001500F00EFB0021201500F00AFB10BD1B
:100FB000F0B50A4600210023002400BF3DE00125D2
:100FC00005FA01F3156805EA03049C4234D105686B
:100FD0004F000326BE40B543056015794E00B5406D
:100FE0000668354305601579012D02D01579022D6B
:100FF00016D185684F000326BE40B54385605579FC
:101000004E00B540866835438560456801268E40B0
:10101000B5434560456896798E40B6B23543456024
:10102000C5684F000326BE40B543C560D5794E0064
:10103000B540C6683543C560491C1029BFD3F0BD13
:101040004FF6FF7101600021017141718171C17121
:10105000704708B54FF480320092009A0A4300921C
:10106000009AC261C161009AC261C2690092C269FC
:10107000009208BD0246002013690B400BB101200D
:1010800000E0002070470146086980B270470246C0
:10109000002053690B400BB1012000E00020704795
:1010A0000146486980B270470183704741837047A9
:1010B0000AB1018300E04183704741617047426992
:1010C0004A4042617047F0B5002300244D07ED0E01
:1010D00002FA05F3CE1000F1200555F826504E0710
:1010E000F70E0F26BE40B543CF1000F1200646F89C
:1010F0002750CE1000F1200555F8265045EA03048C
:10110000CE1000F1200545F82640F0BD0000024059
:101110000004024000080240000C0240001002409F
:101120000014024000180240001C0240002002404F
:101130000024024000280240F948006840F0010005
:10114000F74908600020F64908310860F448006853
:10115000F4490840F2490860F348091D0860F34863
:10116000EF4984310860F0481038091D0860EC48E8
:10117000006820F48020EA4908600020E8490C312A
:101180000860E7498C31086070470021E44A921CEE
:10119000117011460870704710B5014600220023F7
:1011A00000204A11012A02D1DD4C236808E0022AFE
:1011B00003D1DB4C7034236802E0D94C74342368CB
:1011C00001F01F02012494401C400CB1012000E0FA
:1011D000002010BD38B5002000900024002500BF7D
:1011E0003120FFF7D9FF05460098401C0090009879
:1011F000B0F5A04F01D0002DF2D03120FFF7CCFF89
:1012000008B1012400E00024204638BD014600203A
:10121000C34A106820F0F80040EAC100106070472F
:10122000C349086070470021BD4A703211701170C7
:10123000012802D004280AD104E00121B84A703202
:10124000117005E00521B64A7032117000E000BF50
:1012500000BF7047B7490860704770B5049C41EA09
:1012600082150126C6EB530645EA0645054345EAC5
:101270000465AB4E361D356070BDAD4908667047DC
:10128000820142EA0172A64B84331A607047A84972
:101290008866704710B5830143EA016343EA02732D
:1012A0009F4C8834236010BDA14908677047A0494E
:1012B000C864704702460020994B0833186820F034
:1012C000EC6042EA01031843954B083318607047FD
:1012D00002460020924B0833186820F0784042EA1A
:1012E000010318438E4B08331860704701460020F5
:1012F0008B4A0832106820F00300084310607047E2
:1013000087480830006800F00C0070470146002054
:10131000834A0832106820F0F000084310607047DC
:10132000014600207E4A0832106820F4E05008434D
:101330001060704701460020794A0832106820F496
:10134000604040EAC10010607047F0B50021002203
:101350000024022500260223714F08373F6807F05A
:101360000C0121B1042905D0082937D105E0724FBD
:10137000076036E0714F076033E0694F3F1D3F68FB
:10138000C7F38056664F3F1D3F6807F03F036EB1BD
:101390006A4FB7FBF3F7DFF888C10CF1040CDCF8F7
:1013A00000C0CCF3881C07FB0CF40CE0624FB7FBC9
:1013B000F3F7DFF86CC10CF1040CDCF800C0CCF3DF
:1013C000881C07FB0CF4564F3F1D3F68C7F30147CD
:1013D0007F1C7D00B4FBF5F7076002E0564F076005
:1013E00000BF00BF4E4F08373F6807F0F001090902
:1013F000534F7A5C0768D7404760494F08373F68CA
:1014000007F4E051890A4E4F7A5C4768D7408760FD
:10141000434F08373F6807F46041490B484F7A5CF7
:101420004768D740C760F0BD002100F44072B2F5B4
:10143000407F0AD13A4A0832116821F4F811414A32
:1014400002401143364A08321160354A7032126840
:10145000C0F30B031A43324B70331A60704735499F
:10146000443908607047334940390860704736494D
:101470000860704701460020294A8C32106820F02D
:101480001F004A1E1043264A8C32106070470146E6
:101490000020234A8C32106820F4F8504A1E40EA9B
:1014A00002201F4A8C3210607047014600201C4AFF
:1014B0008C32106820F440100843106070470146D9
:1014C0000020174A8C32106820F440000843106056
:1014D000704701460020124A8C32106820F44030D8
:1014E00008431060704719490860704739B10C4AC9
:1014F0003032126802430A4B30331A6006E0084A61
:10150000303212688243064B30331A607047F9B1AB
:10151000034A343212680243014B34331A601CE030
:1015200000380240FFFFF6EA1030002400300020AF
:1015300000004742800E47420024F40000127A0067
:1015400034000020FFFCFF0F5C014742E0114742DE
:101550008F4A126882438E4B1A60704739B18C4AA9
:10156000121D126802438A4B1B1D1A6006E0884A4E
:10157000121D12688243864B1B1D1A60704739B1D9
:10158000834A0C3212680243814B0C331A6006E026
:101590007F4A0C32126882437D4B0C331A607047CD
:1015A00039B17B4A103212680243794B10331A600A
:1015B00006E0774A103212688243754B10331A6086
:1015C000704739B1724A243A12680243704B243B87
:1015D0001A6006E06E4A243A126882436C4B243B40
:1015E0001A60704739B16A4A203A12680243684B60
:1015F000203B1A6006E0664A203A12688243644B38
:10160000203B1A60704739B1614A1C3A12680243A4
:101610005F4B1C3B1A6006E05D4A1C3A126882432D
:101620005B4B1C3B1A60704739B1594A143A126837
:101630000243574B143B1A6006E0554A143A1268AD
:101640008243534B143B1A60704739B1504A103AE9
:10165000126802434E4B103B1A6006E04C4A103AA7
:10166000126882434A4B103B1A60704739B1484AAE
:101670001C3212680243464B1C331A6006E0444A8F
:101680001C3212688243424B1C331A60704739B1D6
:101690003F4A2032126802433D4B20331A6006E075
:1016A0003B4A203212688243394B20331A6070471C
:1016B00039B1374A243212680243354B24331A6059
:1016C00006E0334A243212688243314B24331A60D5
:1016D000704739B12E4A2C32126802432C4B2C33FE
:1016E0001A6006E02A4A2C3212688243284B2C33B7
:1016F0001A60704739B1264A303212680243244BCF
:1017000030331A6006E0224A303212688243204B9E
:1017100030331A607047012808D11D493C310968EF
:1017200041F008011A4A3C32116007E018493C3187
:10173000096821F00801164A3C321160704739B13E
:10174000134A273A12780243114B273B1A7006E0DE
:101750000F4A273A127882430D4B273B1A70704785
:101760000B484030006840F0807009494031086003
:10177000704701460020064A283A12680A400AB11A
:10178000012000E0002070470149263908707047A9
:101790003438024010B501218803FFF756FF0021BD
:1017A0004FF48040FFF751FF10BD1C49086070479F
:1017B0001B490862704730B500228B071C0F0F23AE
:1017C00003FA04F2154B08338C1053F8243093437A
:1017D000124C08348D1044F8253023468C1053F8F1
:1017E00024308C07240F00FA04F423430B4C0834F4
:1017F0008D1044F8253030BD0949DC310860704750
:10180000084908607047002004492031096801F444
:10181000807109B1012000E00020704700380140CC
:10182000000027420004274210B50446FA488442CB
:1018300008D101211020FFF708FF00211020FFF739
:1018400004FF57E0F548844209D101214804FFF71D
:10185000EBFE00214FF40030FFF7E6FE4AE0F048CF
:10186000844209D101218804FFF7DEFE00214FF4F4
:101870008020FFF7D9FE3DE0EA48844209D10121EA
:10188000C804FFF7D1FE00214FF40020FFF7CCFE83
:1018900030E0E548844209D101210805FFF7C4FE84
:1018A00000214FF48010FFF7BFFE23E0DF488442A1
:1018B00008D101212020FFF7C8FE00212020FFF7DA
:1018C000C4FE17E0DA48844209D101218807FFF7F6
:1018D000ABFE00214FF08040FFF7A6FE0AE0D5489E
:1018E000844207D101214005FFF79EFE00216005DB
:1018F000FFF79AFE10BD2DE9FF4705460E4600246E
:10190000A14600BFA046B08900B100BF2C8A24F4D4
:101910004054F08804432C82AC8941F20C6084432B
:10192000B08831890843718908430443AC81AC8A8B
:1019300024F44074B0890443AC826846FFF705FD87
:10194000B548854202D0B948854202D1DDF80C90F5
:1019500001E0DDF80890A88900F4004040B109EBEF
:10196000C90000EB091031684900B0FBF1F707E04E
:1019700009EBC90000EB091031688900B0FBF1F7F1
:101980006420B7FBF0F004012009642101FB10780A
:10199000A88900F4004040B1322000EBC800B0FB41
:1019A000F1F000F00700044308E0322000EB0810DB
:1019B0006421B0FBF1F000F00F0004432C81BDE87E
:1019C000FF874FF41651016000218180C1800181A1
:1019D0000C21418100218181704710B50246002011
:1019E000108A20F470600B884C8823438C88234332
:1019F000CC8823431843108210BD00210180418010
:101A00008180C180704721B1828942F40052828175
:101A100004E082894DF6FF731A4082817047028B81
:101A200002F47F420283028B0A430283704721B192
:101A3000828942F40042828103E08289C2F30E026D
:101A40008281704721B1828A42F40062828204E07E
:101A5000828A4FF2FF731A4082827047C1F30802F4
:101A60008280704701468888C0F308007047028A68
:101A70004FF6F0731A400282028A0A4302827047CC
:101A800021B1828942F00202828104E082894FF60C
:101A9000FD731A408281704782894FF2FF731A40AA
:101AA000828182890A4382817047028A4FF6DF73FE
:101AB0001A400282028A0A430282704721B1028AD6
:101AC00042F48042028204E0028A4BF6FF731A401D
:101AD00002827047818941F001018181704721B103
:101AE000828A42F00802828204E0828A4FF6F7730B
:101AF0001A4082827047028BD2B20283028B42EA82
:101B000001220283704721B1828A42F02002828240
:101B100004E0828A4FF6DF731A408282704721B157
:101B2000828A42F01002828204E0828A4FF6EF73CA
:101B30001A4082827047828A4FF6FB731A40828273
:101B4000828A0A438282704721B1828A42F002026D
:101B5000828204E0828A4FF6FD731A4082827047C7
:101B60001AB1838A0B43838202E0838A8B43838288
:101B70007047F0B50346002400260025002040F6FB
:101B80006A17B94200D100BF1846C1F3421401F0F0
:101B90001F06012707FA06F5012C01D10C3004E0DD
:101BA000022C01D1103000E014301AB107682F4325
:101BB000076002E00768AF430760F0BD02460020FF
:101BC000B1F5007F00D100BF13880B400BB101209D
:101BD00000E00020704701F40072B2F5007F00D1F0
:101BE00000BFCA430280704770B50246002400233C
:101BF0000025002040F66A16B14200D100BFC1F3B3
:101C0000421501F01F03012606FA03F3012D13D13B
:101C10009689334017E00000001001400044004066
:101C200000480040004C00400050004000140140BB
:101C300000780040007C0040022D02D1168A33401B
:101C400001E0968A33400C12012606FA04F4168845
:101C5000344013B10CB1012000E0002070BD10B57C
:101C60000022002340F66A14A14200D100BF0A12EC
:101C700001249440A3B2DC43048010BD10B5044697
:101C8000FE48844208D101210846FFF7DEFC00210E
:101C90000120FFF7DAFC9DE0B4F1804F08D101216B
:101CA0000846FFF7C1FC00210120FFF7BDFC91E0D1
:101CB000F348844208D101210220FFF7B5FC00213E
:101CC0000220FFF7B1FC85E0EE48844208D10121F3
:101CD0000420FFF7A9FC00210420FFF7A5FC79E010
:101CE000E948844208D101210820FFF79DFC00212A
:101CF0000820FFF799FC6DE0E448844208D10121F7
:101D00001020FFF791FC00211020FFF78DFC61E00F
:101D1000DF48844208D101212020FFF785FC002103
:101D20002020FFF781FC55E0DA48844208D10121E8
:101D30000220FFF78AFC00210220FFF786FC49E021
:101D4000D548844209D101210804FFF77EFC002117
:101D50004FF48030FFF779FC3CE0D048844209D151
:101D600001214804FFF771FC00214FF40030FFF718
:101D70006CFC2FE0CA48844209D101218804FFF796
:101D800064FC00214FF48020FFF75FFC22E0C5488F
:101D9000844208D101214020FFF746FC0021402069
:101DA000FFF742FC16E0C048844208D101218020A0
:101DB000FFF73AFC00218020FFF736FC0AE0BB4821
:101DC000844207D101218015FFF72EFC0021A015C8
:101DD000FFF72AFC10BD00220288A84B98420ED0C3
:101DE000AC4B98420BD0B0F1804F08D0A44B984236
:101DF00005D0A44B984202D0A34B984204D14FF691
:101E00008F731A404B881A43A04B984207D0A04BBF
:101E1000984204D04FF6FF431A400B891A430280C0
:101E20004B68C3620B880385944B984202D0994B50
:101E3000984201D18B7A03860123838270474FF049
:101E4000FF31416000210180018141808172704732
:101E50000185828270470A46002101884FF68F7300
:101E6000194011430180704741627047C162704759
:101E70000146486A70470146088D704721B10288C3
:101E800042F00202028004E002884FF6FD731A401D
:101E90000280704721B1028842F00402028004E00F
:101EA00002884FF6FB731A400280704721B1028806
:101EB00042F08002028004E002884FF67F731A40ED
:101EC0000280704702884FF6F7731A40028002883A
:101ED0000A430280704702884FF6FF431A4002808F
:101EE00002880A430280704721B1028842F0010251
:101EF000028004E002884FF6FE731A4002807047A9
:101F000070B5002400220023058C4FF6FE76354084
:101F10000584028C8388048B4FF68F752C40B51E88
:101F20002C400D882C43751E2A408D892A434D88EC
:101F30002A43524DA84202D0564DA84213D14FF623
:101F4000F7752A40CD892A434FF6FB752A408D88C4
:101F50002A434FF6FF652B404FF6FF552B400D8A65
:101F60002B434D8A2B43838004838D684563028411
:101F700070BD70B5002400220023058C4FF6EF766B
:101F800035400584028C8388048B48F6FF752C400D
:101F90004FF6FF452C400D884FF6FF7606EA0525E3
:101FA0002C434FF6DF752A408D8906EA05152A4332
:101FB0004D8806EA05152A43304DA84202D0354D1A
:101FC000A8421DD14FF67F752A40CD894FF6FF7686
:101FD00006EA05152A434FF6BF752A408D8806EAA2
:101FE00005152A434FF6FF352B404FF2FF752B4066
:101FF0000D8A06EA85052B434D8A06EA85052B43A3
:10200000838004838D688563028470BD70B500246D
:1020100000220023058C4FF6FF6635400584028CB4
:102020008388848B4FF68F752C404FF6FC752C40BF
:102030000D882C434FF6FF552A408D894FF6FF76C9
:1020400006EA05252A434D8806EA05252A430B4D55
:10205000A84202D00F4DA84238D14FF2FF752A4056
:10206000CD894FF6FF7606EA05252A434FF6FF3560
:102070002A408D8806EA05252A4319E00000014020
:102080000004004000080040000C00400010004028
:1020900000140040000401400040014000440140A1
:1020A0000048014000180040001C00400020004093
:1020B0004EF6FF752B404DF6FF752B400D8A06EA54
:1020C00005152B434D8A06EA05152B43838084832F
:1020D0008D68C563028470BD70B5002200230024A2
:1020E000058C4EF6FF7635400584038C8488828B00
:1020F00048F6FF752A404FF6FF452A400D884FF6F7
:10210000FF7606EA05252A434DF6FF752B408D899B
:1021100006EA05352B434D8806EA05352B43FE4D6F
:10212000A84202D0FD4DA84208D14BF6FF752C40C5
:102130000D8A4FF6FF7606EA85152C43848082834C
:102140008D680564038470BD002101804180818019
:1021500081608181C18101824182704770B50346EF
:10216000002000241846183001258D40ACB21D8C8B
:10217000A5431D8409B108290AD100EB6100056857
:102180004FF68F76354005600568154305600FE012
:102190000D1FC5F34E052844056848F6FF76354007
:1021A000056005684FF6FF7606EA022635430560AE
:1021B00070BD4163704781637047C16370470164BC
:1021C00070470A460021018B4FF68F731940114367
:1021D000018370470A460021018B48F6FF731940BE
:1021E0004FF6FF7303EA02231943018370470A463F
:1021F0000021818B4FF68F73194011438183704703
:102200000A460021818B48F6FF7319404FF6FF7391
:1022100003EA02231943818370470A460021018B98
:102220004FF6F77319401143018370470A460021A6
:10223000018B4FF2FF7319404FF6FF7303EA02233D
:102240001943018370470A460021818B4FF6F773CB
:1022500019401143818370470A460021818B4FF258
:10226000FF7319404FF6FF7303EA0223194381837A
:1022700070470A460021018B4FF6FB73194011434A
:10228000018370470A460021018B4FF6FF33194046
:102290004FF6FF7303EA02231943018370470A468E
:1022A0000021818B4FF6FB731940114381837047E6
:1022B0000A460021818B4FF6FF3319404FF6FF731A
:1022C00003EA02231943818370470A460021018BE8
:1022D0004FF67F7319401143018370470A4600216E
:1022E000018BC1F30E014FF6FF7303EA022319437A
:1022F000018370470A460021818B4FF67F73194096
:102300001143818370470A460021818BC1F30E017E
:102310004FF6FF7303EA02231943818370470A468D
:102320000021018C4FF6FD73194011430184704761
:102330000A460021018C4FF6F773194011430184BE
:1023400070470A460021018C4FF6DF7319404FF6A3
:10235000FF7303EA02131943018470470A46002100
:10236000018C4FF67F7319404FF6FF7303EA021397
:102370001943018470470A460021018C4FF6FF5330
:1023800019404FF6FF7303EA022319430184704793
:102390000A460021018C4FF2FF7319404FF6FF737C
:1023A00003EA02231943018470470A460021018C85
:1023B0004DF6FF7319404FF6FF7303EA02331943DA
:1023C0000184704730B5002301248C40A3B2048CF3
:1023D0009C430484048C02FA01F5ADB22C430484BE
:1023E00030BD30B5002304248C40A3B2048C9C4340
:1023F0000484048C02FA01F5ADB22C43048430BD90
:10240000828B4FF2FF331A408283828B4FF6FF7329
:1024100003EA01231A4382837047F0B50C46154640
:10242000002100220026078C4EF6FF7C07EA0C07ED
:102430000784818B028C4FF6FF7707EA043640F65B
:10244000FF4739404FF6FF7707EA052739434FF634
:10245000FF7707EA0337394345F6FF773A4046F4FA
:1024600080573A4381830284F0BD828B4FF6F37329
:102470001A408283828B0A4382837047F0B50C46F0
:102480001546002100220026078C4FF6FF6C07EA54
:102490000C070784818B028C4FF6FF7707EA04262E
:1024A0004FF60C7739404FF6FF7707EA03172F43B3
:1024B00039434FF2FF573A4046F480773A438183DD
:1024C0000284F0BD028B4FF2FF331A400283028B6D
:1024D0004FF6FF7303EA01231A4302837047F0B5F6
:1024E0000C461546002100220026078C4FF6EF7C93
:1024F00007EA0C070784018B028C4FF6FF7707EA87
:10250000041640F6FF4739404FF6FF7707EA0337D6
:1025100039434FF6FF7703E000000140000401401B
:1025200007EA052739434FF65F773A4046F0100730
:102530003A4301830284F0BD028B4FF6F3731A40D5
:102540000283028B0A4302837047F0B50C4615469E
:1025500000210022068C4FF6FE773E400684018B58
:10256000028C4FF60C7631407E1C06EA03162E4391
:1025700031434FF6F576324044F001063243018391
:102580000284F0BD70B505460C46208850B92389F9
:10259000A28861882846FFF7D8FFE1882846FFF720
:1025A000CBFF25E0208804280AD12389A2886188EE
:1025B0002846FFF794FFE1882846FFF783FF17E0DE
:1025C000208808280AD12389A28861882846FFF735
:1025D00055FFE1882846FFF748FF09E02389A288D4
:1025E00061882846FFF719FFE1882846FFF708FFB2
:1025F00070BD002101804180012181800021C180C6
:10260000018170472DE9F04105460C46002601275F
:10261000608808B9022600E00026A088012801D1C0
:10262000022700E001272088A0B92389A2886188B9
:102630002846FFF78AFFE1882846FFF77DFF2389B8
:102640003A4631462846FFF74AFFE1882846FFF719
:1026500039FF13E02389A28861882846FFF73FFFEE
:10266000E1882846FFF72EFF23893A46314628465F
:10267000FFF76BFFE1882846FFF75EFFBDE8F081BA
:102680000146486B70470146886B70470146C86B2E
:1026900070470146086C70470A884B881A438B883C
:1026A0001A43CB881A430B891A434B891A438B89E7
:1026B0001A43A0F8442070470021018041808180A6
:1026C000C180018141818181704731B1B0F84420DE
:1026D00042F40042A0F8442005E0B0F84420C2F3E0
:1026E0000E02A0F84420704721B1828842F0040213
:1026F000828004E082884FF6FB731A408280704724
:1027000021B1828842F00102828004E082884FF683
:10271000FE731A40828070471AB183890B4383810C
:1027200002E083898B438381704781827047024630
:102730000020138A0B400BB1012000E000207047FD
:10274000CA430282704730B50246002000230024AD
:10275000158A05EA0103958905EA010413B10CB154
:10276000012000E0002030BDCA430282704741EAE8
:102770000203A0F8483070471AB183890B43838164
:1027800002E083898B438381704721B1828842F0C4
:102790000802828004E082884FF6F7731A40828034
:1027A000704701894FF6F8721140018170470A465F
:1027B000002101894FF68F73194011430181704741
:1027C00030B504460D4629462046FFF7F0FF208924
:1027D00040F00700208130BD2DE9F04104460D4650
:1027E00016461F46602D06D13B4601223146204643
:1027F000FFF775FE05E03B46012231462046FFF714
:10280000A4FE29462046FFF7D2FF208940F00700AA
:102810002081BDE8F08130B50C4600210189C9B2A4
:102820004FF6FF7505EA032515432543294301812A
:1028300030BD2DE9F04105460E4617469846002466
:1028400043463A4631462846FFF7E5FF2C894FF6C6
:10285000F870044044F007044FF68F70044044F0D1
:1028600070042C81BDE8F081F0B504460D46164693
:102870001F463B46324629462046FFF7CCFF2089BB
:1028800040F480402081F0BD82884FF68F731A405B
:10289000828082880A438280704702894FF6F873EB
:1028A0001A40028102890A430281704702894FF669
:1028B0007F731A40028102890A4302817047F0B592
:1028C0000C4615461E460021002200230189028B7A
:1028D000038C4FF6F877394021434FF6FC473A40D6
:1028E00040F201173A434FF6DD773B404FF6FF7752
:1028F00007EA06172F433B43018102830384F0BD9F
:1029000021B1828842F08002828004E082884FF602
:102910007F731A4082807047A0F850107047000003
:10292000002041490860091D0860091D0860091D53
:1029300008603E483C4914310860704700213A491C
:102940008279002A3AD00A46126803689A430B46F5
:102950001A600A1D126803689A430B1D1A600279F7
:1029600011440A6803681A430A602F4A0832126841
:1029700003689A432C4B08331A601A1D12680368C7
:102980009A43294B0C331A604279102A0ED11A1F30
:10299000126803681A43244B08331A601A1D126820
:1029A00003681A43204B0C331A600DE01E4942792C
:1029B00011440A6803681A430A6005E00279114469
:1029C0000A6803689A430A60704700210160017138
:1029D0000C21417100218171704713491031096840
:1029E0000143114A103211607047014600200E4A1F
:1029F000143212680A400AB1012000E0002070473A
:102A0000094914310860704701460020064A143213
:102A100012680A400AB1012000E000207047024914
:102A20001431086070470000003C0140FFFF7F0048
:102A3000016821F0010101600021016041608160B5
:102A4000C160016121214161DB49884204D13D21FE
:102A5000D94A103A91608CE0D7491831884205D1A3
:102A60004FF47461D44A103A916082E0D249303117
:102A7000884205D14FF47411CF4A103A916078E042
:102A8000CD494831884205D14FF07461CA4A103AA5
:102A900091606EE0C8496031884204D1C749C64A96
:102AA000103AD16065E0C4497831884204D1C44904
:102AB000C14A103AD1605CE0BF499031884204D1EC
:102AC000C049BD4A103AD16053E0BB49A8318842A1
:102AD00005D14FF03D51B84A103AD16049E0BA49AA
:102AE000884204D13D21B84A083A116041E0B64914
:102AF0001831884205D14FF47461B34A083A116025
:102B000037E0B1493031884205D14FF47411AE4AF3
:102B1000083A11602DE0AC494831884205D14FF0A8
:102B20007461A94A083A116023E0A74960318842DC
:102B300004D1A249A44A121F11601AE0A2497831B7
:102B4000884204D19E49A04A121F116011E09E499B
:102B50009031884204D19B499B4A121F116008E0C2
:102B60009949A831884204D14FF03D51964A121F2D
:102B70001160704710B500220268944B1A40CC686F
:102B80000B6823434C6923438C692343CC6923435B
:102B90000C6A23434C6A23438C6A23434C6B2343C4
:102BA0008C6B23431A430260426922F00702D1E989
:102BB0000B3423431A4342610B6943604B688360C3
:102BC0008B68C36010BD0021016041608160C160FD
:102BD000016141618161C161016241628162C162E1
:102BE000016341638163704721B1026842F00102D1
:102BF000026003E0026822F001020260704721B126
:102C0000026842F40042026003E0026822F40042DB
:102C10000260704721B1026842F02002026003E0C6
:102C2000026822F02002026070474160704701464E
:102C3000486880B2704722B1036843F40023036000
:102C400003E0036823F4002303600161704721B1AE
:102C5000026842F48022026003E0026822F48022CB
:102C6000026070470AB1016100E0C160704701462F
:102C700000200A6802F400220AB1012000E00020CE
:102C80007047014600200A6802F001020AB10120E3
:102C900000E000207047014600204A6902F0380039
:102CA000704730B503460A4600200024464DAB422B
:102CB00002D24149103901E04349103902F0005570
:102CC0000DB14C6800E00C68414D2C4004EA02054F
:102CD0000DB1012000E0002030BD02463A4B9A427F
:102CE00002D23548103801E03748103801F000535F
:102CF0001BB1374B0B40C36002E0354B0B40836088
:102D0000704710B501F080034BB122B1436943F025
:102D10008003436103E0436923F08003436180291A
:102D20000BD02AB1036801F01E042343036004E0C2
:102D3000036801F01E04A343036010BD70B5024692
:102D4000002000240025204EB24202D21A4B103B34
:102D500001E01D4B103B1F4E0E4036B11E2606EA09
:102D6000D124166806EA040502E0566906F08005DB
:102D700001F000560EB15C6800E01C68144E34404F
:102D800004EA010616B10DB1012000E0002070BD7B
:102D900002460D4B9A4202D20748103801E00A4819
:102DA000103801F000531BB1094B0B40C36002E027
:102DB000074B0B4083607047106002403D000020CD
:102DC000400F002000003D20106402403F801CF0B6
:102DD0007D0F7D0F3C0F3C0F10B54FF4A060FDF749
:102DE000F1FFA820FDF74CFF03F0D7F8FDF7F8FB43
:102DF000FDF71EFCFDF7A4FBFDF73EFC0021084695
:102E0000FDF7E9FD4FF4E13000F0F3FE4FF4E1305F
:102E100001F0A5F94FF4E13000F086FF00F046F82C
:102E20006420FDF78FFF532144F61F6000F097FBED
:102E300003F01AFA532140F2E73000F008FC02F0E8
:102E4000DDFF03F023FD4FF47F410846FDF7C3FD8E
:102E500000F01FFA00F08BFA00F062FE03F034FE7F
:102E600003F054FE002003F08BFE002003F0DAFE96
:102E7000532144F61F6000F004FB00F051FB02F008
:102E8000DCFD0020064908600649C1F884020648B6
:102E900002F0F1FC532140F2E73000F02BFC10BDB2
:102EA0008002404200004042D807002000B597B0A1
:102EB00001210846FEF71AFB01214804FEF75FFBDB
:102EC00001214805FEF712FB07220221FE48FEF70A
:102ED000FAF807220321FC48FEF7F5F80C201590BC
:102EE00002208DF858008DF8590000208DF85A0006
:102EF00001208DF85B0015A9F348FEF759F8F34857
:102F0000006811900020ADF84800ADF84A00ADF817
:102F100050000C20ADF84E00ED48007820B101289B
:102F200006D002280ED108E00020ADF84C0009E0E0
:102F30004FF4C060ADF84C0004E04FF48060ADF891
:102F40004C0000BF00BF11A9E248FEF7D4FC40F2DC
:102F50002551E048FEF783FE012240F22551DD486D
:102F6000FEF707FE012240F22441DA48FEF701FE97
:102F700026208DF8400001208DF841008DF8420098
:102F80008DF8430010A8FDF722FF0121D148FEF77C
:102F90003AFD01224021CF48FEF7E2FDCE48FFF77F
:102FA00047FD00BFCC48FFF76CFE0028FAD14FF078
:102FB00000600190C748001D0290C848039000209F
:102FC000049028200590002006904FF48060079020
:102FD0000020089009900A904FF480300B90002058
:102FE0000C9003200D9000200E900F9001A9BA487C
:102FF000FFF7C0FD0121B848FFF7F6FD17B000BD8F
:1030000010B52DED068B04466278217802EB012085
:1030100005F02DFC41EC1A0B9FEDB10B53EC102B7E
:1030200005F078FC41EC190B05F0B4F908EE100A34
:103030009FEDAD0AB4EEC08AF1EE10FA05DB9FED0C
:10304000AB0A38EE400AB0EE408AB0EE480ABDEC5A
:10305000068B10BD01464B780A7803EB022290B232
:10306000704710B52DED028B044614B9BDEC028BF0
:1030700010BD2078012802D02078022859D160782C
:10308000032856D1A078022853D1994800880128F6
:1030900006D1E01CFFF7B4FF964880ED000A49E036
:1030A00093480088022806D1E01CFFF7A9FF924848
:1030B00080ED000A3EE08E480088032805D1E01C20
:1030C000FFF7C8FF8D49088034E08948008804284C
:1030D00005D1E01CFFF7BEFF894908802AE084483B
:1030E0000088052810D1E01CFFF78AFF854880ED95
:1030F000000A006805F004FF41EC180B53EC182B94
:1031000081A003F095FE15E079480088062811D1CA
:10311000E01CFFF775FF7E4880ED000A006805F0AF
:10312000EFFE41EC180B53EC182B7AA003F080FE55
:1031300000E09BE700BF99E710B5002440F224416E
:103140006448FEF751FD48B36348FFF770FDC0F1D6
:1031500028007349086000215F48FFF745FD5D487E
:103160000088C4B25B48001D0088C4B26D495A484B
:10317000FFF7B3FD6A480068072802D15748FFF7F8
:1031800070FF28215448FFF750FD01215248FFF7F6
:103190002BFD40F224414F48FEF761FD10BD002099
:1031A00061490880704770B504460D4601205F49AB
:1031B00008700BE000BF80214648FEF7FFFC0028A6
:1031C000F9D014F8011B4348FEF748FC2800A5F18C
:1031D0000101CDB2EED100BF40213E48FEF7EEFC2A
:1031E0000028F9D070BD70B502460C46FF25FF23BC
:1031F00009E012F8010B80EA05014D48405C80EAC5
:1032000003054C48435C2000A4F10106B4B2F0D1A0
:1032100043EA052070BD2DE9F04106460C461546EF
:103220004548067003204449487020128870CC70CD
:10323000281208714D7106213F48FFF7D4FF074659
:10324000380A3D498871CF7108213B48FFF7ABFF31
:10325000BDE8F0812DE9F04106460C46154636489A
:10326000067006203449487020128870CC70280AF5
:1032700008714D7106213048FFF7B5FF0746380A3F
:103280002D498871CF7108212B48FFF78CFFBDE8CD
:10329000F0811FB501218020FEF771F940F28F10F7
:1032A00002904AF20F40ADF804000020ADF806008D
:1032B000ADF80C0001A92148FEF78DFD01211F4842
:1032C000FFF752FA01223BE00000024044000020D8
:1032D00048000020004400408860024010050020A3
:1032E0009A9999999999B93F0000484300CCCC45E7
:1032F0000C00002084000020880000208C000020AA
:103300008E000020900000206C6566743D256600EC
:103310009400002072696768743D25660D0A0000FC
:103320007C000020400F00204A00002051000020B7
:10333000FA8F0008FA90000848040020001C0040A2
:1033400011463848FFF7E8F92C208DF800000320DB
:103350008DF8010001208DF802008DF80300684609
:10336000FDF735FD00212F48FEF7BEFD1FBD1FB53F
:1033700001210802FEF703F942F20F7002904AF2AF
:103380000F40ADF804000020ADF80600ADF80C00C9
:1033900001A92548FEF71FFD01212348FFF7E4F9A5
:1033A000012211462048FFF7B7F92D208DF80000C3
:1033B00003208DF8010001208DF802008DF8030034
:1033C0006846FDF704FD00211748FEF78DFD1FBD7F
:1033D00010B501211448FFF7B6F970B10121124868
:1033E000FFF7C2F90020114908601149088011490E
:1033F000088000210C48FEF777FD10BD10B50121B3
:103400000848FFF7A0F960B101210648FFF7ACF9C1
:103410004FF47A710848FEF7CEFE00210148FEF70E
:1034200063FD10BD001C004000200040880100200A
:103430008C0000208E0000200004014010B5FA48E6
:10344000D0E90030F94A12CA5A1A60EB040040F27F
:10345000DC5300219A1A814109D20020F449086006
:10346000F448007840F00100F249087008E00120BB
:10347000EF490860EF48007800F0FE00ED49087061
:1034800010BD30B58BB004460D4601210420FEF777
:1034900076F801210220FEF729F802220721E648EA
:1034A000FDF711FE8020099002208DF828000320EE
:1034B0008DF8290000208DF82A0001208DF82B00BE
:1034C00009A9DD48FDF774FDADF818500020ADF8EE
:1034D0001A000794ADF8200006A9D848FEF77BFC37
:1034E0006020ADF804000120ADF806000220ADF820
:1034F000100001A9D148FEF73CFD0821CF48FEF796
:1035000095FE0121CD48FEF7D1FC0121CB48FEF705
:10351000EBFC44F25061C948FEF74DFE0BB030BDE4
:1035200010B5002444F25061C448FEF744FE00BFC9
:1035300004E03220FDF706FC601CC4B21E2CF8DB50
:1035400044F63821BD48FEF736FE002404E0322060
:10355000FDF7F8FB601CC4B21E2CF8DB10BD30B5C3
:103560008BB004460D4601210846FEF708F80121FC
:103570000220FDF7BBFF01210846FDF7B7FF01223E
:103580000A21AD48FDF79FFD01220B21AA48FDF756
:103590009AFD01220521AA48FDF795FD4FF44060F0
:1035A000099002208DF8280003208DF829000020C2
:1035B0008DF82A0001208DF82B0009A99E48FDF7FF
:1035C000F7FC2020099009A99D48FDF7F1FCA8B25D
:1035D000ADF818000020ADF81A000794ADF82000EF
:1035E00006A94FF08040FEF7F6FB6020ADF804001E
:1035F0000120ADF806000220ADF8100001A9400737
:10360000FEF77EFC01A94FF08040FEF7FFFC01A908
:103610004FF08040FEF760FD0821C806FEF7FDFD73
:103620000821C806FEF70FFE0821C806FEF714FEA3
:1036300001218807FEF73AFC01218807FEF754FCB8
:1036400044F644010807FEF7B4FD0BB030BD30B5B9
:103650008BB004460D4601210220FDF7A1FF012198
:103660000420FDF743FF032207217648FDF72BFDD9
:103670008020099002208DF8280003208DF8290071
:1036800000208DF82A0001208DF82B0009A96D4833
:10369000FDF78EFCA8B2ADF818000020ADF81A00B6
:1036A0000794ADF8200006A96748FEF794FB602058
:1036B000ADF804000120ADF806000220ADF81000BE
:1036C00001A96148FEF755FC08215F48FEF7AEFDF1
:1036D00000215D48FEF76FFD01215B48FEF7E6FB28
:1036E00001215948FEF7F1FF01215748FEF7FCFB85
:1036F0000BB030BD30B589B005460C460121022023
:10370000FDF73DFF01210220FDF7F0FE0795ADF822
:1037100018400020ADF81A00ADF8200006A94B486B
:10372000FEF759FB012211464848FEF7F5FF1D2020
:103730008DF8140001208DF815008DF816008DF815
:10374000170005A8FDF743FB6020ADF8000001203D
:10375000ADF802000020ADF80C0069463B48FEF7CA
:1037600055FC08213948FEF76EFD00213748FEF769
:1037700024FD01213548FEF7B7FB09B030BD3448C0
:1037800090ED000ADFED330AB4EEE00AF1EE10FA34
:103790000EDD90ED020ADFED300AB4EEE00AF1EE44
:1037A00010FA05D22D480068401C2C49086002E040
:1037B00000202A49086029480068142833DB24487F
:1037C000008D28BB2248C08C10BB2148808CF8B9E2
:1037D0001F48408CE0B91E484069C8B91C48806940
:1037E000B0B91B48006998B91948408D80B918488C
:1037F000C08D68B91648808D50B900200C49083139
:10380000086001201649C1F88C02164908700AE0C8
:10381000002007490C31086001201149C1F88802D5
:1038200000200E49086070479800002050010020D9
:1038300080024142260100200004024000080040AE
:103840000000024000080240000401400004004063
:10385000000700206666663F666666BF2801002096
:10386000000041422701002070B50121CC48FEF73D
:103870006AFF01287ED10121C948FEF775FFC948BA
:10388000D0E9002012F1610440F100011922002367
:10389000204603F032FA00214A404B401A4301D13E
:1038A00002F028FCBF48D0E9003040F2D5129C1845
:1038B00040F10001C8220023204603F01EFA002137
:1038C0004A404B401A4309D1B748007830B903F059
:1038D00004F9B6480068401CB4490860B448007850
:1038E000012878D1AF48D0E9001011F1270440F148
:1038F000000164220023204603F0FFF900214A4022
:103900004B401A4301D102F01DF8AA480078012863
:103910003AD1A448D0E9003083229C1840F100013C
:1039200064220023204603F0E8F900214A404B407E
:103930001A4301D102F0F5F99A48D0E9001011F1CB
:10394000350440F1000132220023204603F0D5F96E
:1039500000214A404B401A4301D101F031FE914809
:10396000D0E9001011F14E0440F100010A220023B9
:10397000204600E0D3E003F0C0F900214A404B406C
:103980001A4301D101F0B1FE8648D0E9001011F1CF
:10399000450440F100010A220023204603F0ADF95E
:1039A00000214A404B401A431CD1002400BF15E0BF
:1039B0008148005D3A280FD17F4904F15900085C25
:1039C0000D2809D104F15A00085C0A2804D108190D
:1039D00002F06EFD04E072E0601CC4B25B2CE7DB19
:1039E00000BF00BF642200236E4903C903F085F9BC
:1039F00000214A404B401A4301D100F0DDFD6948E7
:103A0000D0E900104FF4DA73CC1840F100014FF404
:103A1000FA720023204603F070F900214A404B401F
:103A20001A430ED16548006858B965480188654851
:103A3000D0ED000A64480088644A92ED000A01F063
:103A4000A3FE5849D1E900601821741840F1000123
:103A500032220023204603F050F900214A404B4017
:103A60001A4301D102F046F84E48D0E9001011F196
:103A7000250440F10001C8220023204603F03DF94F
:103A800000214A404B401A4303D102F07DFC02F072
:103A900056FC4448D0E9003040F24D129C1840F1E9
:103AA00000014FF4FA720023204603F026F90021AA
:103AB0004A404B401A4315D102F088FA12E03948C7
:103AC000D0E9002012F1220440F100016422002319
:103AD000204603F012F900214A404B401A4301D11D
:103AE000FFF74DFE2F48D0E900104FF44473CC1877
:103AF00040F10001C8220023204603F0FEF8002117
:103B00004A404B401A4301D1FFF798FC2548D0E9C1
:103B10000020521C40F100002249C1E9002070BD84
:103B20001FB501214020FDF72AFD40F69F7002904D
:103B30004AF20F40ADF804000020ADF80600ADF8E1
:103B40000C0001A92248FEF746F901212048FEF7A2
:103B50000BFE012211461E48FEF7DEFD2B208DF8DC
:103B6000000003208DF8010001208DF802008DF87F
:103B700003006846FDF72BF900211548FEF7B4F95C
:103B80001FBD10B501211248FEF7DDFD30B1012146
:103B90000F48FEF7E9FD00200E49086010BD000047
:103BA000000400409800002008030020A00000202E
:103BB00027010020FC0200200006002088010020D0
:103BC0008E000020880000208C000020840000204F
:103BD000001800401803002000BF704700BFF84ADB
:103BE000128802F04002002AF9D0C2B2F44B9A8047
:103BF000704710B588B0044601210846FDF776FCF1
:103C000001211020FDF7CCFC01218805FDF76EFC99
:103C100007220921EB48FDF756FA07220A21E94855
:103C2000FDF751FA4FF4C060069002208DF81C0099
:103C30008DF81D0000208DF81E0001208DF81F005A
:103C400006A9E048FDF7B4F902940020ADF80C0095
:103C5000ADF80E00ADF81000ADF814000820ADF876
:103C6000120002A9D648FDF746FE0121D448FDF70F
:103C7000CAFE25208DF8040003208DF805008DF87C
:103C8000060001A8FDF7A3F808B010BD704710B5F5
:103C900088B004460121C804FDF771FC012104200D
:103CA000FDF724FC08220A21C748FDF70CFA082278
:103CB0000B21C548FDF707FA4FF44060069002203B
:103CC0008DF81D008DF81C0000208DF81E000120CD
:103CD0008DF81F0006A9BC48FDF76AF934208DF85D
:103CE000040002208DF8050000208DF80600012058
:103CF0008DF8070001A8FDF76AF802940020ADF8DE
:103D00000C00ADF80E00ADF81000ADF814000C205A
:103D1000ADF8120002A9AD48FDF7EDFD0121AB4859
:103D2000FDF771FE08B010BD10B596B00446012134
:103D30000820FDF7DBFB01218804FDF720FC0121B1
:103D40004805FDF7D3FB07220921A148FDF7BBF980
:103D50004FF40070149002208DF854008DF8550037
:103D600000208DF8560001208DF8570014A99848BE
:103D7000FDF71EF910940020ADF84400ADF84600A0
:103D8000ADF84800ADF84C000420ADF84A0010A989
:103D90009048FDF7B0FD01218E48FDF734FE012269
:103DA00040F224418B48FDF7E4FE40218948FDF7AD
:103DB00012FF012240F225518648FDF7DAFE272046
:103DC0008DF83C0000208DF83D008DF83E0001206C
:103DD0008DF83F000FA8FCF7FAFF012240217D4833
:103DE000FDF7BEFE7C48FEF723FE00BF7A48FEF7D3
:103DF00048FF0028FAD14FF0006000907548001D80
:103E000001907648029000200390DC20049000206E
:103E100005904FF48060069000200790089009906C
:103E20004FF480300A9000200B9003200C9000206B
:103E30000D900E9069466848FEF79CFE0121664889
:103E4000FEF7D2FE16B010BD2DE9F04308B9BDE86B
:103E5000F083002102780A2A7ED142780D2AFBD114
:103E6000027D0D2AF8D1427D0A2AF5D100BF5AE021
:103E7000CB1CC45C8B1CC35C04EB03231BB20A4643
:103E800001EBD2746410564D25F8143001EBD17C4F
:103E90004FEA6C0CDFF84C8138F91CC001EBD1788B
:103EA0004FEA6808A94639F91880ACEB080CBCF158
:103EB000000F10DD01EBD17C4FEA6C0CDFF82481A0
:103EC00038F91CC001EBD1784FEA680839F918803D
:103ED000ACEB080C13E001EBD17C4FEA6C0CDFF883
:103EE000048138F91CC0CCF1000C01EBD1784FEA09
:103EF0006808DFF8EC9039F91880ACEB080C42F256
:103F00001078C4450DDD0A4601EBD2746410344DBF
:103F100035F814400B4601EBD3756D10304E26F882
:103F200015408A1CD1B21029A2DBC278837802EB3B
:103F3000032212B22C4B9A804279037902EB0322BE
:103F400012B2294BDA80C279837902EB032212B2D2
:103F5000254B5A80427A00E0B7E0037A02EB032255
:103F600012B2214B1A80C27A837A02EB032212B278
:103F70001D4BDA82427B037B02EB032212B21A4B07
:103F80009A83427C037C02EB032212B2164B1A8303
:103F9000827C0123B3EBD21F07D1827CC2F3801253
:103FA0001AB90022104B5A832EE0827CD209EAB95A
:103FB000827CC2F38012CAB901220B4B5A8323E0E0
:103FC000001001400000024000080240004C004088
:103FD000000C02400048004028600240B606002065
:103FE0008C07002074010020E2060020827CD209A8
:103FF0003AB9827CC2F380121AB10222B94B5A83B9
:1040000002E00022B74B5A83827CC2F340123AB9D5
:10401000827CC2F300121AB90022B24B9A8216E0D7
:10402000827CC2F340123AB1827CC2F300121AB908
:104030000122AC4B9A820AE0827CC2F3401232B970
:10404000827CC2F3001212B10222A64B9A82827CB9
:10405000C2F3C0023AB1827CC2F380021AB90022D4
:10406000A04B1A8216E0827CC2F3C0023AB9827C6D
:10407000C2F380021AB901229A4B1A820AE0827CAA
:10408000C2F3C00232B9827CC2F3800212B10222B2
:10409000944B1A82C27CC2F38012924B9A81C27CEA
:1040A000C2F340125A82C27CC2F30012DA81C27C8F
:1040B000C2F3C0025A81C27CC2F380021A818A4ACA
:1040C0001268521C884B1A6000E0C0E600BFBEE6D2
:1040D00070B5002540F224418448FDF785FD002895
:1040E0003CD0002400218248FEF77EFD7F480088F6
:1040F000C5B27E48001D0088C5B27E497C48FEF7E7
:10410000ECFD7D48D0E900107C4AC2E9001000BFF8
:1041100018E07B48005D0A2812D17949601C085CD0
:104120000D280DD104F11400085C0D2808D104F10C
:104130001500085C0A2803D10819FFF785FE03E083
:10414000601CC4B2162CE4DB00BF2C216848FEF7CB
:104150006CFD01216648FEF747FD00BF70BD10B53C
:1041600096B0044601210420FDF7C0F90121C804DE
:10417000FDF705FA01214805FDF7B8F908220A21E3
:104180006048FCF7A0FF08220B215E48FCF79BFF6C
:104190004FF44060149002208DF854008DF85500C3
:1041A00000208DF8560001208DF8570014A95548BD
:1041B000FCF7FEFE10940020ADF84400ADF8460078
:1041C000ADF84800ADF84C000C20ADF84A0010A93D
:1041D0004D48FDF790FB01214B48FDF714FC0122EF
:1041E00040F224414848FDF7C4FC40214648FDF711
:1041F000F2FC012240F225514348FDF7BAFC34207D
:104200008DF83C0003208DF83D008DF83E00012024
:104210008DF83F000FA8FCF7DAFD012240213A4853
:10422000FDF79EFC32481830FEF702FC00BF304814
:104230001830FEF726FD0028F9D14FF000600090FD
:104240003148001D0190314802900020039040F257
:104250008E300490002005904FF48060069000207E
:104260000790089009904FF480300A9000200B903E
:1042700003200C9000200D900E9069461C481830C9
:10428000FEF778FC01211A481830FEF7ADFC16B095
:1042900010BD10B5002440F224411B48FDF7A4FCDA
:1042A000F8B1002112481830FEF79EFC164800882D
:1042B000C4B21548001D0088C4B215490C48183016
:1042C000FEF70BFDB6210A481830FEF7AEFC0121BF
:1042D00007481830FEF788FC40F224410A48FDF7F1
:1042E000BEFC10BDE206002068010020004800402E
:1042F00028600240400F001098000020500100206C
:10430000B606002000080240004C004000060020D5
:1043100000003D1000B585B001210846FDF7E6F824
:104320004FF4C050009000208DF8040001208DF85B
:10433000060003208DF8050001208DF8070069466E
:104340004748FCF735FE01218803FDF729F90C21C8
:104350000020FDF730FA0B210020FDF72CFA4FF476
:10436000C050039000208DF810000C208DF8110033
:1043700001208DF8120003A8FEF7E0FA28208DF83E
:10438000080002208DF8090001208DF80A008DF840
:104390000B0002A8FCF71BFD4FF400613048FCF74E
:1043A00069FE18B901202F49087009E04FF4006137
:1043B0002B48FCF75FFE012802D100202949087034
:1043C0004FF480512648FCF755FE18B901202649C4
:1043D000087009E04FF480512148FCF74BFE01289A
:1043E00002D100202049087005B000BD10B54FF47F
:1043F0000060FEF709FBB0B90A20FCF7A3FC4FF4FC
:1044000000611748FCF736FE18B9012015490870FD
:1044100009E04FF400611248FCF72CFE012802D19C
:104420000020104908704FF48050FEF7EDFAB0B943
:104430000A20FCF787FC4FF480510948FCF71AFE6C
:1044400018B901200849087009E04FF48051044868
:10445000FCF710FE012802D100200349087010BDAE
:1044600000000240860100208501002070B52DED7E
:10447000028B05460C4640F6C4125142284601F014
:1044800056FA054640F6C4125142204601F04FFA52
:104490000446002D0CDBFE480078012815D00120D1
:1044A000FC490860FA4908700220FCF703FC0CE0A4
:1044B000002D0ADAF648007838B10020F549086086
:1044C000F34908700220FCF7F5FB002C0CDBF248E6
:1044D0000078C0B10020EF49091D0860EE4908705E
:1044E0000220FCF7E7FB0EE0002C0CDAEA4800782B
:1044F000012808D00120E749091D0860E649087035
:104500000220FCF7D7FB002D01DD294600E06942BF
:10451000084604F0ACF941EC180B9FEDE00B53ECAE
:10452000102B04F0BBF903D2002002F07BFB0CE05F
:10453000002D01DD284600E0684264214843D94946
:1045400091FBF0F6304602F06DFBD748D0E9002031
:10455000521B60EBE570D449C1E90020002C01DD5D
:10456000214600E06142084604F081F941EC180B55
:104570009FEDCA0B53EC102B04F090F903D20020EE
:1045800002F0FEFA0CE0002C01DD204600E0604263
:1045900064214843C34991FBF0F6304602F0F0FA3B
:1045A000C248D0E90020121B60EBE470BF49C1E9AA
:1045B0000020BDEC028B70BD10B592B0BC48006805
:1045C000BC4908600020119010909FEDBB0A8DED52
:1045D0000F0A9FEDB90A8DED0E0AB848007818B1A0
:1045E000B6480078022822D1B54890ED010ADFEDE7
:1045F000B50A20EE200ABDEEC00A8DED110A90ED3D
:10460000030ADFEDB00A20EE200ABDEEC00A8DEDF0
:10461000100AAD480068002808D01198002802DC74
:104620001098002802DD002011901090D4E2A348D9
:1046300000780128FAD19FEDA50B03F07BFD8DEDED
:10464000040B9F48C1680846019104F059FCCDE96C
:1046500002019DED040B53EC102B9DED020B51EC70
:10466000100B04F057F99FED990B53EC102BCDE98B
:1046700006019DED060B51EC100B03F071FF9FED51
:10468000930BCDE90A0103F055FD8DED040B8C4829
:1046900090ED020AB1EE400A8DED010A019804F096
:1046A0002FFCCDE902019DED040B53EC102B9DED89
:1046B000020B51EC100B04F02DF99FED840B53EC21
:1046C000102BCDE906019DED060B51EC100B03F00C
:1046D00047FFCDE908019DED0A0B53EC102B9DED32
:1046E000080B51EC100B03F087FECDE90C019DED9A
:1046F0000C0B51EC100B03F04DFE0F909FED730B64
:1047000003F018FD8DED040B6D48C168084601915A
:1047100004F0F6FBCDE902019DED040B53EC102BE8
:104720009DED020B51EC100B04F0F4F89FED670BBC
:1047300053EC102BCDE906019DED060B51EC100B4F
:1047400003F00EFF9FED610BCDE90A0103F0F2FCCF
:104750008DED040B5A4881680846019104F0D0FBA6
:10476000CDE902019DED040B53EC102B9DED020BE6
:1047700051EC100B04F0CEF89FED540B53EC102BC2
:10478000CDE906019DED060B51EC100B03F0E8FEA0
:10479000CDE908019DED0A0B53EC102B9DED080BA4
:1047A00051EC100B03F028FECDE90C019DED0C0B34
:1047B00051EC100B03F0EEFD0E904148C168084625
:1047C000059104F09DFBCDE906019DED060B03F07C
:1047D000A7FC8DED0A0B3A4881680846059104F064
:1047E0008FFBCDE906019DED060B03F099FC8DEDE5
:1047F000080B9DED0A0B53EC102B9DED080B51ECB3
:10480000100B04F093FA9FED330B53EC102BCDE912
:104810000C019DED0C0B51EC100B04F079F97CD8D8
:104820000E9804F06DFBCDE906019DED060B03F03B
:1048300077FC8DED0A0B0F9804F062FBCDE90601C1
:104840009DED060B03F06CFC8DED080B9DED0A0B46
:1048500053EC102B9DED080B51EC100B04F066FA95
:104860009FED1C0B53EC102BCDE90C019DED0C0BB7
:1048700051EC100B04F04CF976D811488068079081
:1048800004F03EFBCDE908019DED080B26E0000099
:10489000D8020020B4824042D90200209A99999906
:1048A0009999B93F00879303C8020020D0020020E5
:1048B00098000020B002002000000000000000204E
:1048C0000007002000401C45880100200000000077
:1048D00000000040FCA9F1D24D62503F03F020FCE3
:1048E0008DED0A0B9FEDFE0B53EC102B9DED0A0B8B
:1048F00051EC100B04F00EF8CDE90C019DED0C0B02
:1049000051EC100B03F084FF1190119803F0AFFFEE
:10491000CDE90A019DED0E0A00E071E0DDED0F0A20
:1049200080EE201A8DED051A059804F0E9FACDE91C
:1049300006019DED060B03F0F3FB8DED080B9DEDDD
:104940000A0B53EC102B9DED080B51EC100B03F0F0
:10495000E1FFCDE90C019DED0C0B51EC100B03F0C8
:1049600057FF109010E1FFE7DF488068079004F0E0
:10497000C7FACDE908019DED080B03F0D1FB8DEDE1
:104980000A0B9FEDD70B53EC102B9DED0A0B51EC4E
:10499000100B03F0BFFFCDE90C019DED0C0B51ECAA
:1049A000100B03F035FF1090109803F060FFCDE975
:1049B0000A019DED0F0ADDED0E0A80EE201A8DED45
:1049C000051A059804F09CFACDE906019DED060B49
:1049D00003F0A6FB8DED080B9DED0A0B53EC102B9D
:1049E0009DED080B51EC100B03F094FFCDE90C0189
:1049F0009DED0C0B51EC100B03F00AFF1190C3E07E
:104A00000E9804F07DFACDE906019DED060B03F04A
:104A100087FB8DED0A0B0F9804F072FACDE90601C1
:104A20009DED060B03F07CFB8DED080B9DED0A0B55
:104A300053EC102B9DED080B51EC100B04F076F9A4
:104A40001FED5C0B53EC102BCDE90C019DED0C0B15
:104A500051EC100B04F05CF84BD8A348C0680790E9
:104A600004F04EFACDE908019DED080B03F058FB68
:104A70008DED0A0B9FED9A0B53EC102B9DED0A0B5D
:104A800051EC100B03F046FFCDE90C019DED0C0B32
:104A900051EC100B03F0BCFE1190119803F0E7FEEF
:104AA000CDE90A019DED0E0ADDED0F0A80EE201A18
:104AB0008DED051A059804F023FACDE906019DED68
:104AC000060B03F02DFB8DED080B9DED0A0B53EC4F
:104AD000102B9DED080B51EC100B03F01BFFCDE9E3
:104AE0000C019DED0C0B51EC100B03F091FE10909E
:104AF0004AE07D48C068079004F002FACDE9080159
:104B00009DED080B03F00CFB8DED0A0B9FED740B74
:104B100053EC102B9DED0A0B51EC100B03F0FAFE39
:104B2000CDE90C019DED0C0B51EC100B03F070FE68
:104B30001090109803F09BFECDE90A019DED0F0A3D
:104B4000DDED0E0A80EE201A8DED051A059804F0B1
:104B5000D7F9CDE906019DED060B03F0E1FA8DEDE5
:104B6000080B9DED0A0B53EC102B9DED080B51EC3F
:104B7000100B03F0CFFECDE90C019DED0C0B51ECB9
:104B8000100B03F045FE11905848006880B19DED70
:104B90000F0AB5EEC00AF1EE10FA06DC9DED0E0A22
:104BA000B5EEC00AF1EE10FA02DD0020119010906F
:104BB0009DED0F0AB5EEC00AF1EE10FA02D211987F
:104BC000404211909DED0E0AB5EEC00AF1EE10FACA
:104BD00002D21098404210901198002801DD1198DF
:104BE00001E0119840420B9003F041FE1FEDD50B00
:104BF00053EC102BCDE90C019DED0C0B51EC100B7F
:104C000003F04CFE1FD81098002801DD109801E039
:104C1000109840420B9003F02AFE1FEDE00B53EC7E
:104C2000102BCDE90C019DED0C0B51EC100B03F09A
:104C300035FEE7D82C48408D30B92D48406B0D909B
:104C40002B480D99884779E32748408D01287DD16D
:104C5000274890F8280030B1022812D0032811D03C
:104C6000042874D10FE0234903C9214A03C2224911
:104C700003C9083AC2E902010120114681F828005F
:104C80009CE100BF00BF1A48006A1949496A88427E
:104C90007CDA1748006A401C15490862002003218D
:104CA00090FBF1F01249096A884208DC1048406A1A
:104CB000032190FBF1F00E49096A884224DC0C487C
:104CC000406A4000032190FBF1F00949096A8842DB
:104CD0005DDC0748406A00EB400003210EE0000065
:104CE00000000000007097400007002088010020AD
:104CF00048030020C8020020D002002090FBF1F001
:104D0000FB49096A884242DDF948406A032190FB69
:104D1000F1F0C117CDE90C01F548D0E90421D0E943
:104D20000030D21A61EB0001CDE9082106220023F0
:104D3000089802F059F8CDE90A01DDE90C2302F0E8
:104D400053F8EB49C8620846406A01E037E134E1B4
:104D5000032190FBF1F0C117CDE90C01E4480246B4
:104D6000D0E90631D2E90202181A61EB02010622EB
:104D70000023CDE9080102F037F8CDE90A01DDE9A9
:104D80000C2302F031F8DA49086355E004E1D84811
:104D9000406A032190FBF1F0D549096A88424BDC57
:104DA000D348406A4000032190FBF1F0D049096AE2
:104DB000884241DDCE48406A032190FBF1F0C117E3
:104DC000CDE90C01CA48D0E90030C949D1E9042134
:104DD0009A1A60EB0100CDE9082006220023DDE9E4
:104DE000080102F001F8CDE90A01DDE90C2301F028
:104DF000FBFFBF49C8620846406A032190FBF1F0FF
:104E0000C117CDE90C01BA48D0E90220B849D1E96F
:104E10000631D21A60EB0100CDE9082006220023FA
:104E2000DDE9080101F0E0FFCDE90A01DDE90C232D
:104E300001F0DAFFAE490863AD48C06A6421484317
:104E40004FF4167190FBF1F0C117AA4B0CCB8018F0
:104E50005941A84A03C2A648C06A00280CDBA648EC
:104E60000078012817D00120A4490860A2490870E1
:104E70000220FBF71FFF0EE09D48C06A00280ADAF7
:104E80009D48007838B100209C4908609A49087014
:104E90000220FBF70FFF9648006B00280CDB9848B8
:104EA0000078D0B100209549091D08609449087028
:104EB0000220FBF7FFFE10E08D48006B00280CDAA3
:104EC0008F480078012808D001208C49091D08600E
:104ED0008B4908700220FBF7EDFE8548C06A10F58B
:104EE000C87F01DC874809E08148C06AB0F5C87F07
:104EF00002DB4FF4C87001E07D48C06A7C49C8629B
:104F0000C8620846C06A002802DD0846C06A02E09E
:104F10007748C06A40427C4991FBF0F00A2190FB3F
:104F2000F1F00D9001F07EFE7148006B6421484362
:104F30004FF4167190FBF1F0744B0CCB821843EBDD
:104F4000E0707249C1E900206948006B10F5C87F24
:104F500001DC6C4809E06648006BB0F5C87F02DBF5
:104F60004FF4C87001E06248006B61490863086350
:104F70000846006B002802DD0846006B02E05C4832
:104F8000006B4042604991FBF0F00A2190FBF1F088
:104F90000D9001F0F5FD0FE05548006A5449496A4B
:104FA000884209D10320524981F82800002001F0ED
:104FB000E7FD002001F036FE00E000BFBEE15448EE
:104FC000408D0228FAD14A4890F8280005287DD261
:104FD000DFE800F0030A191A1B004548406B0D90EA
:104FE00043480D998847A8E1424903C9404AC2E9AC
:104FF00004014648D0E900203D49C1E906200220CD
:1050000081F8280099E100BF00BF3948006A0028F4
:105010006DDD3748006A401E3549086200200321D3
:1050200090FBF1F03249096A884208DA3048406A58
:10503000032190FBF1F02E49096A884214DA2C48CA
:10504000406A4000032190FBF1F02949096A884237
:1050500060DA2748406A00EB4000032190FBF1F042
:105060002349096A884255DB2148406A032190FBA5
:10507000F1F0C117CDE90C011D480246D0E900410D
:10508000D2E90402201A61EB020106220023CDE9D5
:10509000080101F0A9FECDE90A01DDE90C2301F0C8
:1050A000A3FE1349C8620846406A032190FBF1F051
:1050B000C117CDE90C010E48D0E902300C4AD2E903
:1050C0000612591A60EB0200062200E034E10023C8
:1050D000CDE908100846099901F086FECDE90A01DC
:1050E000DDE90C2301F080FE0149086367E015E16A
:1050F00048030020C8020020D8020020B4824042A9
:10510000D902002070FEFFFF40420F00D0020020B5
:1051100000070020FE48406A032190FBF1F0FC49A3
:10512000096A88424BDAFA48406A4000032190FB42
:10513000F1F0F749096A884241DBF548406A0321EA
:1051400090FBF1F0C117CDE90C01F148D0E9043032
:10515000EF49D1E900219A1A60EB0100CDE908205E
:1051600006220023DDE9080101F03EFECDE90A0137
:10517000DDE90C2301F038FEE549C8620846406AC3
:10518000032190FBF1F0C117CDE90C01E048D0E913
:105190000610DF4AD2E90232C91A60EB0200062289
:1051A0000023CDE908100846099901F01DFECDE95C
:1051B0000A01DDE90C2301F017FED5490863D44844
:1051C000C06A00280CDBD3480078012817D00120E2
:1051D000D1490860CF4908700220FBF76BFD0EE053
:1051E000CB48C06A00280ADACA48007838B10020E3
:1051F000C9490860C74908700220FBF75BFDC44835
:10520000006B00280CDBC5480078D0B10020C249F3
:10521000091D0860C14908700220FBF74BFD10E032
:10522000BB48006B00280CDABC480078012808D085
:105230000120B949091D0860B84908700220FBF730
:1052400039FDB348C06A642148434FF4167190FB9E
:10525000F1F0C117B24B0CCB80185941B04A03C2D0
:10526000AB48C06A10F5C87F01DCAE4809E0A84829
:10527000C06AB0F5C87F02DB4FF4C87001E0A448F3
:10528000C06AA349C862C8620846C06A002802DD35
:105290000846C06A02E09E48C06A4042A24991FBAB
:1052A000F0F00A2190FBF1F00D9001F0BBFC984862
:1052B000006B642148434FF4167190FBF1F0C11765
:1052C0009A4B0CCB80185941984A03C29048006B06
:1052D00010F5C87F01DC934809E08D48006BB0F5FC
:1052E000C87F02DB4FF4C87001E08948006B884931
:1052F000086308630846006B002802DD0846006B5F
:1053000002E08348006B4042874991FBF0F00A219C
:1053100090FBF1F00D9001F033FC0CE07C48006A4A
:1053200048B904207A4981F82800002001F028FCBF
:10533000002001F077FC00E000BF00BF744890F847
:10534000280002280DD0724890F82800032808D0C1
:105350006F4890F82800042803D0DDE91010FFF70B
:1053600085F812B010BD90ED030A9FED712AC2EED0
:10537000002AF0EE620A90ED042AB7EE000A00EE71
:10538000820AB7EE002AC2EE002AB0EE621A90ED51
:10539000040A20EE202AD0ED042AB7EE000A00EE1F
:1053A000A20AC2EE002AF0EE621A90ED000A20EE88
:1053B000010A90ED012A01EE820A80ED020A90EDC9
:1053C000020A80ED010A90ED020A704700B501461D
:1053D00091ED000AD1ED010A30EE600A81ED030A79
:1053E00091ED040AD1ED030A20EE200A81ED070AAF
:1053F00091ED080AD1ED050A91ED031A00EE810A3C
:1054000081ED080A91ED030AD1ED020A30EE600A3F
:10541000D1ED060A20EE200A81ED090A91ED070A76
:10542000D1ED080A30EE200AD1ED090A30EE200A4B
:10543000D1ED000A9FED3F1A00EE810A3E4880ED53
:10544000000AFFF790FF81ED0D0A91ED0D0AD1EDF5
:105450000E0AF1EE600AB4EEE00AF1EE10FA04D89A
:1054600091ED0E0AB1EE400A0DE091ED0D0AD1ED7D
:105470000E0AB4EEE00AF1EE10FA02DB91ED0E0A2C
:1054800001E091ED0D0A81ED0D0A91ED0D0A81ED1E
:105490000F0A91ED030A81ED020A00BD10B5044622
:1054A00094ED000AD4ED010A30EE600A84ED030A9F
:1054B00094ED030AB5EEC00AF1EE10FA02DD94EDA8
:1054C000030A03E094ED030AB1EE400ADFED1B0A84
:1054D000B4EEE00AF1EE10FA04D294ED030A84ED82
:1054E000020A10BD94ED040AD4ED030A20EE200A4E
:1054F00084ED070A94ED080AD4ED050A94ED031A29
:1055000000EE810A84ED080A94ED030A18E0000019
:1055100048030020D8020020B4824042D902002073
:10552000C802002070FEFFFF40420F00D0020020A2
:1055300083F9223E00004843D80700200AD7233CC5
:10554000D4ED020A30EE600AD4ED060A20EE200AFD
:1055500084ED090A94ED070AD4ED080A30EE200A1A
:10556000D4ED090A30EE200A84ED0D0AD4ED0E1AAE
:10557000B0EE611AD4ED0E1AF1EE611AF0EE610A86
:10558000D4ED0D1AB0EE610A00F0BCF984ED0D0AFD
:1055900094ED0D0A84ED0F0A94ED030A84ED020ADE
:1055A00000BF9EE79FEDBE0ABE4880ED010A9FED59
:1055B000BC0ABD4880ED000A0020BC490860704765
:1055C00010B52DED0C8B9FEDBA0B02F0FDFBB0EE8C
:1055D00040AAF0EE60AA51EC1A0B02F0CFFE41ECAB
:1055E000180BB54890ED000AAF48D0ED000A30EE38
:1055F000600A10EE101A084603F082FC41EC190B09
:1056000053EC182B03F04AF905D2A8480068401C57
:10561000A649086020E09FEDA60B02F0D5FBB0EE96
:10562000408AF0EE608AA44890ED000A9E48D0EDD2
:10563000000A30EE600A10EE101A084603F060FC13
:1056400041EC190B53EC182B03F062FA04D2974883
:105650000068401E954908609748006803F050FCB8
:1056600041EC190B914890ED000AB8EEC00A10EE1B
:10567000100A03F045FC41EC1B0B9FED8D0B02F073
:10568000A3FBB0EE40DAF0EE60DA9FED8C0B53EC4A
:10569000102B51EC1D0B03F03DF941EC1C0B53ECAE
:1056A0001B2B03F037F941EC1A0B53EC192B02F0CA
:1056B000A3FE41EC180B02F06DFE7A4948607E486B
:1056C00090ED000A784880ED000A7E4890ED000ACF
:1056D0007D48D0ED000A30EE600A084680ED000AF1
:1056E000016C8847BDEC0C8B10BD10B52DED048B03
:1056F0007648808D00BB76480078012815D16E4829
:1057000090ED000A6F4880ED000A9FED650A65483C
:1057100080ED0D0A00206E4908709FED610A6A480D
:1057200080ED000A0020614908605E4890ED0D0A96
:10573000684880ED000A1CE06448808D012818D17B
:10574000624890ED000A10EE101A084603F0D8FBEC
:1057500041EC190B9FED600B53EC102B03F0DAF8C2
:1057600041EC180B02F016FE5A4908600120584916
:1057700008705B4890ED000A564880ED010A016C04
:105780008847BDEC048B10BD70B52DED068B04462B
:10579000B0EE408AF0EE608A0D4618EE100A03F073
:1057A000AFFB41EC1A0BB0EE4A0AF0EE6A0A02F0C7
:1057B000B7FCB0EE409AF0EE609A9FED4A0B53ECC6
:1057C000102B51EC190B03F0A3F90BD847480068D4
:1057D00040F4805045490860454801684FF47F0017
:1057E000FBF7F9F8502C0ADB4048006840F4807061
:1057F0003E4908603E4801683E48FBF7ECF818EE69
:10580000900A03F07DFB41EC1A0BB0EE4A0AF0EE71
:105810006A0A02F085FCB0EE409AF0EE609A9FEDC5
:10582000310B53EC102B51EC190B03F071F90BD821
:105830002E48006840F010002C4908604FF47F01AA
:105840002D480068FBF7C7F8502D0ADB2748006891
:1058500040F0010025490860264927480068FBF709
:10586000BAF82248006818B101212448FCF73CFB33
:10587000BDEC068B70BD9FED0A0A80ED000A9FED1E
:10588000080A80ED010A9FED060A80ED020AB3EED8
:105890000E0A80ED030A9FED1A0A80ED040A704794
:1058A00000000000E8010020DC020020E0020020EF
:1058B000000000000000F0BF040000200000000015
:1058C00000000040F00200200C0300200007002030
:1058D0009802002040020020000000000000E0BF0D
:1058E0000800002000000000004050408801002017
:1058F0002C00002000FFFF002800002000200040B6
:105900000000C842F0EE401AF4EEE01AF1EE10FA90
:1059100002D2B0EE600A7047F4EEC11AF1EE10FA4E
:1059200002DDB0EE410AF6E7B0EE610AF3E70346A6
:105930008B4201DA08467047934201DD1046FAE7D0
:105940001846F8E710B52DED048BFE4890F82400BA
:10595000FD490870FD48007800285FD108460078AE
:10596000012843D1FA4890ED000AFA4880ED000A78
:1059700090ED000AF848D0ED000A30EE600A10EE13
:10598000101A084603F0BCFA41EC190BB0EE490AB4
:10599000F0EE690A02F0C4FBB0EE408AF0EE608AD5
:1059A0009FEDEE0B53EC102B51EC180B02F076FF31
:1059B00005D2EC480068401CEA49086002E000207B
:1059C000E8490860E74800680A2805DB0120DF494C
:1059D00008700020E4490860DE4890ED000ADE48C7
:1059E00080ED000AE148FFF746FF23E0D648007843
:1059F00000BBFFF7D7FD9FEDDE0ADE4880ED0D0A04
:105A00009FEDDB0ADC4880ED0D0A0020D5490860D7
:105A10009FEDD70AD94880ED000A0BE0CB4800780B
:105A2000012807D1C848007820B9FFF7BBFD002046
:105A3000C6490870BDEC048B10BD10B50120D049DB
:105A4000087044F250618007FCF7B7FB44F25061E4
:105A50008806FCF7B4FB002404E03220FBF772F95F
:105A6000601CC4B21E2CF8DB44F638214FF0804095
:105A7000FCF7A3FB44F638214FF08040FCF79FFB76
:105A8000002404E03220FBF75DF9601CC4B21E2C38
:105A9000F8DB0120BB4908700020B949087010BD2F
:105AA00010B5B9480078C0B9A64890ED000ADFEDFE
:105AB000B70AB4EEE00AF1EE10FA0EDB90ED020A3E
:105AC000DFEDB30AB4EEE00AF1EE10FA05D8B14802
:105AD0000068401CAF49086002E00020AD49086042
