:020000040800F2
:10000000C0070020CD010008F50800084D060008D3
:10001000F108000875020008590E000800000000F1
:10002000000000000000000000000000950A000829
:1000300039040008000000007D090008A90B000831
:10004000E7010008E7010008E7010008E7010008F0
:10005000E7010008E7010008E7010008E7010008E0
:10006000E7010008E7010008E7010008E7010008D0
:10007000E7010008E7010008E7010008E7010008C0
:10008000E7010008E7010008E7010008E7010008B0
:10009000E7010008E7010008E7010008E7010008A0
:1000A000E7010008E7010008E7010008E701000890
:1000B000E70100080D0C0008E7010008E70100084F
:1000C000E7010008E7010008E7010008E701000870
:1000D000E7010008650C0008E7010008E7010008D7
:1000E000E7010008E7010008E7010008E701000850
:1000F000E7010008E7010008E7010008E701000840
:10010000E7010008E7010008E7010008E70100082F
:10011000E7010008E7010008E7010008E70100081F
:10012000E7010008E7010008E7010008E70100080F
:1001300000F002F800F03AF80AA090E8000C8244BF
:100140008344AAF10107DA4501D100F02FF8AFF29C
:10015000090EBAE80F0013F0010F18BFFB1A43F0A5
:10016000010318471C0F00003C0F0000103A24BF89
:1001700078C878C1FAD8520724BF30C830C144BF0C
:1001800004680C607047000000230024002500264E
:10019000103A28BF78C1FBD8520728BF30C148BFEA
:1001A0000B6070471FB51FBD10B510BD00F033F8D0
:1001B0001146FFF7F7FF00F09BFE00F051F803B483
:1001C000FFF7F2FF03BC00F049FE0000094880473A
:1001D00009480047FEE7FEE7FEE7FEE7FEE7FEE729
:1001E000FEE7FEE7FEE7FEE704480549054A064B41
:1001F00070470000AD0B000831010008C00100206D
:10020000C0070020C0030020C003002070477047D3
:10021000704770477047754600F028F8AE460500F5
:100220006946534620F00700854618B020B5FFF711
:10023000DBFFBDE820404FF000064FF000074FF015
:1002400000084FF0000B21F00701AC46ACE8C009F4
:10025000ACE8C009ACE8C009ACE8C0098D467047FD
:100260000446AFF300802046FFF7A9FF004870471F
:100270006001002000BFFEE700F0805111B103498A
:10028000086001E002494860704700000404024031
:100290000000024021B1026842F00102026004E065
:1002A00002684FF6FE731A400260704701684FF60D
:1002B000FE72114001600021016041608160C160F7
:1002C0004B49884208D14A490839496841F00F0131
:1002D000474A083A51608AE045491431884208D1BA
:1002E00043490839496841F0F001414A083A5160F0
:1002F0007DE03F492831884208D13D4908394968A5
:1003000041F470613A4A083A516070E038493C3132
:10031000884208D136490839496841F47041344A65
:10032000083A516063E032495031884208D130497F
:100330000839496841F470212D4A083A516056E065
:100340002B496431884208D129490839496841F468
:100350007001274A083A516049E0254978318842BE
:1003600008D123490839496841F07061204A083AA8
:1003700051603CE01F49884206D1011F096841F0E5
:100380000F01021F116032E01A491431884208D16E
:100390001849091F096841F0F001164A121F11603F
:1003A00025E014492831884208D11249091F0968FB
:1003B00041F470610F4A121F116018E00D493C3181
:1003C000884208D10B49091F096841F47041094A64
:1003D000121F11600BE007495031884207D10549CF
:1003E000091F096841F47021024A121F1160704709
:1003F000080002400804024010B50022026847F6D7
:10040000F0739A430C6A8B6823430C6923434C694D
:1004100023438C692343CC6923434C6A23438C6A6E
:1004200023431A430260CB6843600B6883604B68C8
:10043000C36010BD4160704770472DE9F04102462E
:1004400000250026002000230024002791F803C087
:100450000CF00F0591F803C00CF0100CBCF1000F6C
:1004600003D091F802C04CEA050591F800C0BCF138
:10047000000F31D0146800202BE04FF0010C0CFA73
:1004800000F3B1F800C00CEA03069E4220D18300BD
:100490004FF00F0C0CFA03F7BC4305FA03FC4CEACF
:1004A000040491F803C0BCF1280F06D14FF0010CF1
:1004B0000CFA00FCC2F814C00AE091F803C0BCF1C9
:1004C000480F05D14FF0010C0CFA00FCC2F810C027
:1004D000401C0828D1D31460B1F800C0BCF1FF0F54
:1004E00034DD546800202EE000F1080C4FF00108C4
:1004F00008FA0CF3B1F800C00CEA03069E4221D1C1
:1005000083004FF00F0C0CFA03F7BC4305FA03FC11
:100510004CEA040491F803C0BCF1280F05D100F1A6
:10052000080C08FA0CF8C2F8148091F803C0BCF16A
:10053000480F07D100F1080C4FF0010808FA0CF839
:10054000C2F81080401C0828CED35460BDE8F0816A
:10055000F0B50A46002300240021002500F00046E3
:10056000B6F1004F02D11D4EF16901E01B4E7168DA
:10057000C0F3034583B200F44016B6F5401F08D11E
:1005800021F07061154E766826F07066134F7E601C
:1005900012E000F48016B6F5801F06D1032606FA95
:1005A00005F4A14341F0706106E0460D360103FAFF
:1005B00006F6B14341F0706122B1460D360103FAEF
:1005C00006F6314300F00046B6F1004F02D1034E6B
:1005D000F16101E0014E7160F0BD000000000140DA
:1005E000416170470161704708B501210D2000F09D
:1005F000D7F901211248FFF7ABFFFF20ADF800004B
:1006000010208DF8030003208DF8020069460D4884
:10061000FFF713FFFF210B48FFF7E2FF4FF2FF0048
:10062000ADF8000069460848FFF707FFFF210648BC
:10063000FFF7D6FF4FF470410348FFF7D3FF08BD23
:100640000002300000080140000C014000BFFEE73E
:10065000E8B9B1F1FF3F11D049B1012916D101220A
:10066000844B1A600022844BC3F880210EE00022E4
:10067000804B1A60804BC3F8802107E000227D4B3D
:100680001A6001227C4BC3F8802100BF00BF012803
:1006900020D1B1F1FF3F13D051B1012919D101226D
:1006A000744B08331A600022734BC3F8882110E0A2
:1006B0000022704B08331A606F4BC3F8882108E0A2
:1006C00000226C4B08331A6001226B4BC3F888215F
:1006D00000BF00BF062820D1B1F1FF3F13D051B1B8
:1006E000012919D10122634B10331A600022624B99
:1006F000C3F8902110E000225E4B10331A605E4B6D
:10070000C3F8902108E000225A4B10331A600122EE
:10071000594BC3F8902100BF00BF072820D1B1F189
:10072000FF3F13D051B1012919D10122514B183388
:100730001A600022504BC3F8982110E000224D4B64
:1007400018331A604C4BC3F8982108E00022494B3B
:1007500018331A600122484BC3F8982100BF00BF2C
:1007600005281DD1B1F1FF3F11D049B1012916D1A2
:100770000122424B1A600022414BC3F880210EE057
:1007800000223E4B1A603E4BC3F8802107E0002256
:100790003A4B1A6001223A4BC3F8802100BF00BFD8
:1007A000042820D1B1F1FF3F13D051B1012919D153
:1007B0000122324B08331A600022314BC3F88821E2
:1007C00010E000222D4B08331A602D4BC3F888210E
:1007D00008E00022294B08331A600122284BC3F895
:1007E000882100BF00BF032820D1B1F1FF3F13D003
:1007F00051B1012919D10122204B10331A60002276
:100800001F4BC3F8902110E000221C4B10331A60DC
:100810001B4BC3F8902108E00022184B10331A60DC
:100820000122174BC3F8902100BF00BF022820D13E
:10083000B1F1FF3F13D051B1012919D101220F4B62
:1008400018331A6000220E4BC3F8982110E00022E2
:100850000A4B18331A600A4BC3F8982108E00022AB
:10086000064B18331A600122054BC3F8982100BFCC
:1008700000BF70478401214200002142848121424F
:100880000080214210B500B910BD02780A2A29D192
:1008900042780D2A26D1027D0D2A23D1427D0A2AD3
:1008A00020D1114A12680AB9012200E000220E4B41
:1008B0001A60002114E0837C03F00102837C5B104A
:1008C000837412B1012A08D103E00023074C63545A
:1008D00003E00123054C635400BF00BF4A1CD1B2A2
:1008E0000829E8DB00BFCFE7B881214220000020C3
:1008F00000BFFEE77047000070B5002100230F2203
:10090000C47804B3154C246804F4E064C4F5E064CE
:10091000210AC1F10403CA40447804FA03F184783F
:100920001440214309010E4C0678A155047804F0C7
:100930001F050124AC4005786D11AD0005F1E025DF
:10094000C5F8004109E0047804F01F050124AC401B
:10095000044D0678761145F8264070BD0CED00E098
:1009600000E400E080E100E002490143024A116036
:10097000704700000000FA050CED00E07047000031
:1009800029B1064A52690243044B5A6104E0034A02
:1009900052698243014B5A617047000000100240C7
:1009A00029B1064A92690243044B9A6104E0034A62
:1009B00092698243014B9A61704700000010024027
:1009C00030B500210022002400232D4D6D6805F074
:1009D0000C0121B1042905D0082923D105E0294DB6
:1009E000056022E0274D05601FE0254D6D6805F488
:1009F0007012234D6D6805F48034022505EB924298
:100A00001CB9214D554305600BE01D4D6D6805F483
:100A100000351DB11C4D5543056002E0194D55438D
:100A2000056002E0174D056000BF00BF144D6D6802
:100A300005F0F0010909154D6B5C0568DD40456066
:100A40000F4D6D6805F4E061090A104D6B5C456857
:100A5000DD4085600A4D6D6805F46051C90A0B4D93
:100A60006B5C4568DD40C560054D6D6805F440412F
:100A7000890B074D6B5CC568B5FBF3F5056130BDAF
:100A80000010024000127A0000093D0050000020D2
:100A900060000020704710B500F002F810BD0000A3
:100AA0000CB50020019000903348006840F480307D
:100AB0003149086000BF3048006800F40030009001
:100AC0000198401C0190009818B90198B0F5A06FEA
:100AD000F1D12948006800F4003010B101200090E5
:100AE00001E0002000900098012843D123480068CD
:100AF00040F01000214908600846006820F003001B
:100B000008600846006840F0020008601A48406823
:100B1000194948600846406848600846406840F403
:100B2000806048600846406820F47C1048600846B1
:100B3000406840F4E81048600846006840F0807063
:100B4000086000BF0C48006800F000700028F9D071
:100B50000948406820F0030007494860084640689B
:100B600040F00200486000BF0348406800F00C00FD
:100B70000828F9D10CBD00000010024000200240FE
:100B8000042808D14FF0E021096941F004014FF039
:100B9000E022116107E04FF0E021096921F0040132
:100BA0004FF0E022116170477047000010B5134804
:100BB000006840F00100114908600846406810498B
:100BC00008400E494860084600680E4908400B4935
:100BD00008600846006820F48020086008464068E5
:100BE00020F4FE0048604FF41F008860FFF753FFB9
:100BF0004FF000600449086010BD00000010024082
:100C00000000FFF8FFFFF6FE08ED00E010B501213F
:100C1000084800F016F860B10121064800F00EF80F
:100C20000548D0E90020521C40F100000249C1E90A
:100C3000002010BD0004004048000020CA4302828A
:100C4000704730B50246002000230024158A05EACB
:100C50000103958905EA010413B10CB1012000E0FC
:100C6000002030BD10B5002440F224410F4800F0B0
:100C700038F8C8B100210E48FFF70CFB0D48FFF70C
:100C800001FE0A480088C4B20848001D0088C4B2AA
:100C90004FF47020FFF7F0FA32210548FFF7CAFB46
:100CA00001210348FFF7F6FA10BD000000380140AB
:100CB000580002402C01002021B1828942F40052E8
:100CC000828104E082894DF6FF731A408281704769
:100CD0001AB1838A0B43838202E0838A8B43838227
:100CE000704770B50246002400230025002040F61E
:100CF0006A16B14200D100BFC1F3421501F01F03D3
:100D0000012606FA03F3012D02D19689334006E04D
:100D1000022D02D1168A334001E0968A33400C122C
:100D2000012606FA04F41688344013B10CB10120F0
:100D300000E0002070BDF0B5034600240026002529
:100D4000002040F66A17B94200D100BF1846C1F32F
:100D5000421401F01F06012707FA06F5012C01D104
:100D60000C3004E0022C01D1103000E014301AB134
:100D700007682F43076002E00768AF430760F0BDD4
:100D80002DE9F04786B005460E460024A24600BF76
:100D9000A1460027B08900B100BF2F462C8A4CF62F
:100DA000FF700440F08804432C82AC894EF6F310A7
:100DB0000440B08831890843718908430443AC81F9
:100DC000AC8A4FF6FF400440B0890443AC8201A8CE
:100DD000FFF7F6FD1F48874202D1DDF810A001E0C1
:100DE000DDF80CA0A88900F4004040B10AEBCA006D
:100DF00000EB0A1031684900B0FBF1F807E00AEB9C
:100E0000CA0000EB0A1031688900B0FBF1F86420D9
:100E1000B8FBF0F004012009642101FB1089A889C6
:100E200000F4004040B1322000EBC900B0FBF1F00B
:100E300000F00700044308E0322000EB09106421B1
:100E4000B0FBF1F000F00F0004432C8106B0BDE8C8
:100E5000F08700000038014000BFFEE700BF704788
:100E600010B56FF00400FFF78BFE0A4800680A49CE
:100E7000B0FBF1F0094908700846007800EB40012A
:100E8000C1EBC0104FF6FF7101EAC00004490880B1
:100E900010BD00000000002000127A0014000020A5
:100EA000160000200146114A12884A434FF0E02301
:100EB0005A6100229A611A46126942F001021A61CF
:100EC00000BF4FF0E022106900F001021AB100F4F7
:100ED0008032002AF5D04FF0E022126922F00102A0
:100EE0004FF0E0231A6100229A617047160000203B
:100EF00000244FF4A060FFF737FDFFF7B1FF4FF478
:100F0000E13000F033F8FFF76FFB29E0002425E023
:100F1000144850F824001449095D884218D012483A
:100F2000005D28B94FF0FF312046FFF791FB07E045
:100F30000D48005D012803D101212046FFF788FB01
:100F40000948005D074941F82400C820FFF7AAFFBF
:100F500000212046FFF77CFB601CC4B2082CD7DBC5
:100F6000D4E70000280000202000002010B592B037
:100F70000446012144F20400FFF712FD4FF4007013
:100F8000ADF8180003208DF81A0018208DF81B000A
:100F900006A93648FFF751FA4FF48060ADF8180003
:100FA00004208DF81B0006A93048FFF746FA2520DB
:100FB0008DF8040003208DF805008DF8060001204F
:100FC0008DF8070001A8FFF797FC02940020ADF808
:100FD0000C00ADF80E00ADF81000ADF814000C20B8
:100FE000ADF8120002A92248FFF7CAFE012240F222
:100FF00025511F48FFF79FFE012240F224411C4863
:10100000FFF799FE01211A48FFF756FE0121084615
:10101000FFF7B6FC1748FFF749F932201649088058
:101020001348001D079015480890002009903220B1
:101030000A9000200B9080200C9000200D900E90C4
:101040000F904FF4805010900020119007A909488C
:10105000FFF7D2F9012240210548FFF739FE0121AF
:101060000448FFF717F912B010BD00000008014056
:1010700000380140580002401E0000202C010020D2
:10108000A010000800000020640000006C010008AF
:1010900004110008640000205C07000088010008BB
:1010A00000A24A0400000000000000000102030446
:1010B0000607080900000000000000000000000012
:1010C0000000000000000000FFFFFFFFFFFFFFFF28
:1010D000FFFFFFFFFFFFFFFFFFFFFFFFFFFFFFFF20
:1010E000FFFFFFFFFFFFFFFF000000000000000008
:1010F00000000000010203040102030406070809BE
:0411000002040608D7
:04000005080001CD21
:00000001FF
