:020000040800F2
:1000000018080020CD010008FD0F0008050D0008AC
:10001000F90F000865030008791A000800000000C5
:10002000000000000000000000000000A114000813
:10003000C10A00080000000085100008B51500087E
:10004000E7010008E7010008E7010008E7010008F0
:10005000E7010008E7010008E7010008E7010008E0
:10006000E7010008E7010008E7010008E7010008D0
:10007000E7010008E7010008E7010008E7010008C0
:10008000E7010008E7010008E7010008E7010008B0
:10009000591A0008E7010008E7010008E701000815
:1000A000E7010008E7010008E7010008E701000890
:1000B000E701000819160008E7010008E701000839
:1000C000E7010008E7010008E7010008E701000870
:1000D000E70100085D180008E7010008E7010008D3
:1000E000C50A0008E7010008E7010008E701000869
:1000F000E7010008E7010008E7010008E701000840
:10010000E7010008E7010008E7010008E70100082F
:10011000E7010008E7010008E7010008E70100081F
:10012000E7010008E7010008E7010008E70100080F
:1001300000F002F800F03AF80AA090E8000C8244BF
:100140008344AAF10107DA4501D100F02FF8AFF29C
:10015000090EBAE80F0013F0010F18BFFB1A43F0A5
:1001600001031847EC2C00000C2D0000103A24BFAE
:1001700078C878C1FAD8520724BF30C830C144BF0C
:1001800004680C607047000000230024002500264E
:10019000103A28BF78C1FBD8520728BF30C148BFEA
:1001A0000B6070471FB51FBD10B510BD00F0AAF859
:1001B0001146FFF7F7FF01F06FFD00F0C8F803B438
:1001C000FFF7F2FF03BC01F059FC0000094880472B
:1001D00009480047FEE7FEE7FEE7FEE7FEE7FEE729
:1001E000FEE7FEE7FEE7FEE704480549054A064B41
:1001F00070470000B91500083101000818020020FE
:10020000180800201804002018040020704753EA42
:10021000020C00F069802DE9F04B4FF00006002B36
:100220001FBFB3FA83F503FA05F424FA05F65E401E
:1002300012BF1643B2FA82F502FA05F4C5F12005A1
:100240001EBF22FA05FC44EA0C04203556EA044C91
:100250004FEA144418BF641C4FF000084FF0000927
:10026000904271EB030C39D3002919BFB1FA81F721
:1002700001FA07F6B0FA80F700FA07F6C7F120078F
:100280001EBF20FA07FC46EA0C062037B6FBF4FC3A
:10029000A7EB0507103F07F01F0BCBF120060CFA68
:1002A0000BFB2CFA06F644BFB3460026202FA4BF52
:1002B0005E464FF0000B5BEA060C08BF4FF0010BE7
:1002C00019EB0B09ABFB027C48EB0608C01B06FBD5
:1002D00002CC0BFB03CC71EB0C01C1E70B460246D1
:1002E00041464846BDE8F08B13B54FF000004FF093
:1002F0000001AFF30080BDE81C40704770477047B5
:1003000070477047754600F029F8AE46050069460B
:10031000534620F00700854618B020B5FFF764FF6C
:10032000BDE820404FF000064FF000074FF00008F6
:100330004FF0000B21F00701AC46ACE8C009ACE877
:10034000C009ACE8C009ACE8C0098D467047044656
:10035000AFF300802046FFF732FF000000487047EF
:10036000B801002000BFFEE710B500F0FBF800F078
:10037000B7F900F0D5F800F0DDF910BDF0B585B0A3
:1003800004460D4616461F464FF4007000900020AC
:100390008DF808008DF8090008208DF80A00200A61
:1003A0008DF80B00E1B28DF80C10290A8DF80D10B4
:1003B000E9B28DF80E10310A8DF80F10F1B28DF8F8
:1003C0001010390A8DF81110F9B28DF81210694623
:1003D000024800F04BFA05B0F0BD00000064004098
:1003E00010B504460B48844209D10121480600F0AB
:1003F0005BFE00214FF0007000F056FE08E0012186
:10040000880600F051FE00214FF0806000F04CFEA5
:1004100010BD00000064004010B50021837A012265
:1004200002FA03F13D4A126842F001023B4B1A60A6
:100430003A4A1C3212688A43384B1C331A60027BDA
:10044000CAB9364A0C3212688A43344B0C331A60EC
:100450004288C38842EA0343304A4032847A42F8F1
:1004600034300288838842EA03432C4A4032847A3B
:1004700002EBC4025360027B012A19D1274A0C32D5
:1004800012680A43254B0C331A604288038842EAFB
:100490000343224A4032847A42F83430C288838847
:1004A00042EA03431D4A4032847A02EBC40253609D
:1004B000C27A3AB9194A121D12688A43174B1B1D9A
:1004C0001A6006E0154A121D12680A43134B1B1DE1
:1004D0001A60028932B9114A143212688A430F4BEA
:1004E00014331A600289012A06D10C4A14321268A8
:1004F0000A430A4B14331A60427B012A06D1074A89
:100500001C3212680A43054B1C331A60034A1268F6
:1005100022F00102014B1A6010BD0000006600408D
:100520001FB500208DF80A008DF80B0001208DF812
:100530000C000020ADF80000ADF80200ADF804009A
:10054000ADF80600ADF8080001208DF80D006846F2
:10055000FFF762FF01220221014800F02DF81FBDC4
:100560000064004008B50121092000F0ADFD012123
:10057000480600F089FD0121042000F0A5FD4FF49C
:100580008050ADF8000003208DF8020018208DF88F
:1005900003006946074800F01FFB4FF40060ADF808
:1005A000000048208DF803006946024800F014FB63
:1005B00008BD0000000801401AB143690B434361C4
:1005C00002E043698B434361704730B50246002027
:1005D0000023146824F002041460146844F0010439
:1005E000146000E05B1C546804F001041CB94FF671
:1005F000FF74A342F6D1546804F001040CB9002042
:100600006CE08C79012C04D1146844F080041460EF
:1006100003E0146824F080041460CC79012C04D128
:10062000146844F04004146003E0146824F04004AB
:1006300014600C7A012C04D1146844F02004146076
:1006400003E0146824F0200414604C7A012C04D1D7
:10065000146844F01004146003E0146824F01004DB
:1006600014608C7A012C04D1146844F008041460DE
:1006700003E0146824F008041460CC7A012C04D13F
:10068000146844F00404146003E0146824F00404C3
:1006900014608C78A407CD7844EA05640D7944EAA7
:1006A00005444D7944EA05540D886D1E2C43D461F0
:1006B000146824F001041460002300E05B1C5468FB
:1006C00004F001041CB14FF6FF74A342F6D1546844
:1006D00004F001040CB1002000E0012030BD000056
:1006E0000EB51348FFF77CFE684600F0AFF8002017
:1006F0008DF806008DF807008DF8080001208DF8B0
:10070000090000208DF80A008DF80B008DF802001A
:100710008DF8030002208DF8040004208DF80500F8
:10072000ADF8000069460248FFF74FFF0EBD00001C
:100730000064004008B54FF4C06000F099FC14203C
:100740008DF8000000208DF801008DF802000120D6
:100750008DF80300684600F053FC08BD10B500F5A5
:10076000D87303EB01131B6803F004031372137AAD
:1007700053B900F5D87303EB01131B6840F2FF7403
:1007800004EA5353136009E000F5D87303EB011337
:100790001B686FF0604404EAD303536000F5D8731C
:1007A00003EB01131B6803F00203537200F5D873C7
:1007B00003EB01135B6803F00F03937200F5D8732A
:1007C00003EB01135B681B0AD37400F5D87303EBCA
:1007D00001139B68D37200F5D87303EB01139B6878
:1007E0001C0A147300F5D87303EB01139B681C0CEF
:1007F000547300F5D87303EB01139B681B0E9373BE
:1008000000F5D87303EB0113DB68D37300F5D873DD
:1008100003EB0113DB681C0A147400F5D87303EBB7
:100820000113DB681C0C547400F5D87303EB01133F
:10083000DB681B0E937421B9C36843F02003C360C7
:1008400003E0036943F02003036110BD00218171BF
:10085000C171017241728172C1728170C1700321D4
:1008600001710221417101210180704710B50246DA
:100870000020936803F08063B3F1806F00D110E033
:10088000936803F00063B3F1006F01D1012008E029
:10089000936803F08053B3F1805F01D1022000E040
:1008A0000420042874D002F5C07303EB00131B6806
:1008B00003F0010402F5C07303EB00131C600B7A14
:1008C0007BB94B7A0C8843EA445302F5C07404EBBD
:1008D00000142468234302F5C07404EB0014236061
:1008E00010E00B7A4C6843EAC4034C7A234302F5C8
:1008F000C07404EB00142468234302F5C07404EBB5
:10090000001423608B7A03F00F038B7202F5C0731F
:1009100003EB00135B6823F00F0402F5C07303EBD5
:1009200000135C6002F5C07303EB00135B688C7A04
:10093000234302F5C07404EB001463608B7B1C0638
:100940004B7B44EA03440B7B44EA0323CC7A2343E6
:1009500002F5C07404EB0014A3608B7C1C064B7C76
:1009600044EA03440B7C44EA0323CC7B234302F593
:10097000C07404EB0014E36002F5C07303EB0013D2
:100980001B6843F0010402F5C07303EB00131C6005
:1009900010BD000070B50446B4F90810B4F90000A9
:1009A000E26B00F00BFC20803248B0F9000002F04E
:1009B0008FF831490860084600F036FA054602F023
:1009C0006BF800B2608020886188401A01B2E18033
:1009D000B4F90600002802DDB4F9060002E0B4F91B
:1009E000060040421E2801DA0021E180B4F9060029
:1009F00002F06EF80546E16802F0B6F8A061616A9F
:100A0000A06900F08BF8A061B4F9060002F060F86C
:100A10000646216902F0A8F80546E16901F00CFFDD
:100A2000E061A16AE06900F079F8E061B4F90610CC
:100A3000B4F90420881A02F04BF80546616902F007
:100A400093F82062E16A206A00F068F82062D4E935
:100A5000060101F0F1FE0546216A01F0EDFE20637A
:100A6000D4E90C0100F05AF82063206BA063E08801
:100A7000A08070BD26000020DC000020017BC27A2F
:100A800041EA022109B20A4A1180827B417B42EA93
:100A9000012109B2074A1180027CC17B42EA01218F
:100AA00009B2054A1180417C044A11807047000058
:100AB0002000002022000020260000202A00002024
:100AC0007047000010B50A2001F08EF84FF48051F5
:100AD0000D4800F00CF928B944F2B4610B4800F05D
:100AE00058FE0BE04FF48051074800F000F9012850
:100AF00004D144F60C11054800F04BFE4FF4805031
:100B000000F006F810BD0000000C01400008004095
:100B100001490860704700001404014070B50546A3
:100B20000C462146284602F0EBF801D2204670BD63
:100B300084F000462946304602F0E2F802D284F002
:100B40000040F4E72846F2E72DE9F05F044614F58B
:100B5000FA6F02DC4FF0000936E014F5FA6F14DD8D
:100B6000002C12DA204601F0CAFB05460022184B81
:100B700001F018FC82460022164B01F085F9074669
:100B800001F08EFB0FFA80F91EE0002C16DB41F21B
:100B90007070844212DA204601F0B1FB0746002251
:100BA0000B4B01F0FFFB054600220A4B01F06CF9EC
:100BB000824601F075FB0FFA80F905E041F2707092
:100BC000844201DB4FF47A694846BDE8F09F00009B
:100BD0000000E03F00408F402DE9F0410246002533
:100BE0000026002000230024002791F803C00CF009
:100BF0000F0591F803C00CF0100CBCF1000F03D0EE
:100C000091F802C04CEA050591F800C0BCF1000F54
:100C100031D0146800202BE04FF0010C0CFA00F3E7
:100C2000B1F800C00CEA03069E4220D183004FF0C9
:100C30000F0C0CFA03F7BC4305FA03FC4CEA04045E
:100C400091F803C0BCF1280F06D14FF0010C0CFA4B
:100C500000FCC2F814C00AE091F803C0BCF1480FD0
:100C600005D14FF0010C0CFA00FCC2F810C0401C7A
:100C70000828D1D31460B1F800C0BCF1FF0F34DDF7
:100C8000546800202EE000F1080C4FF0010808FA2B
:100C90000CF3B1F800C00CEA03069E4221D1830098
:100CA0004FF00F0C0CFA03F7BC4305FA03FC4CEAB7
:100CB000040491F803C0BCF1280F05D100F1080C21
:100CC00008FA0CF8C2F8148091F803C0BCF1480F80
:100CD00007D100F1080C4FF0010808FA0CF8C2F82F
:100CE0001080401C0828CED35460BDE8F081024635
:100CF000002093680B400BB1012000E000207047FA
:100D00000161704700BFFEE708B50121142000F023
:100D1000DBF94FF40050ADF8000048208DF80300D7
:100D200003208DF8020069460848FFF755FF0120AF
:100D3000ADF8000048208DF8030003208DF8020074
:100D400069460348FFF748FF08BD00000010014056
:100D50000008014010B5044614B101201A4908707A
:100D600019480078F8B101211848FFF7C0FF28B1F1
:100D70004FF400511648FFF7BAFFA0B90A2000F05F
:100D800033FF00201049087001211048FFF7AFFF22
:100D900008B9012010BD4FF400510D48FFF7A7FF1F
:100DA00078B90220F6E701210848FFF7A0FF0128E3
:100DB00007D141030648FFF79AFF012801D10249F4
:100DC00008700020E6E70000150000200008014040
:100DD0000010014008B50121082000F075F94FF41A
:100DE0007040ADF8000010208DF8030003208DF84E
:100DF000020069460B48FFF7EFFE4FF480510948A7
:100E0000FFF77EFF4FF400510648FFF779FF4FF4DC
:100E100080410448FFF774FF4FF400410148FFF799
:100E20006FFF08BD000C01402DE9F05F0446E0684B
:100E300001F0D6FC07463A460B461F481F4901F011
:100E4000D7F8054600F0EEFF81464846216901F0DB
:100E50008BFE06464FF07E5101F0EEFC054629461A
:100E60004FF07E5001F056FD82464846216901F060
:100E70007BFE07464FF07E5101F0DEFC05464846FA
:100E8000216901F071FE0646294601F043FD8346C3
:100E90005846616801F068FE05465046216801F039
:100EA00063FE0646294601F0C7FCA060A0686060AA
:100EB000A068BDE8F09F0000684F9E73305FC43F9C
:100EC00000210160416081600249C1600249016105
:100ED000704700000000F04100007A443548B0F946
:100EE00000000A282BDA3348B0F9000010F10A0F8D
:100EF00025DD31483149C86031480861002048612A
:100F0000C86130484862304888623048C86230481A
:100F100048632C48C8632F482F49C86000200861E7
:100F20002E4848610020C8612D48486228488862E0
:100F30002C48C862264848632B48C86339E01D48DE
:100F4000B0F9000010F10A0F29DA00201B4988804F
:100F50001948C8601A48086100204861C8611948EA
:100F60004862224888620020C862214848631548C8
:100F7000C8630020184988801648C86000200861AE
:100F8000164848610020C8611548486210488862C8
:100F90001448C862174848631348C86309E0002032
:100FA0000649C8610C49C8610648044948630A49B2
:100FB0004863704722000020CDCC4C3F3000002019
:100FC0000AD7A33D0080BB4500007A450000C84316
:100FD00000803B4500002041740000200000A0403C
:100FE00000606A4600401C460000FA450000C84404
:100FF0000000484500007A4400BFFEE7704700004B
:1010000070B5002100230F22C47804B3154C246866
:1010100004F4E064C4F5E064210AC1F10403CA40A9
:10102000447804FA03F184781440214309010E4CFA
:101030000678A155047804F01F050124AC4005781A
:101040006D11AD0005F1E025C5F8004109E0047817
:1010500004F01F050124AC40044D0678761145F8D4
:10106000264070BD0CED00E000E400E080E100E00F
:1010700002490143024A1160704700000000FA056E
:101080000CED00E07047000029B1064AD269024326
:10109000044BDA6104E0034AD2698243014BDA610E
:1010A000704700000010024029B1064A126902434D
:1010B000044B1A6104E0034A12698243014B1A612E
:1010C000704700000010024029B1064A92690243AD
:1010D000044B9A6104E0034A92698243014B9A618E
:1010E000704700000010024030B5002100220024AB
:1010F00000232D4D6D6805F00C0121B1042905D0A8
:10110000082923D105E0294D056022E0274D05601F
:101110001FE0254D6D6805F47012234D6D6805F4D0
:101120008034022505EB92421CB9214D55430560E0
:101130000BE01D4D6D6805F400351DB11C4D554388
:10114000056002E0194D5543056002E0174D05604A
:1011500000BF00BF144D6D6805F0F0010909154D81
:101160006B5C0568DD4045600F4D6D6805F4E0611E
:10117000090A104D6B5C4568DD4085600A4D6D685D
:1011800005F46051C90A0B4D6B5C4568DD40C560D4
:10119000054D6D6805F44041890B074D6B5CC568D2
:1011A000B5FBF3F5056130BD0010024000127A0076
:1011B00000093D00C6000020D60000202DE9F047C0
:1011C00005460C4617462E46A5420EDA304601F07B
:1011D0007FFC8146394601F02FFB804601F05CFC24
:1011E00006B2A64213DD264611E0A5420EDD3046CA
:1011F00001F06EFC8146394601F0B4FD804601F0F5
:101200004BFC06B2A64202DA264600E026463046ED
:10121000BDE8F0872DE9F04F87B08246BAF9081093
:10122000BAF90000DAF83C20FFF7C8FFAAF800007E
:101230009748B0F90000AAF80200BAF80000BAF81E
:101240000210401A01B2AAF80610BAF906000028E6
:1012500002DDBAF9060002E0BAF90600404232287F
:1012600002DA0021AAF80610BAF9060001F030FCF3
:101270000446DAF80C1001F077FCCAF81800DAF826
:101280002410DAF81800FFF749FCCAF81800DAF859
:10129000340001F0A5FA80467E4A7F4B01F082F8C7
:1012A00004460D46DAF8380001F09AFA064622465E
:1012B0002B4601F075F934D8BAF9060000282FDA68
:1012C000BAF9040001F004FC0190DAF8101001F002
:1012D0004BFC0390BAF9060001F0FAFB0190DAF832
:1012E000101001F041FC0290039901F0A5FA834629
:1012F00001F076FA064600224FF0804300F078FEB7
:10130000CDE90401DAF81C0001F06AFA8046DDE953
:10131000042300F0B9FD044600F084FDCAF81C0067
:101320007CE0DAF8340001F05BFA8046594A5B4B06
:1013300001F038F804460D46DAF8380001F050FAAA
:10134000064622462B4600F0F1FF35D8BAF90600D2
:10135000002863DDBAF9040001F0BAFB0190DAF865
:10136000101001F001FC8346BAF9060001F0B0FB51
:101370000190DAF8101001F0F7FB5946029001F0E5
:101380005BFA039001F02CFA00224FF08043CDE984
:10139000040100F02DFE04460D46DAF81C0001F0B1
:1013A0001FFA064622462B4600F06EFD804600F0EE
:1013B00039FDCAF81C0031E0BAF9040001F088FBDD
:1013C0000190DAF8101001F0CFFB8146BAF906005F
:1013D00001F07EFB0190DAF8101001F0C5FB8346A6
:1013E000494601F029FA804601F0FAF900224FF04F
:1013F0008043CDE9020100F0FBFD06460F46DAF816
:101400001C0001F0EDF932463B46CDE9040100F045
:101410003BFD044600F006FDCAF81C00DAF828106F
:10142000DAF81C00FFF77AFBCAF81C00BAF90610BC
:10143000BAF90420881A01F04BFB0446DAF81410BC
:1014400001F092FBCAF82000DAF82C10DAF820003C
:10145000FFF764FBCAF82000DAE9060101F0ECF9B5
:101460000446DAF8201001F0E7F9CAF83000DAE9AA
:101470000C01FFF753FBCAF83000BAF80600AAF8CF
:101480000400DAF83000CAF8380007B0BDE8F08F81
:10149000220000209A9999999999E93F9999E9BF71
:1014A000704710B500F002F810BD00000CB5002028
:1014B000019000903348006840F480303149086062
:1014C00000BF3048006800F4003000900198401CD4
:1014D0000190009818B90198B0F5A06FF1D1294892
:1014E000006800F4003010B10120009001E00020FD
:1014F00000900098012843D12348006840F0100074
:10150000214908600846006820F00300086008468A
:10151000006840F0020008601A48406819494860B5
:101520000846406848600846406840F4806048606B
:101530000846406820F47C1048600846406840F443
:10154000E81048600846006840F08070086000BFFE
:101550000C48006800F000700028F9D00948406885
:1015600020F00300074948600846406840F0020048
:10157000486000BF0348406800F00C000828F9D11B
:101580000CBD00000010024000200240042808D1D9
:101590004FF0E021096941F004014FF0E0221161B0
:1015A00007E04FF0E021096921F004014FF0E0224B
:1015B000116170477047000010B51348006840F093
:1015C00001001149086008464068104908400E496A
:1015D0004860084600680E4908400B490860084604
:1015E000006820F4802008600846406820F4FE006F
:1015F00048604FF41F008860FFF753FF4FF0006012
:101600000449086010BD0000001002400000FFF80F
:10161000FFFFF6FE08ED00E010B501212D4800F0B7
:101620009EF8002855D02C48D0E90010491C40F104
:101630000000294AC2E900100121264800F080F884
:101640004FF4FA720023244903C9FEF7E0FD00219C
:101650004A404B401A4307D12048006808B901208E
:1016600000E000201D490860642200231A4903C9D4
:10167000FEF7CDFD00214A404B401A4301D100F056
:10168000FFF904220023144903C9FEF7C0FD00211D
:101690004A404B401A4301D100F0DEFA01220023F8
:1016A0000D4903C9FEF7B3FD00214A404B401A43E0
:1016B00001D100F0BFFA4FF47A720023064903C942
:1016C000FEF7A5FD00214A404B401A4301D1FFF728
:1016D00005FC10BD0004004018000020B08121422C
:1016E0007FB505460C4601210220FFF7CDFCADF881
:1016F0000850ADF804400020ADF80A00ADF806002F
:1017000001A90E4800F048F8012211460B4800F0EC
:1017100037F81D208DF8000000208DF8010003200F
:101720008DF8020001208DF803006846FFF768FC81
:101730000121024800F007F87FBD000000040040CE
:10174000CA430282704721B1028842F0010202803E
:1017500004E002884FF6FE731A400280704730B5ED
:101760000246002000230024158A05EA010395891A
:1017700005EA010413B10CB1012000E0002030BDE6
:101780001AB183890B43838102E083898B43838170
:101790007047818770470000002202881D4B9842E5
:1017A0000ED01D4B98420BD0B0F1804F08D01B4B90
:1017B000984205D01A4B984202D01A4B984204D155
:1017C0004FF68F731A404B881A43174B984207D035
:1017D000164B984204D04FF6FF431A40CB881A4369
:1017E00002808B8883850B8803850A4B98420BD037
:1017F000094B984208D00E4B984205D00D4B9842A9
:1018000002D00D4B984201D10B7A038601238382CB
:1018100070470000002C01400034014000040040EB
:1018200000080040000C0040001000400014004080
:1018300000400140004401400048014010B504460A
:101840002146054800F003F900BF4021024800F09E
:1018500055F80128F9D110BD0038014010B540F20B
:1018600025511D4800F057F810B31B4800F0EAF866
:10187000C4B21A48008800F40040C8B9174800886C
:1018800000F4804060B10A2C03D000201349088086
:1018900020E01248008840F400401049088019E018
:1018A0000D2C06D10D48008840F480400B4908807B
:1018B00010E00A480088C0F30D0009490C5407489D
:1018C0000088401C0549088008460088C72801DDBB
:1018D0000020088010BD000000380140C400002036
:1018E000F000002021B1828942F40052828104E09C
:1018F00082894DF6FF731A408281704702460020AC
:10190000B1F5007F00D100BF13880B400BB101205F
:1019100000E00020704770B5024600240023002537
:10192000002040F66A16B14200D100BFC1F3421553
:1019300001F01F03012606FA03F3012D02D1968957
:10194000334006E0022D02D1168A334001E0968A28
:1019500033400C12012606FA04F41688344013B101
:101960000CB1012000E0002070BD00002DE9F0471F
:1019700086B005460E460024A24600BFA1460027B9
:10198000B08900B100BF2F462C8A4CF6FF7004408E
:10199000F08804432C82AC894EF6F3100440B088E2
:1019A00031890843718908430443AC81AC8A4FF6FE
:1019B000FF400440B0890443AC8201A8FFF794FBC8
:1019C0001F48874202D1DDF810A001E0DDF80CA02D
:1019D000A88900F4004040B10AEBCA0000EB0A10ED
:1019E00031684900B0FBF1F807E00AEBCA0000EBF0
:1019F0000A1031688900B0FBF1F86420B8FBF0F000
:101A000004012009642101FB1089A88900F4004029
:101A100040B1322000EBC900B0FBF1F000F007004C
:101A2000044308E0322000EB09106421B0FBF1F020
:101A300000F00F0004432C8106B0BDE8F0870000E1
:101A40000038014001468888C0F308007047C1F3A0
:101A5000080282807047000010B586B0002401AAF9
:101A600000210448FEF77AFE01A8FFF707F806B048
:101A700010BD00000064004000BFFEE700BF7047DB
:101A800039480078012802D002286AD133E00120C9
:101A9000364908700020364988803648C860364884
:101AA000086100204861C86134484862344888624F
:101AB0003448C862344848633448C8630020344915
:101AC00088802C48C8603348086100204861C8619C
:101AD0002B484862304888622948C8622B48C8634E
:101AE00040F6C410088100202C49086001202C49D0
:101AF000C1F8BC0135E002201C49087000201C49D7
:101B000088801C48C8601C48086100204861C86182
:101B10001A4848621A4888621A48C8621A484863D4
:101B20001A48C86300201A4988801248C8601948BA
:101B3000086100204861C8611148486216488862FF
:101B40000F48C86248631148C86341F27070088149
:101B5000002012490831086001201149C1F8B40180
:101B600000BF00BF70470000140000202C000020C0
:101B7000300000200000E0400AD7233D00401C4612
:101B80000000FA450000C84300803B46000048437F
:101B9000740000200AD7A33C00803B45B481214259
:101BA0000080214210B56FF00400FFF7EFFC0A48F7
:101BB00000680A49B0FBF1F009490870084600784E
:101BC00000EB4001C1EBC0104FF6FF7101EAC0000D
:101BD0000449088010BD00000000002000127A00B7
:101BE000BC000020BE0000200146114A12884A4372
:101BF0004FF0E0235A6100229A611A46126942F0BE
:101C000001021A6100BF4FF0E022106900F00102EA
:101C10001AB100F48032002AF5D04FF0E0221269A8
:101C200022F001024FF0E0231A6100229A6170470E
:101C3000BE00002010B50748016C88470549086BB5
:101C400000F02AFF04B200231A4619462046FEF788
:101C500095FB10BD3000002010B50C48007801281D
:101C600009D10B49B1F90200FEF76EFF044600F0FE
:101C70002FFF074948630648016C88470449086BF1
:101C800000F00AFF00B20349088110BD2C000020BB
:101C9000740000203000002088B04FF4A060FFF7EF
:101CA000E7F9FFF77FFF4FF4E13000F049F8FFF765
:101CB0002BF8FFF78FF8FEF757FB1D48FFF700F9E9
:101CC000472140F2E730FFF70BFD2FE00120FFF73F
:101CD00041F8184908701849B1F9000000F0F8FE01
:101CE00000901549B1F9020000F0F2FE019012488F
:101CF000006B02901149B1F9000000F0E9FE039079
:101D00000E49B1F9020000F0E3FE04900B4880692F
:101D100005900A48C06906900848806B079020210A
:101D2000684600F065F80A20FFF75EFFCEE7000086
:101D3000DC0000201400002030000020740000208F
:101D400010B586B00446012144F20400FFF7BCF947
:101D50004FF40070ADF8140003208DF81600182021
:101D60008DF8170005A91948FEF736FF4FF480607B
:101D7000ADF8140004208DF8170005A91348FEF7EC
:101D80002BFF25208DF8000003208DF801008DF831
:101D9000020001208DF803006846FFF731F9019435
:101DA0000020ADF80800ADF80A00ADF80C00ADF861
:101DB00010000C20ADF80E0001A90548FFF7D6FD74
:101DC00001210348FFF78EFD06B010BD0008014059
:101DD0000038014070B505460E46002404E0285D39
:101DE000FFF72CFD601CC4B2B442F8D370BD0000F4
:101DF0007CB504460D4609A00068019008A0006863
:101E00000090022101A8FFF7E5FF29462046FFF7D1
:101E1000E1FF02216846FFF7DDFF7CBD03FC000007
:101E2000FC03000021F00042A2F16052B2F5801FD5
:101E300001F0004328BFD2F17F6C0BD95FEA001C90
:101E400043EAC20242EB507018BF704728BF20F02F
:101E500001007047B2F5801FBCBF184670474FEABB
:101E6000410C1CF5001F02D2084600F044BF70B5BB
:101E700000F042FB00000089FFF7F6BF4FF0004082
:101E8000A0F580007047000010B591EA030F48BF2D
:101E900083F0004300F1C283841A71EB030C05D276
:101EA000121943EB0C03001B61EB0C01DFF824E17A
:101EB0004FEA1154A4EB135C1EEA430F18BF9EEACD
:101EC000445F73D023EA0E03DCF1200E21EA0451B3
:101ED00043F4801332D322FA0CFE10EB0E0023FAE7
:101EE0000CFE41EB0E01CCF1200E03FA0EFE10EBBE
:101EF0000E0051F10001B1F5801FCCF1200E32D25D
:101F000001EB045112FA0EF2BDE8104058BF7047C1
:101F1000401C38BF5FEA420218BF7047002814BF58
:101F200020F0010041F100014FEA410313F5001FC9
:101F300038BF7047A1F1C04100F02CBB012A43EB30
:101F40000302ACF1200CDCF11F0E32BF4FF0000E8B
:101F500023FA0CF310EB030041EB0451B4EB115FD7
:101F6000D0D0A1EB045101F5801149085FEA30009F
:101F700001EB04510ED350F1000038BF12FA0EFEEF
:101F800008D1BDE81040C9E7401C38BF5FEA4202F3
:101F9000CAD1C3E7BDE810404FEA410313F5001F63
:101FA00038BF7047A1F1C04100F0F4BA9EEA445F27
:101FB00008D011EA5E0FBDE8104004BF01F00041F7
:101FC00000207047BDE8104070B500F095FA00BFE2
:101FD00064FBBE3E0000E0FF491058BFC1F1404124
:101FE0005B1058BFC3F140438B42EFF30080704752
:101FF0002DE9C04130B4DFF8A0C23CEA111418BF8B
:102000003CEA131400F0EC8081EA03051CEA111489
:1020100044EAD57418BF1CEA131500F0C780A4EB7E
:1020200005044FF0004545EAC12145EAC32341EAD2
:10203000505143EA525304F17F74994204F500343D
:102040004FEAC0204FEAC22208BF904200F09C80B5
:102050004FEA13650FF24016765D4FEA134506FB13
:1020600005F7C7F1807706FB07F74FEAD737A7FBDD
:1020700003687642C8F58038A7FB06CE38BFA8F1C2
:10208000010807FB08E64FF0000EA6FB028CE6FBFA
:1020900003CEDCF1000CCEF1004E38BFAEF1010EE4
:1020A000A6FB0C584FF000074FF00005E6FB0E872B
:1020B000A1FB08C6A0FB07CE16EB0E0645F10005F6
:1020C000E1FB076515F1E04E7EBFA4F580345FEAC1
:1020D00046066D4116F1800745F100054FEA1727C6
:1020E0004FEA066647EA0567A6F1DE46B6F1805F6D
:1020F0004FEA15251FD9384624F0010C05EBC471B1
:10210000BCF1FE6F01EB0C1102D8F0BCBDE8008100
:1021100024425CBF01F5801E9EEAC47F02D4F0BC5D
:10212000BDE80081244238D4F0BCA1F1C041BDE833
:10213000004100F02FBA4FEAD22242EA43524FEA5E
:10214000D323A7FB02864FEAD02040EA415007FB89
:1021500003661EEA0E0F4FEAD12105FB026658BF47
:10216000A6EB0056B6EB00564FEA520E4EEAC37E7F
:1021700018EB0E0E56EB530EBDD518EB02085E4160
:102180007F1C55F10005B6E74FF480154FF00007AE
:102190004FF000064FF00008ADE7F0BC4FF0000034
:1021A00001F1C04101F00041BDE8008111EA0C1FBE
:1021B0000CEA131500D00CE013EA0C1F00F0258088
:1021C0004FF00000F0BC81EA030101F00041BDE8DE
:1021D0000081F0BCBDE8004181EA030100F0DAB9FA
:1021E000F0BCBDE8004170B500F086F9097EFC3E08
:1021F00000F007B881EA03014FF0000001F0004150
:10220000704781EA030100F0C5B9F0BCBDE80041A8
:102210004FF0000021497047FFFDFBF9F7F5F4F29C
:10222000F0EEEDEBE9E8E6E4E3E1E0DEDDDBDAD871
:10223000D7D5D4D3D1D0CFCDCCCBCAC8C7C6C5C4CF
:10224000C2C1C0BFBEBDBCBBBAB9B8B7B6B5B4B3E6
:10225000B2B1B0AFAEADACABAAA9A8A8A7A6A5A4D1
:10226000A3A3A2A1A09F9F9E9D9C9C9B9A99999895
:102270009797969595949393929191908F8F8E8E38
:102280008D8C8C8B8B8A89898888878786858584C5
:1022900084838382828181800000FF070000F87FB1
:1022A0004FEA41034FEA5353A3F58063D3F11E0372
:1022B000C8BFD3F1210C0CDD4FF0004242EAC1222D
:1022C00042EA505232FA03FC8CEAE17CACEBE1705A
:1022D0007047102BC4BF0020704703F5787CBCF119
:1022E000FF3F04D06FF0004282EA2100704770B5D2
:1022F00000F002F94992248000207047F2E710F0C4
:10230000004248BF4042B0FA80F310FA03F10AD00D
:10231000C3F11D0303F580634FEA415002EB035202
:1023200002EBD12170474FF00000704751EA030CD7
:1023300017D41CF5801F58BFBCF5801F00F1068024
:10234000994218BF704708BF9042704707D711F5F0
:10235000801F58BF13F5801F19D4994270478942D6
:1023600070471CF5801F08D5BCF5801FF7D58B4240
:1023700018BF704708BF824270474FF4001C1CEB27
:10238000410F38BF1CEB430F01D28B42704770B531
:1023900000F0B2F8922449004FF000514FF0805302
:1023A000FFF71ABEDFF848C170B51CEA111E1EBF48
:1023B0001CEA13159EEA0C0F95EA0C0F00F06F80D3
:1023C00081EA030423EA4C134EEAD47E21EA4C113D
:1023D00041F4801143F48013AE44A1FB024CA0FBF6
:1023E0000365AEF17F7E361955EB0C05A1FB034C5E
:1023F0004CF10003A0FB021C16EB0C06654153F1E7
:102400000003094218BF46F0010613F4007F0BD108
:102410004FEA03314FEA0530340341EA155140EAEF
:1024200016506FF003020AE04FEAC3214FEAC520BD
:10243000F40241EA555140EA56506FF0020202EBB5
:102440002E4201EB025585EACE710AD05FEA440CB8
:1024500018BF24F0004450F1000041F1000120EACF
:10246000D47040F2FE7C624500D270BDA84214BF19
:102470004FF080444FF04044002E08BF0024BEF1CE
:10248000806FA8BFA1F1C041BDE8704080F282809A
:102490004FF0000001F1C04101F0004170479EEA99
:1024A0000C0F0CEA131518BF95EA0C0F06D04FF06D
:1024B000000081EA030E0EF0004170BD00F01CF830
:1024C0008900013E00F007B800F009B84FEA430C5C
:1024D0005FEA5C5C08D081EA030100F05BB84FEA78
:1024E000410C5FEA5C5CF6D14FF000000149704797
:1024F0000000FF070000F87F0EF1020E2EF0030E21
:102500005EF8046B364205D4012A43EB030515F54A
:10251000001F12D8012841EB010C1CF5001F0CD83C
:102520000ED14FEAD17C15F5001F0CEB4C0C0CF1D1
:10253000020C08BF4CEBD37C04E04FF0080C01E028
:102540004FEAD37C0CEB4C0526FA05F606F007069D
:10255000B6F1040C06D20EEB860CBDE870404CF0D0
:10256000010C6047DFE80CF0090B02024FF000415C
:102570004FF00000A1F5002170BD1946104601285A
:1025800051EB010418BFD4F5001484BF002001F002
:10259000004170BD0808A0F500114FEA31017047F5
:1025A00053EA010C17D41CF5801F58BFBCF5801FDF
:1025B00000F106808B4218BF704708BF8242704707
:1025C00007D713F5801F58BF11F5801F19D48B4210
:1025D00070479B4270471CF5801F08D5BCF5801FD3
:1025E000F7D5994218BF704708BF904270474FF423
:1025F000001C1CEB430F38BF1CEB410F01D299426A
:1026000070470FB40CBC03BCFFF7C1BE10B591EA14
:10261000030F48BF83F000433FF53EAC841A71EBD3
:10262000030C07D212198CF0004C43EB0C03001B77
:1026300061EB0C01DFF8A4E14FEA1154A4EB135C49
:102640001EEA430F18BF9EEA445F00F0B08023EA01
:102650006E03524221EA0451C3EB6E0338BF5B1E86
:10266000DCF1200E25D322FA0CFE10EB0E0043FA0B
:102670000CFE41EB0E01CCF1200E03FA0EFE10EB26
:102680000E0051F10001CCF1200E29D412FA0EF205
:1026900001EB0451BDE8104058BF7047401C1CBFFF
:1026A000B2F1004F704700280CBF491C20F0010018
:1026B000704712EB020E43EB030218BF4FF0010EFE
:1026C0004EEA4202ACF1200CDCF11E0E54D943FA62
:1026D0000CFE10EB0E0051F1FF31CCF11E0ED5D5E2
:1026E0000EF1010E12FA0EFE404141EB010101EB29
:1026F000445C5FEA5C5C10D910EBDE7001EB0451C6
:1027000038BFBEF1004FBDE8104018BF7047002829
:102710000CBF491C20F00100704730D24FEAD42C86
:1027200011F5001124F400641BD0B1FA81F20B3AC8
:10273000A41AA41ED2F12003914030FA03F31943E6
:10274000904001EBCC71002C01EB0451BDE810402E
:10275000A8BF704701F1C0414FF0000001F00041F7
:102760007047B0FA80F310FA03F100D110BDE41AFB
:10277000173C4805C90AE4E701EB045110BD4910B4
:1027800001EB0451BDE810404FEA300002E04FF089
:10279000000170474A0008BF0042F8D0B2F5001FA0
:1027A00028BF704701F000414FF0000070479EEADB
:1027B000445F07D011EA5E0FBDE8104004BF00215E
:1027C00000207047BDE8104070B5FFF795FE00BFD0
:1027D00040DFF63E83F00041104670470000E0FF06
:1027E00043004FEAD30C4FEA3C0C43401FBF400765
:1027F0000CF1605113F0FE4F70471CF0006F03D1D5
:1028000000200CF0004170470CF0004343EA507088
:1028100010B540EACC0000F028FA00BF000000929A
:102820004FEA0001FFF7B6BE4FF000414FF0000045
:10283000A1F500217047000090EA010F48BF81F028
:10284000004100F19682421A3CBF801A89184FEA73
:10285000D0524FF07F4C1CEA410FA2EBD15318BF6E
:102860009CEA026F00F03B804FF0004C4CEA0020E5
:102870004CEA012121FA03FC10EB0C0C1ED202F1F0
:10288000FF325FEA1C2040EBC25038BF70471CF09B
:102890007F0F4FEA400C18BFBCF17F4F38BF704725
:1028A000C3F12003994008BF20F00100BCF17F4F25
:1028B00038BF7047A0F1C04000F01DBA4FEA3C009D
:1028C000000A40EBC25028BF1CF0FF0F4FEA400C3B
:1028D000E6D018BFBCF17F4F38BF7047EAE79CEAEB
:1028E000026F05D010EA5C0F08BF00F0004070478F
:1028F00010B500F0BAF900BF64FBBE3E401058BFEF
:10290000C0F14040491058BFC1F140418142EFF34E
:10291000008070474FF47F0C1CEAD0121EBF1CEAE7
:10292000D11392EA0C0F93EA0C0F00F0858090EA25
:10293000010F48BF42F4807240F4000C41F40000E3
:102940002CF07F4120F07F4000B58142A2EB0302D2
:102950000FF2081CACEB504EC0F100009EF800E0F6
:102960004FEA4E0E00FB0EFC38BF49004FEA2C1C0C
:1029700002F5FA020CFB0EF34FEACE1E4FEA112CC1
:102980004FEAC1210EEB635E42EB22420EFB0CFCD0
:102990004FEA1C5300FB03114FEA112C4FEA01319F
:1029A0000EFB0CFC4FEADC4C00FB0C11C14228BFB3
:1029B00009184CEB03335DF804EB10EB410143EBDA
:1029C000C250B2F57C0F38BF704729D512F0F00F16
:1029D0001CBF00F1C04000F00040704700818283BE
:1029E0008485868788898B8C8D8E8F91929395961E
:1029F00097999A9C9D9FA0A2A3A5A7A8AAACAEB0A8
:102A0000B2B3B5B7B9BCBEC0C2C5C7C9CCCED1D4AC
:102A1000D7D9DCDFE2E6E9ECF0F3F7FAFE000000DC
:102A20004FEA400C0CF1807CBCF17E4F28BF704710
:102A3000B0F1C04000F05FB990EA010F0CEAD11389
:102A400048BF42F48072624538BF634507D213F431
:102A50007F0F16D080EA010000F00040704710B5EB
:102A600000F003F9097EFC3E00F005B880EA0100A1
:102A700000F00040704780EA010000F0004000F0E4
:102A80003AB912F47F0F04BF0248704780EA010090
:102A900000F031B90000C07F41000B0ED3F19E025F
:102AA00008D950F400034FEA032323FA02F048BF89
:102AB0004042704710B500F0D8F800BF499224801A
:102AC000002070476FF0004282EA2000704700004B
:102AD00010F0004148BF4042B0FA80F310FA03F210
:102AE000C3F19D030BD051EAC35101EB12205306F1
:102AF00038BF704700F1010008BF20F001007047A7
:102B000050EA010C00F113801CF5000F58BFBCF512
:102B1000000F01D48842704707D710F5000F58BF47
:102B200011F5000F15D488427047894270471CF593
:102B3000000F04D5BCF5000FF7D5814270474FF068
:102B4000807C1CEB400F38BF1CEB410F01D281424F
:102B5000704710B500F089F8922449004FF00050FA
:102B60004FF08051FFF7CABE4FF47F0C1CEAD01221
:102B70001EBF1CEAD11392EA0C0F93EA0C0F00F06F
:102B8000478090EA010F48BF42F480724FF0004C3A
:102B90004CEA00204CEA012102EB0302A0FB0113E6
:102BA000A2F50002002918BF43F001035B0028BF13
:102BB0004FEA330342EB22425FEA132C4CEBC25044
:102BC0002EBFBCEB436FB2F57C0F70474FEA036C2E
:102BD000BCF1004F08BF20F00100B2F57C0F38BFF8
:102BE00070470BD582F0FF0212F5803FC8BF7047D7
:102BF00000F1C040D8BF00F00040704700F5000C65
:102C00005FEA4C0C48BF7047B0F1C04000F073B8A9
:102C100090EA010F0CEAD11348BF42F4807262457A
:102C200038BF634504D280EA010000F000407047DD
:102C300010B500F01AF800BF8900013E00F007B897
:102C400000F009B85FEA410C5FEA1C6C08D080EA2A
:102C5000010000F050B85FEA400C5FEA1C6CF6D14E
:102C60004FF00040A0F5800070470EF1020E2EF0EC
:102C7000030E5EF8044B244204D44FEA4102B2F141
:102C80007F4F11D84FEA4003B3F17F4F0CD80ED1DC
:102C90004FEAD07CB2F17F4F0CEB4C0C0CF1020CE4
:102CA00008BF4CEBD17C04E04FF0080C01E04FEA88
:102CB000D17C0CEB4C0324FA03F404F00704B4F1C8
:102CC000040C06D20EEB840CBDE810404CF0010C55
:102CD0006047DFE80CF0070802024FF00040A0F563
:102CE000800010BD0846420018BFD2F1807288BF34
:102CF00000F0004010BDFF2141EAD050C0057047F0
:102D000051EA000C00F113801CF5000F58BFBCF510
:102D1000000F01D48142704707D711F5000F58BF4B
:102D200010F5000F15D481427047894270471CF599
:102D3000000F04D5BCF5000FF7D5884270474FF05F
:102D4000807C1CEB410F38BF1CEB400F01D2884246
:102D5000704780EA010081EA000180EA0100FFF784
:102D6000F8BE000090EA010F48BF81F000413FF536
:102D70006AAD421A04D882F00042A0EB020011446E
:102D80004FEAD0524FF07F4C1CEA410FA2EBD153D7
:102D900018BF9CEA026F4AD04FF0004C4CEA00206A
:102DA0004CEA012121FA03FCB0EB0C0C0FD412F019
:102DB000FE0F36D05FEA4C001DD5001240EBC2502A
:102DC00038BF70471CF03F0F18BF70470BE0A2F1EF
:102DD00001025FEA1C2040EBC25038BF70471CF074
:102DE0007F0F18BF7047C3F12003994014BF401EE6
:102DF00020F00100704780084FEA122308BF704797
:102E0000B0FA80FCA2EB0C02CCF1280C60FA0CF0BA
:102E100093EA122F04BF00EBC25070474FEAC37011
:102E20007047130A5FEADC1008BF7047F6E79CEAB8
:102E3000026F04D010EA5C0F08BF0020704710B585
:102E4000FFF713FF40DFF63E81F0004070470000BF
:102E5000702E000800000020DC0000006C0100085B
:102E60004C2F0008DC0000203C070000880100080F
:102E700000A24A0400000000000000000102030458
:102E80000607080900010000000000000000000023
:102E90000000000000000000000000000000000032
:102EA0000000000000000000000000003333333F4A
:102EB0000AD7233D000000000000000000000000D1
:102EC0000000000000401C460000FA450000000021
:102ED0000000000000000000000000000000484367
:102EE000950900080000000000000000000000003C
:102EF0000000E0400AD7A33C0000000000000000F2
:102F000000000000000000000000FA4500803B4582
:102F100000000000000000000000000000000000B1
:102F200000004843151200080000000000000000E7
:102F30000000000000000000000001020304010284
:0C2F40000304060708090204060800004C
:0400000508000131BD
:00000001FF
