:020000040800F2
:10000000C03000209901000893030008F90200089D
:1000100091030008550200088F0500080000000049
:1000200000000000000000000000000001010008C6
:100030005702000800000000450100088104000884
:10004000B3010008B3010008B3010008B3010008C0
:10005000B3010008B3010008B3010008B3010008B0
:10006000B3010008B3010008B3010008B3010008A0
:10007000B3010008B3010008B3010008B301000890
:10008000B3010008B3010008B3010008B301000880
:10009000B3010008B3010008B3010008B301000870
:1000A000B3010008B3010008B3010008B301000860
:1000B000B3010008B3010008B3010008B301000850
:1000C000B3010008B3010008B3010008B301000840
:1000D000B3010008E5040008B3010008B3010008FB
:1000E000B3010008B3010008B3010008DFF80CD029
:1000F00000F09EF800480047E9070008C0300020E3
:10010000224B19680868B0E8F00F80F30988BFF344
:100110006F8F4FF0000080F311884EF00D0E704786
:100120000000000006480068006880F3088862B696
:1001300061B6BFF34F8FBFF36F8F00DF00BF00BF0B
:1001400008ED00E0EFF30980BFF36F8F0F4B1A68E3
:1001500020E9F00F106008B54FF0500080F31188CF
:10016000BFF34F8FBFF36F8F01F06CFB4FF00000B8
:1001700080F31188BDE8084019680868B0E8F00FFE
:1001800080F30988BFF36F8F704700BF2C000020F9
:10019000EFF3058070470000064880470648004797
:1001A000FEE7FEE7FEE7FEE7FEE7FEE7FEE7FEE727
:1001B000FEE7FEE795040008ED00000840EA0103B1
:1001C0009B0703D009E008C9121F08C0042AFAD20D
:1001D00003E011F8013B00F8013B521EF9D27047D1
:1001E000D2B201E000F8012B491EFBD27047002279
:1001F000F6E710B513460A4604461946FFF7F0FF26
:10020000204610BD30B50B460146002020220124B7
:1002100009E021FA02F59D4205D303FA02F5491BD4
:1002200004FA02F52844151EA2F10102F1DC30BDEA
:10023000064C074D06E0E06840F0010394E8070033
:1002400098471034AC42F6D3FFF754FFAC240008B3
:10025000CC240008FEE77047F0B5CC78002204F00B
:100260000F03E40601D58C7823430C784FF00F0C74
:1002700014F0FF0F4FF0010E1BD005680E880EFA28
:1002800002F42640A64210D196000CFA06F725EAA1
:10029000070703FA06F5CE783D43282E02D0482EF4
:1002A00002D002E0446100E00461521C082AE5D358
:1002B00005600A88FF2A1CD94468002202F108065A
:1002C0000EFA06F50E882E40AE420ED196000CFABC
:1002D00006F7BC4303FA06F7CE783C43282E00D13C
:1002E0004561CE78482E00D10561521C082AE5D31D
:1002F0004460F0BD01617047FEE70000054C4FF41B
:10030000FA75D4F8B001C143C4F8B011284601F021
:1003100047F9F6E7008021420025074C01264FF4FB
:100320004877C4F8B451C82001F03AF9C4F8B46170
:10033000384601F035F9F4E70080214238B5012153
:10034000082000F031F84FF47040ADF800001020A4
:100350008DF8030003200D4C8DF8020069462046FD
:10036000FFF77AFFA1142046FFF7C4FF611420466F
:10037000FFF7C0FF4FF480412046FFF7BBFF4FF46B
:1003800000412046FFF7B6FF38BD0000000C0140D9
:10039000FEE77047024908430249086070470000C1
:1003A0000000FA050CED00E0044A0029916901D033
:1003B000014300E08143916170470000001002405A
:1003C0000CB50022264800920192016841F4803168
:1003D00001604FF4A063016801F4003101910099BC
:1003E000491C0091019911B900999942F3D1016812
:1003F000890333D5012101911A490A6842F010029C
:100400000A600A6822F003020A600A6842F00202E7
:100410000A604168416041684160416841F480611F
:100420004160416821F47C114160416841F4E81168
:100430004160016841F08071016001688901FCD56B
:10044000416821F003014160416841F002014160CF
:100450004168C1F381010229FAD10CBD01920CBDA2
:1004600000100240002002404FF0E02104280869FB
:1004700003D020F004000861704740F00400FAE760
:1004800010B501F0AFFD012803D0BDE8104001F028
:1004900091BA10BD0F4810B5016841F0010101602B
:1004A00041680D4A1140416001680C4A11400160E9
:1004B000016821F480210160416821F4FE0141605E
:1004C0004FF41F018160FFF77BFF05494FF000608B
:1004D000086010BD001002400000FFF8FFFFF6FEAC
:1004E00008ED00E070B5154C40F22551204600F0B3
:1004F0002BF800280ED0204600F045F8104AC1B273
:100500001088030406D444044FF0000306D50A29DA
:1005100001D0138070BD40F400400DE00D2909D0DA
:10052000C0F30D04074D401C80B229551080C72828
:10053000EFD870BD40F48040108070BD003801409D
:1005400024000020AC00002070B501F01F0501263A
:100550000024C1F3421306FA05F2012B0FD0022B3F
:100560000FD0838A4FEA11210088134206FA01F660
:1005700000EA060001D000B10124204670BD838945
:10058000F0E7038AEEE78088C0F308007047FEE7D3
:100590000FB4054B10B503A9044A029800F018F8EF
:1005A00010BC5DF814FB0000D107000828000020F3
:1005B00002E008C8121F08C1002AFAD1704770472C
:1005C000002001E001C1121F002AFBD1704700008A
:1005D0002DE9FF4F8BB09A460F460546002606E0F0
:1005E00025280BD052460D9990476D1C761C287813
:1005F0000028F5D10FB03046BDE8F08F0024A046AA
:100600000122604900E0044315F8013F203B02FA53
:1006100003F00842F7D128782E2817D115F8010FDA
:1006200044F004042A280ED06FF02F022878A0F19D
:10063000300109290AD808EB880102EB410100EBDF
:1006400001086D1CF2E757F8048B6D1C28786928A7
:100650003ED006DC0028CDD063280BD0642804D11E
:1006600036E0732810D075284BD052460D9990472C
:10067000761C85E017F8040B8DF8000000208DF83B
:100680000100E946012003E057F8049B4FF0FF30DA
:1006900061074FF0000401D40AE0641C44450DDA00
:1006A0008442FADB19F804100029F6D106E0641C34
:1006B0008442FCDB19F804100029F8D1264404E038
:1006C00019F8010B52460D999047641EF8D257E075
:1006D00001CF4FF00A0B002802DA40422D2102E040
:1006E000210504D52B218DF82410012103E0E10719
:1006F00005D02021F7E70DF1200908910CE0002139
:10070000F9E701CF4FF00A0BF9E75946FFF77AFDF9
:1007100001F1300209F8012D0028F6D1ADEB0900F6
:1007200000F1200B600701D44FF00108D84502DD2D
:10073000A8EB0B0000E000208046002406E009A89A
:100740005246005D0D999047641C761C08988442BF
:10075000F5DB04E0302052460D999047761CB8F145
:100760000001A8F10108F5DC05E019F8010B52467B
:100770000D999047761CBBF10001ABF1010BF4DC45
:100780006D1C34E70928010010B50420FFF76CFE4A
:100790000C480D490D4A0068B0FBF1F3B0FBF1F1D4
:1007A0004FF47A7041431370012050804FF0E020E5
:1007B000026942F0020202614161016941F00101F6
:1007C000016110BD0C00002040420F0020000020FD
:1007D00004490A885206FCD5024AC1B2121D118092
:1007E00070470000003801401CB54FF44070FFF71F
:1007F000D1FDFFF7C9FFFFF7A1FD07490120CDE9B2
:1008000000010023802205A1074801F0BFFB00F092
:10081000C9FF00201CBD000000000020737461723D
:10082000745F7461736B0000111200082DE9F041D0
:10083000184E0F460446F5683068001D00F020FD94
:1008400038B9306890F82C10012088403169814314
:100850003161601C07D137B13168BDE8F0410E4805
:10086000091D00F046BD30682C44AC42446031683C
:1008700005D2F06BBDE8F041091D00F022BDB06B60
:10088000091D00F01EFDB06A844200D2B462BDE8CA
:10089000F08100002C000020840400202DE9F041AC
:1008A000054600F033FD2D4EB068401CB060306846
:1008B0002B4F10B1706930B32BE03560B068012860
:1008C00027D1002404EB840007EB800000F0EBFC50
:1008D000641C202CF6D3234800F0E5FC214814309A
:1008E00000F0E1FC1F48283000F0DDFC1D483C30E2
:1008F00000F0D9FC1B48503000F0D5FC1948B0631B
:100900001430F06305E03068E96AC06A884200D8B4
:100910003560706A0121401C70626864E86A32695F
:1009200081401143316100EB800007EB8000291DFD
:1009300000F0DFFC00F026FD706900280CD0306864
:10094000E96AC06A884207D207494FF080500860C0
:10095000BFF34F8FBFF36F8FBDE8F0812C000020F5
:10096000B40100203404002004ED00E010B500F0D4
:10097000CDFC0E4C2068A0B90D4800F094FC0C484A
:10098000143000F090FC0A48E0601430206100222E
:100990001021052001F024F8206010B105A100F01D
:1009A000CBFDBDE8104000F0EDBC00006C00002065
:1009B00098040020546D72510000000030B4026CA5
:1009C0000B46002A0BD0C1681144C1608468A14263
:1009D00001D30168C16030BC1846FFF7EFBB30BCE3
:1009E00070472DE9F041856B174604460026026CDE
:1009F00082B1C7B1E068FFF7E1FBE168206C091A3A
:100A0000E1602268914202D2A168081AE060022FD8
:100A100016D017E02068A8B9A06801F06DFB064663
:100A20000020A0600EE06068FFF7C8FB216C6068E2
:100A300008446060A168884204D32068606001E0D7
:100A400005B16D1E6D1CA5633046BDE8F08110B583
:100A50000446006B00F0C8FC2046BDE8104000F0E2
:100A6000C3BC000010484FF42051420706D0C01DFF
:100A70000D4920F00700411AC1F520510B4A00230F
:100A80000144C2E900030839183A21F00701116056
:100A90004B600B600B1AC0E9001393604FF00040ED
:100AA0005360506170470000C0040020980000208F
:100AB000134E144DA6F52F774FF08058DFF848906D
:100AC00011E000F023FCF068C468201D00F0D8FBA2
:100AD000A868401EA8606868401E686000F052FC6C
:100AE0002046FFF7B4FF68680028EAD1386801287B
:100AF000F9D9C9F80080BFF34F8FBFF36F8FF2E7CA
:100B0000700400202C00002004ED00E02DE9F05FCF
:100B1000DDE90B940E461746834691009A460A9DDE
:100B2000A522206BFFF75CFB6FF00301206B01EB4C
:100B30008701084420F00707780705D040F25E32AD
:100B40001CA121A0FFF724FD4FF0000866B1002092
:100B50002218315C82F83410315C11B1401C10282D
:100B6000F6D384F8438001E084F83480202D00D34C
:100B70001F25E562C4E91358201D00F09FFB04F116
:100B8000180000F09BFB2461C5F120006462A061A5
:100B9000C4F8548084F8588052465946384600F0CC
:100BA00025FB2060B9F1000F01D0C9F80040BDE875
:100BB000F09F00002E2E5C4672656552544F535CC8
:100BC0007461736B732E63004572726F723A257392
:100BD0002C25640D0A00000030B5114900E01146D3
:100BE0000A688242FBD34B685C18844203D1406898
:100BF00018444860084643681C18944209D1084CC0
:100C0000183C2468A24209D052681A4442600A681B
:100C100012680260814200D0086030BD0460F9E7CC
:100C20009800002070B5002441600B4D0061914296
:100C300006D8D11A8269914206D2011D286907E0BF
:100C40009A4203D2994201D3012403E0011DE868CE
:100C500000F037FB204670BD6C00002010B5044644
:100C600000F054FBA06B20B1002400F08BFB204669
:100C700010BD0124F9E70000F1B500980026846C4E
:100C80002CB940F69A3219A11DA0FFF781FCA06B88
:100C9000E16B884205D340F69B3214A118A0FFF700
:100CA00077FCA06BE16B88421ED294F9455000227C
:100CB00069462046FFF795FE0646681C02D07F2D48
:100CC00009D00EE0606A78B104F1240001F06AFAFC
:100CD00050B1012608E040F6BB3204A108A0FFF79E
:100CE00057FC6D1C84F845503046F8BD2E2E5C46EE
:100CF00072656552544F535C71756575652E63005E
:100D00004572726F723A25732C25640D0A0000003B
:100D1000F8B5054617480E46C068C068C468201D6F
:100D200000F0AEFA94F82800410718D5A0692B46C8
:100D3000411932462046FFF775FFA0B10020034657
:100D4000014600902A46204601F068FB58B90A493E
:100D50004FF4057201F11800FFF71AFC03E020F0D0
:100D6000010084F82800216A01B02046BDE8F04067
:100D7000084700006C0000208023000870B586B092
:100D80003D4E70E00198002806DADDE90301029A81
:100D900090470198002866DB039C606910B1201D14
:100DA00000F06EFA05A800F0C1F8054601980A287F
:100DB00059D2DFE800F00505052F354C05052F3524
:100DC00094F828002A4640F0010084F82800029890
:100DD000A169034601442046FFF724FF002842D0C2
:100DE000216A2046884794F8280040073BD5002018
:100DF00000900298A169002342181946204601F08C
:100E00000DFB00282FD140F236321CA121A0FFF7A4
:100E1000BFFB28E014F8280F20F00100207022E02A
:100E200094F8280040F0010084F828000298A0619E
:100E300028B940F24F3211A116A0FFF7A9FBA06913
:100E40002B4641191A462046FFF7ECFE0BE094F8BA
:100E50002800810703D4204600F0C6FA03E020F002
:100E6000010084F82800002201A9306800F09AFFF0
:100E7000002887D106B070BD6C0000202E2E5C4685
:100E800072656552544F535C74696D6572732E635D
:100E9000000000004572726F723A25732C25640DB4
:100EA0000A000000F8B50D46064600F0C3FC68468F
:100EB00000F03CF80446009810B101F0BFF9F8BD0D
:100EC0001148ADB101690968D9B10025311B2A4625
:100ED000006800F043FB01F0B1F90028EFD10B49A5
:100EE0004FF080500860BFF34F8FBFF36F8FF8BD96
:100EF000A642EBD801F0A2F921463046FFF708FFE1
:100F0000F8BD0125E2E700006C00002004ED00E0E0
:100F10000548816B096821B1816BC96809688162E4
:100F200070474FF0FF31FAE72C00002070B50546FE
:100F300001F066F8064E0446B068844203D200F021
:100F400009F8012000E0002028602046B46070BD50
:100F50006C000020F8B5194E27E0C068C468056829
:100F6000201D00F08DF9216A2046884794F828005A
:100F700040071AD5A0692844A84206D924616060B8
:100F8000211DF06800F09DF90FE0002003460146A6
:100F900000902A46204601F041FA30B9084940F253
:100FA000A93201F11800FFF7F3FAF068016800298F
:100FB000D3D13169C6E90310F8BD00006C000020F0
:100FC0008023000808484068401C04D0CC2207A1B8
:100FD00011A0FFF7DDFA502080F31188BFF34F8F87
:100FE000BFF36F8FFEE70000A00000202E2E5C46AE
:100FF00072656552544F535C706F727461626C65B8
:101000005C525644535C41524D5F434D335C706FAC
:1010100072742E63000000004572726F723A25737D
:101020002C25640D0A000000084CE068016839B105
:10103000002139B10020FFF735FFFFF79FFEF4E7ED
:101040000121F6E7C0680068F5E700006C000020A9
:101050002DE9F041044600F059F994F9455004F1A6
:1010600024060FE0A06C18B12046FFF705FE04E04F
:10107000606A48B1304601F095F808B100F034FBE1
:101080006D1E6DB2002DEDDC4FF0FF3684F845602B
:1010900000F078F900F03AF994F9445004F110079F
:1010A00009E0206948B1384601F07CF808B100F049
:1010B0001BFB6D1E6DB2002DF3DC84F84460BDE8AF
:1010C000F04100F05FB900002DE9F0410446002630
:1010D00000F0B0FB364F386808B9FFF7C3FC7869F9
:1010E000044258D1002C56D004F10805A54252D92B
:1010F00068070ED005F00700C0F108002844A84298
:1011000049D90546400704D09A222AA133A0FFF707
:101110003FFA002D3FD0786885423CD824491831E9
:101120000846046801E0214604466068A84202D2ED
:1011300020680028F7D13868B84684422BD00E6862
:101140002068086060680836401B10280ED96719AF
:10115000780704D0CD2217A120A0FFF719FA606804
:10116000401B786038466560FFF736FD6168D8F847
:1011700004004246401AC8F80400D8F808309842E3
:1011800000D29060506901430020C4E90001D0689A
:10119000401CC8F80C0001F051F8700705D04FF45E
:1011A000877204A10DA0FFF7F3F93046BDE8F08186
:1011B000800000202E2E5C4672656552544F535CB1
:1011C000706F727461626C655C4D656D4D616E67C8
:1011D0005C686561705F342E630000004572726F59
:1011E000723A25732C25640D0A00000010B5031F08
:1011F0004FF080741C601B1F21F001011960191F42
:10120000024B0B60143940380A6010BDC50F00084E
:101210001CB500F07BF80F490220CDE90001002346
:1012200032220DA1104800F0B1FE0A490320091D29
:10123000CDE90001002332220CA1104800F0A6FEE7
:101240000448001F006800F0E1F9BDE81C4000F010
:1012500099B80000040000206C6564626C75655FDD
:101260007461736B00000000FD0200086C65646728
:101270007265656E5F7461736B000000190300088E
:10128000D0E9013201699A60D0E901235A604A68C5
:10129000824201D182684A60002202610868401ED1
:1012A00008600868704700F108014FF0FF32C0E99C
:1012B0000112C160016100210160704700210161DC
:1012C000704730B50C68621C02D000F1080202E0E1
:1012D000026904E01A4653681D68A542FAD95368AA
:1012E0004B6099608A60516008610168491C016027
:1012F00030BD42684A6093688B6093685960916022
:1013000008610168491C016070470000502080F3AB
:101310001188BFF34F8FBFF36F8F09494868401C96
:10132000486001280AD10748006810F0FF0F05D077
:1013300040F2711204A10FA0FFF72AB97047000014
:10134000A000002004ED00E02E2E5C467265655280
:10135000544F535C706F727461626C655C5256449A
:10136000535C41524D5F434D335C706F72742E631A
:10137000000000004572726F723A25732C25640DCF
:101380000A00000010B5084C606828B94FF4BC7220
:1013900006A111A0FFF7FCF86068401E606001D153
:1013A00080F3118810BD0000A00000202E2E5C46A6
:1013B00072656552544F535C706F727461626C65F4
:1013C0005C525644535C41524D5F434D335C706FE9
:1013D00072742E63000000004572726F723A2573BA
:1013E0002C25640D0A00000070B500282DD0174D83
:1013F000A0F1080460686969084205D14FF4917250
:1014000013A11DA0FFF7C4F8206828B140F22312F1
:101410000FA119A0FFF7BCF860686969084214D0F1
:101420002268002A11D18843606000F003FA6068E6
:101430006968084468602046FFF7CEFB2869401CB5
:101440002861BDE8704000F0F9BE70BD800000204A
:101450002E2E5C4672656552544F535C706F7274E9
:1014600061626C655C4D656D4D616E675C68656160
:10147000705F342E630000004572726F723A2573FC
:101480002C25640D0A0000004FF0E02000210161CE
:10149000816105494FF47A720968B1FBF2F1491E86
:1014A00041610721016170470C00002010B5FEF773
:1014B0006FFE104C10280CD300F1E02090F8F003E0
:1014C0002178884205D240F2B9220BA115A0FFF77E
:1014D0005FF818480068A16800F4E060884207D906
:1014E000BDE8104040F2C92203A10EA0FFF750B89A
:1014F00010BD0000A00000202E2E5C4672656552D3
:10150000544F535C706F727461626C655C525644E8
:10151000535C41524D5F434D335C706F72742E6368
:10152000000000004572726F723A25732C25640D1D
:101530000A0000000CED00E010B5074B002253F844
:1015400032401CB1521C082AF9D310BD43F83210A6
:1015500003EBC201486010BD7401002070B5154650
:101560000E460446FFF7D2FE94F944100020491CB1
:1015700001D184F8440094F94510491C01D184F844
:101580004500FFF7FFFEA06B28B92A46314604F15B
:10159000240000F0D9F82046BDE87040FFF758BDA0
:1015A00010B5040012D00E49496B29B140F23F52E8
:1015B0000CA111A0FEF7ECFF00F03CF90021204641
:1015C000FFF734F900F03AFE002807D10E494FF03A
:1015D00080500860BFF34F8FBFF36F8F10BD0000C6
:1015E0002C0000202E2E5C4672656552544F535CD1
:1015F0007461736B732E63004572726F723A257358
:101600002C25640D0A00000004ED00E070B50446CE
:10161000FFF77CFE234D04B92C68201DFFF730FE38
:1016200058B9E06A204A00EB800152F8211021B934
:1016300001218140286988432861A06A18B104F11A
:101640001800FFF71DFE686A401C68622868844223
:1016500007D1211D1548FFF74CFE6868401C6860E3
:1016600007E0A868401EA8602046FFF7F0F9FFF7E2
:101670004FFCFFF787FE6869002812D02868844273
:101680000FD1686B28B140F2D24209A10DA0FEF73C
:101690007FFF10494FF080500860BFF34F8FBFF3BA
:1016A0006F8F70BD2C000020B4010020700400205A
:1016B0002E2E5C4672656552544F535C7461736B99
:1016C000732E63004572726F723A25732C25640D78
:1016D0000A00000004ED00E002490A6A0260C968DD
:1016E000416070472C00002001490120C86170470B
:1016F0002C00002070B50D46040005D140F61142C3
:1017000007A10CA0FEF744FF0E48016820461831DF
:10171000FFF7D7FD2846BDE870400121FFF786B8E6
:101720002E2E5C4672656552544F535C7461736B28
:10173000732E63004572726F723A25732C25640D07
:101740000A0000002C00002070B514460E4605006B
:1017500005D14FF4446209A10DA0FEF719FF10480E
:10176000016828461831FFF7C4FD0CB14FF0FF3671
:1017700021463046BDE87040FFF758B82E2E5C4633
:1017800072656552544F535C7461736B732E6300C2
:101790004572726F723A25732C25640D0A000000A1
:1017A0002C0000207CB516480025CDE900502B46C2
:1017B000822214A1154800F0E9FB114C2C3C0128B1
:1017C00003D100F0F1FD012802D0401C10D015E03B
:1017D000502080F31188BFF34F8FBFF36F8F4FF00E
:1017E000FF30A06201206061E56000F069F805E06B
:1017F00040F6360206A10BA0FEF7CAFE206B7CBDA8
:101800005800002049444C4500000000B10A00087F
:101810002E2E5C4672656552544F535C7461736B37
:10182000732E63004572726F723A25732C25640D16
:101830000A0000000248416B491C416370470000E8
:101840002C00002070B5134D686B10B10120E861C9
:1018500070BD0020E86128690F4EB0FA80F0C0F139
:101860001F0000EB800456F8240028B940F6F73238
:101870000AA10FA0FEF78CFE06EB840000F108021F
:10188000416849684160914201D149684160C86836
:10189000286070BD2C000020B40100202E2E5C4674
:1018A00072656552544F535C7461736B732E6300A1
:1018B0004572726F723A25732C25640D0A00000080
:1018C0007CB52A4D28780190FF20287028788DF863
:1018D00000009DF800009DF8001000F0F000884224
:1018E00005D040F21D1222A12CA0FEF751FE9DF85A
:1018F00000002E4C00F0500020700720A06006E091
:10190000401EA0609DF8000040008DF800009DF88A
:1019100000000006A068F3D403280ED040F2311274
:1019200013A11EA0FEF734FEA068032805D04FF4D3
:101930009D720FA119A0FEF72BFE207A000200F481
:10194000E060A060019828701948016841F47001B6
:101950000160016841F070410160FFF795FD0020D2
:101960006060FEF7DFFB00207CBD000000E400E0CB
:101970002E2E5C4672656552544F535C706F7274C4
:1019800061626C655C525644535C41524D5F434DFD
:10199000335C706F72742E63000000004572726FCA
:1019A000723A25732C25640D0A000000A000002067
:1019B00020ED00E010B5502080F31188BFF34F8F69
:1019C000BFF36F8F00F022FB18B104494FF0805035
:1019D0000860002080F3118810BD000004ED00E0D5
:1019E0002DE9F04117460E46050005D14FF4C372AC
:1019F00019A11EA0FEF7CCFD05FB06F44EB1B4FB09
:101A0000F6F0A84205D04FF4C77213A117A0FEF755
:101A1000BFFD04F15408A04505D840F291120EA173
:101A200012A0FEF7B5FD4046FFF74EFB04000ED0B6
:101A300004F154006EB12060C4E90F562046012124
:101A400000F01CF884F8507000212046A164BDE825
:101A5000F0812460F0E700002E2E5C46726565522E
:101A6000544F535C71756575652E63004572726FD6
:101A7000723A25732C25640D0A00000070B50D46DE
:101A8000040005D140F20D121CA121A0FEF780FD3B
:101A9000FFF73CFCD4E90F20216802FB0011A16094
:101AA0000021A163216861600A46D4E90F01401E4C
:101AB00000FB0121E16021464FF0FF3001F8440FA7
:101AC000487004F110004DB1FFF7EDFB04F1240064
:101AD000FFF7E9FBFFF756FC012070BD21690029E3
:101AE000F8D000F05FFB0028F4D00D494FF0805093
:101AF0000860BFF34F8FBFF36F8FEBE72E2E5C466E
:101B000072656552544F535C71756575652E63003F
:101B10004572726F723A25732C25640D0A0000001D
:101B200004ED00E02DE9FF4F83B01F468B46040013
:101B30004FF0000605D14FF4437252A156A0FEF7B4
:101B400027FDBBF1000F07D1206C28B140F20D3208
:101B50004CA151A0FEF71CFD022F08D1E06B01281B
:101B600005D040F20E3247A14BA0FEF711FD00F068
:101B700039FA38B9059828B140F2113241A146A08E
:101B8000FEF706FD4FF0000A4FF08058DFF818917D
:101B9000FFF7BCFBA06BE16B884205D3022F03D09B
:101BA000059818B32EB328E0A56B3A46594620464F
:101BB000FEF717FFA16C31B1022F00D185B9204685
:101BC000FFF75AF805E0616A19B104F1240000F04A
:101BD000E9FA28B1C9F80080BFF34F8FBFF36F8FC8
:101BE000FFF7D0FB012007B0BDE8F08FFFF7CAFB7D
:101BF00021E06846FFF770FD0126FFF7C3FBFFF702
:101C000019FEFFF783FB94F94400401C01D184F8CE
:101C100044A094F94500401C01D184F845A0FFF789
:101C2000B1FB05A9684600F065F930B12046FFF721
:101C30000FFA00F003FB0020D5E7FFF767FBA06B6E
:101C4000E16B884201D1012500E00025FFF79AFBF6
:101C500095B104F110000599FFF74CFD2046FFF700
:101C6000F7F900F0EBFA002892D1C9F80080BFF331
:101C70004F8FBFF36F8F8BE72046FFF7E9F900F036
:101C8000DDFA85E72E2E5C4672656552544F535C33
:101C900071756575652E63004572726F723A2573B2
:101CA0002C25640D0A00000004ED00E02DE9F0474A
:101CB0001F4616468A46040005D14FF4787230A1BB
:101CC00034A0FEF765FCBAF1000F07D1206C28B1F3
:101CD00040F2E1322AA12FA0FEF75AFC022F08D1D0
:101CE000E06B012805D040F2E23225A129A0FEF7E1
:101CF0004FFCFFF7DBFB5021EFF3118081F31188DC
:101D0000BFF34F8FBFF36F8F8046A06BE16B8842AC
:101D100006D3022F04D0002088F31188BDE8F08795
:101D200094F94550D4F838903A4651462046FEF78B
:101D300058FE681C02D07F2D16D01BE0A06C012538
:101D400040B1022F02D1B9F1000F16D12046FEF7A3
:101D500093FF05E0606A80B104F1240000F022FAEC
:101D600058B156B1356008E040F26B4204A109A0B9
:101D7000FEF70EFC6D1C84F845500120CCE70000F6
:101D80002E2E5C4672656552544F535C71756575B5
:101D9000652E63004572726F723A25732C25640DAF
:101DA0000A0000002DE9F74783B08A4604004FF08F
:101DB000000605D140F22F5244A149A0FEF7E8FBEE
:101DC000BAF1000F07D1206C28B140F233523FA185
:101DD00043A0FEF7DDFB00F005F938B9059828B1FE
:101DE0004FF4A76239A13EA0FEF7D2FB00274FF0C7
:101DF0008058DFF8FC90FFF789FAA56BC5B1514612
:101E00002046FEF7DBFD6D1EA563206950B104F18D
:101E1000100000F0C7F928B1C9F80080BFF34F8F58
:101E2000BFF36F8FFFF7AEFA012006B0BDE8F08771
:101E3000059808B11EB106E0FFF7A4FA27E068464E
:101E4000FFF74AFC0126FFF79DFAFFF7F3FCFFF7C7
:101E50005DFA94F94400401C01D184F8447094F96F
:101E60004500401C01D184F84570FFF78BFA05A9A5
:101E7000684600F03FF8002820460AD0FFF7E8F84F
:101E800000F0DCF92046FEF7E9FE0028B3D0002080
:101E9000CBE7FEF7E3FE90B104F124000599FFF7CC
:101EA00029FC2046FFF7D4F800F0C8F90028A2D199
:101EB000C9F80080BFF34F8FBFF36F8F9BE72046B9
:101EC000FFF7C6F800F0BAF995E700002E2E5C4641
:101ED00072656552544F535C71756575652E63006C
:101EE0004572726F723A25732C25640D0A0000004A
:101EF00004ED00E02DE9F0410C46050005D140F667
:101F0000EB4218A11CA0FEF743FB2CB940F6EC42B3
:101F100014A119A0FEF73CFBFFF7F8F91A4EF1687F
:101F20006B682268C81A571C0AD02F68D6F820C0E0
:101F30000026674506D08B4204D8012526600BE0B9
:101F4000002509E0824205D9101A20602846FFF7D3
:101F5000C3FBF5E701252660FFF714FA2846BDE824
:101F6000F08100002E2E5C4672656552544F535C22
:101F70007461736B732E63004572726F723A2573CE
:101F80002C25640D0A0000002C0000202DE9FF5FC5
:101F90008346DDE90E87994616468A469000FFF78C
:101FA00093F805001AD05C20FFF78EF8040012D0D9
:101FB00025630021CDE90241CDE900874B46324639
:101FC00051465846FEF7A2FD2046FEF767FC012069
:101FD00004B0BDE8F09F2846FFF706FA4FF0FF3047
:101FE000F6E700000548416919B1406B18B10020BF
:101FF0007047012070470220704700002C0000202D
:102000000148C068704700002C0000202DE9F04115
:102010002E4F0026786B28B1B869401CB861304655
:10202000BDE8F081FD686D1CFD6011D1B86B0068E2
:1020300028B140F6BC2226A12AA0FEF7A9FAB86B67
:10204000F96BB963F863386A401C3862FEF760FFC9
:10205000B86ADFF8A080854209D3B86B0068A0B1E8
:10206000B86BC068C4686068854211D2B8623868CD
:10207000C06A00EB800158F82100012800D9012630
:10208000F8690028CBD00126C9E74FF0FF30EDE713
:10209000201DFFF7F5F8A06A18B104F11800FFF74A
:1020A000EFF8E06A01213A6981401143396100EBA0
:1020B000800108EB8100211DFFF71BF9E06A3968F8
:1020C000C96A8842C9D30126C7E700002C00002056
:1020D0002E2E5C4672656552544F535C7461736B6F
:1020E000732E63004572726F723A25732C25640D4E
:1020F0000A000000B401002070B504004FF0000693
:1021000038D01D4D2868844205D041F23D021BA104
:102110001FA0FEF73DFA206D28B941F23E0217A13B
:102120001BA0FEF735FA206D401E2065E26CE16AC7
:1021300091421FD0F0B9201DFFF7A2F8012130B95C
:1021400094F82C0001FA00F2286990432861E06CB1
:10215000E062C0F12000A061E06A2A698140114379
:1021600029610F4900EB800001EB8000211DFFF782
:10217000C0F80126304670BD2C0000202E2E5C4693
:1021800072656552544F535C7461736B732E6300B8
:102190004572726F723A25732C25640D0A00000097
:1021A000B40100202DE9F041C068C4682CB94FF497
:1021B000476216A11AA0FEF7EBF904F118000746D2
:1021C000FFF75EF81A4D686B012660B13946194871
:1021D000FFF78FF8E06A2968C96A884213D901209D
:1021E000EE61BDE8F081201DFFF74AF8E06A2A6938
:1021F00006FA00F1114329610F4900EB800001EB61
:102200008000211DE4E70020EBE700002E2E5C4655
:1022100072656552544F535C7461736B732E630027
:102220004572726F723A25732C25640D0A00000006
:102230002C0000205C040020B40100202DE9F047B0
:102240002B4D00242746686B28B940F6A90229A126
:102250002DA0FEF79DF9FFF759F8686B401E6863E3
:10226000686BE8BBA8682C490126C8B3A1F52A7998
:102270008846D8F80010E9B1D8F80C00C46804F119
:102280001800FEF7FDFF201DFEF7FAFFE06A2A693D
:1022900006FA00F11143296100EB800109EB81008E
:1022A000211DFFF726F8E06A2968C96A8842E0D351
:1022B000EE61DEE70CB1FEF72BFEAC693CB1FFF737
:1022C000A5FE00B1EE61641EF9D10020A861E869A5
:1022D00030B11249012738070860BFF34F8F00E083
:1022E00001E0BFF36F8FFFF74DF83846BDE8F08788
:1022F0002C0000202E2E5C4672656552544F535CB4
:102300007461736B732E63004572726F723A25733A
:102310002C25640D0A0000005C04002004ED00E0A0
:102320002DE9F0470746994616460D462C20DDF864
:1023300020A0FEF7C9FE04001ED0B84600204F467C
:1023400084F82800D1462DB940F25F120CA112A0EA
:10235000FEF71EF9FEF70AFB04F11801C4F800802D
:1023600081E8A002201DFEF7A9FF2EB194F82800F5
:1023700040F0040184F828102046BDE8F0870000F2
:102380002E2E5C4672656552544F535C74696D65C0
:1023900072732E63000000004572726F723A2573EB
:1023A0002C25640D0A0000001CB50024FEF7DEFA9F
:1023B0000C48006868B10B491F20091DCDE90001D8
:1023C00000234FF4827208A10948FFF7DFFD0400E3
:1023D00005D140F20D1207A10CA0FEF7D9F8204656
:1023E0001CBD00006C000020546D72205376630009
:1023F000291000082E2E5C4672656552544F535CBE
:1024000074696D6572732E63000000004572726F0F
:10241000723A25732C25640D0A0000002DE9FF4750
:10242000DDF830A0994690460D4606004FF00007B3
:1024300005D14FF4C17212A117A0FEF7A9F81A4CEA
:10244000206880B1CDE900580296062D11DAFFF719
:10245000C9FD02284FF0000309D000226946206818
:10246000FFF760FB074604B03846BDE8F0875246E8
:10247000F4E700234A466946FFF718FCF2E700003C
:102480002E2E5C4672656552544F535C74696D65BF
:1024900072732E63000000004572726F723A2573EA
:1024A0002C25640D0A0000006C000020CC240008DC
:1024B00000000020AC000000B005000878250008EE
:1024C000AC00002014300000C0050008000000002F
:1024D000000000000000000000A24A04000000000C
:1024E00000000000010203040607080900000000C4
:1024F00000000000000000000000000000000000DC
:1025000000000000000000000000000000000000CB
:1025100000000000000000000000000000000000BB
:1025200000000000000000001F000000000000008C
:10253000000000000000000000000000000000009B
:10254000000000000000000000000000000000008B
:10255000000000000000000000000000000000007B
:10256000000000000000000000000000000000006B
:08257000AAAAAAAA00000000BB
:04000005080000ED02
:00000001FF
